:100000000C94EE0F0C941F100C941F100C941F10E6
:100010000C941F100C941F100C941F100C941F10A4
:100020000C941F100C941F100C941F100C941F1094
:100030000C941F100C9459840C941F100C941F10D6
:100040000C941F100C94D0B80C941F100C941F101B
:100050000C941F100C941F100C94C37A0C941286ED
:100060000C941F100C94C0460C941F100C941F107D
:100070000C941F100C941F100C941F100C941F1044
:100080000C94469A0C941F100C941F100C941F1083
:100090000C941F100C941F100C941F100C945C8671
:1000A0000C941F100C941F100C94189A0C941F1091
:1000B0000C941F100C941F100C941F100C94EA99B0
:1000C0000C941F100C941F100C941F100C941F10F4
:1000D0000C941F100C941F100C941F100C941F10E4
:1000E0000C941F10237B327B4E7B5D7B777B867B62
:1000F000A07BA47BA67BAA7BB27B7A827D826C826A
:1001000070827682B482818285828B828F82938292
:1001100099829D82A182B482A782AB82AF822E8512
:100120003385388542854C85C58556855E856685CF
:1001300070857A85848593859D85C585A785B185DC
:10014000BB85084AD73B3BCE016E84BCBFFDC12FA7
:100150003D6C74319ABD56833DDA3D00C77F11BEB8
:10016000D9E4BB4C3E916BAAAABE000000803F05BB
:10017000A84CCDB2D44EB93836A9020C50B99186EC
:1001800088083CA6AAAA2ABE000000803F004E4173
:100190004E494E495459494E46CDCCCC3D0AD72301
:1001A0003C17B7D13877CC2B329595E6241FB14F49
:1001B0000A000020410000C84200401C4620BCBE8E
:1001C0004CCA1B0E5AAEC59D742F0053442070724A
:1001D000696E74696E67206279746520004E6F7471
:1001E000205344207072696E74696E67002E00445B
:1001F000656C6574696F6E206661696C65642C203E
:1002000046696C653A200046696C652064656C65DA
:100210007465643A002E006F70656E206661696CCB
:1002200065642C2046696C653A20005049442041A1
:1002300075746F74756E652066696E697368656440
:10024000212050757420746865206C617374204B94
:10025000702C204B6920616E64204B6420636F6EAC
:100260007374616E74732066726F6D2061626F7655
:100270006520696E746F20436F6E66696775726181
:1002800074696F6E2E6800504944204175746F7414
:10029000756E65206661696C6564212074696D65A1
:1002A0006F75740020403A006F6B20543A006F6BFA
:1002B00020423A00504944204175746F74756E6550
:1002C000206661696C6564212054656D706572619A
:1002D0007475726520746F6F206869676800204BC1
:1002E000643A2000204B693A2000204B703A2000ED
:1002F00020436C617373696320504944200020548B
:10030000753A2000204B753A2000206D61783A2024
:1003100000206D696E3A200020643A200020626956
:1003200061733A20002044002049002020204D33F2
:1003300030312050005049442073657474696E67F1
:10034000733A00205A0020590020204D32303620C8
:100350005800486F6D65206F666673657420286D60
:100360006D293A00204500205A0020580020420004
:1003700020540020204D32303520530041647661F6
:100380006E636564207661726961626C65733A20A0
:10039000533D4D696E206665656472617465202801
:1003A0006D6D2F73292C20543D4D696E2074726140
:1003B00076656C20666565647261746520286D6D74
:1003C0002F73292C20423D6D696E696D756D207308
:1003D00065676D656E742074696D6520286D73297D
:1003E0002C20583D6D6178696D756D205859206AD3
:1003F00065726B20286D6D2F73292C20205A3D6D5E
:100400006178696D756D205A206A65726B20286D60
:100410006D2F73292C2020453D6D6178696D756DB8
:100420002045206A65726B20286D6D2F732900208E
:10043000540020204D323034205300416363656CFA
:1004400065726174696F6E3A20533D616363656CD8
:1004500065726174696F6E2C20543D7265747261AF
:10046000637420616363656C65726174696F6E00AB
:10047000204500205A0020590020204D32303120E4
:1004800058004D6178696D756D20416363656C65D9
:10049000726174696F6E20286D6D2F7332293A0076
:1004A000204500205A0020590020204D32303320B2
:1004B00058004D6178696D756D206665656472617F
:1004C00074657320286D6D2F73293A002045002034
:1004D0005A0020590020204D3932205800537465AD
:1004E00070732070657220756E69743A0065636878
:1004F0006F3A002200556E6B6E6F776E20636F6DE2
:100500006D616E643A2022004368616E6765206603
:10051000696C616D656E74005A204F666673657410
:10052000203A20007A5F6D61783A20007A5F6D6929
:100530006E3A20005A204F6666736574005A204F49
:100540006666736574206F6B007A5F6D61783A2020
:10055000007A5F6D696E3A2000795F6D696E3A20AE
:1005600000785F6D696E3A2000205A3A0020593AAF
:100570000020436F756E7420583A200020453A00E1
:10058000205A3A0020593A00583A004649524D57ED
:100590004152455F4E414D453A4D61726C696E2046
:1005A00056313B20537072696E7465722F677262A8
:1005B0006C206D617368757020666F722067656E60
:1005C00036204649524D574152455F55524C3A6884
:1005D000747470733A2F2F6769746875622E636F35
:1005E0006D2F4572696B5A616C6D2F4D61726C692C
:1005F0006E2F2050524F544F434F4C5F564552532D
:10060000494F4E3A312E30204D414348494E455FC7
:10061000545950453A334461746F722045585452CE
:10062000554445525F434F554E543A312055554934
:10063000443A30303030303030302D303030302DA2
:10064000303030302D303030302D303030303030B0
:100650003030303030300A0042656420646F6E659F
:100660002E0020423A0020453A00543A0042656488
:100670002048656174696E672E0048656174696E13
:100680006720646F6E652E0020573A0020453A00BF
:10069000543A0048656174696E672E2E2E00204220
:1006A000403A0020403A00202F003A002054002019
:1006B0002F0020423A00202F006F6B20543A000A8E
:1006C0000A005374616E64617264204465766961E6
:1006D00074696F6E3A20000A004D65616E3A200021
:1006E0000A002020207A3A200000793A2000783A47
:1006F00020003F537065636966696564206E756D9F
:10070000626572206F66206C65677320696E206D6C
:100710006F76656D656E74206E6F7420706C617598
:100720007361626C652E0A003F5370656369666988
:100730006564205920706F736974696F6E206F75DE
:1007400074206F662072616E67652E0A003F5370D9
:1007500065636966696564205820706F73697469A0
:100760006F6E206F7574206F662072616E67652EE4
:100770000A003F5370656369666965642073616D43
:10078000706C652073697A65206E6F7420706C617F
:10079000757361626C652E0A0046756C6C2073750A
:1007A00070706F72742061743A20687474703A2F9C
:1007B0002F33647072696E74626F6172642E636F3E
:1007C0006D2F666F72756D2E7068700A004D34382B
:1007D000205A2D50726F6265205265706561746198
:1007E00062696C69747920746573742E20202056B8
:1007F000657273696F6E20322E30300A003F566585
:1008000072626F7365204C6576656C206E6F742024
:10081000706C61757361626C652E0A002569206DCC
:10082000696E2C2025692073656300456E6420661F
:10083000696C65206C69737400426567696E206637
:10084000696C65206C697374004E6F206D6F7665FE
:100850002E00526573756D696E67207072696E74D3
:10086000005761697420666F7220757365722E2E51
:100870002E000A00205A3A200020593A2000205821
:100880003A200042656400486F6D6520582F59205A
:100890006265666F7265205A00486F6D6520582F3B
:1008A00059206265666F7265205A00536C656570E9
:1008B0002E2E2E0053657474696E67732053746F07
:1008C0007265640053746F72656420736574746933
:1008D0006E6773207265747269657665640048613D
:1008E0007264636F6465642044656661756C74202E
:1008F00053657474696E6773204C6F61646564003E
:100900002200656E717565696E672022004D38346E
:100910000053544F505045442E20005072696E745D
:1009200065722073746F70706564206475652074DF
:100930006F206572726F72732E204669782074681A
:1009400065206572726F7220616E64207573652018
:100950004D39393920746F20726573746172742E49
:10096000202854656D7065726174757265206973B5
:100970002072657365742E2053657420697420613C
:10098000667465722072657374617274696E67292A
:10099000006F6B004E6F204C696E65204E756D6266
:1009A0006572207769746820636865636B73756D21
:1009B0002C204C617374204C696E653A20004E6F98
:1009C00020436865636B73756D2077697468206C6C
:1009D000696E65206E756D6265722C204C61737452
:1009E000204C696E653A2000636865636B73756DB2
:1009F000206D69736D617463682C204C6173742081
:100A00004C696E653A20004C696E65204E756D62CA
:100A10006572206973206E6F74204C617374204C72
:100A2000696E65204E756D6265722B312C204C61AC
:100A30007374204C696E653A20004D313130000AE4
:100A400000207A3A200020793A200020783A2000CD
:100A5000426564002020506C616E6E65724275665E
:100A600066657242797465733A2000204672656546
:100A7000204D656D6F72793A2000417072203235D9
:100A8000203230313700436F6D70696C65643A20F5
:100A90000028334461746F7220476D62482900203A
:100AA0007C20417574686F723A2000417072203268
:100AB0003520323031372031363A30313A30370054
:100AC000204C61737420557064617465643A200031
:100AD000312E32004D61726C696E0020536F667466
:100AE0007761726520526573657400205761746385
:100AF00068646F67205265736574002042726F7777
:100B00006E206F757420526573657400204578748B
:100B100065726E616C20526573657400506F776505
:100B2000725570006563686F3A0073746172740087
:100B30006572726F722077726974696E6720746F64
:100B40002066696C6500656E6473746F70732068ED
:100B500069743A205A00205A3A00656E6473746FC3
:100B60007073206869743A20590020593A00656E04
:100B70006473746F7073206869743A205800205849
:100B80003A00656E6473746F7073206869743A20FC
:100B9000006563686F3A0048656174626564206D42
:100BA000697373696E67004D36303000446F6E654F
:100BB00020736176696E672066696C652E006F6BC5
:100BC000004D3239007C3C3E5E2B3D3F2F5B5D3B50
:100BD0002C2A225C00580059005A0045787472751E
:100BE000646572004578747275646572004D6F7645
:100BF00065205A004D6F76652059004D6F7665204F
:100C0000580050726570617265004D6F76652061A5
:100C100078697300436F6F6C646F776E0050726514
:100C2000686561740054656D706572617475726594
:100C300000473238004175746F20686F6D65004D54
:100C400038340044697361626C6520737465707038
:100C500065727300536574205A206F6666736574FD
:100C6000004368616E6765204E6F7A7A6C65004D4F
:100C700061696E0041626F757400537461746973C9
:100C800074696373004D6F74696F6E004C45442046
:100C90004D656E7500526573746F7265206661698B
:100CA0006C73616665004C6F6164206D656D6F7279
:100CB000790053746F7265206D656D6F7279004DA8
:100CC00061696E004D31353020503130005665720B
:100CD00073696F6E3A20312E3200334461746F7243
:100CE000204D61726C696E004D31353020503700F7
:100CF0005072696E74732066696E6973686564000A
:100D00005072696E74732073746F707065640070D4
:100D100072696E7474696D6500537461746973747B
:100D200069637300473238205A004D353030005A1D
:100D3000204F666673657400473932205A00473386
:100D4000300047323800507265706172696E6720FA
:100D50005A204F6666736574005344206361726461
:100D6000206F6B006F70656E526F6F7420666169E3
:100D70006C656400766F6C756D652E696E697420A4
:100D80006661696C6564004572726F723A00534423
:100D900020696E6974206661696C006563686F3AEA
:100DA000000102102020080810204010204080027E
:100DB00001020108040201010204081020408080A1
:100DC0004020100804020180040201804020100825
:100DD00004020108040201010204081020408001FD
:100DE0000204081020408000002200250028002B6B
:100DF000002E003100340002010000050108010B43
:100E00000105050505070508080808020202020A8F
:100E10000A0808040404040101010101010101039D
:100E200003030303030303040707070C0C0C0C0C58
:100E30000C0C0C0202020206060606060606060B4B
:100E40000B0B0B0B0B0B0B0257726974696E67204F
:100E5000746F2066696C653A20002E006F70656EB5
:100E6000206661696C65642C2046696C653A2000D7
:100E70002E006F70656E206661696C65642C20467B
:100E8000696C653A200046696C652073656C656322
:100E9000746564002053697A653A200046696C6580
:100EA000206F70656E65643A20002E006F70656E6D
:100EB000206661696C65642C2046696C653A200087
:100EC0004E6F772066726573682066696C653A209C
:100ED000004E6F7720646F696E672066696C653AB3
:100EE00020002220706F73002220706172656E7482
:100EF0003A2200535542524F5554494E45204341E2
:100F00004C4C207461726765743A2200747279697E
:100F10006E6720746F2063616C6C207375622D673F
:100F2000636F64652066696C6573207769746820F7
:100F3000746F6F206D616E79206C6576656C732EB1
:100F4000204D4158206C6576656C2069733A004DE0
:100F50003234004D3233202573006175746F25697A
:100F60002E67005344006C6566743A20000120002F
:100F70000120004D383400473238005365747469DD
:100F80006E67730050726570617265004E6F20531A
:100F9000442063617264005072696E742066726FDF
:100FA0006D2053440053746F70207072696E74002A
:100FB000526573756D65207072696E74005061754D
:100FC0007365207072696E740054756E6500496EA9
:100FD000666F2073637265656E0061646A75737411
:100FE000206865696768740061646A757374206855
:100FF0006569676874005370656564005370656562
:1010000064004D363030004368616E676520666964
:101010006C616D656E7400466C6F7700466C6F771F
:101020000046616E2073706565640046616E2073D2
:10103000706565640061646A75737420626564201C
:101040006865696768740042656400426564004EC3
:101050006F7A7A6C65004E6F7A7A6C65004D6169C3
:101060006E0070012C0190012701B0012201C00126
:101070001D01F00118011002130130020E0160027F
:10108000090190020401C002FF000003FA004003BE
:10109000F5008003F000D003EB002004E6007004AC
:1010A000E100E004DC004005D700C005D2004006A6
:1010B000CD00D006C8008007C3003008BE00F0088D
:1010C000B900C009B400B00AAF00B00BAA00D00C40
:1010D000A500000EA000500F9B00C01096005012FB
:1010E000910000148C00C0158700B0178200B01961
:1010F0007D00D01B7800001E730040206E009022FF
:101100006900F024640040275F0090295A00E02B1A
:101110005500102E500020304B0010324600E033B6
:10112000410090353C001037370070383200A0394C
:101130002D00B03A2800A03B2300603C1E00103D6B
:101140001900903D1400103E0F00703E0A00C03E92
:101150000500003F0000202D20496E76616C696417
:10116000206578747275646572206E756D62657243
:101170002021001000C90210012C01400122017041
:10118000011801B0010E01F00104015002FA00B093
:1011900002F0003003E600D003DC009004D20070BF
:1011A00005C800A006BE000008B400B009AA00D01F
:1011B0000BA000600E960060118C000015820020CC
:1011C000197800C01D6E00A0226400B0275A00905C
:1011D0002C500000314600E0343C001038320090C2
:1011E0003A2800603C1E00A03D1400803E0A00200A
:1011F0003F0000544845524D414C2052554E4157F6
:10120000415900546865726D616C2052756E61774A
:1012100061792C2073797374656D2073746F7070AD
:10122000656421204865617465725F49443A200015
:101230004572723A204D415854454D50003A204570
:101240007874727564657220737769746368656415
:10125000206F66662E204D415854454D50207472C3
:10126000696767657265642021004572723A204D96
:10127000494E54454D50003A204578747275646566
:1012800072207377697463686564206F66662E20C8
:101290004D494E54454D50207472696767657265BB
:1012A000642021004572723A204D415854454D50FA
:1012B000204245440054656D7065726174757265B5
:1012C0002068656174656420626564207377697461
:1012D00063686564206F66662E204D415854454D05
:1012E000502074726967676572656420212100452A
:1012F00072726F723A0000002100240027002A0059
:101300002D003000330001010000040107010A0133
:10131000000020002300260029002C002F003200AE
:101320000001000003010601090100000A0B020987
:101330000C0D0E080703040100000000000000006F
:10134000000000000000000000000000000000009D
:10135000000000000000121110000000000000005A
:10136000000000000000000000000000000000007D
:1013700020746F6F206C6F6E672065787472757360
:10138000696F6E2070726576656E746564002063A7
:101390006F6C6420657874727573696F6E207072FB
:1013A0006576656E746564006563686F3A005265C2
:1013B00073656E643A20006F6B004B494C4C45449A
:1013C0002E20005072696E7465722068616C7465BD
:1013D000642E206B696C6C28292063616C6C6564D9
:1013E000210053544F505045442E20005072696ED6
:1013F0007465722073746F70706564206475652005
:10140000746F206572726F72732E20466978207433
:101410006865206572726F7220616E6420757365F5
:10142000204D39393920746F20726573746172747C
:101430002E202854656D706572617475726520691F
:10144000732072657365742E20536574206974204F
:1014500061667465722072657374617274696E6717
:1014600029004572726F723A0000002A430000346E
:101470004300008243000000000000000000000064
:10148000000000000000000000000082430000A0F7
:10149000400000A0400000004000002A430000344B
:1014A0004300008243FFFF012200656E717565698C
:1014B0006E672022004D31313720526561647920FA
:1014C000746F204368616E6765204E6F7A7A6C6531
:1014D000004731205838352046353030300047320B
:1014E00038004D3130392053323030004C45447390
:1014F0002066756C6C206F6E004C454473206675D9
:101500006C6C206F66660076616C756520626C7528
:10151000650076616C756520677265656E00766141
:101520006C756520726564004C4544206272696781
:1015300068746E6573730053657474696E677300C5
:101540004C4544206272696768746E657373004C21
:101550004544206272696768746E657373007661D2
:101560006C7565207265640076616C7565207265C6
:10157000640076616C756520677265656E007661E2
:101580006C756520677265656E0076616C756520A7
:10159000626C75650076616C756520626C756500BE
:1015A0005049442D43005049442D43005049442D97
:1015B00044005049442D44005049442D49005049AD
:1015C000442D49005049442D50005049442D5000AD
:1015D000200220466163740020022046616374008B
:1015E0002002204D6178002002204D617800200209
:1015F000204D696E002002204D696E004F66660026
:101600004F6E20004F6666004F6E200046616E20D0
:1016100073706565640046616E2073706565640073
:1016200042656400426564004E6F7A7A6C65004ED4
:101630006F7A7A6C650053657474696E67730045E0
:1016400073746570732F6D6D004573746570732FBF
:101650006D6D005A73746570732F6D6D005A7374DD
:101660006570732F6D6D005973746570732F6D6D98
:10167000005973746570732F6D6D005873746570C5
:10168000732F6D6D005873746570732F6D6D00410D
:101690002D7265747261637400412D72657472619C
:1016A000637400416D6178206500416D617820654B
:1016B00000416D6178207A00416D6178207A0041A7
:1016C0006D6178207900416D6178207900416D610C
:1016D00078207800416D61782078005654726176E8
:1016E000206D696E005654726176206D696E0056E9
:1016F0006D696E00566D696E00566D6178206500EB
:10170000566D6178206500566D6178207A00566DBF
:101710006178207A00566D6178207900566D617885
:10172000207900566D6178207800566D61782078B8
:101730000056652D6A65726B0056652D6A65726B81
:1017400000567A2D6A65726B00567A2D6A65726B47
:10175000005678792D6A65726B005678792D6A6526
:10176000726B00416363656C00416363656C005A92
:10177000204F6666736574005A204F666673657401
:101780000053657474696E67730024F4D43050C3D9
:101790008E20C2A24017828B7011127A910D816C3B
:1017A000D90AA861E108C7586607615143061E4B74
:1017B0005D05C145A7041A411104093D980371391B
:1017C00031034036DB0265339102D4305402802E5F
:1017D0001D02632CEE01752AC501B028A001102757
:1017E00081018F2564012B244B01E0223401AC21BF
:1017F0001F018D200D01801FFC00841EED00971D30
:10180000DF00B81CD200E61BC600201BBC00641A17
:10181000B200B219A8000A19A0006A189900D117DD
:10182000910040178B00B516840031167E00B31569
:1018300079003A157300C7146F0058146A00EE134C
:1018400066008813630025135E00C7125B006C12EC
:10185000570015125400C111510070114F00211191
:101860004B00D61049008D1047004610440002106E
:101870004200C00F4000800F3E00420F3C00060FA8
:101880003B00CB0E3800930E37005C0E3500270E60
:101890003400F30D3200C10D3100900D3000600DA9
:1018A0002E00320D2D00050D2C00D90C2B00AE0C96
:1018B0002900850C29005C0C2700350C27000E0C34
:1018C0002600E80B2400C40B2400A00B23007D0B92
:1018D00023005A0B2100390B2100180B2000F80AB5
:1018E0001F00D90A1E00BB0A1E009D0A1D00800AA7
:1018F0001D00630A1C00470A1B002C0A1B00110A6A
:101900001A00F7091A00DD091900C4091900AB090A
:101910001900920917007B091800630917004C0988
:10192000160036091600200916000A091500F508E8
:101930001500E0081400CC081400B8081400A4082E
:101940001400900813007D0812006B08130058085B
:101950001200460812003408110023081100120872
:10196000110001081100F0071000E0071000D00777
:101970001000C0071000B0070F00A107100091076A
:101980000E0083070F0074070F0065070E0057074E
:101990000E0049070E003B070D002E070E00200722
:1019A0000D0013070D0006070D00F9060C00ED06EB
:1019B0000D00E0060C00D4060C00C8060C00BC06A6
:1019C0000C00B0060C00A4060B0099060C008D0656
:1019D0000B0082060B0077060B006C060B006106FD
:1019E0000A0057060B004C060A0042060A00380699
:1019F0000A002E060A0024060A001A060A0010062B
:101A0000090007060A00FD050900F4050900EB05B9
:101A10000900E2050900D9050900D0050900C7053C
:101A20000900BE050900B5050800AD050800A505BB
:101A300009009C050800940508008C050800840531
:101A400008007C050800740508006C0507006505A2
:101A500008005D050700560508004E05070047050C
:101A600007004005080038050700310507002A0572
:101A70000700230507001C050600160507000F05D3
:101A800007000805060002050700FB040600F50430
:101A90000700EE040600E8040600E2040700DB0489
:101AA0000600D5040600CF040600C9040600C304DE
:101AB0000600BD040600B7040600B1040500AC042E
:101AC0000600A6040600A00405009B040600950479
:101AD0000500900406008A040500850405008004C2
:101AE00006007A04050075040500700405006B0407
:101AF000050066040500610405005C040500570448
:101B00000500520405004D04050048040500430487
:101B100005003E0404003A040500350405003004C5
:101B200004002C04050027040400230405001E04FF
:101B300004001A04040016040500110404000D0436
:101B40000400090405000404040000040400FC036C
:101B50000400F8030400F4030400F0030400EC03A1
:101B60000400E8030400E4030400E0030400DC03D1
:101B70000400D8030400D4030400D0030400CC0301
:101B80000400C8030300C503030024F404D9201B88
:101B9000C40C5C0E9804C4095F0265077101F4056A
:101BA000F900FB04B30048048700C103690058032F
:101BB000550003034500BE023A008402310053027F
:101BC0002A002902250004022000E4011C00C801AB
:101BD0001900AF011700980114008401130071016E
:101BE00010006101100051010E0043010D0036018B
:101BF0000B002B010B0020010B00150109000C014B
:101C0000090003010800FB000800F3000800EB00D6
:101C10000700E4000600DE000600D8000600D2003F
:101C20000600CC000500C7000500C2000500BD008D
:101C30000400B9000400B5000400B1000400AD00C8
:101C40000400A9000400A5000300A20003009F00F7
:101C500004009B000300980003009500020093001D
:101C60000300900003008D0002008B000300880039
:101C700002008600020084000300810002007F0051
:101C800002007D0002007B00020079000200770064
:101C90000100760002007400020072000100710071
:101CA00002006F0002006D0001006C0002006A007B
:101CB0000100690002006700010066000100650084
:101CC0000100640002006200010061000100600088
:101CD00001005F0002005D0001005C0001005B008C
:101CE00001005A000100590001005800010057008E
:101CF000010056000100550001005400010053008E
:101D0000000053000100520001005100010050008A
:101D100001004F0001004E0000004E0001004D0088
:101D200001004C0001004B0000004B0001004A0084
:101D30000100490001004800000048000100470080
:101D4000010046000000460001004500000045007B
:101D50000100440001004300000043000100420074
:101D6000000042000100410000004100010040006D
:101D700001003F0000003F0001003E0000003E0067
:101D800001003D0000003D0001003C0000003C005F
:101D900000003C0001003B0000003B0001003A0055
:101DA00000003A000100390000003900010038004D
:101DB0000000380000003800010037000000370044
:101DC000010036000000360000003600010035003A
:101DD0000000350000003500010034000000340030
:101DE0000000340001003300000033000000330025
:101DF000010032000000320000003200010031001A
:101E0000000031000000310001003000000030000F
:101E10000000300001002F0000002F0000002F0004
:101E200000002F0001002E0000002E0000002E00F8
:101E300001002D0000002D0000002D0000002D00ED
:101E400001002C0000002C0000002C0000002C00E1
:101E500001002B0000002B0000002B0000002B00D5
:101E600001002A0000002A0000002A0000002A00C9
:101E700001002900000029000000290000002900BD
:101E800000002900010028000000280000002800B0
:101E900000002800000028000100270000002700A3
:101EA0000000270000002700000027000100260096
:101EB000000026000000260000002600000026008A
:101EC000010025000000250000002500000025007D
:101ED000000025000000250001002400000024006F
:101EE0000000240000002400000024000100230062
:101EF0000000230000002300000023000000230056
:101F00000000230000002300010022000000220046
:101F10000000220000002200000022000000220039
:101F2000010021000000210000002100000021002C
:101F3000000021000000210000002100010020001D
:101F40000000200000002000000020000000200011
:101F500000002000000020000000200001001F0001
:101F600000001F0000001F0000001F0000001F00F5
:101F700000001F0000001F0001001E0000001E00E6
:101F800000001E0000001E00000043617264207209
:101F9000656D6F766564004361726420696E736578
:101FA00072746564004D3234004D32332025730065
:101FB00043616E6E6F7420656E7465722073756216
:101FC0006469723A2000052E2E004D61696E004151
:101FD00075746F74656D700086D981DA11241FBE27
:101FE000CFEFD1E2DEBFCDBF00E00CBF15E0A0E037
:101FF000B2E0E4E3FCEC01E00BBF02C007900D92FD
:10200000AE33B107D9F724E1AEE3B5E001C01D92CC
:10201000AF36B207E1F71FE0CDEEDFE000E006C02B
:1020200021970109802FFE010E949CE5CC3ED1073B
:1020300080E00807A9F70E9475D20C9409E60C9479
:1020400000002F923F924F925F926F927F928F92F9
:102050009F92AF92BF92CF92DF92EF92FF920F9337
:102060001F93CF93DF93CDB7DEB7C756D1400FB6DE
:10207000F894DEBF0FBECDBF87E40E940742F82E62
:10208000882311F40C94C2180E942D420E943AE356
:102090006C31710509F486C19CF46230710509F454
:1020A00026C124F477FF3BC00C94483B6330710594
:1020B00009F426C16430710509F42EC10C94483B23
:1020C0006A35710509F4F9C704F56D31710509F434
:1020D000BDC26E31710511F00C94483B0E94C53FA2
:1020E0000E9427820E94F03F80E090E0A1EEB4E4DD
:1020F0008093590290935A02A0935B02B0935C02C2
:102100000E948040E3E8F8E07AC76B35710509F476
:10211000D8C76C35710509F4D9C70C94483B809138
:10212000590D81110C94483B0E943EA787E39EE025
:102130000E94F7A20E9406866093350770933607C7
:1021400080933707909338078090370E9090380E21
:10215000A090390EB0903A0ECE5DDE4F8882998203
:10216000AA82BB82C252D140A50194016091DF0CCA
:102170007091E00C8091E10C9091E20C0E946FDE76
:1021800040903B0E50903C0E60903D0E70903E0E85
:1021900000913F0E1091400E2091410E3091420E61
:1021A000CA5DDE4F088319832A833B83C652D14020
:1021B00081117EC0A30192016091E30C7091E40C47
:1021C0008091E50C9091E60C0E946FDE811170C049
:1021D00020E030E040E752E46091590270915A02E9
:1021E00080915B0290915C020E94D1E24B015C0104
:1021F00085E497E09F938F93E3E4CE2EEEE0DE2E0E
:10220000CA5DDE4FE880F9800A811B81C652D14049
:10221000A3019201CE5DDE4F688179818A819B8125
:10222000C252D1400E94B88C0F900F908091370E0F
:102230009091380EA091390EB0913A0E8093DF0C38
:102240009093E00CA093E10CB093E20C80913B0ED4
:1022500090913C0EA0913D0EB0913E0E8093E30C08
:102260009093E40CA093E50CB093E60C80913F0EA4
:102270009091400EA091410EB091420E8093E70CD8
:102280009093E80CA093E90CB093EA0C8091430E74
:102290009091440EA091450EB091460E8093EB0CA8
:1022A0009093EC0CA093ED0CB093EE0C0C94693F62
:1022B0006091370270913802072E000C880B990B41
:1022C0000E9475DE2091590230915A0240915B02C2
:1022D00050915C020E94A5DA20E030E040E752E431
:1022E0000E94D1E220E030E048EC52E47DCF8091C2
:1022F000590D81110C94483B0E94C3A781E008C08E
:102300008091590D81110C94483B0E94C3A780E035
:102310000E9489A30C94693F8BEA98E00E9425C42F
:1023200080E50E940742882339F00E942D420E94D6
:102330003FE36B017C0103C0C12CD12C760183E506
:102340000E940742882361F00E942D4220E030E085
:102350004AE754E40E94A5DA0E943FE36B017C0146
:102360000E9427820E940686C60ED71EE81EF91E0E
:102370000E9406866093350770933607809337076F
:10238000909338070E9406866C157D058E059F0583
:1023900010F00C94483B0E94857E0E9410A10E9480
:1023A00056C4F0CF0E94FF6B8091590290915A025F
:1023B000A0915B02B0915C0280934205909343052B
:1023C000A0934405B093450580913702909138025F
:1023D000909341058093400584E690E09093380205
:1023E000809337020E940686609335077093360704
:1023F000809337079093380711E010930D02809176
:10240000DF0C9091E00CA091E10CB091E20C809374
:10241000370E9093380EA093390EB0933A0E8091F8
:10242000E30C9091E40CA091E50CB091E60C809344
:102430003B0E90933C0EA0933D0EB0933E0E8091C8
:10244000E70C9091E80CA091E90CB091EA0C809314
:102450003F0E9093400EA093410EB093420E809198
:10246000EB0C9091EC0CA091ED0CB091EE0C8093E4
:10247000430E9093440EA093450EB093460E1092D7
:10248000590210925A0210925B0210925C0288E587
:102490000E940742882311F080E009C089E50E946C
:1024A00007428111F9CF8AE50E9407428127809374
:1024B000030281110C944B3B8AE50E940742811173
:1024C0000C944B3B8091030281110C94513B88E5A5
:1024D0000E94074281110C94513B809103028111AB
:1024E0000C94573B89E50E94074281110C94573B9D
:1024F00088E50E9407428823D1F00E942242672B80
:10250000682B692BA1F00E942D4220912B0E309157
:102510002C0E40912D0E50912E0E0E94F4E16093EE
:10252000DF0C7093E00C8093E10C9093E20C89E552
:102530000E9407428823D1F00E942242672B682B19
:10254000692BA1F00E942D4220912F0E3091300E68
:102550004091310E5091320E0E94F4E16093E30CF1
:102560007093E40C8093E50C9093E60C8AE50E944E
:1025700007428823D1F00E942242672B682B692BE7
:10258000A1F00E942D422091330E3091340E4091E3
:10259000350E5091360E0E94F4E16093E70C709373
:1025A000E80C8093E90C9093EA0C8091030281116E
:1025B0000C945D3B8AE50E94074281110C945D3BBF
:1025C000E090E70CF090E80C0091E90C1091EA0C17
:1025D0002091E30C3091E40C4091E50C5091E60C15
:1025E0006091DF0C7091E00C8091E10C9091E20C15
:1025F0000E94166B10920D02809142059091430546
:10260000A0914405B09145058093590290935A02D8
:10261000A0935B02B0935C028091400590914105CC
:1026200090933802809337020E94068660933507A4
:102630007093360780933707909338071092A4055C
:102640001092A3051092A2050C94483B8091A60518
:10265000882321F08091A705811127C089E998E09E
:102660000E9425C4E4E2FBE08491882341F090912C
:10267000C00095FFFCCF8093C6003196F5CFE7E808
:10268000F8E08491882341F09091C00095FFFCCF41
:102690008093C6003196F5CF8091C00085FFFCCFB6
:1026A0008AE08093C6000C94483B0E9427820E94D7
:1026B000FF6BCE018C5E9E4F0E941FC0CC5EDE4F32
:1026C000688179818A819B81C451D1406093DF0CFC
:1026D0007093E00C8093E10C9093E20CC85EDE4FA7
:1026E000288139814A815B81C851D1402093E30C14
:1026F0003093E40C4093E50C5093E60CC45EDE4F3F
:10270000E880F9800A811B81CC51D140E092E70C2E
:10271000F092E80C0093E90C1093EA0C0E94166BFF
:102720000E94F03F80E090E0A1EEB4E48093590273
:1027300090935A02A0935B02B0935C02E12CF12CBF
:1027400000E711E420E030E0A90160E070E080E201
:1027500091E40E946B414B015C0120E030E040EAD3
:1027600050E46091E70C7091E80C8091E90C909135
:10277000EA0C0E94F4E17B018C0120E030E042E0B1
:1027800053E460E070E08AEA92E40E946B412B011E
:102790003C0120E030E040EA50E46091E70C7091A9
:1027A000E80C8091E90C9091EA0C0E94F4E17B0125
:1027B0008C0120E030E0A90160E070E086E193E464
:1027C0000E946B41CE5DDE4F688379838A839B8351
:1027D000C252D1400E94CB3F0E94FF6B80E090E04C
:1027E000A6E9B2ECC85FDE4F88839983AA83BB83D6
:1027F000C850D140C12CD12C72E0E72E73ECF72EDB
:10280000C45FDE4FC882D982EA82FB82CC50D140BD
:10281000A3019201C501B4010E94F3E1C05FDE4F44
:10282000688379838A839B83C051D140CE01885FBE
:102830009E4F0E94F88880E090E0A2E8B2E4C45085
:10284000DF4F88839983AA83BB83CC5FD040C0507D
:10285000DF4FC882D982EA82FB82C050D140A301F7
:102860009201CE5DDE4F688179818A819B81C2525F
:10287000D1400E94F3E1CC5FDE4F688379838A8385
:102880009B83C450D140CE0184509F4F0E94F88852
:10289000C85FDE4F88809980AA80BB80C850D14035
:1028A000C65DDE4F88829982AA82BB82CA52D1401D
:1028B000C45FDE4F488059806A807B80CC50D14015
:1028C000C05FDE4F88809980AA80BB80C051D14014
:1028D000C450DF4F088119812A813B81CC5FD040F1
:1028E000CA5DDE4F088319832A833B83C652D140D9
:1028F000C050DF4F288139814A815B81C050D1406F
:10290000CE5DDE4F288339834A835B83C252D14038
:10291000CC5FDE4FC880D980EA80FB80C450D140B4
:10292000A7019601C301B2010E94A5DAC25DDE4F84
:10293000688379838A839B83CE52D140CE5DDE4FFC
:10294000288139814A815B81C252D140C501B401DD
:102950000E94A5DA9B01AC01C25DDE4F68817981DE
:102960008A819B81CE52D1400E94F3E1C051DF4F5A
:10297000688379838A839B83C05FD040CA5DDE4FC2
:10298000288139814A815B81C652D140C501B40199
:102990000E94A5DA4B015C01A7019601C65DDE4FDE
:1029A000688179818A819B81CA52D1400E94A5DACF
:1029B0009B01AC01C501B4010E94F3E1CC50DF4F93
:1029C000688379838A839B83C45FD040CE5DDE4F6A
:1029D000288139814A815B81C252D140C65DDE4F78
:1029E000688179818A819B81CA52D1400E94A5DA8F
:1029F0006B017C01CA5DDE4F288139814A815B8190
:102A0000C652D140C301B2010E94A5DA9B01AC01BC
:102A1000C701B6010E94F3E1C850DF4F6883798394
:102A20008A839B83C85FD040CE0180519F4F0E9414
:102A3000F888C051DF4FC880D980EA80FB80C05F32
:102A4000D040CC50DF4F88809980AA80BB80C45F83
:102A5000D040C850DF4F488059806A807B80C85F73
:102A6000D04020E030E0A901C301B2010E9425E47A
:102A7000A301920118160CF05058C850DF4F28835C
:102A800039834A835B83C85FD0401E0164EE260E03
:102A9000311CD101CD92DD92ED92FC921397F101A0
:102AA00084829582A682B78218962D933D934D938A
:102AB0005C931B97C101CC59DE4F2883C456D1408B
:102AC000CB59DE4F3883C556D140CA59DE4F4883B3
:102AD000C656D140C959DE4F5883C756D1400E94CF
:102AE000F888FE01E753FF4FC05EDE4FF983E883AD
:102AF000C052D14080E090E0A0E8BFE3C753DF4F71
:102B000088839983AA83BB83C95CD040C353DF4FBA
:102B1000188219821A821B82CD5CD040C701B6018F
:102B20009058CC59DE4F2881C456D140CB59DE4F46
:102B30003881C556D140CA59DE4F4881C656D1406A
:102B4000C959DE4F5881C756D1400E94D1E2CF52B9
:102B5000DF4F688379838A839B83C15DD040CE0138
:102B600087539F4F0E94F888D1018D909D90AD9022
:102B7000BC901397CE5DDE4F88829982AA82BB8279
:102B8000C252D14014964D905D906D907C901797F5
:102B900018968D909D90AD90BC901B97C753DF4FBA
:102BA000088119812A813B81C95CD040CA5DDE4F12
:102BB000088319832A833B83C652D140C353DF4F16
:102BC000288139814A815B81CD5CD040C65DDE4F72
:102BD000288339834A835B83CA52D140CF52DF4F67
:102BE000C880D980EA80FB80C15DD040A7019601F2
:102BF000C301B2010E94A5DAC25DDE4F688379830A
:102C00008A839B83CE52D140C65DDE4F28813981B5
:102C10004A815B81CA52D140C501B4010E94A5DA44
:102C20009B01AC01C25DDE4F688179818A819B8105
:102C3000CE52D1400E94F3E169837A838B839C83D7
:102C4000CA5DDE4F288139814A815B81C652D140FD
:102C5000C501B4010E94A5DA4B015C01A7019601F0
:102C6000CE5DDE4F688179818A819B81C252D140DD
:102C70000E94A5DA9B01AC01C501B4010E94F3E1F9
:102C80006D837E838F839887C65DDE4F288139816F
:102C90004A815B81CA52D140CE5DDE4F6881798125
:102CA0008A819B81C252D1400E94A5DA6B017C01CE
:102CB000CA5DDE4F288139814A815B81C652D1408D
:102CC000C301B2010E94A5DA9B01AC01C701B601A4
:102CD0000E94F3E169877A878B879C87CE010196F2
:102CE0000E94F888C753DF4F488059806A807B80F4
:102CF000C95CD040C353DF4F88809980AA80BB80D5
:102D0000CD5CD040CF52DF4FC880D980EA80FB80B5
:102D1000C15DD04009811A812B813C818D819E81CA
:102D2000AF81B885CE5DDE4F88839983AA83BB834C
:102D3000C252D14089859A85AB85BC85CA5DDE4F7C
:102D400088839983AA83BB83C652D140D1018D91D8
:102D50009D910D90BC91A02DC65DDE4F8883998317
:102D6000AA83BB83CA52D140F10144815581668157
:102D7000778180859185A285B38540921302509218
:102D800014026092150270921602809217029092BD
:102D90001802A0921902B0921A02C0921B02D0929D
:102DA0001C02E0921D02F0921E0200931F0210937B
:102DB00020022093210230932202CE5DDE4F8880D4
:102DC0009980AA80BB80C252D14080922302909207
:102DD0002402A0922502B0922602CA5DDE4F08812D
:102DE00019812A813B81C652D1400093270210935A
:102DF00028022093290230932A02C65DDE4F888084
:102E00009980AA80BB80CA52D14080922B029092B6
:102E10002C02A0922D02B0922E0240932F025093CA
:102E200030026093310270933202809333029093A8
:102E30003402A0933502B0933602CE0101960E946F
:102E40001FC069817A818B819C816093DF0C7093B4
:102E5000E00C8093E10C9093E20C2D813E814F8138
:102E600058852093E30C3093E40C4093E50C509389
:102E7000E60CE090B30EF090B40E0091B50E1091F8
:102E8000B60EE092E70CF092E80C0093E90C109378
:102E9000EA0C0E94166B0E9427822FB7F89460916B
:102EA000D70C7091D80C8091D90C9091DA0C2FBF6F
:102EB0000E9475DE20911B0D30911C0D40911D0D5F
:102EC00050911E0D0E94D1E26B017C0120E030E0A8
:102ED000A9016091DF0C7091E00C8091E10C909160
:102EE000E20C0E94F4E1D1016D937D938D939C934C
:102EF000139720E030E0A9016091E30C7091E40C9D
:102F00008091E50C9091E60C0E94F4E1C753DF4FED
:102F1000688379838A839B83C95CD0408091E70C66
:102F20009091E80CA091E90CB091EA0C89839A8306
:102F3000AB83BC83E1E0F0E0EC0FFD1FFF93EF9368
:102F4000CF5DDE4FF881C152D140FF93C05EDE4FAE
:102F50008880C052D1408F923F922F920DB71EB7FA
:102F6000045211090FB6F8941EBF0FBE0DBFADB7C6
:102F7000BEB7119684E2E3E1F2E001900D928A95EA
:102F8000E1F70E941388A701960169817A818B81FC
:102F90009C810E94F3E12091E70C3091E80C409174
:102FA000E90C5091EA0C0E94F4E17B018C016093E2
:102FB000E70C7093E80C8093E90C9093EA0C0FB641
:102FC000F894DEBF0FBECDBF2091E30C3091E40C2E
:102FD0004091E50C5091E60C6091DF0C7091E00C93
:102FE0008091E10C9091E20C0E94166B0C94483B8E
:102FF0009091C00095FFFCCF8093C60031968491DC
:103000008111F6CFEEE7F8E08491882341F09091AA
:10301000C00095FFFCCF8093C6003196F5CF60913C
:10302000DF0C7091E00C8091E10C9091E20C42E099
:103030000E94AC63E9E7F8E08491882341F0909125
:10304000C00095FFFCCF8093C6003196F5CF60910C
:10305000E30C7091E40C8091E50C9091E60C42E059
:103060000E94AC63E4E7F8E08491882341F09091FA
:10307000C00095FFFCCF8093C6003196F5CF6091DC
:10308000E70C7091E80C8091E90C9091EA0C42E019
:103090000E94AC63E2E7F8E08491882341F09091CC
:1030A000C00095FFFCCF8093C6003196F5CF0E94FB
:1030B000CB3F0E94BF3F0C94483B1092190E0C94DA
:1030C000483B81E08093190E0C94483B85E40E94B4
:1030D0000742811102C00E94278236E7632E33E047
:1030E000732E4FEDA42E4CE0B42E5BE2852E5EE0F5
:1030F000952ED12CD3018D913D010E94074288234A
:10310000A9F1B3E0DB120AC00E942D42F5016083F1
:103110007183828393830E9462CC28C00E942D42D7
:10312000D4012D913D914D915C910E94F4E1F50106
:103130006083718382839383E090E70CF090E80CC6
:103140000091E90C1091EA0C2091E30C3091E40C11
:103150004091E50C5091E60C6091DF0C7091E00C11
:103160008091E10C9091E20C0E94166BD394F4E0F4
:10317000AF0EB11C04E0800E911C14E0D112BACF46
:103180000C94483B8DE40E940742882311F40C9470
:10319000793A0E942D420E943AE36837710511F492
:1031A0000C94192B0CF0BBC06A32710509F4C1C52F
:1031B0000CF058C06731710509F441C294F56231D1
:1031C000710511F40C941D29F4F477FF02C00C94DE
:1031D000483B623071050CF47AC16131710511F020
:1031E0000C94483B89E498E00E9425C45F988A9833
:1031F0009FB7F894809108018E7F809308019FBF4C
:1032000012980C94483B6531710509F40EC20CF01C
:1032100010C26431710511F00C94483BE9E3F8E009
:10322000BBC16B31710509F449C23CF469317105C8
:1032300009F42CC20CF419C233C26E31710509F4C1
:10324000C3C234F46C31710509F48CC20C94483B50
:103250006F31710509F4EDC46032710509F454C48D
:103260000C94483B6936710511F40C943D262CF5FD
:103270006435710511F40C941D2974F462357105DF
:1032800011F40C94142914F00C941829603371056E
:1032900009F49AC50C94483B6C35710511F40C94F3
:1032A00081296836710511F40C940A26653571057B
:1032B00011F00C94483B0C9466296037710511F4A9
:1032C0000C942A267CF46B36710511F40C940C29AD
:1032D00014F40C94FC286D36710511F40C942A2713
:1032E0000C94483B6337710511F40C941B2A4CF481
:1032F0006237710511F00C94483BE8E8F5E00C9456
:10330000452A6537710511F40C942A2A673771052F
:1033100011F00C94483BE9E9F3E00C94232B623E56
:10332000710511F40C949F2E0CF05AC06E3B710580
:1033300011F40C94F1274CF56839710511F40C94D3
:103340000A2CA4F46C38710511F40C942C266639FF
:10335000710511F40C94C52B6937710511F00C94AB
:10336000483B81E080930D020C94483B6A3971051B
:1033700011F40C943E2C14F40C941A2C6B39710536
:1033800011F40C94AA2C0C94483B6C3C710511F47C
:103390000C94C42D8CF4693C710511F40C94842DAB
:1033A0006B3C710511F40C94A62D683C710511F06D
:1033B0000C94483B0C94DB2C6E3C710511F40C947E
:1033C000462E14F40C94E62D6C3D710511F40C940A
:1033D000642E6D3D710511F40C94752E0C94483BD0
:1033E000623921E0720711F40C943A353CF56E32E3
:1033F00041E0740711F40C94E43084F46C3281E001
:10340000780711F40C94EB2F14F00C941D306831F4
:10341000714011F40C94FE2E0C94483B6039B1E0DD
:103420007B0711F40C94343514F00C9437356F325B
:10343000714011F40C94F9300C94483B673F01E063
:10344000700711F40C94433594F4653F21E0720742
:1034500011F40C943D3514F00C944035643F7140E8
:1034600011F00C94483B0E94B2490C94483B6335E0
:1034700053E0750711F40C941A383CF46835724027
:1034800011F40C94EA380C94483B603AA3E07A07B4
:1034900009F49AC3673E734011F00C94483B1092B4
:1034A000590D109244148091220E9091230EA091F8
:1034B000240EB091250E8093260E9093270EA09394
:1034C000280EB093290E0E941DA80C94483B81E65B
:1034D00098E00E9425C480E50E940742882339F0C5
:1034E0000E942D420E943FE36B017C0103C0C12C6E
:1034F000D12C760183E50E940742882361F00E9467
:103500002D4220E030E04AE754E40E94A5DA0E9410
:103510003FE36B017C010E9427820E940686609334
:103520003507709336078093370790933807C11497
:10353000D104E104F104F1F00E940686C60ED71E04
:10354000E81EF91E0E9406866C157D058E059F05F6
:1035500030F082E598E00E9425C40C94483B8091AD
:10356000A50582FDF6CF0E94857E0E9410A10E94D3
:1035700056C4E8CF8091A50582FDEBCF0E94857EE1
:103580000E9410A10E9456C4F5CF9091C00095FFF3
:10359000FCCF8093C600319684918111F6CF809143
:1035A000C00085FFFCCF8AE08093C6001092C20C59
:1035B0001092C10C40E050E0BA018CE69AE00E9403
:1035C0003D4D8BE1ECE6FAE0DE01159601900D929F
:1035D0008A95E1F780916A0A90916B0A9C838B83AC
:1035E0008AE293E09A838983BE016F5F7F4F82ED09
:1035F00093E00E948CCCCE0101960E94829FEBE268
:10360000F8E08491882341F09091C00095FFFCCFB1
:103610008093C6003196F5CF8091C00085FFFCCF26
:103620008AE08093C6000C94483B0E9444640C944A
:10363000483B10923B0A10923C0A0C94483B009184
:103640003E0510913F050C5F1F4F6AE270E0C80114
:103650000E94D1E5009711F0FC01108241E061E089
:10366000C8010E94FC670C94483B80913C0A882367
:1036700019F081E080933B0A80911002882311F4B5
:103680000C94483B0E94F19F0C94483B80913B0A6C
:10369000882311F40C94483B10923B0A0C94483B4D
:1036A00080913C0A882311F40C94483B83E50E94E6
:1036B000074281110C94793B0C94483B80913C0A61
:1036C000882309F439C0EBECF1E08491882341F0C0
:1036D0009091C00095FFFCCF8093C6003196F5CF46
:1036E0006091BC0C7091BD0C8091BE0C9091BF0C90
:1036F0004AE00E942563E9ECF1E08491882341F0DF
:103700009091C00095FFFCCF8093C6003196F5CF15
:103710006091B40C7091B50C8091B60C9091B70C7F
:103720004AE00E9425638091C00085FFFCCF8AE0BB
:103730008093C6000C94483BEDEDF1E08491882322
:1037400041F09091C00095FFFCCF8093C600319668
:10375000F5CF8091C00085FFFCCF8AE08093C60042
:103760000C94483B80913E0590913F056AE270E0E1
:1037700004960E94D1E58C01892BD9F02091320763
:103780003091330740E6429FC001439F900D1124C2
:103790006EE470E08E549A4F0E94D1E560E270E0D2
:1037A0000E94D1E5019690933F0580933E05D80194
:1037B0001C9280913E0590913F0541E060E00496A7
:1037C0000E94FC670C94483B80913C0A882311F4CA
:1037D0000C94483B87E09CE00E94FA4C87E09CE018
:1037E0000E94764E1092390A10923A0A80913E0554
:1037F00090913F056AE270E004960E94D1E58C0149
:10380000892BD9F0209132073091330740E6429F4F
:10381000C001439F900D11246EE470E08E549A4FC6
:103820000E94D1E560E270E00E94D1E5019690939C
:103830003F0580933E05F801108200913E051091EE
:103840003F0580913C0A882311F40C94483B5801B1
:10385000F4E0AF0EB11C87E09CE00E94764E10921F
:103860003B0A1D8218861C821B828AE293E09A839F
:10387000898388E69AE09093880A8093870AD80122
:1038800014968C918F3209F090C06FE270E0C50100
:103890000E94D1E58C010F5F1F4F2AE0E22EFE014E
:1038A00031964F010115110509F485C06FE270E0F2
:1038B000C8010E94D1E56C01009709F47DC008178A
:1038C000190708F079C03C01601A710AA301B80118
:1038D000CE0187539F4F0E94FAE5E9ECF0E0EC0F30
:1038E000FD1FE60DF71D10828E0107531F4FF801D3
:1038F0008191882339F09091C00095FFFCCF80938F
:10390000C600F6CF8091C00085FFFCCFE092C600D4
:103910006091870A7091880A6115710511F06C5FDA
:103920007F4F21E0AE0147535F4FCE0105960E94C5
:103930006D54811132C0E7E1F2E08491882371F087
:103940009091C00095FFFCCF8093C6003196F5CFD3
:103950009091C00095FFFCCF8093C600D8018D9157
:103960008D018111F5CFE5E1F2E08491882341F0EA
:103970009091C00095FFFCCF8093C6003196F5CFA3
:103980008091C00085FFFCCF8AE08093C600CE0105
:1039900001960E94829F0C94483B9092880A8092E4
:1039A000870A86010F5F1F4F7DCF89E89AE09093C9
:1039B000880A8093870A85016091870A7091880A36
:1039C0006115710511F06C5F7F4FC753DF4F18828F
:1039D000C95CD040C453DF4F1882CC5CD04022E099
:1039E000A801CE0187539F4F0E946D54882359F13F
:1039F000CE0187539F4F0E946A67882321F1CB52E3
:103A0000DF4F688179818A819B81C55DD04041E02B
:103A10000E94B49A8823B9F0C752DF4FE881C95D8C
:103A2000D040B0E2EB9FF0011124E55BF84F3097F6
:103A300051F085EE8083C453DF4F1882CC5CD040B8
:103A40000E94749AF82ECE0187539F4F0E94BB4666
:103A5000FF2041F1E7E0F2E08491882341F090916A
:103A6000C00095FFFCCF8093C6003196F5CFF801DA
:103A70008191882339F09091C00095FFFCCF80930D
:103A8000C600F6CF8091C00085FFFCCF8AE080930E
:103A9000C6001092BC0C1092BD0C1092BE0C10927D
:103AA000BF0C2CC0EFEEF1E08491882341F090919F
:103AB000C00095FFFCCF8093C6003196F5CFF8018A
:103AC0008191882339F09091C00095FFFCCF8093BD
:103AD000C600F6CFEDEEF1E08491882341F090919D
:103AE000C00095FFFCCF8093C6003196F5CF809142
:103AF000C00085FFFCCF8AE08093C600CE0101960E
:103B00000E94829F0C94483B80913B0A81110E9445
:103B1000278200913E0510913F050C5F1F4F6AE21E
:103B200070E0C8010E94D1E57C0161E270E0C8014B
:103B30000E94D1E5009719F08C010F5F1F4FE1142F
:103B4000F10411F0F701108280E50E940742F82E7F
:103B500080913E0590913F050817190708F4F12C54
:103B600080913C0A882311F40C94483B41E04F2596
:103B700061E0C8010E94FC6783E50E940742882338
:103B8000B9F080913E0590913F058017910780F430
:103B90000E942242AB01BC014093BC0C5093BD0C6F
:103BA0006093BE0C7093BF0C87E09CE00E943D4D7B
:103BB00080913C0A882319F081E080933B0AFF2022
:103BC00009F45ACD0C94483B80913E0590913F05F5
:103BD0006AE270E005960E94D1E58C01892BD9F04C
:103BE000209132073091330740E6429FC001439F46
:103BF000900D11246EE470E08E549A4F0E94D1E52E
:103C000060E270E00E94D1E5019690933F058093B9
:103C10003E05D8011C9280913E0590913F0521E020
:103C200020933A0A41E060E005960E94FC670C94FC
:103C3000483B0E9406860091AE051091AF05209189
:103C4000B0053091B105601B710B820B930B28EE10
:103C500033E040E050E00E9496E1CA01B9012CE354
:103C600030E040E050E00E9496E17F936F933F93F5
:103C70002F938CE198E09F938F938E010F5F1F4FDE
:103C80001F930F930E9440DEE4E2FBE094910FB695
:103C9000F894DEBF0FBECDBFE4E2FBE0992349F00C
:103CA0008091C00085FFFCCF9093C600319694911F
:103CB000F5CFF8018191882339F09091C00095FFEC
:103CC000FCCF8093C600F6CF8091C00085FFFCCF6B
:103CD0008AE08093C600C8010E9447C480916F0E9D
:103CE000882311F40C94483B10926F0E0091450705
:103CF00010E0000F111F0C58114FD8016D917C91ED
:103D0000072E000C880B990B0E9475DE209174021F
:103D10003091750240917602509177020E9425E41D
:103D2000181614F00C94483BF801118210820C9480
:103D3000483B83E50E940742882311F40C94483BDA
:103D40000E942D420E943AE3F62EE72E862F9E2DEA
:103D50008C0180E50E940742882331F00F3F110556
:103D600009F010F40C94893B0DE010E0E4E9F2E076
:103D7000819191918017910771F022E0EC3CF2075C
:103D8000B9F70930110549F48F2D9E2D9093710ECE
:103D90008093700E02C00FEF1FEF8091700E0E9493
:103DA000434B17FF02C00C94483B61E0802F0E94F8
:103DB000CB846F2D802F0E94E7836F2D7E2D802F67
:103DC0000E9407850C94483B86E50E9407428111BA
:103DD0000C948F3B86E70E94074281110C948F3B25
:103DE00022242394312C03C021143104D1F0EDECB2
:103DF000F7E08491882341F09091C00095FFFCCFBB
:103E00008093C6003196F5CFE9E9F7E084918823E5
:103E100041F09091C00095FFFCCF8093C600319691
:103E2000F5CF8EE60E9407428823F1F00E942D42D2
:103E30000E943AE3CC5ADE4F79836883C455D1405F
:103E4000645071096F327105B8F0E2E7F7E08491D0
:103E5000882311F40C94483B9091C00095FFFCCF4F
:103E60008093C6003196F3CF4AE050E0CC5ADE4F43
:103E700059834883C455D14080E00E940A82C65CC1
:103E8000DE4F6883CA53D140C25CDE4F7883CE5385
:103E9000D140CE5BDE4F8883C254D140C65BDE4F3B
:103EA0009883CA54D14081E00E940A82C25BDE4FEF
:103EB0006883CE54D140C05BDE4F7883C055D1407B
:103EC000CA5ADE4F8883C655D140C85ADE4F988300
:103ED000C855D14082E00E940A8282E00E940A8294
:103EE0006B017C0183E00E940A82CE5CDE4F688316
:103EF00079838A839B83C253D14085E40E94074221
:103F000081110C94A63B85E60E94074281110C9416
:103F1000A63BCE5ADE4F19821882C255D14088E5A1
:103F20000E94074281112EC088E70E94074281113A
:103F300029C0C65CDE4F5881CA53D140CE5DDE4FEA
:103F40005883C252D140C25CDE4F6881CE53D1400B
:103F5000CA5DDE4F6883C652D140CE5BDE4F88819A
:103F6000C254D140C65DDE4F8883CA52D140C65B81
:103F7000DE4F9881CA54D140C25DDE4F9883CE5245
:103F8000D1403DC00E942D42CE5DDE4F6883C252BB
:103F9000D140CA5DDE4F7883C652D140C65DDE4F48
:103FA0008883CA52D140C25DDE4F9883CE52D14041
:103FB00020E030E0A9010E946FDE87FF02C00C9470
:103FC000B03B20E030E04AE253E4CE5DDE4F688152
:103FD000C252D140CA5DDE4F7881C652D140C65D23
:103FE000DE4F8881CA52D140C25DDE4F9881CE52E9
:103FF000D1400E9425E4181614F40C94B03B89E5D6
:104000000E94074281112EC089E70E940742811158
:1040100029C0C25BDE4FA881CE54D140CA5CDE4FBE
:10402000A883C653D140C05BDE4FB881C055D14094
:10403000C95CDE4FB883C753D140CA5ADE4FE8810E
:10404000C655D140C85CDE4FE883C853D140C85A3A
:10405000DE4FF881C855D140C75CDE4FF883C953A5
:10406000D1403DC00E942D42CA5CDE4F6883C653DA
:10407000D140C95CDE4F7883C753D140C85CDE4F66
:104080008883C853D140C75CDE4F9883C953D14061
:1040900020E030E0A9010E946FDE87FF02C00C948F
:1040A000BE3B20E030E044E353E4CA5CDE4F68816D
:1040B000C653D140C95CDE4F7881C753D140C85C3C
:1040C000DE4F8881C853D140C75CDE4F9881C95309
:1040D000D1400E9425E4181614F40C94BE3B8CE4E5
:1040E0000E94074281110C94CC3B8CE60E9407424F
:1040F00081110C94CC3BCA5BDE4F19821882C654E6
:10410000D14020E030E040E751E4C701B6010E9411
:10411000F4E12B013C010E9427820E94FF6BCE5CE0
:10412000DE4F288139814A815B81C253D140298386
:104130003A834B835C8385E497E09F938F93812C34
:10414000912C00EFA02E01E4B02EAE014F5F5F4F27
:104150006A0183017201C25BDE4F2881CE54D140D7
:10416000C05BDE4F3881C055D140CA5ADE4F48810E
:10417000C655D140C85ADE4F5881C855D140C65C9B
:10418000DE4F6881CA53D140C25CDE4F7881CE5386
:10419000D140CE5BDE4F8881C254D140C65BDE4F3A
:1041A0009881CA54D1400E94B88C0E9427820F90F7
:1041B0000F9053E0251631040CF0FAC0CE5CDE4FB0
:1041C00088819981AA81BB81C253D14089839A8316
:1041D000AB83BC83A5E4B7E0BF93AF93812C912C54
:1041E00018ECA12E12E4B12E8E010F5F1F4F680153
:1041F00083017201CA5CDE4F2881C653D140C95C7D
:10420000DE4F3881C753D140C85CDE4F4881C85368
:10421000D140C75CDE4F5881C953D140CE5DDE4FDF
:104220006881C252D140CA5DDE4F7881C652D1400A
:10423000C65DDE4F8881CA52D140C25DDE4F988193
:10424000CE52D1400E94B88C0E94278280E00E940A
:104250000A826093DF0C7093E00C8093E10C9093E2
:10426000E20C81E00E940A826093E30C7093E40CFC
:104270008093E50C9093E60C82E00E940A826093A2
:10428000E70C7093E80C8093E90C9093EA0C83E0C0
:104290000E940A826B017C016093EB0C7093EC0C22
:1042A0008093ED0C9093EE0C0E94C53F0E94F03F6E
:1042B0000E94804082E00E940A826093E70C709323
:1042C000E80C8093E90C9093EA0C82E00E940A8249
:1042D00020E030E040E751E40E94F4E1CE5BDE4FA5
:1042E000688379838A839B83C254D140C982DA82EE
:1042F000EB82FC82A5E4B7E0BF93AF938E010F5F22
:104300001F4F6801CE5BDE4FE880F9800A811B8178
:10431000C254D140CA5CDE4F2881C653D140C95C2B
:10432000DE4F3881C753D140C85CDE4F4881C85347
:10433000D140C75CDE4F5881C953D140CE5DDE4FBE
:104340006881C252D140CA5DDE4F7881C652D140E9
:10435000C65DDE4F8881CA52D140C25DDE4F988172
:10436000CE52D1400E94B88C0E94278282E00E94E7
:104370000A82C65BDE4F688379838A839B83CA5433
:10438000D1406093E70C7093E80C8093E90C909314
:10439000EA0C0F900F900F900F90CE5ADE4F2881AD
:1043A0003981C255D140232B81F00E94BF3F0DC0FF
:1043B000E2EBF3E08191882309F400CF9091C000F3
:1043C00095FFFCCF8093C600F5CFAE014F5F5F4FE6
:1043D000C05BDE4F59834883C055D14081E090E0F7
:1043E000A0E0B0E0C25CDE4F88839983AA83BB83E0
:1043F000CE53D140CA5BDE4FA881B981C654D140AB
:104400001197C85ADE4FB983A883C855D140CC5AFA
:10441000DE4F88809980C455D140092C000CAA0831
:10442000BB08C45ADE4F88829982AA82BB82CC55CF
:10443000D140C25CDE4F08811981CE53D14001507A
:104440001109C25BDE4F19830883CE54D140CE5B85
:10445000DE4FE880F9800A811B81C254D140CA5CDA
:10446000DE4F2881C653D140C95CDE4F3881C75327
:10447000D140C85CDE4F4881C853D140C75CDE4F95
:104480005881C953D140CE5DDE4F6881C252D140C0
:10449000CA5DDE4F7881C652D140C65DDE4F88814D
:1044A000CA52D140C25DDE4F9881CE52D1400E94A7
:1044B0001C40CA5BDE4F28813981C654D140232B72
:1044C00009F4C0C10E940686AB0141705527CA5A43
:1044D000DE4F59834883C655D1400E9406862AE2A2
:1044E00030E040E050E00E9496E10E9473DE4B0114
:1044F0005C010E94068628E631E040E050E00E9420
:1045000096E10E9473DE22EE3EE245E652E40E940E
:10451000D1E2C65CDE4F688379838A839B83CA536A
:10452000D140C12CD12CC85ADE4F28813981C855C1
:10453000D140C216D3060CF053C1CA5ADE4F88814F
:104540009981C655D1400197E9F40E94068624E17D
:1045500030E040E050E00E9496E10E9473DE22EEDF
:104560003EE245E652E40E94D1E29B01AC01C65C0A
:10457000DE4F688179818A819B81CA53D1400E9434
:10458000F4E11CC00E94068624E130E040E050E0E7
:104590000E9496E10E9473DE22EE3EE245E652E47E
:1045A0000E94D1E29B01AC01C65CDE4F688179813B
:1045B0008A819B81CA53D1400E94F3E1C65CDE4FE1
:1045C000688379838A839B83CA53D1400E9406867D
:1045D0002AE030E040E050E00E9496E16550710929
:1045E000810991090E9475DE9B01AC01C501B401EE
:1045F0000E94F4E14B015C0120E030E0A9010E943F
:104600006FDE87FF04C0B7FAB094B7F8B094C65C09
:10461000DE4F688179818A819B81CA53D1400E9493
:10462000CEE2A50194010E94A5DA9B01AC01CE5D0A
:10463000DE4F6881C252D140CA5DDE4F7881C652DA
:10464000D140C65DDE4F8881CA52D140C25DDE4F87
:104650009881CE52D1400E94F4E12B013C01C65C0E
:10466000DE4F688179818A819B81CA53D1400E9443
:1046700005E5A50194010E94A5DA9B01AC01CA5C85
:10468000DE4F6881C653D140C95CDE4F7881C75385
:10469000D140C85CDE4F8881C853D140C75CDE4F33
:1046A0009881C953D1400E94F4E1CE5CDE4F68830B
:1046B00079838A839B83C253D14020E030E0A901F3
:1046C000C301B2010E946FDE87FD11C020E030E01F
:1046D0004AE253E4C301B2010E9425E4181654F4DF
:1046E000412C512CBAE26B2EB3E47B2E03C0412C3B
:1046F000512C320120E030E0A901CE5CDE4F688110
:1047000079818A819B81C253D1400E946FDE87FDEF
:104710001DC020E030E044E353E4CE5CDE4F68810E
:1047200079818A819B81C253D1400E9425E4181669
:10473000ACF400E010E024E333E4CE5CDE4F088309
:1047400019832A833B83C253D14008C0CE5CDE4F1D
:10475000188219821A821B82C253D14014E021169A
:10476000310431F5B301A2018EEE96E00E94994624
:10477000CE5CDE4F488159816A817B81C253D14032
:104780008AEE96E00E949946E9EEF6E0849188234D
:1047900041F09091C00095FFFCCF8093C600319608
:1047A000F5CF8091C00085FFFCCFFAE0F093C60002
:1047B000C65BDE4FE880F9800A811B81CA54D14074
:1047C000CE5CDE4F288139814A815B81C253D14062
:1047D000C301B2010E941C400FEFC01AD00AA3CE41
:1047E000CE5BDE4FE880F9800A811B81C254D14044
:1047F000CA5CDE4F2881C653D140C95CDE4F388188
:10480000C753D140C85CDE4F4881C853D140C75C14
:10481000DE4F5881C953D140CE5DDE4F6881C25210
:10482000D140CA5DDE4F7881C652D140C65DDE4FB1
:104830008881CA52D140C25DDE4F9881CE52D140AC
:104840000E941C40CE5ADE4F48815981C255D1404A
:10485000452B41F00E94C53F68EE73E080E090E098
:104860000E94CE850E94F03F0E9480408091E70C1C
:104870009091E80CA091E90CB091EA0CC05BDE4F7E
:10488000E881F981C055D14081939193A193B1936F
:10489000C05BDE4FF983E883C055D1408E010F5FC6
:1048A0001F4F580100E010E0C12CD12C7601D5013A
:1048B0002D913D914D915D915D01C701B6010E9421
:1048C000F4E16B017C010F5F1F4FC25BDE4F8880FC
:1048D0009980CE54D140801691064CF7C25CDE4FD1
:1048E000A880B980CE53D140B501BB0C880B990B81
:1048F0000E9475DE4B015C019B01AC01C701B60152
:104900000E94D1E2CE5CDE4F688379838A839B83E9
:10491000C253D1408E010F5F1F4F380100E010E0FD
:10492000C12CD12C7601D3016D917D918D919D91FA
:104930003D01CE5CDE4F288139814A815B81C253C3
:10494000D1400E94F3E19B01AC010E94A5DA9B01DA
:10495000AC01C701B6010E94F4E16B017C010F5F5D
:104960001F4FC25BDE4FE881F981CE54D140E01782
:10497000F107CCF6A50194010E94D1E20E9410E556
:104980002B013C01F2E02F1631040CF466C0C25C2E
:10499000DE4F688179818A819B81CE53D1400E940C
:1049A0009A63E3EDF3E08191882339F09091C000A0
:1049B00095FFFCCF8093C600F6CFC45ADE4F6881C6
:1049C00079818A819B81CC55D1400E949A63E2EE25
:1049D000F6E08491882341F09091C00095FFFCCFD0
:1049E0008093C6003196F5CF6091E70C7091E80C8A
:1049F0008091E90C9091EA0C46E00E94AC6302E0E1
:104A00002016310409F482C0E8EDF3E08191882397
:104A100039F09091C00095FFFCCF8093C600F6CF8F
:104A200046E0CE5CDE4F688179818A819B81C253EA
:104A3000D1400E94AC63E0EEF3E08191882339F02D
:104A40009091C00095FFFCCF8093C600F6CF46E062
:104A5000C301B2010E94AC6359C02114310409F0B2
:104A600055C085E497E09F938F93812C912CF0EFB4
:104A7000AF2EF1E4BF2EABEECA2EACE0DA2ECE5B49
:104A8000DE4FE880F9800A811B81C254D140CA5CA4
:104A9000DE4F2881C653D140C95CDE4F3881C753F1
:104AA000D140C85CDE4F4881C853D140C75CDE4F5F
:104AB0005881C953D140CE5DDE4F6881C252D1408A
:104AC000CA5DDE4F7881C652D140C65DDE4F888117
:104AD000CA52D140C25DDE4F9881CE52D1400E9471
:104AE000B88C0E9427820F900F90CE5ADE4F2881FB
:104AF0003981C255D140232BB9F00E94BF3F68EEE7
:104B000073E080E090E00E94CE850EC0E0EEF6E01B
:104B10008491882309F4A5CF9091C00095FFFCCF24
:104B20008093C6003196F4CFC25CDE4F88819981B4
:104B3000AA81BB81CE53D1400196A11DB11DC25C9B
:104B4000DE4F88839983AA83BB83CE53D140C25C56
:104B5000DE4F88819981CE53D1400197CC5ADE4FE8
:104B6000A881B981C455D1408A179B070CF461CC48
:104B70000E94BF3F68EE73E080E090E00E94CE8527
:104B80000E94CB3F232819F4E2ECF6E02CC0E9EDBB
:104B9000F6E08491882341F09091C00095FFFCCF0E
:104BA0008093C6003196F5CF46E0CE5CDE4F68813B
:104BB00079818A819B81C253D1400E94AC63E7ED29
:104BC000F6E08491882301F39091C00095FFFCCF1B
:104BD0008093C6003196F5CF9091C00095FFFCCF31
:104BE0008093C600319684918111F6CF46E0C301CF
:104BF000B2010E94AC63EFEBF6E08491882311F4DC
:104C00000C94483B9091C00095FFFCCF8093C60068
:104C10003196F3CF88E690E00E940AA081110C94AF
:104C2000483B83E50E940742882311F40C94483BDB
:104C300010912A0E0E942D42212F30E0220F331FA7
:104C400089010C58114F0E943AE3F8017183608387
:104C50000C94483B0E94D2A083E50E94074288231F
:104C600011F40C94483B0E942D420E943AE3709349
:104C7000730E6093720E0C94483B89E690E00E949C
:104C80000AA081110C94483BE9EBF6E0849188235B
:104C900041F09091C00095FFFCCF8093C600319603
:104CA000F5CFE0912A0E04E0E09FF0011124E85BCB
:104CB000F24F608171818281938141E00E94AC63F7
:104CC000E6EBF6E08491882341F09091C00095FFD7
:104CD000FCCF8093C6003196F5CFE0912A0EF0E02C
:104CE000EE0FFF1FEC58F14F60817181072E000C11
:104CF000880B990B0E9475DE41E00E94AC63E2EBE9
:104D0000F6E08491882341F09091C00095FFFCCF9C
:104D10008093C6003196F5CF6091A9057091AA05E0
:104D20008091AB059091AC0541E00E94AC63EFEA45
:104D3000F6E08491882341F09091C00095FFFCCF6C
:104D40008093C6003196F5CF6091720E7091730E0C
:104D5000072E000C880B990B0E9475DE41E00E9423
:104D6000AC63ECEAF6E08491882341F09091C000B6
:104D700095FFFCCF8093C6003196F5CF60E070E0E0
:104D8000CB010E949A63EAEAF6E08491882341F01D
:104D90009091C00095FFFCCF8093C6003196F5CF6F
:104DA0006091480D7091490D80914A0D90914B0D85
:104DB00041E00E94AC63E7EAF6E08491882341F089
:104DC0009091C00095FFFCCF8093C6003196F5CF3F
:104DD0006091740E7091750E072E000C880B990B64
:104DE0000E9475DE41E00E94AC63E3EAF6E0849144
:104DF000882341F09091C00095FFFCCF8093C600BE
:104E00003196F5CFE0912A0EF0E0E45AF24F60813E
:104E100070E080E090E00E949A63EEE9F6E0849111
:104E2000882341F09091C00095FFFCCF8093C6008D
:104E30003196F5CF60915B0D70E080E090E00E94CC
:104E40009A638091C00085FFFCCF8AE08093C60002
:104E50000C94693F02E028E040E064E18FEF0E949B
:104E6000B54B8DE690E00E940AA081110C94483B5E
:104E700083E996E00E9425C410926F0E83E50E949C
:104E800007428823A1F010912A0E0E942D42212F63
:104E900030E0220F331F89010C58114F0E943AE372
:104EA000D8016D937C9381E08093020217C082E564
:104EB0000E940742882391F010912A0E0E942D42F1
:104EC000212F30E0220F331F89010C58114F0E940F
:104ED0003AE3F801718360831092020283E50E9435
:104EE0000742882351F00E942D4260937402709310
:104EF0007502809376029093770282E40E940742C3
:104F0000882351F00E942D426093700270937102C9
:104F1000809372029093730286E40E940742882372
:104F200069F00E942D4260936C0270936D02809331
:104F30006E0290936F0281E080936F0E0E9406864E
:104F40004B015C0100912A0E10E0F801EE0FFF1FEB
:104F5000EC58F14F60817181072E000C880B990B82
:104F60000E9475DE000F111F000F111FF801E85B92
:104F7000F24F11E020813181428153810E9425E46A
:104F800018160CF010E01093460510924C0DCC242E
:104F9000CA94DC2C7601B8E82B2EB6E03B2E18EE36
:104FA000412E13E0512E612C712C80914C0D8111FA
:104FB0000C941D3DBFEFCB16DB06EB06FB0611F490
:104FC0000C94FA3BF7FE02C00C941D3D0E9406862D
:104FD0006C197D096031774210F40C94FA3B0C9403
:104FE0001D3D02E028E040E064E18FEF0E94B54BF8
:104FF0008DE696E00E9425C483E50E94074288233F
:1050000061F00E942D420E943AE37093730E609308
:10501000720E81E0809302020FC082E50E94074277
:10502000882351F00E942D420E943AE37093730E40
:105030006093720E109202020E9406864B015C0180
:1050400010924C0D6091720E7091730E072E000C31
:10505000880B990B0E9475DE11E02091A905309113
:10506000AA054091AB055091AC050E9425E41816A5
:105070000CF010E0109346050AE616E096E6E92EDD
:1050800096E0F92E22E6C22E26E0D22E3AE0732ECA
:10509000809146056091720E7091730E882309F419
:1050A00084C080914C0D811180C0072E000C880BAC
:1050B000990B0E9475DE2091A9053091AA054091B7
:1050C000AB055091AC050E9425E418160CF084C085
:1050D0000E940686DC01CB0188199909AA09BB093F
:1050E000893E9340A105B10508F458C0E0914507F9
:1050F00024E0E29FF0011124E85BF24F60817181AE
:1051000082819381F8012491EAE6F6E0222349F0B6
:105110003091C00035FFFCCF2093C600319624911A
:10512000F5CF42E00E94AC63F7018491E6E6F6E039
:10513000882349F09091C00095FFFCCF8093C60072
:1051400031968491F5CF6091450770E080E090E062
:105150000E949A63F6018491E2E6F6E0882349F022
:105160009091C00095FFFCCF8093C600319684914A
:10517000F5CF6091A9057091AA058091AB0590913A
:10518000AC0541E00E94AC638091C00085FFFCCF7C
:105190007092C6000E9406864B015C010E94857ECB
:1051A0000E9410A10E9456C473CF072E000C880BDA
:1051B000990B0E9475DE2091A9053091AA054091B6
:1051C000AB055091AC050E946FDE87FF05C0809152
:1051D0000202882309F47CCF88E596E00E9425C46A
:1051E0000E940686609335077093360780933707D1
:1051F000909338070C94483B83E50E94074288232C
:1052000031F00E942D420E943FE3862F01C08FEFB4
:105210000E94434B0C94483B83E50E94074280E088
:105220000E94434B0C94483B10921D0E0C94483B3B
:1052300081E080931D0E0C94483B83E50E94074259
:105240008823A1F00E942D4220E030E04AE754E498
:105250000E94A5DA0E943FE36093490270934A02DC
:1052600080934B0290934C020C94483B88E50E943B
:10527000074281110C94313D89E50E94074281115A
:105280000C94313D8AE50E94074281110C94313D16
:1052900085E40E94074281110C94313D0E942782CF
:1052A000129A0E9427825F9A1092A6058A9A1092FB
:1052B000A7059FB7F8948091080181608093080149
:1052C0009FBF1092A805129A0C94483B83E50E9458
:1052D0000742882311F40C94483B0E942D4220E0A1
:1052E00030E04AE754E40E94A5DA0E943FE360936D
:1052F0001E0E70931F0E8093200E9093210E0C941F
:10530000483BB6E78B2EB3E09B2E03E11DE083E91B
:10531000A82E8EE0B82E27EB3EE0CE5DDE4F39831F
:105320002883C252D140312CD4018D914D010E946D
:105330000742882309F466C0B3E03B125CC00E94B8
:105340002D422B013C0120E030E040EA51E40E9474
:105350006FDE87FF49C0A3019201F801608171816E
:10536000828193810E94D1E26B017C019B01AC019F
:105370006091A30E7091A40E8091A50E9091A60E3F
:105380000E94A5DA6093A30E7093A40E8093A50EDD
:105390009093A60EA7019601D5016D917D918D91F7
:1053A0009C910E94A5DAF5016083718382839383C7
:1053B000CE5DDE4FA881B981C252D1406D917D9101
:1053C0008D919C910E9473DEA70196010E94A5DA3F
:1053D0000E943FE3CE5DDE4FE881F981C252D140A9
:1053E0006083718382839383D8014D925D926D9225
:1053F0007C92139707C00E942D42F801608371834D
:105400008283938333940C5F1F4FF4E0AF0EB11C83
:10541000CE5DDE4F28813981C252D1402C5F3F4F93
:10542000CE5DDE4F39832883C252D14034E033123F
:105430007BCF0C94483BEBE8F5E08491882311F492
:105440000C94483B9091C00095FFFCCF8093C60020
:105450003196F3CF00913E0510913F050B5F1F4F32
:105460006AE270E0C8010E94D1E5009711F0DC010A
:105470001C92C8010E9447C40C94483B9091C00004
:1054800095FFFCCF8093C600319684918111F6CFB1
:105490006091DF0C7091E00C8091E10C9091E20C36
:1054A00042E00E94AC63E4E8F5E08491882341F097
:1054B0009091C00095FFFCCF8093C6003196F5CF48
:1054C0006091E30C7091E40C8091E50C9091E60CF6
:1054D00042E00E94AC63E0E8F5E08491882341F06B
:1054E0009091C00095FFFCCF8093C6003196F5CF18
:1054F0006091E70C7091E80C8091E90C9091EA0CB6
:1055000042E00E94AC63ECE7F5E08491882341F02F
:105510009091C00095FFFCCF8093C6003196F5CFE7
:105520006091EB0C7091EC0C8091ED0C9091EE0C75
:1055300042E00E94AC63E1E7F5E08491882341F00A
:105540009091C00095FFFCCF8093C6003196F5CFB7
:105550002FB7F8946091CF0C7091D00C8091D10C42
:105560009091D20C2FBF0E9475DE2091130D3091C7
:10557000140D4091150D5091160D0E94D1E242E09C
:105580000E94AC63EDE6F5E08491882341F09091B0
:10559000C00095FFFCCF8093C6003196F5CF2FB7A2
:1055A000F8946091D30C7091D40C8091D50C9091AB
:1055B000D60C2FBF0E9475DE2091170D3091180D6B
:1055C0004091190D50911A0D0E94D1E242E00E94C3
:1055D000AC63E9E6F5E08491882341F09091C00046
:1055E00095FFFCCF8093C6003196F5CF2FB7F89486
:1055F0006091D70C7091D80C8091D90C9091DA0CF5
:105600002FBF0E9475DE20911B0D30911C0D409123
:105610001D0D50911E0D0E94D1E242E00E94AC632C
:105620008091C00085FFFCCF8AE08093C6000C9477
:10563000483B10920D020C94483B9091C00095FF9E
:10564000FCCF8093C60081918111F7CF8091C0007B
:1056500085FFFCCF8AE08093C600E1E6F5E0849107
:10566000882341F09091C00095FFFCCF8093C60045
:105670003196F5CF659B03C0EAE8F3E009C0EFE897
:10568000F3E006C09091C00095FFFCCF8093C60068
:1056900081918111F7CF8091C00085FFFCCF8AE016
:1056A0008093C600E9E5F5E08491882341F090916C
:1056B000C00095FFFCCF8093C6003196F5CF809156
:1056C000030181FF03C0EAE8F3E009C0EFE8F3E07B
:1056D00006C09091C00095FFFCCF8093C6008191D9
:1056E0008111F7CF8091C00085FFFCCF8AE08093C5
:1056F000C600E1E5F5E08491882341F09091C00077
:1057000095FFFCCF8093C6003196F5CF4B9B03C02D
:10571000EAE8F3E009C0EFE8F3E006C09091C000CA
:1057200095FFFCCF8093C60081918111F7CF8091C6
:10573000C00085FFFCCF8AE08093C600E9E4F5E075
:105740008491882341F09091C00095FFFCCF809315
:10575000C6003196F5CF4A9B03C0EAE8F3E009C0E2
:10576000EFE8F3E006C09091C00095FFFCCF809376
:10577000C60081918111F7CF8091C00085FFFCCFD9
:105780008AE08093C6000C94483B82E50E94074261
:10579000882331F00E942D420E943FE3162F01C062
:1057A00010E085E50E940742882331F00E942D42D7
:1057B0000E943FE3F62E01C0F12C82E40E940742D2
:1057C000882331F00E942D420E943FE3E62E01C063
:1057D000E12C80E50E940742882331F00E942D428F
:1057E0000E943FE3D62E02C0A3E0DA2E83E40E949B
:1057F0000742882329F00E942D420E943FE301C006
:1058000060E0062F2D2D4E2D6F2D812F0E94B54B60
:105810000C94483B83E50E940742882331F00E94A4
:105820002D420E943FE3862F01C080E00E94274B5B
:105830000C94483B83E50E940742882329F00E948C
:105840002D420E943FE301C061E084E0CC59DE4F6D
:105850006883C456D1400E941B6384E090E00E949C
:10586000B962CC59DE4F6881C456D14081EA99E0D3
:105870000E9461830E94BE620C94483B86E40E94B1
:105880000742882331F00E942D420E943FE3D62E2A
:1058900001C0D12C84E50E940742882331F00E9488
:1058A0002D420E943FE3E62E01C0E12C82E50E94DA
:1058B0000742882331F00E942D420E943FE3F62EDA
:1058C00001C0F12C85E50E940742882331F00E9437
:1058D0002D420E943FE3062F01C000E082E40E94B7
:1058E0000742882331F00E942D420E943FE3162F89
:1058F00001C010E084E00E941B6383E090E00E94FE
:10590000B96283E090E00E94B9626D2D81EA99E06E
:105910000E9461836E2D81EA99E00E9461836F2D60
:1059200081EA99E00E946183602F81EA99E00E94F8
:105930006183612F81EA99E00E9461830E94BE62C7
:105940004091620260916102809160020E94854BE9
:105950000C94483B86E40E940742882331F00E9461
:105960002D420E943FE3062F01C000E084E50E9423
:105970000742882331F00E942D420E943FE3162FF8
:1059800001C010E084E00E941B6383E090E00E946D
:10599000B96284E090E00E94B962602F81EA99E0E8
:1059A0000E946183612F81EA99E00E9461830E94D5
:1059B000BE620C94483B84E40E940742882311F4A1
:1059C0000C94483B0E942D4220E030E040E05FE331
:1059D0000E94A5DA6B017C0120E030E0A9010E9461
:1059E0006FDE882379F0A7019601C701B6010E94F6
:1059F000A5DA2BED3FE049E450E40E94A5DA9B01D3
:105A0000AC0104C020E030E040E85FE3809145074E
:105A100080932A0E84E5CC59DE4F2883C456D140AA
:105A2000CB59DE4F3883C556D140CA59DE4F488323
:105A3000C656D140C959DE4F5883C756D1400E943F
:105A40000742CC59DE4F2881C456D140CB59DE4F96
:105A50003881C556D140CA59DE4F4881C656D1401B
:105A6000C959DE4F5881C756D1408823B9F10E94E9
:105A70002D420E943FE360932A0ECC59DE4F2881CD
:105A8000C456D140CB59DE4F3881C556D140CA5992
:105A9000DE4F4881C656D140C959DE4F5881C7569E
:105AA000D1406623D9F0E4E2FBE08491882341F001
:105AB0009091C00095FFFCCF8093C6003196F5CF42
:105AC000EDEEF3E08191882311F40C94483B909122
:105AD000C00095FFFCCF8093C600F4CF80912A0EC2
