:100000000C94EE0F0C941F100C941F100C941F10E6
:100010000C941F100C941F100C941F100C941F10A4
:100020000C941F100C941F100C941F100C941F1094
:100030000C941F100C943C520C941F100C941F1025
:100040000C941F100C94715D0C941F100C941F10D5
:100050000C941F100C941F100C9412830C94F553E5
:100060000C941F100C94EB4A0C941F100C941F104E
:100070000C941F100C941F100C941F100C941F1044
:100080000C944C970C941F100C941F100C941F1080
:100090000C941F100C941F100C941F100C943F54C0
:1000A0000C941F100C941F100C941E970C941F108E
:1000B0000C941F100C941F100C941F100C94F096AD
:1000C0000C941F100C941F100C941F100C941F10F4
:1000D0000C941F100C941F100C941F100C941F10E4
:1000E0000C941F105B505E504D505150575095501E
:1000F000625066506C50705074507A507E508250EE
:10010000955088508C509050115316531B532553C3
:100110002F53A85339534153495353535D53675396
:1001200076538053A8538A5394539E53728381838A
:100130009D83AC83C683D583EF83F383F583F983F3
:100140000184084AD73B3BCE016E84BCBFFDC12F62
:100150003D6C74319ABD56833DDA3D00C77F11BEB8
:10016000D9E4BB4C3E916BAAAABE000000803F05BB
:10017000A84CCDB2D44EB93836A9020C50B99186EC
:1001800088083CA6AAAA2ABE000000803F002F00D3
:100190005344207072696E74696E67206279746569
:1001A00020004E6F74205344207072696E74696E23
:1001B00067002E0044656C6574696F6E2066616926
:1001C0006C65642C2046696C653A200046696C6554
:1001D0002064656C657465643A002E006F70656E0E
:1001E000206661696C65642C2046696C653A200064
:1001F000504944204175746F74756E652066696E50
:100200006973686564212050757420746865206C7A
:10021000617374204B702C204B6920616E64204BFD
:100220006420636F6E7374616E74732066726F6D99
:100230002061626F766520696E746F20436F6E6611
:10024000696775726174696F6E2E68005049442049
:100250004175746F74756E65206661696C656421A3
:100260002074696D656F75740020403A006F6B20D3
:10027000543A006F6B20423A005049442041757453
:100280006F74756E65206661696C656421205465C4
:100290006D706572617475726520746F6F20686926
:1002A000676800204B643A2000204B693A20002008
:1002B0004B703A200020436C61737369632050498E
:1002C0004420002054753A2000204B753A2000202D
:1002D0006D61783A2000206D696E3A200020643A02
:1002E000200020626961733A200020440020490008
:1002F0002020204D33303120500050494420736578
:100300007474696E67733A00205A002059002020E7
:100310004D323036205800486F6D65206F66667329
:10032000657420286D6D293A00204500205A002070
:10033000580020420020540020204D3230352053F8
:1003400000416476616E6365642076617269616202
:100350006C65733A20533D4D696E20666565647225
:1003600061746520286D6D2F73292C20543D4D69D3
:100370006E2074726176656C206665656472617466
:100380006520286D6D2F73292C20423D6D696E69A3
:100390006D756D207365676D656E742074696D652C
:1003A00020286D73292C20583D6D6178696D756D1D
:1003B000205859206A65726B20286D6D2F73292C87
:1003C00020205A3D6D6178696D756D205A206A65EF
:1003D000726B20286D6D2F73292C2020453D6D6197
:1003E00078696D756D2045206A65726B20286D6D8A
:1003F0002F73290020540020204D32303420530028
:10040000416363656C65726174696F6E3A20533D38
:10041000616363656C65726174696F6E2C20543D15
:100420007265747261637420616363656C65726187
:1004300074696F6E00204500205A0020590020206A
:100440004D3230312058004D6178696D756D204115
:100450006363656C65726174696F6E20286D6D2FC2
:100460007332293A00204500205A002059002020EC
:100470004D3230332058004D6178696D756D2066BE
:10048000656564726174657320286D6D2F73293AF8
:1004900000204500205A0020590020204D393220EC
:1004A000580053746570732070657220756E69749E
:1004B0003A006563686F3A002200556E6B6E6F7785
:1004C0006E20636F6D6D616E643A20220043686137
:1004D0006E67652066696C616D656E74005A204FA9
:1004E0006666736574203A20007A5F6D61783A2001
:1004F000007A5F6D696E3A20005A204F6666736518
:1005000074005A204F6666736574206F6B007A5FC3
:100510006D61783A20007A5F6D696E3A2000795FEC
:100520006D696E3A2000785F6D696E3A2000205A3E
:100530003A0020593A0020436F756E7420583A20D3
:100540000020453A00205A3A0020593A00583A0013
:100550004649524D574152455F4E414D453A4D61D6
:10056000726C696E2056313B20537072696E7465EF
:10057000722F6772626C206D617368757020666F90
:10058000722067656E36204649524D574152455F8D
:1005900055524C3A68747470733A2F2F67697468B7
:1005A00075622E636F6D2F4572696B5A616C6D2F8A
:1005B0004D61726C696E2F2050524F544F434F4C17
:1005C0005F56455253494F4E3A312E30204D4143EC
:1005D00048494E455F545950453A334461746F72EF
:1005E0002045585452554445525F434F554E543A56
:1005F0003120555549443A30303030303030302D8C
:10060000303030302D303030302D303030302D30F3
:1006100030303030303030303030300A00426564B5
:1006200020646F6E652E0020423A0020453A005447
:100630003A004265642048656174696E672E00481F
:10064000656174696E6720646F6E652E0020573A8D
:100650000020453A00543A0048656174696E672E7F
:100660002E2E002042403A0020403A00202F003A2F
:1006700000205400202F0020423A00202F006F6BF2
:1006800020543A000A0A005374616E646172642057
:10069000446576696174696F6E3A20000A004D65A1
:1006A000616E3A20000A002020207A3A200000796A
:1006B0003A2000783A20003F5370656369666965A7
:1006C00064206E756D626572206F66206C6567735D
:1006D00020696E206D6F76656D656E74206E6F7427
:1006E00020706C61757361626C652E0A003F5370F7
:1006F00065636966696564205920706F7369746900
:100700006F6E206F7574206F662072616E67652E44
:100710000A003F53706563696669656420582070FC
:100720006F736974696F6E206F7574206F662072C5
:10073000616E67652E0A003F53706563696669657F
:10074000642073616D706C652073697A65206E6FCB
:100750007420706C61757361626C652E0A00467559
:100760006C6C20737570706F72742061743A2068BD
:100770007474703A2F2F33647072696E74626F6193
:1007800072642E636F6D2F666F72756D2E70687058
:100790000A004D3438205A2D50726F626520526520
:1007A000706561746162696C6974792074657374D1
:1007B0002E20202056657273696F6E20322E3030E5
:1007C0000A003F566572626F7365204C6576656CF2
:1007D000206E6F7420706C61757361626C652E0A97
:1007E000002569206D696E2C2025692073656300E2
:1007F000456E642066696C65206C6973740042659F
:1008000067696E2066696C65206C697374004E6F51
:10081000206D6F76652E00526573756D696E672069
:100820007072696E74005761697420666F7220750A
:100830007365722E2E2E000A00205A3A200020598D
:100840003A200020583A200042656400486F6D65E8
:1008500020582F59206265666F7265205A00486FD4
:100860006D6520582F59206265666F7265205A00A9
:10087000536C6565702E2E2E0053657474696E6717
:10088000732053746F7265640053746F72656420D3
:1008900073657474696E67732072657472696576C6
:1008A00065640048617264636F64656420446566D2
:1008B00061756C742053657474696E6773204C6F36
:1008C00061646564002200656E717565696E6720FC
:1008D00022004D38340053544F505045442E2000D0
:1008E0005072696E7465722073746F7070656420E5
:1008F00064756520746F206572726F72732E204666
:10090000697820746865206572726F7220616E6408
:1009100020757365204D39393920746F20726573E5
:10092000746172742E202854656D706572617475DF
:1009300072652069732072657365742E2053657427
:1009400020697420616674657220726573746172C7
:1009500074696E6729006F6B004E6F204C696E657D
:10096000204E756D626572207769746820636865D2
:10097000636B73756D2C204C617374204C696E65CC
:100980003A20004E6F20436865636B73756D207766
:10099000697468206C696E65206E756D6265722C75
:1009A000204C617374204C696E653A200063686561
:1009B000636B73756D206D69736D617463682C2052
:1009C0004C617374204C696E653A20004C696E6509
:1009D000204E756D626572206973206E6F74204CB5
:1009E000617374204C696E65204E756D6265722B63
:1009F000312C204C617374204C696E653A20004D97
:100A0000313130000A00207A3A200020793A200063
:100A100020783A2000426564002020506C616E6EA0
:100A2000657242756666657242797465733A200034
:100A30002046726565204D656D6F72793A20004DD4
:100A40006172203233203230313700436F6D70696C
:100A50006C65643A200028334461746F7220476DDE
:100A600062482900207C20417574686F723A20002A
:100A70004D617220323320323031372031363A32F4
:100A8000323A313300204C617374205570646174C4
:100A900065643A2000312E312E39004D61726C6947
:100AA0006E0020536F6674776172652052657365BE
:100AB0007400205761746368646F672052657365C2
:100AC00074002042726F776E206F757420526573C8
:100AD0006574002045787465726E616C2052657390
:100AE000657400506F7765725570006563686F3A82
:100AF000007374617274006572726F72207772692C
:100B000074696E6720746F2066696C6500656E6439
:100B100073746F7073206869743A205A00205A3ACF
:100B200000656E6473746F7073206869743A20593D
:100B30000020593A00656E6473746F7073206869A1
:100B4000743A20580020583A00656E6473746F70D0
:100B500073206869743A20006563686F3A004865DD
:100B60006174626564206D697373696E6700446FB8
:100B70006E6520736176696E672066696C652E000C
:100B80006F6B004D32390000002100240027002A3D
:100B9000002D003000330001010000040107010AAC
:100BA0000100002200250028002B002E0031003417
:100BB0000002010000050108010B010000200023D4
:100BC00000260029002C002F003200000100000345
:100BD00001060109010505050507050808080802C1
:100BE0000202020A0A0808040404040101010101C6
:100BF0000101010303030303030303040707070CB5
:100C00000C0C0C0C0C0C0C0202020206060606066A
:100C10000606060B0B0B0B0B0B0B0B010210202017
:100C20000808102040102040800201020108040240
:100C300001010204081020408080402010080402B6
:100C4000018004020180402010080402010804020F
:100C50000101020408102040800102040810204015
:100C60008000000A0B02090C0D0E080703040100A6
:100C70000000000000000000000000000000000074
:100C80000000000000000000000000000012111031
:100C90000000000000000000000000000000000054
:100CA000000000000000000270012C0190012701EB
:100CB000B0012201C0011D01F00118011002130151
:100CC00030020E016002090190020401C002FF001F
:100CD0000003FA004003F5008003F000D003EB00AE
:100CE0002004E6007004E100E004DC004005D700C9
:100CF000C005D2004006CD00D006C8008007C30062
:100D00003008BE00F008B900C009B400B00AAF0056
:100D1000B00BAA00D00CA500000EA000500F9B0045
:100D2000C01096005012910000148C00C01587006E
:100D3000B0178200B0197D00D01B7800001E730030
:100D400040206E0090226900F024640040275F007C
:100D500090295A00E02B5500102E500020304B00F7
:100D600010324600E033410090353C001037370028
:100D700070383200A0392D00B03A2800A03B230083
:100D8000603C1E00103D1900903D1400103E0F0005
:100D9000703E0A00C03E0500003F000024F4D4303D
:100DA00050C38E20C2A24017828B7011127A910D0F
:100DB000816CD90AA861E108C758660761514306EA
:100DC0001E4B5D05C145A7041A411104093D980356
:100DD000713931034036DB0265339102D43054025D
:100DE000802E1D02632CEE01752AC501B028A001DA
:100DF000102781018F2564012B244B01E02234014F
:100E0000AC211F018D200D01801FFC00841EED0010
:100E1000971DDF00B81CD200E61BC600201BBC00DB
:100E2000641AB200B219A8000A19A0006A18990041
:100E3000D117910040178B00B516840031167E0043
:100E4000B31579003A157300C7146F0058146A007F
:100E5000EE1366008813630025135E00C7125B0063
:100E60006C12570015125400C111510070114F003F
:100E700021114B00D61049008D1047004610440048
:100E800002104200C00F4000800F3E00420F3C00A5
:100E9000060F3B00CB0E3800930E37005C0E35007A
:100EA000270E3400F30D3200C10D3100900D3000DB
:100EB000600D2E00320D2D00050D2C00D90C2B00DD
:100EC000AE0C2900850C29005C0C2700350C27008E
:100ED0000E0C2600E80B2400C40B2400A00B2300FA
:100EE0007D0B23005A0B2100390B2100180B200029
:100EF000F80A1F00D90A1E00BB0A1E009D0A1D0029
:100F0000800A1D00630A1C00470A1B002C0A1B00F4
:100F1000110A1A00F7091A00DD091900C40919009D
:100F2000AB091900920917007B0918006309170023
:100F30004C09160036091600200916000A0915008A
:100F4000F5081500E0081400CC081400B8081400D7
:100F5000A4081400900813007D0812006B08130009
:100F60005808120046081200340811002308110026
:100F70001208110001081100F0071000E00710002E
:100F8000D0071000C0071000B0070F00A107100025
:100F900091070E0083070F0074070F0065070E000E
:100FA00057070E0049070E003B070D002E070E00E5
:100FB00020070D0013070D0006070D00F9060C00B1
:100FC000ED060D00E0060C00D4060C00C8060C006F
:100FD000BC060C00B0060C00A4060B0099060C0021
:100FE0008D060B0082060B0077060B006C060B00CB
:100FF00061060A0057060B004C060A0042060A006A
:1010000038060A002E060A0024060A001A060A00FC
:101010001006090007060A00FD050900F40509008D
:10102000EB050900E2050900D9050900D005090012
:10103000C7050900BE050900B5050800AD05080093
:10104000A50509009C050800940508008C0508000A
:10105000840508007C050800740508006C0507007D
:10106000650508005D050700560508004E050700E8
:10107000470507004005080038050700310507004F
:101080002A050700230507001C05060016050700B2
:101090000F0507000805060002050700FB0406000F
:1010A000F5040700EE040600E8040600E204070069
:1010B000DB040600D5040600CF040600C9040600C0
:1010C000C3040600BD040600B7040600B104050011
:1010D000AC040600A6040600A00405009B0406005C
:1010E00095040500900406008A04050085040500A7
:1010F000800406007A0405007504050070040500EC
:101100006B04050066040500610405005C0405002D
:1011100057040500520405004D040500480405006D
:10112000430405003E0404003A04050035040500AC
:10113000300404002C0405002704040023040500E7
:101140001E0404001A04040016040500110404001F
:101150000D04040009040500040404000004040054
:10116000FC030400F8030400F4030400F00304008B
:10117000EC030400E8030400E4030400E0030400BB
:10118000DC030400D8030400D4030400D0030400EB
:10119000CC030400C8030300C503030024F404D9EE
:1011A000201BC40C5C0E9804C4095F026507710122
:1011B000F405F900FB04B30048048700C10369008B
:1011C0005803550003034500BE023A008402310073
:1011D00053022A002902250004022000E4011C0019
:1011E000C8011900AF011700980114008401130011
:1011F000710110006101100051010E0043010D004A
:1012000036010B002B010B0020010B00150109001A
:101210000C01090003010800FB000800F3000800AE
:10122000EB000700E4000600DE000600D800060020
:10123000D2000600CC000500C7000500C200050072
:10124000BD000400B9000400B5000400B1000400B2
:10125000AD000400A9000400A5000300A2000300E3
:101260009F0004009B00030098000300950002000B
:1012700093000300900003008D0002008B00030028
:101280008800020086000200840003008100020042
:101290007F0002007D0002007B0002007900020056
:1012A0007700010076000200740002007200010065
:1012B000710002006F0002006D0001006C0002006E
:1012C0006A00010069000200670001006600010079
:1012D000650001006400020062000100610001007D
:1012E000600001005F0002005D0001005C00010081
:1012F0005B0001005A000100590001005800010084
:101300005700010056000100550001005400010083
:101310005300000053000100520001005100010081
:10132000500001004F0001004E0000004E0001007F
:101330004D0001004C0001004B0000004B0001007B
:101340004A00010049000100480000004800010077
:101350004700010046000000460001004500000073
:10136000450001004400010043000000430001006B
:101370004200000042000100410000004100010065
:10138000400001003F0000003F0001003E0000005F
:101390003E0001003D0000003D0001003C00000057
:1013A0003C0000003C0001003B0000003B0001004D
:1013B0003A0000003A000100390000003900010045
:1013C000380000003800000038000100370000003D
:1013D0003700010036000000360000003600010032
:1013E0003500000035000000350001003400000029
:1013F000340000003400010033000000330000001E
:101400003300010032000000320000003200010011
:101410003100000031000000310001003000000008
:1014200030000000300001002F0000002F000000FD
:101430002F0000002F0001002E0000002E000000F1
:101440002E0001002D0000002D0000002D000000E6
:101450002D0001002C0000002C0000002C000000DA
:101460002C0001002B0000002B0000002B000000CE
:101470002B0001002A0000002A0000002A000000C2
:101480002A000100290000002900000029000000B6
:1014900029000000290001002800000028000000A9
:1014A000280000002800000028000100270000009C
:1014B000270000002700000027000000270001008F
:1014C0002600000026000000260000002600000084
:1014D0002600010025000000250000002500000076
:1014E0002500000025000000250001002400000068
:1014F000240000002400000024000000240001005B
:10150000230000002300000023000000230000004F
:10151000230000002300000023000100220000003F
:101520002200000022000000220000002200000033
:101530002200010021000000210000002100000025
:101540002100000021000000210000002100010016
:10155000200000002000000020000000200000000B
:1015600020000000200000002000000020000100FA
:101570001F0000001F0000001F0000001F000000EF
:101580001F0000001F0000001F0001001E000000DF
:101590001E0000001E0000001E000000202D20493B
:1015A0006E76616C6964206578747275646572200A
:1015B0006E756D6265722021004D383400473238F7
:1015C0000053657474696E67730050726570617260
:1015D00065004E6F2053442063617264005072694D
:1015E0006E742066726F6D2053440053746F7020C8
:1015F0007072696E7400526573756D6520707269E2
:101600006E74005061757365207072696E74005459
:10161000756E6500496E666F2073637265656E0056
:1016200061646A75737420686569676874006164D1
:101630006A757374206865696768740053706565BE
:1016400064005370656564004D3630300043686156
:101650006E67652066696C616D656E7400466C6FBF
:101660007700466C6F770046616E20737065656425
:101670000046616E2073706565640061646A75730D
:1016800074206265642068656967687400426564F7
:1016900000426564004E6F7A7A6C65004E6F7A7A0C
:1016A0006C65004D61696E00580059005A0045781C
:1016B0007472756465720045787472756465720041
:1016C0004D6F7665205A004D6F76652059004D6F3D
:1016D0007665205800507265706172650053442031
:1016E00063617264206F6B006F70656E526F6F7410
:1016F000206661696C656400766F6C756D652E6936
:101700006E6974206661696C6564004572726F72FF
:101710003A00534420696E6974206661696C006503
:1017200063686F3A0057726974696E6720746F203E
:1017300066696C653A20002E006F70656E206661E8
:10174000696C65642C2046696C653A20002E006F38
:1017500070656E206661696C65642C2046696C65F5
:101760003A200046696C652073656C656374656436
:10177000002053697A653A200046696C65206F70D5
:10178000656E65643A20002E006F70656E2066619C
:10179000696C65642C2046696C653A20004E6F7751
:1017A0002066726573682066696C653A20004E6F2A
:1017B0007720646F696E672066696C653A20002245
:1017C00020706F73002220706172656E743A22007F
:1017D000535542524F5554494E452043414C4C209D
:1017E0007461726765743A2200747279696E672059
:1017F000746F2063616C6C207375622D67636F6416
:10180000652066696C6573207769746820746F6FF2
:10181000206D616E79206C6576656C732E204D416C
:1018200058206C6576656C2069733A004D3234003F
:101830004D3233202573006175746F25692E670062
:101840001000C90210012C01400122017001180191
:10185000B0010E01F00104015002FA00B002F000E4
:101860003003E600D003DC009004D2007005C8000D
:10187000A006BE000008B400B009AA00D00BA0006A
:10188000600E960060118C0000158200201978000F
:10189000C01D6E00A0226400B0275A00902C50009A
:1018A00000314600E0343C0010383200903A280005
:1018B000603C1E00A03D1400803E0A00203F000056
:1018C000544845524D414C2052554E4157415900C4
:1018D000546865726D616C2052756E617761792C08
:1018E0002073797374656D2073746F7070656421F3
:1018F000204865617465725F49443A200045727200
:101900003A204D415854454D50003A204578747264
:1019100075646572207377697463686564206F66A7
:10192000662E204D415854454D50207472696767AA
:10193000657265642021004572723A204D494E540B
:10194000454D50003A204578747275646572207375
:1019500077697463686564206F66662E204D494E12
:1019600054454D5020747269676765726564202123
:10197000004572723A204D415854454D5020424521
:10198000440054656D706572617475726520686598
:101990006174656420626564207377697463686547
:1019A00064206F66662E204D415854454D5020747A
:1019B0007269676765726564202121004572726FE4
:1019C000723A005344006C6566743A2000012000AE
:1019D00001200020746F6F206C6F6E672065787433
:1019E000727573696F6E2070726576656E7465646A
:1019F0000020636F6C6420657874727573696F6E14
:101A00002070726576656E746564006563686F3A10
:101A100000473238205A004D353030005A204F668A
:101A20006673657400473932205A004733300047E7
:101A3000323800507265706172696E67205A204FAB
:101A40006666736574004D31313720526561647983
:101A500020746F204368616E6765204E6F7A7A6CE0
:101A60006500473120583835204635303030004742
:101A70003238004D3130392053323030004C45443B
:101A8000732066756C6C206F6E004C454473206645
:101A9000756C6C206F66660076616C756520626C93
:101AA00075650076616C756520677265656E007698
:101AB000616C756520726564004C454420627269F2
:101AC0006768746E6573730053657474696E6773C9
:101AD000004C4544206272696768746E65737300D8
:101AE0004C4544206272696768746E657373007652
:101AF000616C7565207265640076616C7565207235
:101B000065640076616C756520677265656E007648
:101B1000616C756520677265656E0076616C7565D0
:101B200020626C75650076616C756520626C756508
:101B3000005049442D43005049442D43005049442E
:101B40002D44005049442D44005049442D49005033
:101B500049442D49005049442D50005049442D50CE
:101B600000200220466163740020022046616374F5
:101B7000002002204D6178002002204D6178002075
:101B800002204D696E002002204D696E004F66668E
:101B9000004F6E20004F6666004F6E200046616E5B
:101BA0002073706565640046616E207370656564BE
:101BB0000042656400426564004E6F7A7A6C65008D
:101BC0004E6F7A7A6C650053657474696E67730042
:101BD0004B494C4C45442E20005072696E7465721E
:101BE0002068616C7465642E206B696C6C282920F8
:101BF00063616C6C6564210053544F505045442E12
:101C000020005072696E7465722073746F70706515
:101C1000642064756520746F206572726F72732E14
:101C20002046697820746865206572726F72206141
:101C30006E6420757365204D39393920746F2072B8
:101C40006573746172742E202854656D70657261BD
:101C5000747572652069732072657365742E2053E4
:101C6000657420697420616674657220726573748E
:101C7000617274696E6729004572726F723A000072
:101C8000002A4300003443000082430000000000AB
:101C90000000000000000000000000000000000044
:101CA0000082430000A0400000A04000000040006F
:101CB000002A430000344300008243FFFF0122005A
:101CC000656E717565696E672022007C3C3E5E2BF7
:101CD0003D3F2F5B5D3B2C2A225C00457374657091
:101CE000732F6D6D004573746570732F6D6D005AA1
:101CF00073746570732F6D6D005A73746570732FF4
:101D00006D6D005973746570732F6D6D0059737428
:101D10006570732F6D6D005873746570732F6D6DE2
:101D2000005873746570732F6D6D00412D7265746A
:101D30007261637400412D72657472616374004155
:101D40006D6178206500416D6178206500416D61AD
:101D500078207A00416D6178207A00416D617820A9
:101D60007900416D6178207900416D6178207800BB
:101D7000416D61782078005654726176206D696EED
:101D8000005654726176206D696E00566D696E0062
:101D9000566D696E00566D6178206500566D6178EC
:101DA000206500566D6178207A00566D6178207A42
:101DB00000566D6178207900566D61782079005663
:101DC0006D6178207800566D617820780056652D19
:101DD0006A65726B0056652D6A65726B00567A2DC6
:101DE0006A65726B00567A2D6A65726B0056787957
:101DF0002D6A65726B005678792D6A65726B0041A9
:101E00006363656C00416363656C005A204F6666CE
:101E1000736574005A204F66667365740053657469
:101E200074696E6773004D6F766520617869730021
:101E3000436F6F6C646F776E005072656865617494
:101E40000054656D70657261747572650047323853
:101E5000004175746F20686F6D65004D3834004423
:101E6000697361626C65207374657070657273006C
:101E7000536574205A206F66667365740043686109
:101E80006E6765204E6F7A7A6C65004D61696E00F1
:101E900041626F757400537461746973746963731C
:101EA000004D6F74696F6E004C4544204D656E7532
:101EB00000526573746F7265206661696C73616648
:101EC00065004C6F6164206D656D6F7279005374AD
:101ED0006F7265206D656D6F7279004D61696E007E
:101EE0004D313530205031300056657273696F6E58
:101EF0003A20312E312E3900334461746F72204DF7
:101F000061726C696E004D3135302050370050726F
:101F1000696E74732066696E6973686564005072D7
:101F2000696E74732073746F707065640070726989
:101F30006E7474696D650053746174697374696358
:101F400073004D3234004D32332025730043616EEF
:101F50006E6F7420656E7465722073756264697249
:101F60003A2000052E2E004D61696E0043617264B7
:101F70002072656D6F766564004361726420696EDE
:101F800073657274656400526573656E643A20000F
:101F90006F6B004175746F74656D70004E414E49F2
:101FA0004E495459494E46CDCCCC3D0AD7233C1717
:101FB000B7D13877CC2B329595E6241FB14F0A0064
:101FC0000020410000C84200401C4620BCBE4CCA54
:101FD0001B0E5AAEC59D740091DA8DDB11241FBE15
:101FE000CFEFD1E2DEBFCDBF00E00CBF15E0A0E037
:101FF000B2E0E4E1FEEC01E00BBF02C007900D92FD
:10200000A834B107D9F724E1A8E4B5E001C01D92D6
:10201000A837B207E1F71FE0CDEEDFE000E006C031
:1020200021970109802FFE010E94E1DBCC3ED10700
:1020300080E00807A9F70E94C6D30C94F8E60C9438
:1020400000002F923F924F925F926F927F928F92F9
:102050009F92AF92BF92CF92DF92EF92FF920F9337
:102060001F93CF93DF93CDB7DEB7C556D1400FB6E0
:10207000F894DEBF0FBECDBF87E40E943046F82E35
:10208000882311F40C94C2180E9456460E942EDD3B
:102090006C31710509F486C19CF46230710509F454
:1020A00026C124F477FF3BC00C940C3F63307105CC
:1020B00009F426C16430710509F42EC10C940C3F5B
:1020C0006A35710509F4F9C704F56D31710509F434
:1020D000BDC26E31710511F00C940C3F0E94EE43AD
:1020E0000E94645D0E94194480E090E0A6E1B5E49E
:1020F00080937A0290937B02A0937C02B0937D023E
:102100000E94A944E8E4F8E07AC76B35710509F448
:10211000D8C76C35710509F4D9C70C940C3F809170
:10212000811381110C940C3F0E94BCD187EE93E186
:102130000E942AD10E94E9536093950D7093960DE9
:102140008093970D9093980D8090E7139090E813EB
:10215000A090E913B090EA13CE5DDE4F8882998299
:10216000AA82BB82C252D140A501940160913B1367
:1021700070913C1380913D1390913E130E9474E343
:102180004090EB135090EC136090ED137090EE13B1
:102190000091EF131091F0132091F1133091F2138D
:1021A000CA5DDE4F088319832A833B83C652D14020
:1021B00081117EC0A301920160913F137091401381
:1021C00080914113909142130E9474E3811170C079
:1021D00020E030E040E752E460917A0270917B02A7
:1021E00080917C0290917D020E94C6DC4B015C01D3
:1021F0008CEA93E19F938F9363EFC62E63E1D62E13
:10220000CA5DDE4FE880F9800A811B81C652D14049
:10221000A3019201CE5DDE4F688179818A819B8125
:10222000C252D1400E94BD890F900F908091E71358
:102230009091E813A091E913B091EA1380933B13B6
:1022400090933C13A0933D13B0933E138091EB13F6
:102250009091EC13A091ED13B091EE1380933F1386
:1022600090934013A0934113B09342138091EF13C6
:102270009091F013A091F113B091F2138093431356
:1022800090934413A0934513B09346138091F31396
:102290009091F413A091F513B091F6138093471326
:1022A00090934813A0934913B0934A130C9492430C
:1022B00060911A0270911B02072E000C880B990B7B
:1022C0000E947AE320917A0230917B0240917C0255
:1022D00050917D020E94AADF20E030E040E752E406
:1022E0000E94C6DC20E030E048EC52E47DCF8091D3
:1022F000811381110C940C3F0E9441D281E008C0EF
:102300008091811381110C940C3F0E9441D280E096
:102310000E94D4AA0C94924380E798E00E944DCB8F
:1023200080E50E943046882339F00E9456460E947C
:1023300033DD6B017C0103C0C12CD12C760183E518
:102340000E943046882361F00E94564620E030E02B
:102350004AE754E40E94AADF0E9433DD6B017C014E
:102360000E94645D0E94E953C60ED71EE81EF91E46
:102370000E94E9536093950D7093960D8093970D8D
:102380009093980D0E94E9536C157D058E059F056D
:1023900010F00C940C3F0E947C5A0E94EDA80E9401
:1023A0007ECBF0CF0E94687C80917A0290917B0274
:1023B000A0917C02B0917D0280934C0590934D05D5
:1023C000A0934E05B0934F0580911A0290911B0285
:1023D00090934B0580934A0584E690E090931B020E
:1023E00080931A020E94E9536093950D7093960DA5
:1023F0008093970D9093980D11E010930D028091AA
:102400003B1390913C13A0913D13B0913E138093E8
:10241000E7139093E813A093E913B093EA13809124
:102420003F1390914013A0914113B09142138093B8
:10243000EB139093EC13A093ED13B093EE138091F4
:10244000431390914413A0914513B0914613809388
:10245000EF139093F013A093F113B093F2138091C4
:10246000471390914813A0914913B0914A13809358
:10247000F3139093F413A093F513B093F613109203
:102480007A0210927B0210927C0210927D0288E503
:102490000E943046882311F080E009C089E50E943F
:1024A00030468111F9CF8AE50E943046812780931A
:1024B000030281110C940F3F8AE50E94304681117E
:1024C0000C940F3F8091030281110C94153F88E515
:1024D0000E94304681110C94153F809103028111B6
:1024E0000C941B3F89E50E94304681110C941B3FE0
:1024F00088E50E9430468823D1F00E944B46672B26
:10250000682B692BA1F00E9456462091DB13309175
:10251000DC134091DD135091DE130E94EADB6093DF
:102520003B1370933C1380933D1390933E1389E5C6
:102530000E9430468823D1F00E944B46672B682BBF
:10254000692BA1F00E9456462091DF133091E013D1
:102550004091E1135091E2130E94EADB60933F1334
:102560007093401380934113909342138AE50E9425
:1025700030468823D1F00E944B46672B682B692B8D
:10258000A1F00E9456462091E3133091E41340914C
:10259000E5135091E6130E94EADB609343137093B6
:1025A0004413809345139093461380910302811145
:1025B0000C94213F8AE50E94304681110C94213F02
:1025C000E0904313F090441300914513109146138B
:1025D00020913F1330914013409141135091421389
:1025E00060913B1370913C1380913D1390913E1389
:1025F0000E947F7B10920D0280914C0590914D05B9
:10260000A0914E05B0914F0580937A0290937B0282
:10261000A0937C02B0937D0280914A0590914B0576
:1026200090931B0280931A020E94E9536093950DC8
:102630007093960D8093970D9093980D1092D105FD
:102640001092D0051092CF050C940C3F8091D305C9
:10265000882321F08091D405811127C08EE598E070
:102660000E944DCBEBEEFAE08491882341F09091EB
:10267000C00095FFFCCF8093C6003196F5CFECE407
:10268000F8E08491882341F09091C00095FFFCCF41
:102690008093C6003196F5CF8091C00085FFFCCFB6
:1026A0008AE08093C6000C940C3F0E94645D0E94F7
:1026B000687CCE018C5E9E4F0E94C064CC5EDE4F73
:1026C000688179818A819B81C451D14060933B1399
:1026D00070933C1380933D1390933E13C85EDE4F7E
:1026E000288139814A815B81C851D14020933F13B1
:1026F000309340134093411350934213C45EDE4F16
:10270000E880F9800A811B81CC51D140E0924313CB
:10271000F092441300934513109346130E947F7B5D
:102720000E94194480E090E0A6E1B5E480937A022B
:1027300090937B02A0937C02B0937D02E12CF12C5C
:1027400000E711E420E030E0A90160E070E080E201
:1027500091E40E9494454B015C0120E030E040EAA6
:1027600050E460914313709144138091451390910C
:1027700046130E94EADB7B018C0120E030E042E05E
:1027800053E460E070E08AEA92E40E9494452B01F1
:102790003C0120E030E040EA50E460914313709146
:1027A000441380914513909146130E94EADB7B010C
:1027B0008C0120E030E0A90160E070E086E193E464
:1027C0000E949445CE5DDE4F688379838A839B8324
:1027D000C252D1400E94F4430E94687C80E090E0A5
:1027E000A6E9B2ECC85FDE4F88839983AA83BB83D6
:1027F000C850D140C12CD12C52E0E52E53ECF52E1F
:10280000C45FDE4FC882D982EA82FB82CC50D140BD
:10281000A3019201C501B4010E94E9DBC05FDE4F54
:10282000688379838A839B83C051D140CE01885FBE
:102830009E4F0E94DB5680E090E0A2E8B2E4C450D4
:10284000DF4F88839983AA83BB83CC5FD040C0507D
:10285000DF4FC882D982EA82FB82C050D140A301F7
:102860009201CE5DDE4F688179818A819B81C2525F
:10287000D1400E94E9DBCC5FDE4F688379838A8395
:102880009B83C450D140CE0184509F4F0E94DB56A1
:10289000C85FDE4F88809980AA80BB80C850D14035
:1028A000C65DDE4F88829982AA82BB82CA52D1401D
:1028B000C45FDE4F488059806A807B80CC50D14015
:1028C000C05FDE4F88809980AA80BB80C051D14014
:1028D000C450DF4F088119812A813B81CC5FD040F1
:1028E000CA5DDE4F088319832A833B83C652D140D9
:1028F000C050DF4F288139814A815B81C050D1406F
:10290000CE5DDE4F288339834A835B83C252D14038
:10291000CC5FDE4FC880D980EA80FB80C450D140B4
:10292000A7019601C301B2010E94AADFC25DDE4F7A
:10293000688379838A839B83CE52D140CE5DDE4FFC
:10294000288139814A815B81C252D140C501B401DD
:102950000E94AADF9B01AC01C25DDE4F68817981D4
:102960008A819B81CE52D1400E94E9DBC051DF4F6A
:10297000688379838A839B83C05FD040CA5DDE4FC2
:10298000288139814A815B81C652D140C501B40199
:102990000E94AADF4B015C01A7019601C65DDE4FD4
:1029A000688179818A819B81CA52D1400E94AADFC5
:1029B0009B01AC01C501B4010E94E9DBCC50DF4FA3
:1029C000688379838A839B83C45FD040CE5DDE4F6A
:1029D000288139814A815B81C252D140C65DDE4F78
:1029E000688179818A819B81CA52D1400E94AADF85
:1029F0006B017C01CA5DDE4F288139814A815B8190
:102A0000C652D140C301B2010E94AADF9B01AC01B2
:102A1000C701B6010E94E9DBC850DF4F68837983A4
:102A20008A839B83C85FD040CE0180519F4F0E9414
:102A3000DB56C051DF4FC880D980EA80FB80C05F81
:102A4000D040CC50DF4F88809980AA80BB80C45F83
:102A5000D040C850DF4F488059806A807B80C85F73
:102A6000D04020E030E0A901C301B2010E9410DE95
:102A7000A301920118160CF05058C850DF4F28835C
:102A800039834A835B83C85FD0401E0164EE260E03
:102A9000311CD101CD92DD92ED92FC921397F101A0
:102AA00084829582A682B78218962D933D934D938A
:102AB0005C931B97C101CE59DE4F2883C256D1408B
:102AC000CD59DE4F3883C356D140CC59DE4F4883B1
:102AD000C456D140CB59DE4F5883C556D1400E94D1
:102AE000DB56FE01E753FF4FC05EDE4FF983E883FC
:102AF000C052D14080E090E0A0E8BFE3C753DF4F71
:102B000088839983AA83BB83C95CD040C353DF4FBA
:102B1000188219821A821B82CD5CD040C701B6018F
:102B20009058CE59DE4F2881C256D140CD59DE4F44
:102B30003881C356D140CC59DE4F4881C456D1406C
:102B4000CB59DE4F5881C556D1400E94C6DCCF52CA
:102B5000DF4F688379838A839B83C15DD040CE0138
:102B600087539F4F0E94DB56D1018D909D90AD9071
:102B7000BC901397CE5DDE4F88829982AA82BB8279
:102B8000C252D14014964D905D906D907C901797F5
:102B900018968D909D90AD90BC901B97C753DF4FBA
:102BA000088119812A813B81C95CD040CA5DDE4F12
:102BB000088319832A833B83C652D140C353DF4F16
:102BC000288139814A815B81CD5CD040C65DDE4F72
:102BD000288339834A835B83CA52D140CF52DF4F67
:102BE000C880D980EA80FB80C15DD040A7019601F2
:102BF000C301B2010E94AADFC25DDE4F6883798300
:102C00008A839B83CE52D140C65DDE4F28813981B5
:102C10004A815B81CA52D140C501B4010E94AADF3A
:102C20009B01AC01C25DDE4F688179818A819B8105
:102C3000CE52D1400E94E9DB69837A838B839C83E7
:102C4000CA5DDE4F288139814A815B81C652D140FD
:102C5000C501B4010E94AADF4B015C01A7019601E6
:102C6000CE5DDE4F688179818A819B81C252D140DD
:102C70000E94AADF9B01AC01C501B4010E94E9DBFF
:102C80006D837E838F839887C65DDE4F288139816F
:102C90004A815B81CA52D140CE5DDE4F6881798125
:102CA0008A819B81C252D1400E94AADF6B017C01C4
:102CB000CA5DDE4F288139814A815B81C652D1408D
:102CC000C301B2010E94AADF9B01AC01C701B6019A
:102CD0000E94E9DB69877A878B879C87CE01019602
:102CE0000E94DB56C753DF4F488059806A807B8043
:102CF000C95CD040C353DF4F88809980AA80BB80D5
:102D0000CD5CD040CF52DF4FC880D980EA80FB80B5
:102D1000C15DD04009811A812B813C818D819E81CA
:102D2000AF81B885CE5DDE4F88839983AA83BB834C
:102D3000C252D14089859A85AB85BC85CA5DDE4F7C
:102D400088839983AA83BB83C652D140D1018D91D8
:102D50009D910D90BC91A02DC65DDE4F8883998317
:102D6000AA83BB83CA52D140F10144815581668157
:102D7000778180859185A285B3854092210250920A
:102D80002202609223027092240280922502909285
:102D90002602A0922702B0922802C0922902D09265
:102DA0002A02E0922B02F0922C0200932D02109343
:102DB0002E0220932F0230933002CE5DDE4F8880AA
:102DC0009980AA80BB80C252D140809231029092F9
:102DD0003202A0923302B0923402CA5DDE4F088103
:102DE00019812A813B81C652D1400093350210934C
:102DF00036022093370230933802C65DDE4F88805A
:102E00009980AA80BB80CA52D140809239029092A8
:102E10003A02A0923B02B0923C0240933D02509392
:102E20003E0260933F027093400280934102909370
:102E30004202A0934302B0934402CE0101960E9445
:102E4000C06469817A818B819C8160933B1370930C
:102E50003C1380933D1390933E132D813E814F810F
:102E6000588520933F133093401340934113509360
:102E70004213E0904314F0904414009145141091D3
:102E80004614E0924313F0924413009345131093B9
:102E900046130E947F7B0E94645D2FB7F894609177
:102EA00033137091341380913513909136132FBFE3
:102EB0000E947AE32091771330917813409179132F
:102EC00050917A130E94C6DC6B017C0120E030E057
:102ED000A90160913B1370913C1380913D13909137
:102EE0003E130E94EADBD1016D937D938D939C93F9
:102EF000139720E030E0A90160913F1370914013D7
:102F000080914113909142130E94EADBC753DF4F37
:102F1000688379838A839B83C95CD0408091431303
:102F200090914413A0914513B091461389839A83DD
:102F3000AB83BC83E1E0F0E0EC0FFD1FFF93EF9368
:102F4000CF5DDE4FF881C152D140FF93C05EDE4FAE
:102F50008880C052D1408F923F922F920DB71EB7FA
:102F6000045211090FB6F8941EBF0FBE0DBFADB7C6
:102F7000BEB7119684E2E1E2F2E001900D928A95EB
:102F8000E1F70E94F655A701960169817A818B814C
:102F90009C810E94E9DB20914313309144134091BE
:102FA0004513509146130E94EADB7B018C0160932C
:102FB00043137093441380934513909346130FB6B5
:102FC000F894DEBF0FBECDBF20913F133091401368
:102FD000409141135091421360913B1370913C1307
:102FE00080913D1390913E130E947F7B0C940C3F87
:102FF0009091C00095FFFCCF8093C60031968491DC
:103000008111F6CFE3E4F8E08491882341F09091B8
:10301000C00095FFFCCF8093C6003196F5CF60913C
:103020003B1370913C1380913D1390913E1342E00D
:103030000E941574EEE3F8E08491882341F09091AA
:10304000C00095FFFCCF8093C6003196F5CF60910C
:103050003F1370914013809141139091421342E0CD
:103060000E941574E9E3F8E08491882341F090917F
:10307000C00095FFFCCF8093C6003196F5CF6091DC
:10308000431370914413809145139091461342E08D
:103090000E941574E7E3F8E08491882341F0909151
:1030A000C00095FFFCCF8093C6003196F5CF0E94FB
:1030B000F4430E94E8430C940C3F10926B140C9460
:1030C0000C3F81E080936B140C940C3F85E40E94CC
:1030D0003046811102C00E94645D90E9692E93E040
:1030E000792E2BE3A22E23E1B22E3BED832E33E18A
:1030F000932ED12CD3018D913D010E94304688231F
:10310000A9F1B3E0DB120AC00E945646F5016083C4
:103110007183828393830E94937C28C00E945646C9
:10312000D4012D913D914D915C910E94EADBF50116
:103130006083718382839383E0904313F090441300
:10314000009145131091461320913F133091401385
:10315000409141135091421360913B1370913C1385
:1031600080913D1390913E130E947F7BD394F4E0B5
:10317000AF0EB11C04E0800E911C14E0D112BACF46
:103180000C940C3F8DE40E943046882311F40C947B
:103190003C3E0E9456460E942EDD6837710511F4B0
:1031A0000C94202B0CF0BBC06A32710509F4C1C528
:1031B0000CF058C06731710509F441C294F56231D1
:1031C000710511F40C942429F4F477FF02C00C94D7
:1031D0000C3F623071050CF47AC16131710511F058
:1031E0000C940C3F8EE098E00E944DCB5F988A983B
:1031F0009FB7F894809108018E7F809308019FBF4C
:1032000012980C940C3F6531710509F40EC20CF054
:1032100010C26431710511F00C940C3FEEEFF7E031
:10322000BBC16B31710509F449C23CF469317105C8
:1032300009F42CC20CF419C233C26E31710509F4C1
:10324000C3C234F46C31710509F48CC20C940C3F88
:103250006F31710509F4EDC46032710509F454C48D
:103260000C940C3F6936710511F40C943D262CF535
:103270006435710511F40C94242974F462357105D8
:1032800011F40C941B2914F00C941F296033710560
:1032900009F49AC50C940C3F6C35710511F40C942B
:1032A00088296836710511F40C940A266535710574
:1032B00011F00C940C3F0C946D296037710511F4DA
:1032C0000C942A267CF46B36710511F40C941329A6
:1032D00014F40C9403296D36710511F40C942A270B
:1032E0000C940C3F6337710511F40C94222A4CF4B2
:1032F0006237710511F00C940C3FEDE4F5E00C948D
:103300004C2A6537710511F40C94312A6737710521
:1033100011F00C940C3FE3EAF3E00C942A2B623E8C
:10332000710511F40C94A62E0CF05AC06E3B710579
:1033300011F40C94F1274CF56839710511F40C94D3
:10334000112CA4F46C38710511F40C942C266639F8
:10335000710511F40C94CC2B6937710511F00C94A4
:103360000C3F81E080930D020C940C3F6A3971058B
:1033700011F40C94452C14F40C94212C6B39710528
:1033800011F40C94B12C0C940C3F6C3C710511F4AD
:103390000C94CB2D8CF4693C710511F40C948B2D9D
:1033A0006B3C710511F40C94AD2D683C710511F066
:1033B0000C940C3F0C94E22C6E3C710511F40C94AF
:1033C0004D2E14F40C94ED2D6C3D710511F40C94FC
:1033D0006B2E6D3D710511F40C947C2E0C940C3FFA
:1033E000623921E0720711F40C94C1373CF56E325A
:1033F00041E0740711F40C946A3384F46C3281E078
:10340000780711F40C94F22F14F00C94A332683165
:10341000714011F40C94052F0C940C3F6039B1E00D
:103420007B0711F40C94BB3714F00C94BE376F3249
:10343000714011F40C947F330C940C3F673F01E012
:10344000700711F40C94CA3794F4653F21E07207B9
:1034500011F40C94C43714F00C94C737643F7140D6
:1034600011F00C940C3F0E94DD4D0C940C3F633521
:1034700053E0750711F40C94A13A3CF4683572409E
:1034800011F40C94713B0C940C3F603AA3E07A0762
:1034900009F49AC3673E734011F00C940C3F1092EC
:1034A0008113109259148091C6139091C713A09163
:1034B000C813B091C9138093CA139093CB13A093F0
:1034C000CC13B093CD130E949BD20C940C3F86E298
:1034D00098E00E944DCB80E50E943046882339F069
:1034E0000E9456460E9433DD6B017C0103C0C12C53
:1034F000D12C760183E50E943046882361F00E943A
:10350000564620E030E04AE754E40E94AADF0E94D9
:1035100033DD6B017C010E94645D0E94E95360937E
:10352000950D7093960D8093970D9093980DC114FF
:10353000D104E104F104F1F00E94E953C60ED71E54
:10354000E81EF91E0E94E9536C157D058E059F0546
:1035500030F087E198E00E944DCB0C940C3F8091B5
:10356000D20582FDF6CF0E947C5A0E94EDA80E94EF
:103570007ECBE8CF8091D20582FDEBCF0E947C5AB2
:103580000E94EDA80E947ECBF5CF9091C00095FFE0
:10359000FCCF8093C600319684918111F6CF809143
:1035A000C00085FFFCCF8AE08093C6001092111303
:1035B0001092101340E050E0BA018BEB90E10E94B2
:1035C000D2AF8BE1EBEBF0E1DE01159601900D92AD
:1035D0008A95E1F78091B9109091BA109C838B8302
:1035E00084E393E09A838983BE016F5F7F4F8CED04
:1035F00093E00E94BD7CCE0101960E945FA7E0EFA0
:10360000F7E08491882341F09091C00095FFFCCFB2
:103610008093C6003196F5CF8091C00085FFFCCF26
:103620008AE08093C6000C940C3F0E94AD740C9409
:103630000C3F10928A1010928B100C940C3F00914A
:103640004805109149050C5F1F4F6AE270E0C80100
:103650000E946FDF009711F0FC01108241E061E0F1
:10366000C8010E9465780C940C3F80918B108823D0
:1036700019F081E080938A1080911002882311F460
:103680000C940C3F0E94CEA70C940C3F80918A10A2
:10369000882311F40C940C3F10928A100C940C3F68
:1036A00080918B10882311F40C940C3F83E50E94C9
:1036B000304681110C943D3F0C940C3F80918B104F
:1036C000882309F439C0E0E9F1E08491882341F0CE
:1036D0009091C00095FFFCCF8093C6003196F5CF46
:1036E00060910B1370910C1380910D1390910E1338
:1036F0004AE00E948E73EEE8F1E08491882341F065
:103700009091C00095FFFCCF8093C6003196F5CF15
:103710006091031370910413809105139091061327
:103720004AE00E948E738091C00085FFFCCF8AE042
:103730008093C6000C940C3FE2EAF1E08491882368
:1037400041F09091C00095FFFCCF8093C600319668
:10375000F5CF8091C00085FFFCCF8AE08093C60042
:103760000C940C3F80914805909149056AE270E005
:1037700004960E946FDF8C01892BD9F020915E079F
:1037800030915F0740E6429FC001439F900D112496
:103790006EE470E082529A4F0E946FDF60E270E048
:1037A0000E946FDF01969093490580934805D801E8
:1037B0001C92809148059091490541E060E0049693
:1037C0000E9465780C940C3F80918B10882311F433
:1037D0000C940C3F86E592E10E948FAF86E592E162
:1037E0000E941EB610928810109289108091480590
:1037F000909149056AE270E004960E946FDF8C01A7
:10380000892BD9F020915E0730915F0740E6429FF7
:10381000C001439F900D11246EE470E082529A4FD4
:103820000E946FDF60E270E00E946FDF019690936C
:10383000490580934805F8011082009148051091D0
:10384000490580918B10882311F40C940C3F58018A
:10385000F4E0AF0EB11C86E592E10E941EB6109214
:103860008A101D8218861C821B8284E393E09A834F
:10387000898387EB90E19093D7108093D610D8017D
:1038800014968C918F3209F090C06FE270E0C50100
:103890000E946FDF8C010F5F1F4F8AE0E82EFE0150
:1038A00031964F010115110509F485C06FE270E0F2
:1038B000C8010E946FDF6C01009709F47DC00817F2
:1038C000190708F079C03C01601A710AA301B80118
:1038D000CE0187539F4F0E9498DFE9ECF0E0EC0F98
:1038E000FD1FE60DF71D10828E0107531F4FF801D3
:1038F0008191882339F09091C00095FFFCCF80938F
:10390000C600F6CF8091C00085FFFCCFE092C600D4
:103910006091D6107091D7106115710511F06C5F30
:103920007F4F21E0AE0147535F4FCE0105960E94C5
:1039300026B6811132C0ECEDF1E08491882371F05C
:103940009091C00095FFFCCF8093C6003196F5CFD3
:103950009091C00095FFFCCF8093C600D8018D9157
:103960008D018111F5CFEAEDF1E08491882341F0DA
:103970009091C00095FFFCCF8093C6003196F5CFA3
:103980008091C00085FFFCCF8AE08093C600CE0105
:1039900001960E945FA70C940C3F9092D7108092E2
:1039A000D61086010F5F1F4F7DCF88ED90E1909379
:1039B000D7108093D61085016091D6107091D710E2
:1039C0006115710511F06C5F7F4FC753DF4F18828F
:1039D000C95CD040C453DF4F1882CC5CD04022E099
:1039E000A801CE0187539F4F0E9426B6882359F124
:1039F000CE0187539F4F0E94D377882321F1CB526A
:103A0000DF4F688179818A819B81C55DD04041E02B
:103A10000E94BA978823B9F0C752DF4FE881C95D89
:103A2000D040B0E2EB9FF0011124E656F24F309700
:103A300051F085EE8083C453DF4F1882CC5CD040B8
:103A40000E947A97F82ECE0187539F4F0E94E54A35
:103A5000FF2041F1ECECF1E08491882341F090915A
:103A6000C00095FFFCCF8093C6003196F5CFF801DA
:103A70008191882339F09091C00095FFFCCF80930D
:103A8000C600F6CF8091C00085FFFCCF8AE080930E
:103A9000C60010920B1310920C1310920D1310927B
:103AA0000E132CC0E4EBF1E08491882341F0909157
:103AB000C00095FFFCCF8093C6003196F5CFF8018A
:103AC0008191882339F09091C00095FFFCCF8093BD
:103AD000C600F6CFE2EBF1E08491882341F09091AB
:103AE000C00095FFFCCF8093C6003196F5CF809142
:103AF000C00085FFFCCF8AE08093C600CE0101960E
:103B00000E945FA70C940C3F80918A1081110E9443
:103B1000645D00914805109149050C5F1F4F6AE2F2
:103B200070E0C8010E946FDF7C0161E270E0C801B3
:103B30000E946FDF009719F08C010F5F1F4FE11497
:103B4000F10411F0F701108280E50E943046F82E52
:103B500080914805909149050817190708F4F12C40
:103B600080918B10882311F40C940C3F41E04F2579
:103B700061E0C8010E94657883E50E943046882391
:103B8000B9F080914805909149058017910780F41C
:103B90000E944B46AB01BC0140930B1350930C1396
:103BA00060930D1370930E1386E592E10E94D2AFDD
:103BB00080918B10882319F081E080938A10FF2078
:103BC00009F45ACD0C940C3F809148059091490519
:103BD0006AE270E005960E946FDF8C01892BD9F0B4
:103BE00020915E0730915F0740E6429FC001439FEE
:103BF000900D11246EE470E082529A4F0E946FDFA4
:103C000060E270E00E946FDF019690934905809317
:103C10004805D8011C92809148059091490521E002
:103C20002093891041E060E005960E9465780C942D
:103C30000C3F0E94E9530091DA051091DB052091B9
:103C4000DC053091DD05601B710B820B930B28EEB8
:103C500033E040E050E00E949BE6CA01B9012CE34A
:103C600030E040E050E00E949BE67F936F933F93EB
:103C70002F9381EE97E09F938F938E010F5F1F4FDD
:103C80001F930F930E9445E3EBEEFAE094910FB679
:103C9000F894DEBF0FBECDBFEBEEFAE0992349F0FA
:103CA0008091C00085FFFCCF9093C600319694911F
:103CB000F5CFF8018191882339F09091C00095FFEC
:103CC000FCCF8093C600F6CF8091C00085FFFCCF6B
:103CD0008AE08093C600C8010E946FCB8091AD132B
:103CE000882311F40C940C3F1092AD130091AC1387
:103CF00010E0000F111F0E541C4ED8016D917C91E5
:103D0000072E000C880B990B0E947AE32091660223
:103D10003091670240916802509169020E9410DE62
:103D2000181614F00C940C3FF801118210820C94B8
:103D30000C3F83E50E943046882311F40C940C3F1D
:103D40000E9456460E942EDDF62EE72E862F9E2DCF
:103D50008C0180E50E943046882331F00F3F110529
:103D600009F010F40C944D3F0DE010E0EEE9F2E0A4
:103D7000819191918017910771F022E0E63DF20761
:103D8000B9F70930110549F48F2D9E2D9093AF138B
:103D90008093AE1302C00FEF1FEF8091AE130E940D
:103DA0006D4F17FF02C00C940C3F61E0802F0E9402
:103DB000AE526F2D802F0E94CA516F2D7E2D802F05
:103DC0000E94EA520C940C3F86E50E943046811115
:103DD0000C94533F86E70E94304681110C94533F68
:103DE00022242394312C03C021143104D1F0E2E9C0
:103DF000F7E08491882341F09091C00095FFFCCFBB
:103E00008093C6003196F5CFEEE5F7E084918823E4
:103E100041F09091C00095FFFCCF8093C600319691
:103E2000F5CF8EE60E9430468823F1F00E94564678
:103E30000E942EDDCE5ADE4F79836883C255D14071
:103E4000645071096F327105B8F0E7E3F7E08491CF
:103E5000882311F40C940C3F9091C00095FFFCCF87
:103E60008093C6003196F3CF4AE050E0CE5ADE4F41
:103E700059834883C255D14080E00E94475DC65CAB
:103E8000DE4F6883CA53D140C25CDE4F7883CE5385
:103E9000D140CE5BDE4F8883C254D140C85BDE4F39
:103EA0009883C854D14081E00E94475DC45BDE4FD7
:103EB0006883CC54D140C25BDE4F7883CE54D1406E
:103EC000CC5ADE4F8883C455D140CA5ADE4F9883FE
:103ED000C655D14082E00E94475D82E00E94475D66
:103EE0006B017C0183E00E94475DCE5CDE4F6883FE
:103EF00079838A839B83C253D14085E40E943046F4
:103F000081110C946A3F85E60E94304681110C9421
:103F10006A3FC05BDE4F19821882C055D14088E5E8
:103F20000E94304681112EC088E70E9430468111E0
:103F300029C0C65CDE4F5881CA53D140CE5DDE4FEA
:103F40005883C252D140C25CDE4F6881CE53D1400B
:103F5000CA5DDE4F6883C652D140CE5BDE4F88819A
:103F6000C254D140C65DDE4F8883CA52D140C85B7F
:103F7000DE4F9881C854D140C25DDE4F9883CE5247
:103F8000D1403DC00E945646CE5DDE4F6883C2528E
:103F9000D140CA5DDE4F7883C652D140C65DDE4F48
:103FA0008883CA52D140C25DDE4F9883CE52D14041
:103FB00020E030E0A9010E9474E387FF02C00C9466
:103FC000743F20E030E04AE253E4CE5DDE4F68818A
:103FD000C252D140CA5DDE4F7881C652D140C65D23
:103FE000DE4F8881CA52D140C25DDE4F9881CE52E9
:103FF000D1400E9410DE181614F40C94743F89E529
:104000000E94304681112EC089E70E9430468111FE
:1040100029C0C45BDE4FA881CC54D140CA5CDE4FBE
:10402000A883C653D140C25BDE4FB881CE54D14085
:10403000C95CDE4FB883C753D140CC5ADE4FE8810C
:10404000C455D140C85CDE4FE883C853D140CA5A3A
:10405000DE4FF881C655D140C75CDE4FF883C953A7
:10406000D1403DC00E945646CA5CDE4F6883C653AD
:10407000D140C95CDE4F7883C753D140C85CDE4F66
:104080008883C853D140C75CDE4F9883C953D14061
:1040900020E030E0A9010E9474E387FF02C00C9485
:1040A000823F20E030E044E353E4CA5CDE4F6881A5
:1040B000C653D140C95CDE4F7881C753D140C85C3C
:1040C000DE4F8881C853D140C75CDE4F9881C95309
:1040D000D1400E9410DE181614F40C94823F8CE438
:1040E0000E94304681110C94903F8CE60E9430462D
:1040F00081110C94903FCA5BDE4F19821882C6541E
:10410000D14020E030E040E751E4C701B6010E9411
:10411000EADB2B013C010E94645D0E94687CCE5C5E
:10412000DE4F288139814A815B81C253D140298386
:104130003A834B835C838CEA93E19F938F93812C2A
:10414000912CF0E2AF2EF2E4BF2EAE014F5F5F4F35
:104150006A0183017201C45BDE4F2881CC54D140D7
:10416000C25BDE4F3881CE54D140CC5ADE4F4881FD
:10417000C455D140CA5ADE4F5881C655D140C65C9D
:10418000DE4F6881CA53D140C25CDE4F7881CE5386
:10419000D140CE5BDE4F8881C254D140C85BDE4F38
:1041A0009881C854D1400E94BD890E94645D0F90DF
:1041B0000F9053E0251631040CF0FAC0CE5CDE4FB0
:1041C00088819981AA81BB81C253D14089839A8316
:1041D000AB83BC83ACEAB3E1BF93AF93812C912C4A
:1041E000E8ECAE2EE2E4BE2E8E010F5F1F4F680199
:1041F00083017201CA5CDE4F2881C653D140C95C7D
:10420000DE4F3881C753D140C85CDE4F4881C85368
:10421000D140C75CDE4F5881C953D140CE5DDE4FDF
:104220006881C252D140CA5DDE4F7881C652D1400A
:10423000C65DDE4F8881CA52D140C25DDE4F988193
:10424000CE52D1400E94BD890E94645D80E00E94F0
:10425000475D60933B1370933C1380933D139093A1
:104260003E1381E00E94475D60933F1370934013BB
:10427000809341139093421382E00E94475D6093C4
:10428000431370934413809345139093461383E034
:104290000E94475D6B017C01609347137093481344
:1042A0008093491390934A130E94EE430E9419444D
:1042B0000E94A94482E00E94475D6093431370937B
:1042C0004413809345139093461382E00E94475D08
:1042D00020E030E040E751E40E94EADBCE5BDE4FB5
:1042E000688379838A839B83C254D140C982DA82EE
:1042F000EB82FC82ACEAB3E1BF93AF938E010F5F18
:104300001F4F6801CE5BDE4FE880F9800A811B8178
:10431000C254D140CA5CDE4F2881C653D140C95C2B
:10432000DE4F3881C753D140C85CDE4F4881C85347
:10433000D140C75CDE4F5881C953D140CE5DDE4FBE
:104340006881C252D140CA5DDE4F7881C652D140E9
:10435000C65DDE4F8881CA52D140C25DDE4F988172
:10436000CE52D1400E94BD890E94645D82E00E94CD
:10437000475DC85BDE4F688379838A839B83C8541B
:10438000D1406093431370934413809345139093EB
:1043900046130F900F900F900F90C05BDE4F288157
:1043A0003981C055D140232B81F00E94E8430DC0D4
:1043B000ECEBF3E08191882309F400CF9091C000E9
:1043C00095FFFCCF8093C600F5CFAE014F5F5F4FE6
:1043D000C25BDE4F59834883CE54D14081E090E0E8
:1043E000A0E0B0E0C25CDE4F88839983AA83BB83E0
:1043F000CE53D140CA5BDE4FA881B981C654D140AB
:104400001197CA5ADE4FB983A883C655D140CE5AF8
:10441000DE4F88809980C255D140092C000CAA0833
:10442000BB08C65ADE4F88829982AA82BB82CA55CF
:10443000D140C25CDE4F08811981CE53D14001507A
:104440001109C45BDE4F19830883CC54D140CE5B85
:10445000DE4FE880F9800A811B81C254D140CA5CDA
:10446000DE4F2881C653D140C95CDE4F3881C75327
:10447000D140C85CDE4F4881C853D140C75CDE4F95
:104480005881C953D140CE5DDE4F6881C252D140C0
:10449000CA5DDE4F7881C652D140C65DDE4F88814D
:1044A000CA52D140C25DDE4F9881CE52D1400E94A7
:1044B0004544CA5BDE4F28813981C654D140232B45
:1044C00009F4C0C10E94E953AB0141705527CC5A91
:1044D000DE4F59834883C455D1400E94E9532AE2F4
:1044E00030E040E050E00E949BE60E9478E34B0100
:1044F0005C010E94E95328E631E040E050E00E9470
:104500009BE60E9478E322EE3EE245E652E40E94FA
:10451000C6DCC65CDE4F688379838A839B83CA537B
:10452000D140C12CD12CCA5ADE4F28813981C655C1
:10453000D140C216D3060CF053C1CC5ADE4F88814D
:104540009981C455D1400197E9F40E94E95324E1CF
:1045500030E040E050E00E949BE60E9478E322EECB
:104560003EE245E652E40E94C6DC9B01AC01C65C1B
:10457000DE4F688179818A819B81CA53D1400E9434
:10458000EADB1CC00E94E95324E130E040E050E047
:104590000E949BE60E9478E322EE3EE245E652E46A
:1045A0000E94C6DC9B01AC01C65CDE4F688179814C
:1045B0008A819B81CA53D1400E94E9DBC65CDE4FF1
:1045C000688379838A839B83CA53D1400E94E953CD
:1045D0002AE030E040E050E00E949BE6655071091F
:1045E000810991090E947AE39B01AC01C501B401E4
:1045F0000E94EADB4B015C0120E030E0A9010E944F
:1046000074E387FF04C0B7FAB094B7F8B094C65CFF
:10461000DE4F688179818A819B81CA53D1400E9493
:10462000C3DCA50194010E94AADF9B01AC01CE5D11
:10463000DE4F6881C252D140CA5DDE4F7881C652DA
:10464000D140C65DDE4F8881CA52D140C25DDE4F87
:104650009881CE52D1400E94EADB2B013C01C65C1E
:10466000DE4F688179818A819B81CA53D1400E9443
:10467000E2DEA50194010E94AADF9B01AC01CA5CA5
:10468000DE4F6881C653D140C95CDE4F7881C75385
:10469000D140C85CDE4F8881C853D140C75CDE4F33
:1046A0009881C953D1400E94EADBCE5CDE4F68831B
:1046B00079838A839B83C253D14020E030E0A901F3
:1046C000C301B2010E9474E387FD11C020E030E015
:1046D0004AE253E4C301B2010E9410DE181654F4FA
:1046E000412C512C7AE2672E73E4772E03C0412CC3
:1046F000512C320120E030E0A901CE5CDE4F688110
:1047000079818A819B81C253D1400E9474E387FDE5
:104710001DC020E030E044E353E4CE5CDE4F68810E
:1047200079818A819B81C253D1400E9410DE181684
:10473000ACF400E010E024E333E4CE5CDE4F088309
:1047400019832A833B83C253D14008C0CE5CDE4F1D
:10475000188219821A821B82C253D14014E021169A
:10476000310431F5B301A20183EB96E00E94C34A04
:10477000CE5CDE4F488159816A817B81C253D14032
:104780008FEA96E00E94C34AEEEAF6E0849188231D
:1047900041F09091C00095FFFCCF8093C600319608
:1047A000F5CF8091C00085FFFCCFFAE0F093C60002
:1047B000C85BDE4FE880F9800A811B81C854D14074
:1047C000CE5CDE4F288139814A815B81C253D14062
:1047D000C301B2010E9445440FEFC01AD00AA3CE14
:1047E000CE5BDE4FE880F9800A811B81C254D14044
:1047F000CA5CDE4F2881C653D140C95CDE4F388188
:10480000C753D140C85CDE4F4881C853D140C75C14
:10481000DE4F5881C953D140CE5DDE4F6881C25210
:10482000D140CA5DDE4F7881C652D140C65DDE4FB1
:104830008881CA52D140C25DDE4F9881CE52D140AC
:104840000E944544C05BDE4F48815981C055D1402C
:10485000452B41F00E94EE4368EE73E080E090E06B
:104860000E94B1530E9419440E94A94480914313AD
:1048700090914413A0914513B0914613C25BDE4F53
:10488000E881F981CE54D14081939193A193B19362
:10489000C25BDE4FF983E883CE54D1408E010F5FB7
:1048A0001F4F580100E010E0C12CD12C7601D5013A
:1048B0002D913D914D915D915D01C701B6010E9421
:1048C000EADB6B017C010F5F1F4FC45BDE4F88800A
:1048D0009980CC54D140801691064CF7C25CDE4FD3
:1048E000A880B980CE53D140B501BB0C880B990B81
:1048F0000E947AE34B015C019B01AC01C701B60148
:104900000E94C6DCCE5CDE4F688379838A839B83FA
:10491000C253D1408E010F5F1F4F380100E010E0FD
:10492000C12CD12C7601D3016D917D918D919D91FA
:104930003D01CE5CDE4F288139814A815B81C253C3
:10494000D1400E94E9DB9B01AC010E94AADF9B01E0
:10495000AC01C701B6010E94EADB6B017C010F5F6D
:104960001F4FC45BDE4FE881F981CC54D140E01782
:10497000F107CCF6A50194010E94C6DC0E94ECDE92
:104980002B013C01F2E02F1631040CF466C0C25C2E
:10499000DE4F688179818A819B81CE53D1400E940C
:1049A0000374EDEDF3E08191882339F09091C0001C
:1049B00095FFFCCF8093C600F6CFC65ADE4F6881C4
:1049C00079818A819B81CA55D1400E940374E7EAAC
:1049D000F6E08491882341F09091C00095FFFCCFD0
:1049E0008093C6003196F5CF6091431370914413C4
:1049F000809145139091461346E00E94157402E0A1
:104A00002016310409F482C0E2EEF3E0819188239C
:104A100039F09091C00095FFFCCF8093C600F6CF8F
:104A200046E0CE5CDE4F688179818A819B81C253EA
:104A3000D1400E941574EAEEF3E08191882339F0A9
:104A40009091C00095FFFCCF8093C600F6CF46E062
:104A5000C301B2010E94157459C02114310409F038
:104A600055C08CEA93E19F938F93812C912C50E257
:104A7000A52E52E4B52E67E4C62E63E1D62ECE5B9A
:104A8000DE4FE880F9800A811B81C254D140CA5CA4
:104A9000DE4F2881C653D140C95CDE4F3881C753F1
:104AA000D140C85CDE4F4881C853D140C75CDE4F5F
:104AB0005881C953D140CE5DDE4F6881C252D1408A
:104AC000CA5DDE4F7881C652D140C65DDE4F888117
:104AD000CA52D140C25DDE4F9881CE52D1400E9471
:104AE000BD890E94645D0F900F90C05BDE4F2881EE
:104AF0003981C055D140232BB9F00E94E84368EEBC
:104B000073E080E090E00E94B1530EC0E5EAF6E069
:104B10008491882309F4A5CF9091C00095FFFCCF24
:104B20008093C6003196F4CFC25CDE4F88819981B4
:104B3000AA81BB81CE53D1400196A11DB11DC25C9B
:104B4000DE4F88839983AA83BB83CE53D140C25C56
:104B5000DE4F88819981CE53D1400197CE5ADE4FE6
:104B6000A881B981C255D1408A179B070CF461CC4A
:104B70000E94E84368EE73E080E090E00E94B15349
:104B80000E94F443232819F4E7E8F6E02CC0EEE98C
:104B9000F6E08491882341F09091C00095FFFCCF0E
:104BA0008093C6003196F5CF46E0CE5CDE4F68813B
:104BB00079818A819B81C253D1400E941574ECE9AE
:104BC000F6E08491882301F39091C00095FFFCCF1B
:104BD0008093C6003196F5CF9091C00095FFFCCF31
:104BE0008093C600319684918111F6CF46E0C301CF
:104BF000B2010E941574E4E8F6E08491882311F470
:104C00000C940C3F9091C00095FFFCCF8093C600A0
:104C10003196F3CF88E690E00E94E7A781110C94CB
:104C20000C3F83E50E943046882311F40C940C3F1E
:104C30001091CE130E945646212F30E0220F331FD1
:104C400089010E541C4E0E942EDDF8017183608391
:104C50000C940C3F0E94AFA883E50E943046882345
:104C600011F40C940C3F0E9456460E942EDD709366
:104C7000B1136093B0130C940C3F89E690E00E944E
:104C8000E7A781110C940C3FEEE7F6E084918823AE
:104C900041F09091C00095FFFCCF8093C600319603
:104CA000F5CFE091CE1304E0E09FF0011124EB5723
:104CB000FC4E608171818281938141E00E94157474
:104CC000EBE7F6E08491882341F09091C00095FFD6
:104CD000FCCF8093C6003196F5CFE091CE13F0E083
:104CE000EE0FFF1FEE54FC4E60817181072E000C09
:104CF000880B990B0E947AE341E00E941574E7E764
:104D0000F6E08491882341F09091C00095FFFCCF9C
:104D10008093C6003196F5CF6091D6057091D70586
:104D20008091D8059091D90541E00E941574E4E77F
:104D3000F6E08491882341F09091C00095FFFCCF6C
:104D40008093C6003196F5CF6091B0137091B11386
:104D5000072E000C880B990B0E947AE341E00E9419
:104D60001574E1E7F6E08491882341F09091C0004A
:104D700095FFFCCF8093C6003196F5CF60E070E0E0
:104D8000CB010E940374EFE6F6E08491882341F0A2
:104D90009091C00095FFFCCF8093C6003196F5CF6F
:104DA0006091851370918613809187139091881379
:104DB00041E00E941574ECE6F6E08491882341F00E
:104DC0009091C00095FFFCCF8093C6003196F5CF3F
:104DD0006091B2137091B313072E000C880B990BDE
:104DE0000E947AE341E00E941574E8E6F6E08491BF
:104DF000882341F09091C00095FFFCCF8093C600BE
:104E00003196F5CFE091CE13F0E0EC57FC4E608187
:104E100070E080E090E00E940374E3E6F6E08491A5
:104E2000882341F09091C00095FFFCCF8093C6008D
:104E30003196F5CF6091831370E080E090E00E949E
:104E400003748091C00085FFFCCF8AE08093C60088
:104E50000C94924300E023E040E064E18FEF0E9475
:104E6000DA4F8DE690E00E94E7A781110C940C3F89
:104E700088E596E00E944DCB1092AD1383E50E9429
:104E800030468823A1F01091CE130E945646212F60
:104E900030E0220F331F89010E541C4E0E942EDD7C
:104EA000D8016D937C9381E08093020217C082E564
:104EB0000E943046882391F01091CE130E945646EE
:104EC000212F30E0220F331F89010E541C4E0E9407
:104ED0002EDDF801718360831092020283E50E9447
:104EE0003046882351F00E945646609366027093C4
:104EF0006702809368029093690282E40E943046C0
:104F0000882351F00E9456466093620270936302B8
:104F1000809364029093650286E40E943046882361
:104F200069F00E94564660935E0270935F02809320
:104F300060029093610281E08093AD130E94E95377
:104F40004B015C010091CE1310E0F801EE0FFF1F42
:104F5000EE54FC4E60817181072E000C880B990B7A
:104F60000E947AE3000F111F000F111FF801EB5789
:104F7000FC4E11E020813181428153810E9410DE7C
:104F800018160CF010E01093730510928C0DCC24C1
:104F9000CA94DC2C7601EDE42E2EE6E03E2EF8EEEF
:104FA0004F2EF3E05F2E612C712C80918C0D8111BE
:104FB0000C94E140BFEFCB16DB06EB06FB0611F4C9
:104FC0000C94BE3FF7FE02C00C94E1400E94E953EE
:104FD0006C197D096031774210F40C94BE3F0C943B
:104FE000E14000E023E040E064E18FEF0E94DA4F0F
:104FF00082E396E00E944DCB83E50E9430468823F1
:1050000061F00E9456460E942EDD7093B1136093AA
:10501000B01381E0809302020FC082E50E94304607
:10502000882351F00E9456460E942EDD7093B113E2
:105030006093B013109202020E94E9534B015C018D
:1050400010928C0D6091B0137091B113072E000C6B
:10505000880B990B0E947AE311E02091D6053091DC
:10506000D7054091D8055091D9050E9410DE181639
:105070000CF010E0109373050FE216E0EBE2EE2E59
:10508000E6E0FE2EF7E2CF2EF6E0DF2EAAE07A2E43
:10509000809173056091B0137091B113882309F466
:1050A00084C080918C0D811180C0072E000C880B6C
:1050B000990B0E947AE32091D6053091D705409153
:1050C000D8055091D9050E9410DE18160CF084C046
:1050D0000E94E953DC01CB0188199909AA09BB098F
:1050E000893E9340A105B10508F458C0E091AC1386
:1050F00024E0E29FF0011124EB57FC4E60817181A6
:1051000082819381F8012491EFE2F6E0222349F0B5
:105110003091C00035FFFCCF2093C600319624911A
:10512000F5CF42E00E941574F7018491EBE2F6E0BE
:10513000882349F09091C00095FFFCCF8093C60072
:1051400031968491F5CF6091AC1370E080E090E0EF
:105150000E940374F6018491E7E2F6E0882349F0A7
:105160009091C00095FFFCCF8093C600319684914A
:10517000F5CF6091D6057091D7058091D8059091B3
:10518000D90541E00E9415748091C00085FFFCCFD5
:105190007092C6000E94E9534B015C010E947C5A48
:1051A0000E94EDA80E947ECB73CF072E000C880BC7
:1051B000990B0E947AE32091D6053091D705409152
:1051C000D8055091D9050E9474E387FF05C08091EE
:1051D0000202882309F47CCF00E023E04FEF6FEF59
:1051E0008FEF0E94DA4F8DE196E00E944DCB0E9436
:1051F000E9536093950D7093960D8093970D90935E
:10520000980D0C940C3F83E50E943046882331F0C2
:105210000E9456460E9433DD862F01C08FEF0E9408
:105220006D4F0C940C3F83E50E94304680E00E9455
:105230006D4F0C940C3F10926F140C940C3F81E056
:1052400080936F140C940C3F83E50E9430468823B2
:10525000A1F00E94564620E030E04AE754E40E9464
:10526000AADF0E9433DD60936A0270936B02809321
:105270006C0290936D020C940C3F88E50E943046BE
:1052800081110C94FC4089E50E94304681110C94F8
:10529000FC408AE50E94304681110C94FC4085E474
:1052A0000E94304681110C94FC400E94645D129A69
:1052B0000E94645D5F9A1092D3058A9A1092D40579
:1052C0009FB7F894809108018160809308019FBF87
:1052D0001092D505129A0C940C3F83E50E9430463B
:1052E000882311F40C940C3F0E94564620E030E0D5
:1052F0004AE754E40E94AADF0E9433DD6093C213A0
:105300007093C3138093C4139093C5130C940C3FF4
:1053100060E9862E63E0962E0FE613E173E2A72E76
:1053200074E1B72E28EC37E0CE5DDE4F3983288359
:10533000C252D140312CD4018D914D010E94304692
:10534000882309F466C0B3E03B125CC00E94564655
:105350002B013C0120E030E040EA51E40E9474E37C
:1053600087FF49C0A3019201F801608171818281A8
:1053700093810E94C6DC6B017C019B01AC016091B2
:1053800033147091341480913514909136140E9426
:10539000AADF609333147093341480933514909380
:1053A0003614A7019601D5016D917D918D919C9147
:1053B0000E94AADFF5016083718382839383CE5DAF
:1053C000DE4FA881B981C252D1406D917D918D91FE
:1053D0009C910E9478E3A70196010E94AADF0E9497
:1053E00033DDCE5DDE4FE881F981C252D14060836A
:1053F000718382839383D8014D925D926D927C92EA
:10540000139707C00E945646F80160837183828318
:10541000938333940C5F1F4FF4E0AF0EB11CCE5D4D
:10542000DE4F28813981C252D1402C5F3F4FCE5D83
:10543000DE4F39832883C252D14034E033127BCF10
:105440000C940C3FE0E5F5E08491882311F40C9472
:105450000C3F9091C00095FFFCCF8093C600319621
:10546000F3CF00914805109149050B5F1F4F6AE289
:1054700070E0C8010E946FDF009711F0DC011C9200
:10548000C8010E946FCB0C940C3F9091C00095FF17
:10549000FCCF8093C600319684918111F6CF609144
:1054A0003B1370913C1380913D1390913E1342E069
:1054B0000E941574E9E4F5E08491882341F090910D
:1054C000C00095FFFCCF8093C6003196F5CF609168
:1054D0003F1370914013809141139091421342E029
:1054E0000E941574E5E4F5E08491882341F09091E1
:1054F000C00095FFFCCF8093C6003196F5CF609138
:10550000431370914413809145139091461342E0E8
:105510000E941574E1E4F5E08491882341F09091B4
:10552000C00095FFFCCF8093C6003196F5CF609107
:105530004713709148138091491390914A1342E0A8
:105540000E941574E6E3F5E08491882341F0909180
:10555000C00095FFFCCF8093C6003196F5CF2FB7E2
:10556000F89460912B1370912C1380912D139091CE
:105570002E132FBF0E947AE320916F133091701386
:1055800040917113509172130E94C6DC42E00E9458
:105590001574E2E3F5E08491882341F09091C00016
:1055A00095FFFCCF8093C6003196F5CF2FB7F894C6
:1055B00060912F13709130138091311390913213B9
:1055C0002FBF0E947AE3209173133091741340919E
:1055D0007513509176130E94C6DC42E00E94157448
:1055E000EEE2F5E08491882341F09091C00095FFB0
:1055F000FCCF8093C6003196F5CF2FB7F894609119
:1056000033137091341380913513909136132FBF5B
:105610000E947AE3209177133091781340917913A7
:1056200050917A130E94C6DC42E00E94157480916A
:10563000C00085FFFCCF8AE08093C6000C940C3F2D
:1056400010920D020C940C3F9091C00095FFFCCF7E
:105650008093C60081918111F7CF8091C00085FFB2
:10566000FCCF8AE08093C600E6E2F5E084918823CF
:1056700041F09091C00095FFFCCF8093C600319619
:10568000F5CF659B03C0E4E9F3E009C0E9E9F3E085
:1056900006C09091C00095FFFCCF8093C600819119
:1056A0008111F7CF8091C00085FFFCCF8AE0809305
:1056B000C600EEE1F5E08491882341F09091C000AE
:1056C00095FFFCCF8093C6003196F5CF8091030102
:1056D00081FF03C0E4E9F3E009C0E9E9F3E006C0B3
:1056E0009091C00095FFFCCF8093C60081918111FD
:1056F000F7CF8091C00085FFFCCF8AE08093C60081
:10570000E6E1F5E08491882341F09091C00095FF97
:10571000FCCF8093C6003196F5CF4B9B03C0E4E9E4
:10572000F3E009C0E9E9F3E006C09091C00095FFFD
:10573000FCCF8093C60081918111F7CF8091C0008A
:1057400085FFFCCF8AE08093C600EEE0F5E084910F
:10575000882341F09091C00095FFFCCF8093C60054
:105760003196F5CF4A9B03C0E4E9F3E009C0E9E9CB
:10577000F3E006C09091C00095FFFCCF8093C60077
:1057800081918111F7CF8091C00085FFFCCF8AE025
:105790008093C6000C940C3F82E50E94304688231B
:1057A00031F00E9456460E9433DD162F01C010E0F2
:1057B00085E50E943046882331F00E9456460E94BB
:1057C00033DDF62E01C0F12C82E40E94304688239E
:1057D00031F00E9456460E9433DDE62E01C0E12CD6
:1057E00080E50E943046882331F00E9456460E9490
:1057F00033DDD62E02C053E0D52E83E40E9430461E
:10580000882329F00E9456460E9433DD01C060E0E3
:10581000062F2D2D4E2D6F2D812F0E94DA4F0C94C7
:105820000C3F83E50E943046882331F00E945646A3
:105830000E9433DD862F01C080E00E94524F0C94FD
:105840000C3F83E50E943046882329F00E9456468B
:105850000E9433DD01C061E084E0CE59DE4F6883F1
:10586000C256D1400E94847384E090E00E9422736B
:10587000CE59DE4F6881C256D14080EF9FE00E9432
:1058800042510E9427730C940C3F86E40E943046DC
:10589000882331F00E9456460E9433DDD62E01C087
:1058A000D12C84E50E943046882331F00E94564670
:1058B0000E9433DDE62E01C0E12C82E50E943046D5
:1058C000882331F00E9456460E9433DDF62E01C037
:1058D000F12C85E50E943046882331F00E9456461F
:1058E0000E9433DD062F01C000E082E40E943046B2
:1058F000882331F00E9456460E9433DD162F01C0E6
:1059000010E084E00E94847383E090E00E942273A0
:1059100083E090E00E9422736D2D80EF9FE00E9453
:1059200042516E2D80EF9FE00E9442516F2D80EF1B
:105930009FE00E944251602F80EF9FE00E94425101
:10594000612F80EF9FE00E9442510E942773409197
:10595000540260915302809152020E94AD4F0C9408
:105960000C3F86E40E943046882331F00E94564660
:105970000E9433DD062F01C000E084E50E9430461E
:10598000882331F00E9456460E9433DD162F01C055
:1059900010E084E00E94847383E090E00E94227310
:1059A00084E090E00E942273602F80EF9FE00E94CD
:1059B0004251612F80EF9FE00E9442510E94277365
:1059C0000C940C3F84E40E943046882311F40C941C
:1059D0000C3F0E94564620E030E040E05FE30E942A
:1059E000AADF6B017C0120E030E0A9010E9474E392
:1059F000882379F0A7019601C701B6010E94AADFAA
:105A00002BED3FE049E450E40E94AADF9B01AC018A
:105A100004C020E030E040E85FE38091AC13809365
:105A2000CE1384E5CE59DE4F2883C256D140CD59DE
:105A3000DE4F3883C356D140CC59DE4F4883C4561D
:105A4000D140CB59DE4F5883C556D1400E943046D5
:105A5000CE59DE4F2881C256D140CD59DE4F388114
:105A6000C356D140CC59DE4F4881C456D140CB59A2
:105A7000DE4F5881C556D1408823B9F10E94564661
:105A80000E9433DD6093CE13CE59DE4F2881C2567B
:105A9000D140CD59DE4F3881C356D140CC59DE4F6D
:105AA0004881C456D140CB59DE4F5881C556D140AC
:105AB0006623D9F0EBEEFAE08491882341F09091CF
:105AC000C00095FFFCCF8093C6003196F5CFE7EF7D
:105AD000F3E08191882311F40C940C3F9091C00065
