:100000000C94F90F0C942A100C942A100C942A10BA
:100010000C942A100C942A100C942A100C942A1078
:100020000C942A100C942A100C942A100C942A1068
:100030000C942A100C9447520C942A100C942A10F9
:100040000C942A100C94C4690C942A100C942A1055
:100050000C942A100C942A100C944E830C94005487
:100060000C942A100C94F64A0C942A100C942A1022
:100070000C942A100C942A100C942A100C942A1018
:100080000C9488970C942A100C942A100C942A1023
:100090000C942A100C942A100C942A100C944A5494
:1000A0000C942A100C942A100C945A970C942A1031
:1000B0000C942A100C942A100C942A100C942C974F
:1000C0000C942A100C942A100C942A100C942A10C8
:1000D0000C942A100C942A100C942A100C942A10B8
:1000E0000C942A106650695058505C506250A050D1
:1000F0006D50715077507B507F50855089508D5096
:10010000A050935097509B501C532153265330536B
:100110003A53B35344534C5354535E53685372533E
:1001200081538B53B35395539F53A953AE83BD83D0
:10013000D983E883028411842B842F84318435840D
:100140003D84084AD73B3BCE016E84BCBFFDC12F26
:100150003D6C74319ABD56833DDA3D00C77F11BEB8
:10016000D9E4BB4C3E916BAAAABE000000803F05BB
:10017000A84CCDB2D44EB93836A9020C50B99186EC
:1001800088083CA6AAAA2ABE000000803F002F00D3
:100190005344207072696E74696E67206279746569
:1001A00020004E6F74205344207072696E74696E23
:1001B00067002E0044656C6574696F6E2066616926
:1001C0006C65642C2046696C653A200046696C6554
:1001D0002064656C657465643A002E006F70656E0E
:1001E000206661696C65642C2046696C653A200064
:1001F000504944204175746F74756E652066696E50
:100200006973686564212050757420746865206C7A
:10021000617374204B702C204B6920616E64204BFD
:100220006420636F6E7374616E74732066726F6D99
:100230002061626F766520696E746F20436F6E6611
:10024000696775726174696F6E2E68005049442049
:100250004175746F74756E65206661696C656421A3
:100260002074696D656F75740020403A006F6B20D3
:10027000543A006F6B20423A005049442041757453
:100280006F74756E65206661696C656421205465C4
:100290006D706572617475726520746F6F20686926
:1002A000676800204B643A2000204B693A20002008
:1002B0004B703A200020436C61737369632050498E
:1002C0004420002054753A2000204B753A2000202D
:1002D0006D61783A2000206D696E3A200020643A02
:1002E000200020626961733A200020440020490008
:1002F0002020204D33303120500050494420736578
:100300007474696E67733A00205A002059002020E7
:100310004D323036205800486F6D65206F66667329
:10032000657420286D6D293A00204500205A002070
:10033000580020420020540020204D3230352053F8
:1003400000416476616E6365642076617269616202
:100350006C65733A20533D4D696E20666565647225
:1003600061746520286D6D2F73292C20543D4D69D3
:100370006E2074726176656C206665656472617466
:100380006520286D6D2F73292C20423D6D696E69A3
:100390006D756D207365676D656E742074696D652C
:1003A00020286D73292C20583D6D6178696D756D1D
:1003B000205859206A65726B20286D6D2F73292C87
:1003C00020205A3D6D6178696D756D205A206A65EF
:1003D000726B20286D6D2F73292C2020453D6D6197
:1003E00078696D756D2045206A65726B20286D6D8A
:1003F0002F73290020540020204D32303420530028
:10040000416363656C65726174696F6E3A20533D38
:10041000616363656C65726174696F6E2C20543D15
:100420007265747261637420616363656C65726187
:1004300074696F6E00204500205A0020590020206A
:100440004D3230312058004D6178696D756D204115
:100450006363656C65726174696F6E20286D6D2FC2
:100460007332293A00204500205A002059002020EC
:100470004D3230332058004D6178696D756D2066BE
:10048000656564726174657320286D6D2F73293AF8
:1004900000204500205A0020590020204D393220EC
:1004A000580053746570732070657220756E69749E
:1004B0003A006563686F3A002200556E6B6E6F7785
:1004C0006E20636F6D6D616E643A20220043686137
:1004D0006E67652066696C616D656E74005A204FA9
:1004E0006666736574203A20007A5F6D61783A2001
:1004F000007A5F6D696E3A20005A204F6666736518
:1005000074005A204F6666736574206F6B007A5FC3
:100510006D61783A20007A5F6D696E3A2000795FEC
:100520006D696E3A2000785F6D696E3A2000205A3E
:100530003A0020593A0020436F756E7420583A20D3
:100540000020453A00205A3A0020593A00583A0013
:100550004649524D574152455F4E414D453A4D61D6
:10056000726C696E2056313B20537072696E7465EF
:10057000722F6772626C206D617368757020666F90
:10058000722067656E36204649524D574152455F8D
:1005900055524C3A68747470733A2F2F67697468B7
:1005A00075622E636F6D2F4572696B5A616C6D2F8A
:1005B0004D61726C696E2F2050524F544F434F4C17
:1005C0005F56455253494F4E3A312E30204D4143EC
:1005D00048494E455F545950453A334461746F72EF
:1005E0002045585452554445525F434F554E543A56
:1005F0003120555549443A30303030303030302D8C
:10060000303030302D303030302D303030302D30F3
:1006100030303030303030303030300A00426564B5
:1006200020646F6E652E0020423A0020453A005447
:100630003A004265642048656174696E672E00481F
:10064000656174696E6720646F6E652E0020573A8D
:100650000020453A00543A0048656174696E672E7F
:100660002E2E002042403A0020403A00202F003A2F
:1006700000205400202F0020423A00202F006F6BF2
:1006800020543A000A0A005374616E646172642057
:10069000446576696174696F6E3A20000A004D65A1
:1006A000616E3A20000A002020207A3A200000796A
:1006B0003A2000783A20003F5370656369666965A7
:1006C00064206E756D626572206F66206C6567735D
:1006D00020696E206D6F76656D656E74206E6F7427
:1006E00020706C61757361626C652E0A003F5370F7
:1006F00065636966696564205920706F7369746900
:100700006F6E206F7574206F662072616E67652E44
:100710000A003F53706563696669656420582070FC
:100720006F736974696F6E206F7574206F662072C5
:10073000616E67652E0A003F53706563696669657F
:10074000642073616D706C652073697A65206E6FCB
:100750007420706C61757361626C652E0A00467559
:100760006C6C20737570706F72742061743A2068BD
:100770007474703A2F2F33647072696E74626F6193
:1007800072642E636F6D2F666F72756D2E70687058
:100790000A004D3438205A2D50726F626520526520
:1007A000706561746162696C6974792074657374D1
:1007B0002E20202056657273696F6E20322E3030E5
:1007C0000A003F566572626F7365204C6576656CF2
:1007D000206E6F7420706C61757361626C652E0A97
:1007E000002569206D696E2C2025692073656300E2
:1007F000456E642066696C65206C6973740042659F
:1008000067696E2066696C65206C697374004E6F51
:10081000206D6F76652E00526573756D696E672069
:100820007072696E74005761697420666F7220750A
:100830007365722E2E2E000A00205A3A200020598D
:100840003A200020583A200042656400486F6D65E8
:1008500020582F59206265666F7265205A00486FD4
:100860006D6520582F59206265666F7265205A00A9
:10087000536C6565702E2E2E0053657474696E6717
:10088000732053746F7265640053746F72656420D3
:1008900073657474696E67732072657472696576C6
:1008A00065640048617264636F64656420446566D2
:1008B00061756C742053657474696E6773204C6F36
:1008C00061646564002200656E717565696E6720FC
:1008D00022004D38340053544F505045442E2000D0
:1008E0005072696E7465722073746F7070656420E5
:1008F00064756520746F206572726F72732E204666
:10090000697820746865206572726F7220616E6408
:1009100020757365204D39393920746F20726573E5
:10092000746172742E202854656D706572617475DF
:1009300072652069732072657365742E2053657427
:1009400020697420616674657220726573746172C7
:1009500074696E6729006F6B004E6F204C696E657D
:10096000204E756D626572207769746820636865D2
:10097000636B73756D2C204C617374204C696E65CC
:100980003A20004E6F20436865636B73756D207766
:10099000697468206C696E65206E756D6265722C75
:1009A000204C617374204C696E653A200063686561
:1009B000636B73756D206D69736D617463682C2052
:1009C0004C617374204C696E653A20004C696E6509
:1009D000204E756D626572206973206E6F74204CB5
:1009E000617374204C696E65204E756D6265722B63
:1009F000312C204C617374204C696E653A20004D97
:100A0000313130000A00207A3A200020793A200063
:100A100020783A2000426564002020506C616E6EA0
:100A2000657242756666657242797465733A200034
:100A30002046726565204D656D6F72793A20004DD4
:100A40006172203233203230313700436F6D70696C
:100A50006C65643A200028334461746F7220476DDE
:100A600062482900207C20417574686F723A20002A
:100A70004D617220323320323031372031363A30F6
:100A8000313A313700204C617374205570646174C1
:100A900065643A2000312E312E38004D61726C6948
:100AA0006E0020536F6674776172652052657365BE
:100AB0007400205761746368646F672052657365C2
:100AC00074002042726F776E206F757420526573C8
:100AD0006574002045787465726E616C2052657390
:100AE000657400506F7765725570006563686F3A82
:100AF000007374617274006572726F72207772692C
:100B000074696E6720746F2066696C6500656E6439
:100B100073746F7073206869743A205A00205A3ACF
:100B200000656E6473746F7073206869743A20593D
:100B30000020593A00656E6473746F7073206869A1
:100B4000743A20580020583A00656E6473746F70D0
:100B500073206869743A20006563686F3A004865DD
:100B60006174626564206D697373696E6700446FB8
:100B70006E6520736176696E672066696C652E000C
:100B80006F6B004D32390000002100240027002A3D
:100B9000002D003000330001010000040107010AAC
:100BA0000100002200250028002B002E0031003417
:100BB0000002010000050108010B010000200023D4
:100BC00000260029002C002F003200000100000345
:100BD00001060109010505050507050808080802C1
:100BE0000202020A0A0808040404040101010101C6
:100BF0000101010303030303030303040707070CB5
:100C00000C0C0C0C0C0C0C0202020206060606066A
:100C10000606060B0B0B0B0B0B0B0B010210202017
:100C20000808102040102040800201020108040240
:100C300001010204081020408080402010080402B6
:100C4000018004020180402010080402010804020F
:100C50000101020408102040800102040810204015
:100C60008000000A0B02090C0D0E080703040100A6
:100C70000000000000000000000000000000000074
:100C80000000000000000000000000000012111031
:100C90000000000000000000000000000000000054
:100CA0000000000000000002473931200A204731CF
:100CB000205A2D3130204532200A20473930004D4E
:100CC0003834004732380053657474696E677300B6
:100CD00050726570617265004E6F205344206361ED
:100CE0007264005072696E742066726F6D20534496
:100CF0000053746F70207072696E74005265737562
:100D00006D65207072696E74005061757365207036
:100D100072696E740054756E6500496E666F20735B
:100D2000637265656E0061646A75737420686569D5
:100D30006768740061646A757374206865696768C0
:100D400074005370656564005370656564004D36CA
:100D50003030004368616E67652066696C616D655F
:100D60006E7400466C6F7700466C6F770046616E5C
:100D70002073706565640046616E207370656564FC
:100D80000061646A757374206265642068656967D0
:100D900068740042656400426564004E6F7A7A6C44
:100DA00065004E6F7A7A6C65004D61696E0058007F
:100DB00059005A00457874727564657200457874FC
:100DC0007275646572004D6F7665205A004D6F76BE
:100DD000652059004D6F766520580050726570612E
:100DE00072650070012C0190012701B0012201C041
:100DF000011D01F00118011002130130020E016003
:100E000002090190020401C002FF000003FA004041
:100E100003F5008003F000D003EB002004E600702F
:100E200004E100E004DC004005D700C005D200402A
:100E300006CD00D006C8008007C3003008BE00F011
:100E400008B900C009B400B00AAF00B00BAA00D0C6
:100E50000CA500000EA000500F9B00C01096005083
:100E600012910000148C00C0158700B0178200B0EA
:100E7000197D00D01B7800001E730040206E00908A
:100E8000226900F024640040275F0090295A00E0A6
:100E90002B5500102E500020304B0010324600E041
:100EA00033410090353C001037370070383200A0D5
:100EB000392D00B03A2800A03B2300603C1E0010F2
:100EC0003D1900903D1400103E0F00703E0A00C016
:100ED0003E0500003F000024F4D43050C38E20C2F1
:100EE000A24017828B7011127A910D816CD90AA8D9
:100EF00061E108C7586607615143061E4B5D05C195
:100F000045A7041A411104093D9803713931034082
:100F100036DB0265339102D4305402802E1D026309
:100F20002CEE01752AC501B028A001102781018F80
:100F30002564012B244B01E0223401AC211F018DDB
:100F4000200D01801FFC00841EED00971DDF00B8FE
:100F50001CD200E61BC600201BBC00641AB200B203
:100F600019A8000A19A0006A189900D11791004029
:100F7000178B00B516840031167E00B31579003A40
:100F8000157300C7146F0058146A00EE13660088CA
:100F900013630025135E00C7125B006C1257001527
:100FA000125400C111510070114F0021114B00D695
:100FB0001049008D1047004610440002104200C046
:100FC0000F4000800F3E00420F3C00060F3B00CB5D
:100FD0000E3800930E37005C0E3500270E3400F3F8
:100FE0000D3200C10D3100900D3000600D2E003229
:100FF0000D2D00050D2C00D90C2B00AE0C29008501
:101000000C29005C0C2700350C27000E0C2600E88C
:101010000B2400C40B2400A00B23007D0B23005ADB
:101020000B2100390B2100180B2000F80A1F00D9F2
:101030000A1E00BB0A1E009D0A1D00800A1D0063D7
:101040000A1C00470A1B002C0A1B00110A1A00F791
:10105000091A00DD091900C4091900AB0919009229
:101060000917007B091800630917004C09160036A0
:10107000091600200916000A091500F5081500E0F8
:10108000081400CC081400B8081400A40814009038
:101090000813007D0812006B081300580812004660
:1010A0000812003408110023081100120811000171
:1010B000081100F0071000E0071000D0071000C072
:1010C000071000B0070F00A107100091070E008362
:1010D000070F0074070F0065070E0057070E004941
:1010E000070E003B070D002E070E0020070D001312
:1010F000070D0006070D00F9060C00ED060D00E0D7
:10110000060C00D4060C00C8060C00BC060C00B08F
:10111000060C00A4060B0099060C008D060B00823D
:10112000060B0077060B006C060B0061060A0057E1
:10113000060B004C060A0042060A0038060A002E7A
:10114000060A0024060A001A060A0010060900070B
:10115000060A00FD050900F4050900EB050900E297
:10116000050900D9050900D0050900C7050900BE19
:10117000050900B5050800AD050800A50509009C96
:10118000050800940508008C050800840508007C0B
:10119000050800740508006C050700650508005D7A
:1011A000050700560508004E0507004705070040E3
:1011B00005080038050700310507002A0507002348
:1011C0000507001C050600160507000F05070008A7
:1011D00005060002050700FB040600F5040700EE03
:1011E000040600E8040600E2040700DB040600D55C
:1011F000040600CF040600C9040600C3040600BDAF
:10120000040600B7040600B1040500AC040600A6FD
:10121000040600A00405009B040600950405009048
:101220000406008A04050085040500800406007A8F
:1012300004050075040500700405006B04050066D4
:10124000040500610405005C040500570405005214
:101250000405004D04050048040500430405003E54
:101260000404003A04050035040500300404002C91
:1012700004050027040400230405001E0404001ACA
:1012800004040016040500110404000D0404000900
:101290000405000404040000040400FC030400F836
:1012A000030400F4030400F0030400EC030400E86A
:1012B000030400E4030400E0030400DC030400D89A
:1012C000030400D4030400D0030400CC030400C8CA
:1012D000030300C503030024F404D9201BC40C5CE1
:1012E0000E9804C4095F0265077101F405F900FB5B
:1012F00004B30048048700C1036900580355000384
:10130000034500BE023A008402310053022A00293C
:1013100002250004022000E4011C00C8011900AFEE
:10132000011700980114008401130071011000617D
:1013300001100051010E0043010D0036010B002B7E
:10134000010B0020010B00150109000C010900032D
:10135000010800FB000800F3000800EB000700E4B0
:10136000000600DE000600D8000600D2000600CC11
:10137000000500C7000500C2000500BD000400B95B
:10138000000400B5000400B1000400AD000400A991
:10139000000400A5000300A20003009F0004009BBE
:1013A00000030098000300950002009300030090E2
:1013B0000003008D0002008B0003008800020086FD
:1013C00000020084000300810002007F0002007D13
:1013D0000002007B00020079000200770001007625
:1013E0000002007400020072000100710002006F30
:1013F0000002006D0001006C0002006A000100693B
:101400000002006700010066000100650001006441
:101410000002006200010061000100600001005F45
:101420000002005D0001005C0001005B0001005A49
:10143000000100590001005800010057000100564A
:10144000000100550001005400010053000000534A
:101450000001005200010051000100500001004F46
:101460000001004E0000004E0001004D0001004C44
:101470000001004B0000004B0001004A0001004940
:10148000000100480000004800010047000100463C
:101490000000004600010045000000450001004436
:1014A0000001004300000043000100420000004230
:1014B0000001004100000041000100400001003F28
:1014C0000000003F0001003E0000003E0001003D22
:1014D0000000003D0001003C0000003C0000003C1A
:1014E0000001003B0000003B0001003A0000003A10
:1014F0000001003900000039000100380000003808
:1015000000000038000100370000003700010036FD
:1015100000000036000000360001003500000035F4
:1015200000000035000100340000003400000034E9
:1015300000010033000000330000003300010032DE
:1015400000000032000000320001003100000031D4
:1015500000000031000100300000003000000030C9
:101560000001002F0000002F0000002F0000002FBE
:101570000001002E0000002E0000002E0001002DB2
:101580000000002D0000002D0000002D0001002CA7
:101590000000002C0000002C0000002C0001002B9B
:1015A0000000002B0000002B0000002B0001002A8F
:1015B0000000002A0000002A0000002A0001002983
:1015C0000000002900000029000000290000002977
:1015D000000100280000002800000028000000286A
:1015E000000000280001002700000027000000275D
:1015F0000000002700000027000100260000002650
:101600000000002600000026000000260001002542
:101610000000002500000025000000250000002536
:101620000000002500010024000000240000002428
:10163000000000240000002400010023000000231B
:10164000000000230000002300000023000000230E
:101650000000002300010022000000220000002200
:1016600000000022000000220000002200010021F2
:1016700000000021000000210000002100000021E6
:1016800000000021000000210001002000000020D7
:1016900000000020000000200000002000000020CA
:1016A00000000020000000200001001F0000001FBB
:1016B0000000001F0000001F0000001F0000001FAE
:1016C0000000001F0001001E0000001E0000001EA0
:1016D0000000001E000000202D20496E76616C691C
:1016E00064206578747275646572206E756D6265CC
:1016F0007220210053442063617264206F6B006F7D
:1017000070656E526F6F74206661696C65640076F7
:101710006F6C756D652E696E6974206661696C65A4
:1017200064004572726F723A00534420696E6974A6
:10173000206661696C006563686F3A00577269746E
:10174000696E6720746F2066696C653A20002E0010
:101750006F70656E206661696C65642C2046696CEB
:10176000653A20002E006F70656E206661696C65B9
:10177000642C2046696C653A200046696C652073CC
:10178000656C6563746564002053697A653A20006E
:1017900046696C65206F70656E65643A20002E00A6
:1017A0006F70656E206661696C65642C2046696C9B
:1017B000653A20004E6F772066726573682066690F
:1017C0006C653A20004E6F7720646F696E67206603
:1017D000696C653A20002220706F730022207061CE
:1017E00072656E743A2200535542524F5554494E19
:1017F000452043414C4C207461726765743A220065
:10180000747279696E6720746F2063616C6C2073E9
:1018100075622D67636F64652066696C65732077F8
:1018200069746820746F6F206D616E79206C6576C5
:10183000656C732E204D4158206C6576656C20696F
:10184000733A004D3234004D3233202573006175F8
:10185000746F25692E67001000C90210012C014029
:1018600001220170011801B0010E01F001040150C4
:1018700002FA00B002F0003003E600D003DC009072
:1018800004D2007005C800A006BE000008B400B075
:1018900009AA00D00BA000600E960060118C000019
:1018A00015820020197800C01D6E00A0226400B0CF
:1018B000275A00902C500000314600E0343C0010C4
:1018C000383200903A2800603C1E00A03D14008091
:1018D0003E0A00203F0000544845524D414C2052E2
:1018E000554E4157415900546865726D616C2052E4
:1018F000756E617761792C2073797374656D2073CF
:10190000746F7070656421204865617465725F4909
:10191000443A20004572723A204D415854454D508A
:10192000003A204578747275646572207377697423
:1019300063686564206F66662E204D415854454D9E
:101940005020747269676765726564202100457272
:10195000723A204D494E54454D50003A2045787416
:101960007275646572207377697463686564206F4B
:1019700066662E204D494E54454D5020747269675D
:1019800067657265642021004572723A204D4158A6
:1019900054454D50204245440054656D7065726158
:1019A0007475726520686561746564206265642081
:1019B0007377697463686564206F66662E204D4195
:1019C0005854454D5020747269676765726564208C
:1019D0002121004572726F723A005344006C6566B3
:1019E000743A200001200001200020746F6F206CE9
:1019F0006F6E6720657874727573696F6E20707290
:101A00006576656E7465640020636F6C642065782C
:101A100074727573696F6E2070726576656E746529
:101A200064006563686F3A00473238205A004D35CC
:101A30003030005A204F6666736574004739322093
:101A40005A00473330004732380050726570617277
:101A5000696E67205A204F6666736574004D313198
:101A60003720526561647920746F204368616E6726
:101A700065204E6F7A7A6C650047312058383520E2
:101A8000463530303000473238004D313039205340
:101A9000323030004C4544732066756C6C206F6E9C
:101AA000004C4544732066756C6C206F666600764A
:101AB000616C756520626C75650076616C7565207A
:101AC000677265656E0076616C756520726564008D
:101AD0004C4544206272696768746E657373005385
:101AE000657474696E6773004C454420627269675F
:101AF00068746E657373004C454420627269676850
:101B0000746E6573730076616C7565207265640030
:101B100076616C7565207265640076616C75652010
:101B2000677265656E0076616C75652067726565C4
:101B30006E0076616C756520626C75650076616C0F
:101B4000756520626C7565005049442D430050490D
:101B5000442D43005049442D44005049442D440035
:101B60005049442D49005049442D49005049442DC5
:101B700050005049442D50002002204661637400FB
:101B800020022046616374002002204D617800200D
:101B900002204D6178002002204D696E0020022055
:101BA0004D696E004F6666004F6E20004F666600FE
:101BB0004F6E200046616E2073706565640046615B
:101BC0006E20737065656400426564004265640060
:101BD0004E6F7A7A6C65004E6F7A7A6C6500536549
:101BE0007474696E6773004B494C4C45442E200059
:101BF0005072696E7465722068616C7465642E2021
:101C00006B696C6C28292063616C6C6564210053DE
:101C1000544F505045442E20005072696E746572C6
:101C20002073746F707065642064756520746F2014
:101C30006572726F72732E20466978207468652011
:101C40006572726F7220616E6420757365204D3904
:101C5000393920746F20726573746172742E202874
:101C600054656D7065726174757265206973207258
:101C7000657365742E2053657420697420616674E1
:101C800065722072657374617274696E67290045AC
:101C900072726F723A0000002A4300003443000061
:101CA000824300000000000000000000000000006F
:101CB000000000000000000082430000A04000007F
:101CC000A0400000004000002A4300003443000010
:101CD0008243FFFF012200656E717565696E6720A2
:101CE00022007C3C3E5E2B3D3F2F5B5D3B2C2A223D
:101CF0005C004573746570732F6D6D00457374657A
:101D000070732F6D6D005A73746570732F6D6D0055
:101D10005A73746570732F6D6D00597374657073A9
:101D20002F6D6D005973746570732F6D6D0058734E
:101D3000746570732F6D6D005873746570732F6DBB
:101D40006D00412D7265747261637400412D72657E
:101D5000747261637400416D6178206500416D614A
:101D600078206500416D6178207A00416D617820AE
:101D70007A00416D6178207900416D6178207900A9
:101D8000416D6178207800416D617820780056546B
:101D9000726176206D696E005654726176206D69AD
:101DA0006E00566D696E00566D696E00566D6178F5
:101DB000206500566D6178206500566D6178207A47
:101DC00000566D6178207A00566D61782079005652
:101DD0006D6178207900566D6178207800566D61CC
:101DE0007820780056652D6A65726B0056652D6AFD
:101DF00065726B00567A2D6A65726B00567A2D6A91
:101E000065726B005678792D6A65726B0056787929
:101E10002D6A65726B00416363656C0041636365A5
:101E20006C005A204F6666736574005A204F6666D0
:101E30007365740053657474696E6773004D6F76D3
:101E400065206178697300436F6F6C646F776E0013
:101E5000507265686561740054656D706572617477
:101E600075726500473238004175746F20686F6D78
:101E700065004D38340044697361626C6520737489
:101E800065707065727300536574205A206F6666C2
:101E9000736574004368616E6765204E6F7A7A6C73
:101EA00065004D61696E0041626F75740053746125
:101EB00074697374696373004D6F74696F6E004C5D
:101EC0004544204D656E7500526573746F726520D0
:101ED0006661696C73616665004C6F6164206D6555
:101EE0006D6F72790053746F7265206D656D6F72DE
:101EF00079004D61696E004D313530205031300030
:101F000056657273696F6E3A20312E312E38003368
:101F10004461746F72204D61726C696E004D313591
:101F200030205037005072696E74732066696E6994
:101F300073686564005072696E74732073746F7097
:101F4000706564007072696E7474696D65005374B5
:101F50006174697374696373004D3234004D3233B8
:101F60002025730043616E6E6F7420656E74657218
:101F7000207375626469723A2000052E2E004D614F
:101F8000696E00436172642072656D6F76656400EE
:101F90004361726420696E73657274656400526592
:101FA00073656E643A20006F6B004175746F7465E1
:101FB0006D70004E414E494E495459494E46CDCC64
:101FC000CC3D0AD7233C17B7D13877CC2B32959527
:101FD000E6241FB14F0A000020410000C842004023
:101FE0001C4620BCBE4CCA1B0E5AAEC59D74CDDA31
:101FF000C9DB11241FBECFEFD1E2DEBFCDBF00E0B1
:102000000CBF15E0A0E0B2E0ECE8FEEC01E00BBF95
:1020100002C007900D92A834B107D9F724E1A8E4D3
:10202000B5E001C01D92A837B207E1F71FE0C8EF85
:10203000DFE000E006C021970109802FFE010E9429
:102040001DDCC73FD10780E00807A9F70E9402D432
:102050000C9434E70C9400002F923F924F925F92C1
:102060006F927F928F929F92AF92BF92CF92DF92A8
:10207000EF92FF920F931F93CF93DF93CDB7DEB70D
:10208000C556D1400FB6F894DEBF0FBECDBF87E472
:102090000E943B46F82E882311F40C94CD180E9420
:1020A00061460E946ADD6C31710509F486C19CF4B9
:1020B0006230710509F426C124F477FF3BC00C940B
:1020C000173F6330710509F426C16430710509F4C6
:1020D0002EC10C94173F6A35710509F4F9C704F550
:1020E0006D31710509F4BDC26E31710511F00C94AA
:1020F000173F0E94F9430E94B7690E94244480E080
:1021000090E0A6E1B5E480937A0290937B02A093DD
:102110007C02B0937D020E94B444E8E4F8E07AC700
:102120006B35710509F4D8C76C35710509F4D9C749
:102130000C94173F8091811381110C94173F0E94DA
:10214000F8D187EE93E10E9466D10E94F453609328
:10215000D1077093D2078093D3079093D4078090D0
:10216000E7139090E813A090E913B090EA13CE5DC6
:10217000DE4F88829982AA82BB82C252D140A501D9
:10218000940160913B1370913C1380913D139091A9
:102190003E130E94B0E34090EB135090EC1360901C
:1021A000ED137090EE130091EF131091F013209146
:1021B000F1133091F213CA5DDE4F088319832A832D
:1021C0003B83C652D14081117EC0A3019201609130
:1021D0003F137091401380914113909142130E94DC
:1021E000B0E3811170C020E030E040E752E460913C
:1021F0007A0270917B0280917C0290917D020E9414
:1022000002DD4B015C018CEA93E19F938F9363EFB6
:10221000C62E63E1D62ECA5DDE4FE880F9800A81C2
:102220001B81C652D140A3019201CE5DDE4F688171
:1022300079818A819B81C252D1400E94F9890F9095
:102240000F908091E7139091E813A091E913B0915A
:10225000EA1380933B1390933C13A0933D13B093E8
:102260003E138091EB139091EC13A091ED13B0917C
:10227000EE1380933F1390934013A0934113B093B8
:1022800042138091EF139091F013A091F113B0914C
:10229000F2138093431390934413A0934513B09388
:1022A00046138091F3139091F413A091F513B0911C
:1022B000F6138093471390934813A0934913B09358
:1022C0004A130C949D436091160270911702072ED9
:1022D000000C880B990B0E94B6E320917A02309192
:1022E0007B0240917C0250917D020E94E6DF20E05B
:1022F00030E040E752E40E9402DD20E030E048ECAC
:1023000052E47DCF8091811381110C94173F0E947C
:102310007DD281E008C08091811381110C94173F18
:102320000E947DD280E00E9410AB0C949D4380E718
:1023300098E00E9489CB80E50E943B46882339F0D3
:102340000E9461460E946FDD6B017C0103C0C12CBD
:10235000D12C760183E50E943B46882361F00E94E0
:10236000614620E030E04AE754E40E94E6DF0E9444
:102370006FDD6B017C010E94B7690E94F453C60EA9
:10238000D71EE81EF91E0E94F4536093D107709384
:10239000D2078093D3079093D4070E94F4536C150F
:1023A0007D058E059F0510F00C94173F0E94CF66A7
:1023B0000E9429A90E94BACBF0CF0E94A47C8091F0
:1023C0007A0290917B02A0917C02B0917D02809371
:1023D0004C0590934D05A0934E05B0934F05809109
:1023E00016029091170290934B0580934A0584E65C
:1023F00090E090931702809316020E94F45360932A
:10240000D1077093D2078093D3079093D40711E03C
:1024100010930D0280913B1390913C13A0913D13BA
:10242000B0913E138093E7139093E813A093E913C0
:10243000B093EA1380913F1390914013A091411300
:10244000B09142138093EB139093EC13A093ED1390
:10245000B093EE138091431390914413A0914513D0
:10246000B09146138093EF139093F013A093F11360
:10247000B093F2138091471390914813A0914913A0
:10248000B0914A138093F3139093F413A093F51330
:10249000B093F61310927A0210927B0210927C0293
:1024A00010927D0288E50E943B46882311F080E06F
:1024B00009C089E50E943B468111F9CF8AE50E9457
:1024C0003B4681278093030281110C941A3F8AE5D1
:1024D0000E943B4681110C941A3F809103028111A6
:1024E0000C94203F88E50E943B4681110C94203FCC
:1024F0008091030281110C94263F89E50E943B469E
:1025000081110C94263F88E50E943B468823D1F038
:102510000E945646672B682B692BA1F00E946146EA
:102520002091DB133091DC134091DD135091DE13C9
:102530000E9426DC60933B1370933C1380933D1301
:1025400090933E1389E50E943B468823D1F00E9478
:102550005646672B682B692BA1F00E94614620919B
:10256000DF133091E0134091E1135091E2130E9488
:1025700026DC60933F137093401380934113909334
:1025800042138AE50E943B468823D1F00E945646BA
:10259000672B682B692BA1F00E9461462091E31301
:1025A0003091E4134091E5135091E6130E9426DC2C
:1025B0006093431370934413809345139093461391
:1025C0008091030281110C942C3F8AE50E943B46C6
:1025D00081110C942C3FE0904313F0904413009130
:1025E00045131091461320913F13309140134091B1
:1025F00041135091421360913B1370913C138091B1
:102600003D1390913E130E94BB7B10920D0280916E
:102610004C0590914D05A0914E05B0914F058093CA
:102620007A0290937B02A0937C02B0937D0280910A
:102630004A0590914B0590931702809316020E94D1
:10264000F4536093D1077093D2078093D30790938C
:10265000D4071092D1051092D0051092CF050C949A
:10266000173F8091D305882321F08091D4058111F3
:1026700027C08EE598E00E9489CBEBEEFAE08491CA
:10268000882341F09091C00095FFFCCF8093C60055
:102690003196F5CFECE4F8E08491882341F09091F5
:1026A000C00095FFFCCF8093C6003196F5CF809196
:1026B000C00085FFFCCF8AE08093C6000C94173FD2
:1026C0000E94B7690E94A47CCE018C5E9E4F0E943E
:1026D0001171CC5EDE4F688179818A819B81C45102
:1026E000D14060933B1370933C1380933D139093C0
:1026F0003E13C85EDE4F288139814A815B81C85113
:10270000D14020933F133093401340934113509393
:102710004213C45EDE4FE880F9800A811B81CC51F0
:10272000D140E0924313F092441300934513109369
:1027300046130E94BB7B0E94244480E090E0A6E107
:10274000B5E480937A0290937B02A0937C02B093CD
:102750007D02E12CF12C00E711E420E030E0A9013A
:1027600060E070E080E291E40E949F454B015C01D3
:1027700020E030E040EA50E460914313709144134C
:1027800080914513909146130E9426DC7B018C01B9
:1027900020E030E042E053E460E070E08AEA92E456
:1027A0000E949F452B013C0120E030E040EA50E4CC
:1027B0006091431370914413809145139091461397
:1027C0000E9426DC7B018C0120E030E0A90160E062
:1027D00070E086E193E40E949F45CE5DDE4F688302
:1027E00079838A839B83C252D1400E94FF430E9417
:1027F000A47C80E090E0A6E9B2ECC85FDE4F88835D
:102800009983AA83BB83C850D140C12CD12C52E0FC
:10281000E52E53ECF52EC45FDE4FC882D982EA82E2
:10282000FB82CC50D140A3019201C501B4010E94AA
:1028300025DCC05FDE4F688379838A839B83C05128
:10284000D140CE01885F9E4F0E94E65680E090E026
:10285000A2E8B2E4C450DF4F88839983AA83BB8384
:10286000CC5FD040C050DF4FC882D982EA82FB8261
:10287000C050D140A3019201CE5DDE4F68817981C5
:102880008A819B81C252D1400E9425DCCC5FDE4F01
:10289000688379838A839B83C450D140CE0184505E
:1028A0009F4F0E94E656C85FDE4F88809980AA80BD
:1028B000BB80C850D140C65DDE4F88829982AA8213
:1028C000BB82CA52D140C45FDE4F488059806A80C3
:1028D0007B80CC50D140C05FDE4F88809980AA8039
:1028E000BB80C051D140C450DF4F088119812A817B
:1028F0003B81CC5FD040CA5DDE4F088319832A83B9
:102900003B83C652D140C050DF4F288139814A8174
:102910005B81C050D140CE5DDE4F288339834A832E
:102920005B83C252D140CC5FDE4FC880D980EA8041
:10293000FB80C450D140A7019601C301B2010E949F
:10294000E6DFC25DDE4F688379838A839B83CE5244
:10295000D140CE5DDE4F288139814A815B81C252F0
:10296000D140C501B4010E94E6DF9B01AC01C25D0C
:10297000DE4F688179818A819B81CE52D1400E944D
:1029800025DCC051DF4F688379838A839B83C05FD6
:10299000D040CA5DDE4F288139814A815B81C652B1
:1029A000D140C501B4010E94E6DF4B015C01A701E3
:1029B0009601C65DDE4F688179818A819B81CA520A
:1029C000D1400E94E6DF9B01AC01C501B4010E9429
:1029D00025DCCC50DF4F688379838A839B83C45F77
:1029E000D040CE5DDE4F288139814A815B81C25261
:1029F000D140C65DDE4F688179818A819B81CA5250
:102A0000D1400E94E6DF6B017C01CA5DDE4F288168
:102A100039814A815B81C652D140C301B2010E9413
:102A2000E6DF9B01AC01C701B6010E9425DCC8505E
:102A3000DF4F688379838A839B83C85FD040CE0150
:102A400080519F4F0E94E656C051DF4FC880D98009
:102A5000EA80FB80C05FD040CC50DF4F88809980F7
:102A6000AA80BB80C45FD040C850DF4F48805980E7
:102A70006A807B80C85FD04020E030E0A901C301BC
:102A8000B2010E944CDEA301920118160CF05058BE
:102A9000C850DF4F288339834A835B83C85FD040A7
:102AA0001E0164EE260E311CD101CD92DD92ED9215
:102AB000FC921397F10184829582A682B7821896C0
:102AC0002D933D934D935C931B97C101CE59DE4FDF
:102AD0002883C256D140CD59DE4F3883C356D140EA
:102AE000CC59DE4F4883C456D140CB59DE4F588372
:102AF000C556D1400E94E656FE01E753FF4FC05E27
:102B0000DE4FF983E883C052D14080E090E0A0E836
:102B1000BFE3C753DF4F88839983AA83BB83C95C14
:102B2000D040C353DF4F188219821A821B82CD5CBA
:102B3000D040C701B6019058CE59DE4F2881C25609
:102B4000D140CD59DE4F3881C356D140CC59DE4FEC
:102B50004881C456D140CB59DE4F5881C556D1402B
:102B60000E9402DDCF52DF4F688379838A839B8383
:102B7000C15DD040CE0187539F4F0E94E656D101E0
:102B80008D909D90AD90BC901397CE5DDE4F888266
:102B90009982AA82BB82C252D14014964D905D9018
:102BA0006D907C90179718968D909D90AD90BC90ED
:102BB0001B97C753DF4F088119812A813B81C95C6C
:102BC000D040CA5DDE4F088319832A833B83C652F7
:102BD000D140C353DF4F288139814A815B81CD5C6D
:102BE000D040C65DDE4F288339834A835B83CA5257
:102BF000D140CF52DF4FC880D980EA80FB80C15DD1
:102C0000D040A7019601C301B2010E94E6DFC25D78
:102C1000DE4F688379838A839B83CE52D140C65D21
:102C2000DE4F288139814A815B81CA52D140C5017A
:102C3000B4010E94E6DF9B01AC01C25DDE4F6881FA
:102C400079818A819B81CE52D1400E9425DC6983A3
:102C50007A838B839C83CA5DDE4F288139814A81C8
:102C60005B81C652D140C501B4010E94E6DF4B0131
:102C70005C01A7019601CE5DDE4F688179818A8172
:102C80009B81C252D1400E94E6DF9B01AC01C5018D
:102C9000B4010E9425DC6D837E838F839887C65D97
:102CA000DE4F288139814A815B81CA52D140CE5D95
:102CB000DE4F688179818A819B81C252D1400E9416
:102CC000E6DF6B017C01CA5DDE4F288139814A81D4
:102CD0005B81C652D140C301B2010E94E6DF9B0175
:102CE000AC01C701B6010E9425DC69877A878B8712
:102CF0009C87CE0101960E94E656C753DF4F48805D
:102D000059806A807B80C95CD040C353DF4F888084
:102D10009980AA80BB80CD5CD040CF52DF4FC88065
:102D2000D980EA80FB80C15DD04009811A812B8166
:102D30003C818D819E81AF81B885CE5DDE4F8883D9
:102D40009983AA83BB83C252D14089859A85AB857A
:102D5000BC85CA5DDE4F88839983AA83BB83C65234
:102D6000D140D1018D919D910D90BC91A02DC65D5A
:102D7000DE4F88839983AA83BB83CA52D140F10175
:102D8000448155816681778180859185A285B3854F
:102D900040922102509222026092230270922402F9
:102DA0008092250290922602A0922702B0922802D9
:102DB000C0922902D0922A02E0922B02F0922C02B9
:102DC00000932D0210932E0220932F023093300295
:102DD000CE5DDE4F88809980AA80BB80C252D140F0
:102DE0008092310290923202A0923302B092340269
:102DF000CA5DDE4F088119812A813B81C652D140CC
:102E00000093350210933602209337023093380234
:102E1000C65DDE4F88809980AA80BB80CA52D140AF
:102E20008092390290923A02A0923B02B0923C0208
:102E300040933D0250933E0260933F0270934002E4
:102E40008093410290934202A0934302B0934402C4
:102E5000CE0101960E94117169817A818B819C81DA
:102E600060933B1370933C1380933D1390933E13F8
:102E70002D813E814F81588520933F13309340131D
:102E80004093411350934213E0904314F090441444
:102E90000091451410914614E0924313F0924413AC
:102EA00000934513109346130E94BB7B0E94B769A1
:102EB0002FB7F894609133137091341380913513C8
:102EC000909136132FBF0E94B6E320917713309173
:102ED00078134091791350917A130E9402DD6B01AF
:102EE0007C0120E030E0A90160913B1370913C131C
:102EF00080913D1390913E130E9426DCD1016D9389
:102F00007D938D939C93139720E030E0A90160910D
:102F10003F137091401380914113909142130E948E
:102F200026DCC753DF4F688379838A839B83C95C20
:102F3000D0408091431390914413A0914513B091D8
:102F4000461389839A83AB83BC83E1E0F0E0EC0F06
:102F5000FD1FFF93EF93CF5DDE4FF881C152D1404B
:102F6000FF93C05EDE4F8880C052D1408F923F9267
:102F70002F920DB71EB7045211090FB6F8941EBF59
:102F80000FBE0DBFADB7BEB7119684E2E1E2F2E02D
:102F900001900D928A95E1F70E940156A7019601D2
:102FA00069817A818B819C810E9425DC2091431369
:102FB0003091441340914513509146130E9426DCF2
:102FC0007B018C01609343137093441380934513EA
:102FD000909346130FB6F894DEBF0FBECDBF20917D
:102FE0003F1330914013409141135091421360912F
:102FF0003B1370913C1380913D1390913E130E94BE
:10300000BB7B0C94173F9091C00095FFFCCF809341
:10301000C600319684918111F6CFE3E4F8E0849103
:10302000882341F09091C00095FFFCCF8093C600AB
:103030003196F5CF60913B1370913C1380913D1315
:1030400090913E1342E00E945174EEE3F8E08491C7
:10305000882341F09091C00095FFFCCF8093C6007B
:103060003196F5CF60913F137091401380914113D9
:103070009091421342E00E945174E9E3F8E0849198
:10308000882341F09091C00095FFFCCF8093C6004B
:103090003196F5CF6091431370914413809145139D
:1030A0009091461342E00E945174E7E3F8E0849166
:1030B000882341F09091C00095FFFCCF8093C6001B
:1030C0003196F5CF0E94FF430E94F3430C94173FC3
:1030D00010926B140C94173F81E080936B140C9446
:1030E000173F85E40E943B46811102C00E94B769E8
:1030F00090E9692E93E0792E2BE3A22E23E1B22EE4
:103100003BED832E33E1932ED12CD3018D913D01E4
:103110000E943B468823A9F1B3E0DB120AC00E945B
:103120006146F50160837183828393830E94CF7C23
:1031300028C00E946146D4012D913D914D915C9132
:103140000E9426DCF5016083718382839383E09083
:103150004313F090441300914513109146132091AE
:103160003F133091401340914113509142136091AD
:103170003B1370913C1380913D1390913E130E943C
:10318000BB7BD394F4E0AF0EB11C04E0800E911C25
:1031900014E0D112BACF0C94173F8DE40E943B4645
:1031A000882311F40C94473E0E9461460E946ADD18
:1031B0006837710511F40C942B2B0CF0BBC06A32EC
:1031C000710509F4C1C50CF058C06731710509F4E7
:1031D00041C294F56231710511F40C942F29F4F475
:1031E00077FF02C00C94173F623071050CF47AC16E
:1031F0006131710511F00C94173F8EE098E00E9448
:1032000089CB5F988A989FB7F894809108018E7F48
:10321000809308019FBF12980C94173F6531710588
:1032200009F40EC20CF010C26431710511F00C9457
:10323000173FEEEFF7E0BBC16B31710509F449C2EE
:103240003CF46931710509F42CC20CF419C233C283
:103250006E31710509F4C3C234F46C31710509F49F
:103260008CC20C94173F6F31710509F4EDC46032C4
:10327000710509F454C40C94173F6936710511F4B3
:103280000C9448262CF56435710511F40C942F2903
:1032900074F46235710511F40C94262914F00C9421
:1032A0002A296033710509F49AC50C94173F6C35CF
:1032B000710511F40C9493296836710511F40C947E
:1032C00015266535710511F00C94173F0C9478297B
:1032D0006037710511F40C9435267CF46B3671055A
:1032E00011F40C941E2914F40C940E296D367105FA
:1032F00011F40C9435270C94173F6337710511F4C2
:103300000C942D2A4CF46237710511F00C94173F80
:10331000EDE4F5E00C94572A6537710511F40C942F
:103320003C2A6737710511F00C94173FE3EAF3E08C
:103330000C94352B623E710511F40C94B12E0CF0F7
:103340005AC06E3B710511F40C94FC274CF568399A
:10335000710511F40C941C2CA4F46C38710511F453
:103360000C9437266639710511F40C94D72B693704
:10337000710511F00C94173F81E080930D020C94BD
:10338000173F6A39710511F40C94502C14F40C9405
:103390002C2C6B39710511F40C94BC2C0C94173F38
:1033A0006C3C710511F40C94D62D8CF4693C7105BC
:1033B00011F40C94962D6B3C710511F40C94B82DFE
:1033C000683C710511F00C94173F0C94ED2C6E3C89
:1033D000710511F40C94582E14F40C94F82D6C3DD6
:1033E000710511F40C94762E6D3D710511F40C9459
:1033F000872E0C94173F623921E0720711F40C9468
:10340000CC373CF56E3241E0740711F40C947533FF
:1034100084F46C3281E0780711F40C94FD2F14F0E1
:103420000C94AE326831714011F40C94102F0C944E
:10343000173F6039B1E07B0711F40C94C63714F0E4
:103440000C94C9376F32714011F40C948A330C9488
:10345000173F673F01E0700711F40C94D53794F4DF
:10346000653F21E0720711F40C94CF3714F00C94EF
:10347000D237643F714011F00C94173F0E94E84D21
:103480000C94173F633553E0750711F40C94AC3A74
:103490003CF46835724011F40C947C3B0C94173F5B
:1034A000603AA3E07A0709F49AC3673E734011F0CB
:1034B0000C94173F10928113109259148091C613E7
:1034C0009091C713A091C813B091C9138093CA13E8
:1034D0009093CB13A093CC13B093CD130E94D7D26B
:1034E0000C94173F86E298E00E9489CB80E50E9409
:1034F0003B46882339F00E9461460E946FDD6B01D4
:103500007C0103C0C12CD12C760183E50E943B468F
:10351000882361F00E94614620E030E04AE754E4ED
:103520000E94E6DF0E946FDD6B017C010E94B7699B
:103530000E94F4536093D1077093D2078093D3070E
:103540009093D407C114D104E104F104F1F00E9476
:10355000F453C60ED71EE81EF91E0E94F4536C15D4
:103560007D058E059F0530F087E198E00E9489CBAC
:103570000C94173F8091D20582FDF6CF0E94CF6652
:103580000E9429A90E94BACBE8CF8091D20582FD82
:10359000EBCF0E94CF660E9429A90E94BACBF5CF3B
:1035A0009091C00095FFFCCF8093C6003196849126
:1035B0008111F6CF8091C00085FFFCCF8AE0809317
:1035C000C600109211131092101340E050E0BA019F
:1035D0008BEB90E10E940EB08BE1EBEBF0E1DE01B2
:1035E000159601900D928A95E1F78091B91090910E
:1035F000BA109C838B8384E393E09A838983BE0112
:103600006F5F7F4F8CED93E00E94F97CCE010196B5
:103610000E949BA7E0EFF7E08491882341F090910E
:10362000C00095FFFCCF8093C6003196F5CF809106
:10363000C00085FFFCCF8AE08093C6000C94173F42
:103640000E94E9740C94173F10928A1010928B100C
:103650000C94173F00914805109149050C5F1F4FCE
:103660006AE270E0C8010E94ABDF009711F0FC0134
:10367000108241E061E0C8010E94A1780C94173FDC
:1036800080918B10882319F081E080938A108091BB
:103690001002882311F40C94173F0E940AA80C947E
:1036A000173F80918A10882311F40C94173F1092D1
:1036B0008A100C94173F80918B10882311F40C947E
:1036C000173F83E50E943B4681110C94483F0C94C0
:1036D000173F80918B10882309F439C0E0E9F1E0AD
:1036E0008491882341F09091C00095FFFCCF809396
:1036F000C6003196F5CF60910B1370910C13809139
:103700000D1390910E134AE00E94CA73EEE8F1E0A7
:103710008491882341F09091C00095FFFCCF809365
:10372000C6003196F5CF6091031370910413809118
:103730000513909106134AE00E94CA738091C0005D
:1037400085FFFCCF8AE08093C6000C94173FE2EA25
:10375000F1E08491882341F09091C00095FFFCCF67
:103760008093C6003196F5CF8091C00085FFFCCFD5
:103770008AE08093C6000C94173F80914805909191
:1037800049056AE270E004960E94ABDF8C01892B48
:10379000D9F020915E0730915F0740E6429FC0015B
:1037A000439F900D11246EE470E082529A4F0E9464
:1037B000ABDF60E270E00E94ABDF019690934905B9
:1037C00080934805D8011C92809148059091490545
:1037D00041E060E004960E94A1780C94173F80912C
:1037E0008B10882311F40C94173F86E592E10E9418
:1037F000CBAF86E592E10E945AB6109288101092E3
:10380000891080914805909149056AE270E004961C
:103810000E94ABDF8C01892BD9F020915E0730919B
:103820005F0740E6429FC001439F900D11246EE464
:1038300070E082529A4F0E94ABDF60E270E00E941B
:10384000ABDF01969093490580934805F8011082FB
:10385000009148051091490580918B10882311F43F
:103860000C94173F5801F4E0AF0EB11C86E592E1CD
:103870000E945AB610928A101D8218861C821B82E2
:1038800084E393E09A83898387EB90E19093D71048
:103890008093D610D80114968C918F3209F090C085
:1038A0006FE270E0C5010E94ABDF8C010F5F1F4F1C
:1038B0008AE0E82EFE0131964F010115110509F449
:1038C00085C06FE270E0C8010E94ABDF6C01009719
:1038D00009F47DC00817190708F079C03C01601A87
:1038E000710AA301B801CE0187539F4F0E94D4DF14
:1038F000E9ECF0E0EC0FFD1FE60DF71D10828E01E4
:1039000007531F4FF8018191882339F09091C0002F
:1039100095FFFCCF8093C600F6CF8091C00085FF55
:10392000FCCFE092C6006091D6107091D71061155F
:10393000710511F06C5F7F4F21E0AE0147535F4F7F
:10394000CE0105960E9462B6811132C0ECEDF1E025
:103950008491882371F09091C00095FFFCCF8093F3
:10396000C6003196F5CF9091C00095FFFCCF8093B3
:10397000C600D8018D918D018111F5CFEAEDF1E0FE
:103980008491882341F09091C00095FFFCCF8093F3
:10399000C6003196F5CF8091C00085FFFCCF8AE04C
:1039A0008093C600CE0101960E949BA70C94173FFE
:1039B0009092D7108092D61086010F5F1F4F7DCF57
:1039C00088ED90E19093D7108093D6108501609197
:1039D000D6107091D7106115710511F06C5F7F4F93
:1039E000C753DF4F1882C95CD040C453DF4F1882E1
:1039F000CC5CD04022E0A801CE0187539F4F0E94AB
:103A000062B6882359F1CE0187539F4F0E940F78E9
:103A1000882321F1CB52DF4F688179818A819B8194
:103A2000C55DD04041E00E94F6978823B9F0C752A7
:103A3000DF4FE881C95DD040B0E2EB9FF001112477
:103A4000E656F24F309751F085EE8083C453DF4F36
:103A50001882CC5CD0400E94B697F82ECE018753D6
:103A60009F4F0E94F04AFF2041F1ECECF1E084917D
:103A7000882341F09091C00095FFFCCF8093C60051
:103A80003196F5CFF8018191882339F09091C000EB
:103A900095FFFCCF8093C600F6CF8091C00085FFD4
:103AA000FCCF8AE08093C60010920B1310920C1387
:103AB00010920D1310920E132CC0E4EBF1E08491E0
:103AC000882341F09091C00095FFFCCF8093C60001
:103AD0003196F5CFF8018191882339F09091C0009B
:103AE00095FFFCCF8093C600F6CFE2EBF1E0849126
:103AF000882341F09091C00095FFFCCF8093C600D1
:103B00003196F5CF8091C00085FFFCCF8AE080938D
:103B1000C600CE0101960E949BA70C94173F80918E
:103B20008A1081110E94B7690091480510914905DA
:103B30000C5F1F4F6AE270E0C8010E94ABDF7C019E
:103B400061E270E0C8010E94ABDF009719F08C01C0
:103B50000F5F1F4FE114F10411F0F701108280E5AF
:103B60000E943B46F82E8091480590914905081720
:103B7000190708F4F12C80918B10882311F40C9410
:103B8000173F41E04F2561E0C8010E94A17883E51D
:103B90000E943B468823B9F08091480590914905E1
:103BA0008017910780F40E945646AB01BC014093F8
:103BB0000B1350930C1360930D1370930E1386E543
:103BC00092E10E940EB080918B10882319F081E061
:103BD00080938A10FF2009F45ACD0C94173F8091EE
:103BE0004805909149056AE270E005960E94ABDFB6
:103BF0008C01892BD9F020915E0730915F0740E658
:103C0000429FC001439F900D11246EE470E08252E8
:103C10009A4F0E94ABDF60E270E00E94ABDF01963A
:103C20009093490580934805D8011C9280914805DE
:103C30009091490521E02093891041E060E00596CC
:103C40000E94A1780C94173F0E94F4530091DA056A
:103C50001091DB052091DC053091DD05601B710BB7
:103C6000820B930B28EE33E040E050E00E94D7E651
:103C7000CA01B9012CE330E040E050E00E94D7E6F1
:103C80007F936F933F932F9381EE97E09F938F9352
:103C90008E010F5F1F4F1F930F930E9481E3EBEE86
:103CA000FAE094910FB6F894DEBF0FBECDBFEBEEF5
:103CB000FAE0992349F08091C00085FFFCCF9093F2
:103CC000C60031969491F5CFF8018191882339F09F
:103CD0009091C00095FFFCCF8093C600F6CF8091F5
:103CE000C00085FFFCCF8AE08093C600C8010E9417
:103CF000ABCB8091AD13882311F40C94173F109235
:103D0000AD130091AC1310E0000F111F0E541C4EA8
:103D1000D8016D917C91072E000C880B990B0E94A5
:103D2000B6E320916602309167024091680250919B
:103D300069020E944CDE181614F00C94173FF8012B
:103D4000118210820C94173F83E50E943B46882322
:103D500011F40C94173F0E9461460E946ADDF62E12
:103D6000E72E862F9E2D8C0180E50E943B468823FE
:103D700031F00F3F110509F010F40C94583F0DE09D
:103D800010E0EEE9F2E0819191918017910771F0D6
:103D900022E0E63DF207B9F70930110549F48F2D0D
:103DA0009E2D9093AF138093AE1302C00FEF1FEFC1
:103DB0008091AE130E94784F17FF02C00C94173FFA
:103DC00061E0802F0E94B9526F2D802F0E94D55143
:103DD0006F2D7E2D802F0E94F5520C94173F86E5A3
:103DE0000E943B4681110C945E3F86E70E943B4651
:103DF00081110C945E3F22242394312C03C02114A2
:103E00003104D1F0E2E9F7E08491882341F0909108
:103E1000C00095FFFCCF8093C6003196F5CFEEE54C
:103E2000F7E08491882341F09091C00095FFFCCF8A
:103E30008093C6003196F5CF8EE60E943B468823DC
:103E4000F1F00E9461460E946ADDCE5ADE4F79830E
:103E50006883C255D140645071096F327105B8F062
:103E6000E7E3F7E08491882311F40C94173F9091D5
:103E7000C00095FFFCCF8093C6003196F3CF4AE097
:103E800050E0CE5ADE4F59834883C255D14080E07E
:103E90000E949A69C65CDE4F6883CA53D140C25CF7
:103EA000DE4F7883CE53D140CE5BDE4F8883C25441
:103EB000D140C85BDE4F9883C854D14081E00E9456
:103EC0009A69C45BDE4F6883CC54D140C25BDE4F3D
:103ED0007883CE54D140CC5ADE4F8883C455D1402C
:103EE000CA5ADE4F9883C655D14082E00E949A6933
:103EF00082E00E949A696B017C0183E00E949A69CA
:103F0000CE5CDE4F688379838A839B83C253D14022
:103F100085E40E943B4681110C94753F85E60E9422
:103F20003B4681110C94753FC05BDE4F19821882AD
:103F3000C055D14088E50E943B4681112EC088E7DC
:103F40000E943B46811129C0C65CDE4F5881CA538E
:103F5000D140CE5DDE4F5883C252D140C25CDE4FAD
:103F60006881CE53D140CA5DDE4F6883C652D140CE
:103F7000CE5BDE4F8881C254D140C65DDE4F888360
:103F8000CA52D140C85BDE4F9881C854D140C25D4F
:103F9000DE4F9883CE52D1403DC00E946146CE5D37
:103FA000DE4F6883C252D140CA5DDE4F7883C6526D
:103FB000D140C65DDE4F8883CA52D140C25DDE4F1C
:103FC0009883CE52D14020E030E0A9010E94B0E3B6
:103FD00087FF02C00C947F3F20E030E04AE253E4C8
:103FE000CE5DDE4F6881C252D140CA5DDE4F78811E
:103FF000C652D140C65DDE4F8881CA52D140C25DF3
:10400000DE4F9881CE52D1400E944CDE181614F437
:104010000C947F3F89E50E943B4681112EC089E7C1
:104020000E943B46811129C0C45BDE4FA881CC545D
:10403000D140CA5CDE4FA883C653D140C25BDE4F7D
:10404000B881CE54D140C95CDE4FB883C753D1404C
:10405000CC5ADE4FE881C455D140C85CDE4FE883BE
:10406000C853D140CA5ADE4FF881C655D140C75C0B
:10407000DE4FF883C953D1403DC00E946146CA5CFF
:10408000DE4F6883C653D140C95CDE4F7883C75387
:10409000D140C85CDE4F8883C853D140C75CDE4F37
:1040A0009883C953D14020E030E0A9010E94B0E3D9
:1040B00087FF02C00C948D3F20E030E044E353E4DE
:1040C000CA5CDE4F6881C653D140C95CDE4F78813F
:1040D000C753D140C85CDE4F8881C853D140C75C0C
:1040E000DE4F9881C953D1400E944CDE181614F45B
:1040F0000C948D3F8CE40E943B4681110C949B3FB5
:104100008CE60E943B4681110C949B3FCA5BDE4FBC
:1041100019821882C654D14020E030E040E751E4D3
:10412000C701B6010E9426DC2B013C010E94B76941
:104130000E94A47CCE5CDE4F288139814A815B815C
:10414000C253D14029833A834B835C838CEA93E149
:104150009F938F93812C912CF0E2AF2EF2E4BF2E2F
:10416000AE014F5F5F4F6A0183017201C45BDE4F96
:104170002881CC54D140C25BDE4F3881CE54D1402F
:10418000CC5ADE4F4881C455D140CA5ADE4F5881BF
:10419000C655D140C65CDE4F6881CA53D140C25C6F
:1041A000DE4F7881CE53D140CE5BDE4F8881C25442
:1041B000D140C85BDE4F9881C854D1400E94F98934
:1041C0000E94B7690F900F9053E0251631040CF050
:1041D000FAC0CE5CDE4F88819981AA81BB81C2532F
:1041E000D14089839A83AB83BC83ACEAB3E1BF93AC
:1041F000AF93812C912CE8ECAE2EE2E4BE2E8E0122
:104200000F5F1F4F680183017201CA5CDE4F288176
:10421000C653D140C95CDE4F3881C753D140C85C1A
:10422000DE4F4881C853D140C75CDE4F5881C95327
:10423000D140CE5DDE4F6881C252D140CA5DDE4FB3
:104240007881C652D140C65DDE4F8881CA52D140C6
:10425000C25DDE4F9881CE52D1400E94F9890E9402
:10426000B76980E00E949A6960933B1370933C1396
:1042700080933D1390933E1381E00E949A6960936E
:104280003F1370934013809341139093421382E045
:104290000E949A696093431370934413809345136B
:1042A0009093461383E00E949A696B017C016093AE
:1042B0004713709348138093491390934A130E94B5
:1042C000F9430E9424440E94B44482E00E949A6907
:1042D0006093431370934413809345139093461354
:1042E00082E00E949A6920E030E040E751E40E94B9
:1042F00026DCCE5BDE4F688379838A839B83C2543E
:10430000D140C982DA82EB82FC82ACEAB3E1BF938E
:10431000AF938E010F5F1F4F6801CE5BDE4FE880C9
:10432000F9800A811B81C254D140CA5CDE4F2881CA
:10433000C653D140C95CDE4F3881C753D140C85CF9
:10434000DE4F4881C853D140C75CDE4F5881C95306
:10435000D140CE5DDE4F6881C252D140CA5DDE4F92
:104360007881C652D140C65DDE4F8881CA52D140A5
:10437000C25DDE4F9881CE52D1400E94F9890E94E1
:10438000B76982E00E949A69C85BDE4F68837983CF
:104390008A839B83C854D140609343137093441322
:1043A00080934513909346130F900F900F900F90AA
:1043B000C05BDE4F28813981C055D140232B81F06D
:1043C0000E94F3430DC0ECEBF3E08191882309F4E4
:1043D00000CF9091C00095FFFCCF8093C600F5CF31
:1043E000AE014F5F5F4FC25BDE4F59834883CE54AF
:1043F000D14081E090E0A0E0B0E0C25CDE4F888375
:104400009983AA83BB83CE53D140CA5BDE4FA88178
:10441000B981C654D1401197CA5ADE4FB983A883D7
:10442000C655D140CE5ADE4F88809980C255D140C2
:10443000092C000CAA08BB08C65ADE4F8882998254
:10444000AA82BB82CA55D140C25CDE4F0881198165
:10445000CE53D14001501109C45BDE4F198308834C
:10446000CC54D140CE5BDE4FE880F9800A811B81BD
:10447000C254D140CA5CDE4F2881C653D140C95CCA
:10448000DE4F3881C753D140C85CDE4F4881C853E6
:10449000D140C75CDE4F5881C953D140CE5DDE4F5D
:1044A0006881C252D140CA5DDE4F7881C652D14088
:1044B000C65DDE4F8881CA52D140C25DDE4F988111
:1044C000CE52D1400E945044CA5BDE4F28813981D0
:1044D000C654D140232B09F4C0C10E94F453AB0150
:1044E00041705527CC5ADE4F59834883C455D1407B
:1044F0000E94F4532AE230E040E050E00E94D7E608
:104500000E94B4E34B015C010E94F45328E631E0C1
:1045100040E050E00E94D7E60E94B4E322EE3EE283
:1045200045E652E40E9402DDC65CDE4F6883798373
:104530008A839B83CA53D140C12CD12CCA5ADE4FE7
:1045400028813981C655D140C216D3060CF053C11B
:10455000CC5ADE4F88819981C455D1400197E9F446
:104560000E94F45324E130E040E050E00E94D7E69E
:104570000E94B4E322EE3EE245E652E40E9402DDF0
:104580009B01AC01C65CDE4F688179818A819B8189
:10459000CA53D1400E9426DC1CC00E94F45324E17F
:1045A00030E040E050E00E94D7E60E94B4E322EE03
:1045B0003EE245E652E40E9402DD9B01AC01C65C8E
:1045C000DE4F688179818A819B81CA53D1400E94E4
:1045D00025DCC65CDE4F688379838A839B83CA535C
:1045E000D1400E94F4532AE030E040E050E00E94C5
:1045F000D7E665507109810991090E94B6E39B01D4
:10460000AC01C501B4010E9426DC4B015C0120E035
:1046100030E0A9010E94B0E387FF04C0B7FAB0946C
:10462000B7F8B094C65CDE4F688179818A819B813E
:10463000CA53D1400E94FFDCA50194010E94E6DF2D
:104640009B01AC01CE5DDE4F6881C252D140CA5D94
:10465000DE4F7881C652D140C65DDE4F8881CA5296
:10466000D140C25DDE4F9881CE52D1400E9426DCFF
:104670002B013C01C65CDE4F688179818A819B8178
:10468000CA53D1400E941EDFA50194010E94E6DFBB
:104690009B01AC01CA5CDE4F6881C653D140C95C46
:1046A000DE4F7881C753D140C85CDE4F8881C85344
:1046B000D140C75CDE4F9881C953D1400E9426DCAF
:1046C000CE5CDE4F688379838A839B83C253D1405B
:1046D00020E030E0A901C301B2010E94B0E387FDF0
:1046E00011C020E030E04AE253E4C301B2010E946D
:1046F0004CDE181654F4412C512C7AE2672E73E4E8
:10470000772E03C0412C512C320120E030E0A9016A
:10471000CE5CDE4F688179818A819B81C253D14012
:104720000E94B0E387FD1DC020E030E044E353E485
:10473000CE5CDE4F688179818A819B81C253D140F2
:104740000E944CDE1816ACF400E010E024E333E4E1
:10475000CE5CDE4F088319832A833B83C253D1404A
:1047600008C0CE5CDE4F188219821A821B82C253A7
:10477000D14014E02116310431F5B301A20183EBDD
:1047800096E00E94CE4ACE5CDE4F488159816A8114
:104790007B81C253D1408FEA96E00E94CE4AEEEA76
:1047A000F6E08491882341F09091C00095FFFCCF02
:1047B0008093C6003196F5CF8091C00085FFFCCF75
:1047C000FAE0F093C600C85BDE4FE880F9800A810A
:1047D0001B81C854D140CE5CDE4F288139814A818B
:1047E0005B81C253D140C301B2010E9450440FEF1C
:1047F000C01AD00AA3CECE5BDE4FE880F9800A81D2
:104800001B81C254D140CA5CDE4F2881C653D140BF
:10481000C95CDE4F3881C753D140C85CDE4F488148
:10482000C853D140C75CDE4F5881C953D140CE5DDB
:10483000DE4F6881C252D140CA5DDE4F7881C652D8
:10484000D140C65DDE4F8881CA52D140C25DDE4F85
:104850009881CE52D1400E945044C05BDE4F4881C7
:104860005981C055D140452B41F00E94F94368EE73
:1048700073E080E090E00E94BC530E9424440E94B8
:10488000B4448091431390914413A0914513B09187
:104890004613C25BDE4FE881F981CE54D14081934B
:1048A0009193A193B193C25BDE4FF983E883CE5419
:1048B000D1408E010F5F1F4F580100E010E0C12C66
:1048C000D12C7601D5012D913D914D915D915D01E8
:1048D000C701B6010E9426DC6B017C010F5F1F4FF0
:1048E000C45BDE4F88809980CC54D14080169106FD
:1048F0004CF7C25CDE4FA880B980CE53D140B501E1
:10490000BB0C880B990B0E94B6E34B015C019B0129
:10491000AC01C701B6010E9402DDCE5CDE4F6883A8
:1049200079838A839B83C253D1408E010F5F1F4FCF
:10493000380100E010E0C12CD12C7601D3016D913B
:104940007D918D919D913D01CE5CDE4F2881398115
:104950004A815B81C253D1400E9425DC9B01AC019E
:104960000E94E6DF9B01AC01C701B6010E9426DC74
:104970006B017C010F5F1F4FC45BDE4FE881F98143
:10498000CC54D140E017F107CCF6A50194010E9468
:1049900002DD0E9428DF2B013C01F2E02F163104DA
:1049A0000CF466C0C25CDE4F688179818A819B818C
:1049B000CE53D1400E943F74EDEDF3E08191882306
:1049C00039F09091C00095FFFCCF8093C600F6CFE0
:1049D000C65ADE4F688179818A819B81CA55D14050
:1049E0000E943F74E7EAF6E08491882341F09091B9
:1049F000C00095FFFCCF8093C6003196F5CF609143
:104A0000431370914413809145139091461346E0EF
:104A10000E94517402E02016310409F482C0E2EED3
:104A2000F3E08191882339F09091C00095FFFCCF8D
:104A30008093C600F6CF46E0CE5CDE4F6881798178
:104A40008A819B81C253D1400E945174EAEEF3E007
:104A50008191882339F09091C00095FFFCCF80931D
:104A6000C600F6CF46E0C301B2010E94517459C09E
:104A70002114310409F055C08CEA93E19F938F9380
:104A8000812C912C50E2A52E52E4B52E67E4C62E5F
:104A900063E1D62ECE5BDE4FE880F9800A811B8170
:104AA000C254D140CA5CDE4F2881C653D140C95C94
:104AB000DE4F3881C753D140C85CDE4F4881C853B0
:104AC000D140C75CDE4F5881C953D140CE5DDE4F27
:104AD0006881C252D140CA5DDE4F7881C652D14052
:104AE000C65DDE4F8881CA52D140C25DDE4F9881DB
:104AF000CE52D1400E94F9890E94B7690F900F9061
:104B0000C05BDE4F28813981C055D140232BB9F0DD
:104B10000E94F34368EE73E080E090E00E94BC5393
:104B20000EC0E5EAF6E08491882309F4A5CF9091C0
:104B3000C00095FFFCCF8093C6003196F4CFC25CD5
:104B4000DE4F88819981AA81BB81CE53D1400196E5
:104B5000A11DB11DC25CDE4F88839983AA83BB83EC
:104B6000CE53D140C25CDE4F88819981CE53D14073
:104B70000197CE5ADE4FA881B981C255D1408A171C
:104B80009B070CF461CC0E94F34368EE73E080E075
:104B900090E00E94BC530E94FF43232819F4E7E8E9
:104BA000F6E02CC0EEE9F6E08491882341F0909184
:104BB000C00095FFFCCF8093C6003196F5CF46E04C
:104BC000CE5CDE4F688179818A819B81C253D1405E
:104BD0000E945174ECE9F6E08491882301F39091EE
:104BE000C00095FFFCCF8093C6003196F5CF909121
:104BF000C00095FFFCCF8093C6003196849181114F
:104C0000F6CF46E0C301B2010E945174E4E8F6E039
:104C10008491882311F40C94173F9091C00095FF64
:104C2000FCCF8093C6003196F3CF88E690E00E94D7
:104C300023A881110C94173F83E50E943B468823EB
:104C400011F40C94173F1091CE130E946146212F4E
:104C500030E0220F331F89010E541C4E0E946ADD82
:104C6000F801718360830C94173F0E94EBA883E5E1
:104C70000E943B46882311F40C94173F0E94614622
:104C80000E946ADD7093B1136093B0130C94173FC8
:104C900089E690E00E9423A881110C94173FEEE76B
:104CA000F6E08491882341F09091C00095FFFCCFFD
:104CB0008093C6003196F5CFE091CE1304E0E09FDB
:104CC000F0011124EB57FC4E608171818281938148
:104CD00041E00E945174EBE7F6E08491882341F0B3
:104CE0009091C00095FFFCCF8093C6003196F5CF20
:104CF000E091CE13F0E0EE0FFF1FEE54FC4E60810A
:104D00007181072E000C880B990B0E94B6E341E0DD
:104D10000E945174E7E7F6E08491882341F0909176
:104D2000C00095FFFCCF8093C6003196F5CF60910F
:104D3000D6057091D7058091D8059091D90541E0AD
:104D40000E945174E4E7F6E08491882341F0909149
:104D5000C00095FFFCCF8093C6003196F5CF6091DF
:104D6000B0137091B113072E000C880B990B0E94A1
:104D7000B6E341E00E945174E1E7F6E084918823B4
:104D800041F09091C00095FFFCCF8093C600319612
:104D9000F5CF60E070E0CB010E943F74EFE6F6E0F3
:104DA0008491882341F09091C00095FFFCCF8093BF
:104DB000C6003196F5CF609185137091861380916E
:104DC00087139091881341E00E945174ECE6F6E05D
:104DD0008491882341F09091C00095FFFCCF80938F
:104DE000C6003196F5CF6091B2137091B313072EC0
:104DF000000C880B990B0E94B6E341E00E945174AD
:104E0000E8E6F6E08491882341F09091C00095FF98
:104E1000FCCF8093C6003196F5CFE091CE13F0E041
:104E2000EC57FC4E608170E080E090E00E943F749F
:104E3000E3E6F6E08491882341F09091C00095FF6D
:104E4000FCCF8093C6003196F5CF6091831370E05C
:104E500080E090E00E943F748091C00085FFFCCF0D
:104E60008AE08093C6000C949D4300E023E040E07C
:104E700064E18FEF0E94E54F8DE690E00E9423A849
:104E800081110C94173F88E596E00E9489CB10921F
:104E9000AD1383E50E943B468823A1F01091CE1309
:104EA0000E946146212F30E0220F331F89010E54EA
:104EB0001C4E0E946ADDD8016D937C9381E0809343
:104EC000020217C082E50E943B46882391F01091B0
:104ED000CE130E946146212F30E0220F331F89013B
:104EE0000E541C4E0E946ADDF8017183608310929B
:104EF000020283E50E943B46882351F00E946146EE
:104F000060936602709367028093680290936902CF
:104F100082E40E943B46882351F00E9461466093E0
:104F2000620270936302809364029093650286E448
:104F30000E943B46882369F00E94614660935E02AE
:104F400070935F02809360029093610281E080938E
:104F5000AD130E94F4534B015C010091CE1310E09D
:104F6000F801EE0FFF1FEE54FC4E60817181072E99
:104F7000000C880B990B0E94B6E3000F111F000F65
:104F8000111FF801EB57FC4E11E020813181428165
:104F900053810E944CDE18160CF010E0109373053C
:104FA0001092C807CC24CA94DC2C7601EDE42E2E96
:104FB000E6E03E2EF8EE4F2EF3E05F2E612C712CD2
:104FC0008091C80781110C94EC40BFEFCB16DB0633
:104FD000EB06FB0611F40C94C93FF7FE02C00C94DB
:104FE000EC400E94F4536C197D096031774210F453
:104FF0000C94C93F0C94EC4000E023E040E064E1F5
:105000008FEF0E94E54F82E396E00E9489CB83E513
:105010000E943B46882361F00E9461460E946ADD3F
:105020007093B1136093B01381E0809302020FC0BC
:1050300082E50E943B46882351F00E9461460E940F
:105040006ADD7093B1136093B013109202020E9454
:10505000F4534B015C011092C8076091B01370913A
:10506000B113072E000C880B990B0E94B6E311E0D8
:105070002091D6053091D7054091D8055091D9059A
:105080000E944CDE18160CF010E0109373050FE22E
:1050900016E0EBE2EE2EE6E0FE2EF7E2CF2EF6E093
:1050A000DF2EAAE07A2E809173056091B013709183
:1050B000B113882309F484C08091C807811180C08E
:1050C000072E000C880B990B0E94B6E32091D605A1
:1050D0003091D7054091D8055091D9050E944CDEFA
:1050E00018160CF084C00E94F453DC01CB0188191F
:1050F0009909AA09BB09893E9340A105B10508F4A5
:1051000058C0E091AC1324E0E29FF0011124EB576A
:10511000FC4E6081718182819381F8012491EFE2DC
:10512000F6E0222349F03091C00035FFFCCF2093F8
:10513000C60031962491F5CF42E00E945174F701E8
:105140008491EBE2F6E0882349F09091C00095FF4E
:10515000FCCF8093C60031968491F5CF6091AC135B
:1051600070E080E090E00E943F74F6018491E7E2F5
:10517000F6E0882349F09091C00095FFFCCF809322
:10518000C60031968491F5CF6091D6057091D70510
:105190008091D8059091D90541E00E945174809189
:1051A000C00085FFFCCF7092C6000E94F4534B01F3
:1051B0005C010E94CF660E9429A90E94BACB73CFDE
:1051C000072E000C880B990B0E94B6E32091D605A0
:1051D0003091D7054091D8055091D9050E94B0E390
:1051E00087FF05C080910202882309F47CCF00E08C
:1051F00023E04FEF6FEF8FEF0E94E54F8DE196E0D8
:105200000E9489CB0E94F4536093D1077093D20718
:105210008093D3079093D4070C94173F83E50E94A3
:105220003B46882331F00E9461460E946FDD862F45
:1052300001C08FEF0E94784F0C94173F83E50E94C6
:105240003B4680E00E94784F0C94173F10926F14F9
:105250000C94173F81E080936F140C94173F83E503
:105260000E943B468823A1F00E94614620E030E086
:105270004AE754E40E94E6DF0E946FDD60936A0211
:1052800070936B0280936C0290936D020C94173FA5
:1052900088E50E943B4681110C94074189E50E94F4
:1052A0003B4681110C9407418AE50E943B468111DF
:1052B0000C94074185E40E943B4681110C94074100
:1052C0000E94B769129A0E94B7695F9A1092D3053B
:1052D0008A9A1092D4059FB7F89480910801816052
:1052E000809308019FBF1092D505129A0C94173F26
:1052F00083E50E943B46882311F40C94173F0E94DB
:10530000614620E030E04AE754E40E94E6DF0E9474
:105310006FDD6093C2137093C3138093C413909393
:10532000C5130C94173F60E9862E63E0962E0FE6B6
:1053300013E173E2A72E74E1B72E26ED37E0CE5DC0
:10534000DE4F39832883C252D140312CD4018D9154
:105350004D010E943B46882309F466C0B3E03B122E
:105360005CC00E9461462B013C0120E030E040EA35
:1053700051E40E94B0E387FF49C0A3019201F80104
:1053800060817181828193810E9402DD6B017C01C9
:105390009B01AC01609133147091341480913514E9
:1053A000909136140E94E6DF6093331470933414A6
:1053B0008093351490933614A7019601D5016D9111
:1053C0007D918D919C910E94E6DFF5016083718350
:1053D00082839383CE5DDE4FA881B981C252D140D2
:1053E0006D917D918D919C910E94B4E3A7019601EE
:1053F0000E94E6DF0E946FDDCE5DDE4FE881F9811D
:10540000C252D1406083718382839383D8014D92CD
:105410005D926D927C92139707C00E946146F801DD
:10542000608371838283938333940C5F1F4FF4E016
:10543000AF0EB11CCE5DDE4F28813981C252D14002
:105440002C5F3F4FCE5DDE4F39832883C252D1405F
:1054500034E033127BCF0C94173FE0E5F5E0849104
:10546000882311F40C94173F9091C00095FFFCCF56
:105470008093C6003196F3CF0091480510914905FD
:105480000B5F1F4F6AE270E0C8010E94ABDF00971C
:1054900011F0DC011C92C8010E94ABCB0C94173FA9
:1054A0009091C00095FFFCCF8093C6003196849107
:1054B0008111F6CF60913B1370913C1380913D13A5
:1054C00090913E1342E00E945174E9E4F5E084912A
:1054D000882341F09091C00095FFFCCF8093C600D7
:1054E0003196F5CF60913F13709140138091411335
:1054F0009091421342E00E945174E5E4F5E08491FA
:10550000882341F09091C00095FFFCCF8093C600A6
:105510003196F5CF609143137091441380914513F8
:105520009091461342E00E945174E1E4F5E08491C9
:10553000882341F09091C00095FFFCCF8093C60076
:105540003196F5CF609147137091481380914913BC
:1055500090914A1342E00E945174E6E3F5E0849191
:10556000882341F09091C00095FFFCCF8093C60046
:105570003196F5CF2FB7F89460912B1370912C13BF
:1055800080912D1390912E132FBF0E94B6E320918E
:105590006F133091701340917113509172130E94E8
:1055A00002DD42E00E945174E2E3F5E08491882339
:1055B00041F09091C00095FFFCCF8093C6003196DA
:1055C000F5CF2FB7F89460912F137091301380911D
:1055D0003113909132132FBF0E94B6E320917313C1
:1055E0003091741340917513509176130E9402DD2F
:1055F00042E00E945174EEE2F5E08491882341F08C
:105600009091C00095FFFCCF8093C6003196F5CFF6
:105610002FB7F89460913313709134138091351340
:10562000909136132FBF0E94B6E3209177133091EB
:1056300078134091791350917A130E9402DD42E071
:105640000E9451748091C00085FFFCCF8AE0809356
:10565000C6000C94173F10920D020C94173F9091C6
:10566000C00095FFFCCF8093C60081918111F7CFD8
:105670008091C00085FFFCCF8AE08093C600E6E2FF
:10568000F5E08491882341F09091C00095FFFCCF14
:105690008093C6003196F5CF659B03C0E4E9F3E043
:1056A00009C0E9E9F3E006C09091C00095FFFCCF86
:1056B0008093C60081918111F7CF8091C00085FF52
:1056C000FCCF8AE08093C600EEE1F5E08491882368
:1056D00041F09091C00095FFFCCF8093C6003196B9
:1056E000F5CF8091030181FF03C0E4E9F3E009C035
:1056F000E9E9F3E006C09091C00095FFFCCF8093EC
:10570000C60081918111F7CF8091C00085FFFCCF49
:105710008AE08093C600E6E1F5E08491882341F0B9
:105720009091C00095FFFCCF8093C6003196F5CFD5
:105730004B9B03C0E4E9F3E009C0E9E9F3E006C0EC
:105740009091C00095FFFCCF8093C600819181119C
:10575000F7CF8091C00085FFFCCF8AE08093C60020
:10576000EEE0F5E08491882341F09091C00095FF30
:10577000FCCF8093C6003196F5CF4A9B03C0E4E985
:10578000F3E009C0E9E9F3E006C09091C00095FF9D
:10579000FCCF8093C60081918111F7CF8091C0002A
:1057A00085FFFCCF8AE08093C6000C94173F82E50A
:1057B0000E943B46882331F00E9461460E946FDDC3
:1057C000162F01C010E085E50E943B46882331F08A
:1057D0000E9461460E946FDDF62E01C0F12C82E42A
:1057E0000E943B46882331F00E9461460E946FDD93
:1057F000E62E01C0E12C80E50E943B46882331F073
:105800000E9461460E946FDDD62E02C053E0D52E65
:1058100083E40E943B46882329F00E9461460E944F
:105820006FDD01C060E0062F2D2D4E2D6F2D812FD5
:105830000E94E54F0C94173F83E50E943B46882366
:1058400031F00E9461460E946FDD862F01C080E02A
:105850000E945D4F0C94173F83E50E943B468823CE
:1058600029F00E9461460E946FDD01C061E084E082
:10587000CE59DE4F6883C256D1400E94C07384E087
:1058800090E00E945E73CE59DE4F6881C256D140CF
:1058900080EF9FE00E944D510E9463730C94173F6C
:1058A00086E40E943B46882331F00E9461460E94B4
:1058B0006FDDD62E01C0D12C84E50E943B468823A3
:1058C00031F00E9461460E946FDDE62E01C0E12C9E
:1058D00082E50E943B46882331F00E9461460E9487
:1058E0006FDDF62E01C0F12C85E50E943B46882332
:1058F00031F00E9461460E946FDD062F01C000E07A
:1059000082E40E943B46882331F00E9461460E9457
:105910006FDD162F01C010E084E00E94C07383E0A9
:1059200090E00E945E7383E090E00E945E736D2DB4
:1059300080EF9FE00E944D516E2D80EF9FE00E940E
:105940004D516F2D80EF9FE00E944D51602F80EFF1
:105950009FE00E944D51612F80EF9FE00E944D51CA
:105960000E946373409154026091530280915202ED
:105970000E94B84F0C94173F86E40E943B46882350
:1059800031F00E9461460E946FDD062F01C000E0E9
:1059900084E50E943B46882331F00E9461460E94C4
:1059A0006FDD162F01C010E084E00E94C07383E019
:1059B00090E00E945E7384E090E00E945E73602F2E
:1059C00080EF9FE00E944D51612F80EF9FE00E9489
:1059D0004D510E9463730C94173F84E40E943B4630
:1059E000882311F40C94173F0E94614620E030E0B8
:1059F00040E05FE30E94E6DF6B017C0120E030E0E5
:105A0000A9010E94B0E3882379F0A7019601C7019C
:105A1000B6010E94E6DF2BED3FE049E450E40E942E
:105A2000E6DF9B01AC0104C020E030E040E85FE32A
:105A30008091AC138093CE1384E5CE59DE4F28833A
:105A4000C256D140CD59DE4F3883C356D140CC59D0
:105A5000DE4F4883C456D140CB59DE4F5883C556DC
:105A6000D1400E943B46CE59DE4F2881C256D140DC
:105A7000CD59DE4F3881C356D140CC59DE4F4881D5
:105A8000C456D140CB59DE4F5881C556D1408823EA
:105A9000B9F10E9461460E946FDD6093CE13CE592A
:105AA000DE4F2881C256D140CD59DE4F3881C356D2
:105AB000D140CC59DE4F4881C456D140CB59DE4F3E
:105AC0005881C556D1406623D9F0EBEEFAE08491B7
:105AD000882341F09091C00095FFFCCF8093C600D1
