:100000000C94FC0F0C942D100C942D100C942D10AE
:100010000C942D100C942D100C942D100C942D106C
:100020000C942D100C942D100C942D100C942D105C
:100030000C942D100C94B2520C942D100C942D1085
:100040000C942D100C94E05D0C942D100C942D103C
:100050000C942D100C942D100C947A830C946B54EA
:100060000C942D100C94614B0C942D100C942D10AD
:100070000C942D100C942D100C942D100C942D100C
:100080000C949C970C942D100C942D100C942D1006
:100090000C942D100C942D100C942D100C94B55420
:1000A0000C942D100C942D100C946E970C942D1014
:1000B0000C942D100C942D100C942D100C94409732
:1000C0000C942D100C942D100C942D100C942D10BC
:1000D0000C942D100C942D100C942D100C942D10AC
:1000E0000C942D10D150D450C350C750CD500B514B
:1000F000D850DC50E250E650EA50F050F450F8503E
:100100000B51FE500251065187538C5391539B5310
:10011000A5531E54AF53B753BF53C953D353DD53E5
:10012000EC53F6531E5400540A541454C983D88314
:10013000F48303841D842C8446844A844C84508434
:100140005884084AD73B3BCE016E84BCBFFDC12F0B
:100150003D6C74319ABD56833DDA3D00C77F11BEB8
:10016000D9E4BB4C3E916BAAAABE000000803F05BB
:10017000A84CCDB2D44EB93836A9020C50B99186EC
:1001800088083CA6AAAA2ABE000000803F004E4173
:100190004E494E495459494E46CDCCCC3D0AD72301
:1001A0003C17B7D13877CC2B329595E6241FB14F49
:1001B0000A000020410000C84200401C4620BCBE8E
:1001C0004CCA1B0E5AAEC59D742F0053442070724A
:1001D000696E74696E67206279746520004E6F7471
:1001E000205344207072696E74696E67002E00445B
:1001F000656C6574696F6E206661696C65642C203E
:1002000046696C653A200046696C652064656C65DA
:100210007465643A002E006F70656E206661696CCB
:1002200065642C2046696C653A20005049442041A1
:1002300075746F74756E652066696E697368656440
:10024000212050757420746865206C617374204B94
:10025000702C204B6920616E64204B6420636F6EAC
:100260007374616E74732066726F6D2061626F7655
:100270006520696E746F20436F6E66696775726181
:1002800074696F6E2E6800504944204175746F7414
:10029000756E65206661696C6564212074696D65A1
:1002A0006F75740020403A006F6B20543A006F6BFA
:1002B00020423A00504944204175746F74756E6550
:1002C000206661696C6564212054656D706572619A
:1002D0007475726520746F6F206869676800204BC1
:1002E000643A2000204B693A2000204B703A2000ED
:1002F00020436C617373696320504944200020548B
:10030000753A2000204B753A2000206D61783A2024
:1003100000206D696E3A200020643A200020626956
:1003200061733A20002044002049002020204D33F2
:1003300030312050005049442073657474696E67F1
:10034000733A00205A0020590020204D32303620C8
:100350005800486F6D65206F666673657420286D60
:100360006D293A00204500205A0020580020420004
:1003700020540020204D32303520530041647661F6
:100380006E636564207661726961626C65733A20A0
:10039000533D4D696E206665656472617465202801
:1003A0006D6D2F73292C20543D4D696E2074726140
:1003B00076656C20666565647261746520286D6D74
:1003C0002F73292C20423D6D696E696D756D207308
:1003D00065676D656E742074696D6520286D73297D
:1003E0002C20583D6D6178696D756D205859206AD3
:1003F00065726B20286D6D2F73292C20205A3D6D5E
:100400006178696D756D205A206A65726B20286D60
:100410006D2F73292C2020453D6D6178696D756DB8
:100420002045206A65726B20286D6D2F732900208E
:10043000540020204D323034205300416363656CFA
:1004400065726174696F6E3A20533D616363656CD8
:1004500065726174696F6E2C20543D7265747261AF
:10046000637420616363656C65726174696F6E00AB
:10047000204500205A0020590020204D32303120E4
:1004800058004D6178696D756D20416363656C65D9
:10049000726174696F6E20286D6D2F7332293A0076
:1004A000204500205A0020590020204D32303320B2
:1004B00058004D6178696D756D206665656472617F
:1004C00074657320286D6D2F73293A002045002034
:1004D0005A0020590020204D3932205800537465AD
:1004E00070732070657220756E69743A0065636878
:1004F0006F3A002200556E6B6E6F776E20636F6DE2
:100500006D616E643A2022004368616E6765206603
:10051000696C616D656E74005A204F666673657410
:10052000203A20007A5F6D61783A20007A5F6D6929
:100530006E3A20005A204F6666736574005A204F49
:100540006666736574206F6B00526573756D696EB6
:1005500067207072696E7400656D707479696E677A
:1005600020626564007A5F6D61783A20007A5F6D81
:10057000696E3A2000795F6D696E3A2000785F6D90
:10058000696E3A2000205A3A0020593A0020436F01
:10059000756E7420583A200020453A00205A3A00DF
:1005A00020593A00583A004649524D574152455F4A
:1005B0004E414D453A4D61726C696E2056313B207B
:1005C000537072696E7465722F6772626C206D6110
:1005D0007368757020666F722067656E36204649B5
:1005E000524D574152455F55524C3A68747470737E
:1005F0003A2F2F6769746875622E636F6D2F45728D
:10060000696B5A616C6D2F4D61726C696E2F205051
:10061000524F544F434F4C5F56455253494F4E3AF9
:10062000312E30204D414348494E455F5459504585
:100630003A334461746F72204558545255444552C0
:100640005F434F554E543A3120555549443A303066
:100650003030303030302D303030302D30303030A0
:100660002D303030302D3030303030303030303090
:1006700030300A0042656420646F6E652E002042AF
:100680003A0020453A00543A0042656420486561CA
:1006900074696E672E0048656174696E6720646FC7
:1006A0006E652E0020573A0020453A00543A004823
:1006B000656174696E672E2E2E002042403A00203C
:1006C000403A00202F003A00205400202F00204202
:1006D0003A00202F006F6B20543A000A0A0053742E
:1006E000616E6461726420446576696174696F6EDD
:1006F0003A20000A004D65616E3A20000A00202071
:10070000207A3A200000793A2000783A20003F53BE
:100710007065636966696564206E756D62657220D7
:100720006F66206C65677320696E206D6F76656DEE
:10073000656E74206E6F7420706C61757361626C8D
:10074000652E0A003F5370656369666965642059C8
:1007500020706F736974696F6E206F7574206F6697
:100760002072616E67652E0A003F5370656369668B
:10077000696564205820706F736974696F6E206FAB
:100780007574206F662072616E67652E0A003F5394
:1007900070656369666965642073616D706C65205E
:1007A00073697A65206E6F7420706C617573616215
:1007B0006C652E0A0046756C6C20737570706F72D4
:1007C000742061743A20687474703A2F2F33647007
:1007D00072696E74626F6172642E636F6D2F666FE3
:1007E00072756D2E7068700A004D3438205A2D5085
:1007F000726F6265205265706561746162696C69CF
:10080000747920746573742E202020566572736984
:100810006F6E20322E30300A003F566572626F7361
:1008200065204C6576656C206E6F7420706C617508
:100830007361626C652E0A002569206D696E2C203B
:1008400025692073656300456E642066696C6520C8
:100850006C69737400426567696E2066696C652017
:100860006C697374004E6F206D6F76652E00526553
:1008700073756D696E67207072696E740057616977
:100880007420666F7220757365722E2E2E000A001A
:10089000205A3A200020593A200020583A2000429D
:1008A000656400486F6D6520582F59206265666F3A
:1008B0007265205A00486F6D6520582F5920626577
:1008C000666F7265205A00536C6565702E2E2E007F
:1008D00053657474696E67732053746F7265640036
:1008E00053746F7265642073657474696E677320E6
:1008F0007265747269657665640048617264636FDD
:100900006465642044656661756C74205365747415
:10091000696E6773204C6F61646564002200656EC8
:10092000717565696E672022004D38340053544F4D
:10093000505045442E20005072696E7465722073C9
:10094000746F707065642064756520746F206572C3
:10095000726F72732E204669782074686520657204
:10096000726F7220616E6420757365204D3939395C
:1009700020746F20726573746172742E2028546520
:100980006D7065726174757265206973207265732C
:1009900065742E20536574206974206166746572D5
:1009A0002072657374617274696E6729006F6B00E1
:1009B0004E6F204C696E65204E756D6265722077B2
:1009C00069746820636865636B73756D2C204C6176
:1009D0007374204C696E653A20004E6F2043686541
:1009E000636B73756D2077697468206C696E652020
:1009F0006E756D6265722C204C617374204C696E4B
:100A0000653A2000636865636B73756D206D69736B
:100A10006D617463682C204C617374204C696E6541
:100A20003A20004C696E65204E756D6265722069D2
:100A300073206E6F74204C617374204C696E652056
:100A40004E756D6265722B312C204C617374204C95
:100A5000696E653A20004D313130000A00207A3A43
:100A6000200020793A200020783A20004265640076
:100A70002020506C616E6E657242756666657242CA
:100A8000797465733A20002046726565204D656D66
:100A90006F72793A20004D61792020382032303150
:100AA0003700436F6D70696C65643A2000283344E9
:100AB00061746F7220476D62482900207C20417567
:100AC00074686F723A20004D6179202038203230EE
:100AD00031372031373A32393A313400204C6173A2
:100AE0007420557064617465643A2000312E312E93
:100AF00039004D61726C696E0020536F66747761C6
:100B00007265205265736574002057617463686470
:100B10006F67205265736574002042726F776E2094
:100B20006F75742052657365740020457874657222
:100B30006E616C20526573657400506F77657255F5
:100B400070006563686F3A00737461727400657257
:100B5000726F722077726974696E6720746F206695
:100B6000696C6500656E6473746F70732068697476
:100B70003A205A00205A3A00656E6473746F70739D
:100B8000206869743A20590020593A00656E6473F0
:100B9000746F7073206869743A20580020583A00C6
:100BA000656E6473746F7073206869743A200065B1
:100BB00063686F3A0048656174626564206D6973AB
:100BC00073696E6700446F6E6520736176696E6746
:100BD0002066696C652E006F6B004D323900000095
:100BE0002100240027002A002D00300033000101DD
:100BF0000000040107010A0100002200250028006E
:100C00002B002E0031003400020100000501080114
:100C10000B01000020002300260029002C002F00DB
:100C20003200000100000301060109010505050568
:100C3000070508080808020202020A0A0808040454
:100C40000404010101010101010103030303030382
:100C50000303040707070C0C0C0C0C0C0C0C020211
:100C6000020206060606060606060B0B0B0B0B0B0E
:100C70000B0B01021020200808102040102040809B
:100C80000201020108040201010204081020408050
:100C900080402010080402018004020180402010DE
:100CA0000804020108040201010204081020408027
:100CB000010204081020408000000A0B02090C0DFC
:100CC0000E080703040100000000000000000000FF
:100CD0000000000000000000000000000000000014
:100CE00000000000121110000000000000000000D1
:100CF0000000000000000000000000000000027082
:100D0000012C0190012701B0012201C0011D01F059
:100D10000118011002130130020E01600209019056
:100D2000020401C002FF000003FA004003F5008046
:100D300003F000D003EB002004E6007004E100E0C3
:100D400004DC004005D700C005D2004006CD00D02D
:100D500006C8008007C3003008BE00F008B900C014
:100D600009B400B00AAF00B00BAA00D00CA5000077
:100D70000EA000500F9B00C0109600501291000072
:100D8000148C00C0158700B0178200B0197D00D008
:100D90001B7800001E730040206E0090226900F056
:100DA00024640040275F0090295A00E02B55001072
:100DB0002E500020304B0010324600E033410090AE
:100DC000353C001037370070383200A0392D00B0A4
:100DD0003A2800A03B2300603C1E00103D19009003
:100DE0003D1400103E0F00703E0A00C03E0500009A
:100DF0003F000024F4D43050C38E20C2A24017829A
:100E00008B7011127A910D816CD90AA861E108C723
:100E1000586607615143061E4B5D05C145A7041A7C
:100E2000411104093D9803713931034036DB0265F5
:100E3000339102D4305402802E1D02632CEE0175D2
:100E40002AC501B028A001102781018F2564012B3C
:100E5000244B01E0223401AC211F018D200D0180C3
:100E60001FFC00841EED00971DDF00B81CD200E6B9
:100E70001BC600201BBC00641AB200B219A8000AED
:100E800019A0006A189900D117910040178B00B57E
:100E900016840031167E00B31579003A157300C729
:100EA000146F0058146A00EE13660088136300255F
:100EB000135E00C7125B006C12570015125400C17C
:100EC00011510070114F0021114B00D61049008DB7
:100ED0001047004610440002104200C00F4000803E
:100EE0000F3E00420F3C00060F3B00CB0E38009334
:100EF0000E37005C0E3500270E3400F30D3200C1B2
:100F00000D3100900D3000600D2E00320D2D0005CA
:100F10000D2C00D90C2B00AE0C2900850C29005C8F
:100F20000C2700350C27000E0C2600E80B2400C40B
:100F30000B2400A00B23007D0B23005A0B2100394A
:100F40000B2100180B2000F80A1F00D90A1E00BB55
:100F50000A1E009D0A1D00800A1D00630A1C00472E
:100F60000A1B002C0A1B00110A1A00F7091A00DDDF
:100F7000091900C4091900AB091900920917007B6F
:100F8000091800630917004C0916003609160020DD
:100F90000916000A091500F5081500E0081400CC30
:100FA000081400B8081400A4081400900813007D69
:100FB0000812006B0813005808120046081200348B
:100FC000081100230811001208110001081100F097
:100FD000071000E0071000D0071000C0071000B095
:100FE000070F00A107100091070E0083070F007480
:100FF000070F0065070E0057070E0049070E003B5C
:10100000070D002E070E0020070D0013070D000628
:10101000070D00F9060C00ED060D00E0060C00D4EB
:10102000060C00C8060C00BC060C00B0060C00A4A0
:10103000060B0099060C008D060B0082060B00774C
:10104000060B006C060B0061060A0057060B004CED
:10105000060A0042060A0038060A002E060A002484
:10106000060A001A060A001006090007060A00FD13
:10107000050900F4050900EB050900E2050900D99E
:10108000050900D0050900C7050900BE050900B51E
:10109000050800AD050800A50509009C0508009499
:1010A0000508008C050800840508007C050800740C
:1010B0000508006C050700650508005D050700567A
:1010C0000508004E050700470507004005080038E1
:1010D000050700310507002A050700230507001C46
:1010E000050600160507000F0507000805060002A3
:1010F000050700FB040600F5040700EE040600E8FF
:10110000040600E2040700DB040600D5040600CF55
:10111000040600C9040600C3040600BD040600B7A7
:10112000040600B1040500AC040600A6040600A0F5
:101130000405009B04060095040500900406008A3F
:1011400004050085040500800406007A0405007586
:10115000040500700405006B0405006604050061C9
:101160000405005C04050057040500520405004D09
:1011700004050048040500430405003E0404003A49
:1011800004050035040500300404002C0405002784
:10119000040400230405001E0404001A04040016BD
:1011A000040500110404000D0404000904050004F2
:1011B00004040000040400FC030400F8030400F429
:1011C000030400F0030400EC030400E8030400E45B
:1011D000030400E0030400DC030400D8030400D48B
:1011E000030400D0030400CC030400C8030300C5BB
:1011F00003030024F404D9201BC40C5C0E9804C41F
:10120000095F0265077101F405F900FB04B30048AA
:10121000048700C10369005803550003034500BE5D
:10122000023A008402310053022A002902250004F8
:10123000022000E4011C00C8011900AF011700984A
:1012400001140084011300710110006101100051AC
:10125000010E0043010D0036010B002B010B002095
:10126000010B00150109000C01090003010800FB36
:10127000000800F3000800EB000700E4000600DEB1
:10128000000600D8000600D2000600CC000500C70A
:10129000000500C2000500BD000400B9000400B54F
:1012A000000400B1000400AD000400A9000400A582
:1012B000000300A20003009F0004009B00030098AD
:1012C0000003009500020093000300900003008DCE
:1012D0000002008B000300880002008600020084E8
:1012E000000300810002007F0002007D0002007BFD
:1012F000000200790002007700010076000200740D
:1013000000020072000100710002006F0002006D17
:101310000001006C0002006A000100690002006721
:101320000001006600010065000100640002006227
:1013300000010061000100600001005F0002005D2B
:101340000001005C0001005B0001005A000100592F
:10135000000100580001005700010056000100552F
:10136000000100540001005300000053000100522E
:1013700000010051000100500001004F0001004E2B
:101380000000004E0001004D0001004C0001004B28
:101390000000004B0001004A000100490001004824
:1013A0000000004800010047000100460000004620
:1013B0000001004500000045000100440001004319
:1013C0000000004300010042000000420001004113
:1013D00000000041000100400001003F0000003F0C
:1013E0000001003E0000003E0001003D0000003D05
:1013F0000001003C0000003C0000003C0001003BFC
:101400000000003B0001003A0000003A00010039F2
:1014100000000039000100380000003800000038EA
:1014200000010037000000370001003600000036E0
:1014300000000036000100350000003500000035D6
:1014400000010034000000340000003400010033CB
:1014500000000033000000330001003200000032C1
:1014600000000032000100310000003100000031B6
:101470000001003000000030000000300001002FAB
:101480000000002F0000002F0000002F0001002EA0
:101490000000002E0000002E0001002D0000002D95
:1014A0000000002D0000002D0001002C0000002C89
:1014B0000000002C0000002C0001002B0000002B7D
:1014C0000000002B0000002B0001002A0000002A71
:1014D0000000002A0000002A000100290000002965
:1014E0000000002900000029000000290001002858
:1014F000000000280000002800000028000000284C
:10150000000100270000002700000027000000273E
:101510000000002700010026000000260000002631
:101520000000002600000026000100250000002524
:101530000000002500000025000000250000002517
:10154000000100240000002400000024000000240A
:1015500000000024000100230000002300000023FD
:1015600000000023000000230000002300000023EF
:1015700000010022000000220000002200000022E2
:1015800000000022000000220001002100000021D4
:1015900000000021000000210000002100000021C7
:1015A00000000021000100200000002000000020B9
:1015B00000000020000000200000002000000020AB
:1015C000000000200001001F0000001F0000001F9D
:1015D0000000001F0000001F0000001F0000001F8F
:1015E0000001001E0000001E0000001E0000001E82
:1015F000000000202D20496E76616C6964206578BA
:10160000747275646572206E756D6265722021005A
:101610004D3834004732380053657474696E67730F
:101620000050726570617265004E6F2053442063F4
:10163000617264005072696E742066726F6D20531F
:10164000440053746F70207072696E740052657339
:10165000756D65207072696E7400506175736520D8
:101660007072696E740054756E6500496E666F2005
:1016700073637265656E0061646A75737420686572
:10168000696768740061646A757374206865696766
:101690006874005370656564005370656564004D3F
:1016A000363030004368616E67652066696C616D35
:1016B000656E7400466C6F7700466C6F770046610C
:1016C0006E2073706565640046616E207370656599
:1016D000640061646A75737420626564206865697A
:1016E0006768740042656400426564004E6F7A7AF0
:1016F0006C65004E6F7A7A6C65004D61696E0058BA
:101700000059005A00457874727564657200457816
:10171000747275646572004D6F7665205A004D6F66
:1017200076652059004D6F766520580050726570BF
:101730006172650053442063617264206F6B006FB7
:1017400070656E526F6F74206661696C65640076B7
:101750006F6C756D652E696E6974206661696C6564
:1017600064004572726F723A00534420696E697466
:10177000206661696C006563686F3A00577269742E
:10178000696E6720746F2066696C653A20002E00D0
:101790006F70656E206661696C65642C2046696CAB
:1017A000653A20002E006F70656E206661696C6579
:1017B000642C2046696C653A200046696C6520738C
:1017C000656C6563746564002053697A653A20002E
:1017D00046696C65206F70656E65643A20002E0066
:1017E0006F70656E206661696C65642C2046696C5B
:1017F000653A20004E6F77206672657368206669CF
:101800006C653A20004E6F7720646F696E672066C2
:10181000696C653A20002220706F7300222070618D
:1018200072656E743A2200535542524F5554494ED8
:10183000452043414C4C207461726765743A220024
:10184000747279696E6720746F2063616C6C2073A9
:1018500075622D67636F64652066696C65732077B8
:1018600069746820746F6F206D616E79206C657685
:10187000656C732E204D4158206C6576656C20692F
:10188000733A004D3234004D3233202573006175B8
:10189000746F25692E67001000C90210012C0140E9
:1018A00001220170011801B0010E01F00104015084
:1018B00002FA00B002F0003003E600D003DC009032
:1018C00004D2007005C800A006BE000008B400B035
:1018D00009AA00D00BA000600E960060118C0000D9
:1018E00015820020197800C01D6E00A0226400B08F
:1018F000275A00902C500000314600E0343C001084
:10190000383200903A2800603C1E00A03D14008050
:101910003E0A00203F0000544845524D414C2052A1
:10192000554E4157415900546865726D616C2052A3
:10193000756E617761792C2073797374656D20738E
:10194000746F7070656421204865617465725F49C9
:10195000443A20004572723A204D415854454D504A
:10196000003A2045787472756465722073776974E3
:1019700063686564206F66662E204D415854454D5E
:101980005020747269676765726564202100457232
:10199000723A204D494E54454D50003A20457874D6
:1019A0007275646572207377697463686564206F0B
:1019B00066662E204D494E54454D5020747269671D
:1019C00067657265642021004572723A204D415866
:1019D00054454D50204245440054656D7065726118
:1019E0007475726520686561746564206265642041
:1019F0007377697463686564206F66662E204D4155
:101A00005854454D5020747269676765726564204B
:101A10002121004572726F723A005344006C656672
:101A2000743A200001200001200020746F6F206CA8
:101A30006F6E6720657874727573696F6E2070724F
:101A40006576656E7465640020636F6C64206578EC
:101A500074727573696F6E2070726576656E7465E9
:101A600064006563686F3A00473238205A004D358C
:101A70003030005A204F6666736574004739322053
:101A80005A00473330004732380050726570617237
:101A9000696E67205A204F6666736574004D313158
:101AA0003720526561647920746F204368616E67E6
:101AB00065204E6F7A7A6C650047312058383520A2
:101AC000463530303000473238004D313039205300
:101AD000323030004C4544732066756C6C206F6E5C
:101AE000004C4544732066756C6C206F666600760A
:101AF000616C756520626C75650076616C7565203A
:101B0000677265656E0076616C756520726564004C
:101B10004C4544206272696768746E657373005344
:101B2000657474696E6773004C454420627269671E
:101B300068746E657373004C45442062726967680F
:101B4000746E6573730076616C75652072656400F0
:101B500076616C7565207265640076616C756520D0
:101B6000677265656E0076616C7565206772656584
:101B70006E0076616C756520626C75650076616CCF
:101B8000756520626C7565005049442D43005049CD
:101B9000442D43005049442D44005049442D4400F5
:101BA0005049442D49005049442D49005049442D85
:101BB00050005049442D50002002204661637400BB
:101BC00020022046616374002002204D61780020CD
:101BD00002204D6178002002204D696E0020022015
:101BE0004D696E004F6666004F6E20004F666600BE
:101BF0004F6E200046616E2073706565640046611B
:101C00006E2073706565640042656400426564001F
:101C10004E6F7A7A6C65004E6F7A7A6C6500536508
:101C20007474696E6773004B494C4C45442E200018
:101C30005072696E7465722068616C7465642E20E0
:101C40006B696C6C28292063616C6C65642100539E
:101C5000544F505045442E20005072696E74657286
:101C60002073746F707065642064756520746F20D4
:101C70006572726F72732E204669782074686520D1
:101C80006572726F7220616E6420757365204D39C4
:101C9000393920746F20726573746172742E202834
:101CA00054656D7065726174757265206973207218
:101CB000657365742E2053657420697420616674A1
:101CC00065722072657374617274696E672900456C
:101CD00072726F723A0000002A4300003443000021
:101CE000824300000000000000000000000000002F
:101CF000000000000000000082430000A04000003F
:101D0000A0400000004000002A43000034430000CF
:101D10008243FFFF012200656E717565696E672061
:101D200022007C3C3E5E2B3D3F2F5B5D3B2C2A22FC
:101D30005C004573746570732F6D6D004573746539
:101D400070732F6D6D005A73746570732F6D6D0015
:101D50005A73746570732F6D6D0059737465707369
:101D60002F6D6D005973746570732F6D6D0058730E
:101D7000746570732F6D6D005873746570732F6D7B
:101D80006D00412D7265747261637400412D72653E
:101D9000747261637400416D6178206500416D610A
:101DA00078206500416D6178207A00416D6178206E
:101DB0007A00416D6178207900416D617820790069
:101DC000416D6178207800416D617820780056542B
:101DD000726176206D696E005654726176206D696D
:101DE0006E00566D696E00566D696E00566D6178B5
:101DF000206500566D6178206500566D6178207A07
:101E000000566D6178207A00566D61782079005611
:101E10006D6178207900566D6178207800566D618B
:101E20007820780056652D6A65726B0056652D6ABC
:101E300065726B00567A2D6A65726B00567A2D6A50
:101E400065726B005678792D6A65726B00567879E9
:101E50002D6A65726B00416363656C004163636565
:101E60006C005A204F6666736574005A204F666690
:101E70007365740053657474696E6773004D6F7693
:101E800065206178697300436F6F6C646F776E00D3
:101E9000507265686561740054656D706572617437
:101EA00075726500473238004175746F20686F6D38
:101EB00065004D38340044697361626C6520737449
:101EC00065707065727300536574205A206F666682
:101ED000736574004368616E6765204E6F7A7A6C33
:101EE00065004D61696E0041626F757400537461E5
:101EF00074697374696373004D6F74696F6E004C1D
:101F00004544204D656E7500526573746F7265208F
:101F10006661696C73616665004C6F6164206D6514
:101F20006D6F72790053746F7265206D656D6F729D
:101F300079004D61696E004D3135302050313000EF
:101F400056657273696F6E3A20312E312E39003327
:101F50004461746F72204D61726C696E004D313551
:101F600030205037005072696E74732066696E6954
:101F700073686564005072696E74732073746F7057
:101F8000706564007072696E7474696D6500537475
:101F90006174697374696373004D3234004D323378
:101FA0002025730043616E6E6F7420656E746572D8
:101FB000207375626469723A2000052E2E004D610F
:101FC000696E00436172642072656D6F76656400AE
:101FD0004361726420696E73657274656400526552
:101FE00073656E643A20006F6B004175746F7465A1
:101FF0006D700000E2DADDDB11241FBECFEFD1E20D
:10200000DEBFCDBF00E00CBF15E0A0E0B2E0ECEE1B
:10201000FEEC01E00BBF02C007900D92AE33B1079A
:10202000D9F724E1AEE3B5E001C01D92AE36B207A8
:10203000E1F71FE0CBEFDFE000E006C021970109E8
:10204000802FFE010E94F8E6CA3FD10780E0080712
:10205000A9F70E9416D40C9465E70C9400002F9207
:102060003F924F925F926F927F928F929F92AF9228
:10207000BF92CF92DF92EF92FF920F931F93CF9375
:10208000DF93CDB7DEB7C556D1400FB6F894DEBFAB
:102090000FBECDBF87E40E94A646F82E882311F418
:1020A0000C94D0180E94CC460E9496E46C317105C5
:1020B00009F486C19CF46230710509F426C124F448
:1020C00077FF3BC00C94893F6330710509F426C14A
:1020D0006430710509F42EC10C94893F6A3571058D
:1020E00009F4F9C704F56D31710509F4BDC26E310B
:1020F000710511F00C94893F0E9464440E94D35DE5
:102100000E948F4480E090E0A6E1B5E480937A02DB
:1021100090937B02A0937C02B0937D020E941F45A6
:10212000EFE9F8E07AC76B35710509F4D8C76C356B
:10213000710509F4D9C70C94893F809177138111F7
:102140000C94893F0E940CD28DED93E10E947AD1CC
:102150000E945F5460938B0D70938C0D80938D0D56
:1021600090938E0D8090DD139090DE13A090DF137E
:10217000B090E013CE5DDE4F88829982AA82BB8246
:10218000C252D140A5019401609131137091321374
:1021900080913313909134130E94CBDF4090E11370
:1021A0005090E2136090E3137090E4130091E513F4
:1021B0001091E6132091E7133091E813CA5DDE4FCA
:1021C000088319832A833B83C652D14081117EC084
:1021D000A3019201609135137091361380913713EA
:1021E000909138130E94CBDF811170C020E030E065
:1021F00040E752E460917A0270917B0280917C0208
:1022000090917D020E942DE44B015C0182EA93E1F2
:102210009F938F9369EEC62E63E1D62ECA5DDE4F83
:10222000E880F9800A811B81C652D140A301920146
:10223000CE5DDE4F688179818A819B81C252D14017
:102240000E940D8A0F900F908091DD139091DE1304
:10225000A091DF13B091E013809331139093321368
:10226000A0933313B09334138091E1139091E21350
:10227000A091E313B091E413809335139093361338
:10228000A0933713B09338138091E5139091E61320
:10229000A091E713B091E8138093391390933A1308
:1022A000A0933B13B0933C138091E9139091EA13F0
:1022B000A091EB13B091EC1380933D1390933E13D8
:1022C000A0933F13B09340130C94084460911A02FA
:1022D00070911B02072E000C880B990B0E94D1DF16
:1022E00020917A0230917B0240917C0250917D02D4
:1022F0000E9401DC20E030E040E752E40E942DE43F
:1023000020E030E048EC52E47DCF809177138111DA
:102310000C94893F0E9491D281E008C0809177138C
:1023200081110C94893F0E9491D280E00E9424ABDD
:102330000C94084487EC98E00E949DCB80E50E94B5
:10234000A646882339F00E94CC460E949BE46B018C
:102350007C0103C0C12CD12C760183E50E94A646E6
:10236000882361F00E94CC4620E030E04AE754E444
:102370000E9401DC0E949BE46B017C010E94D35D02
:102380000E945F54C60ED71EE81EF91E0E945F54BD
:1023900060938B0D70938C0D80938D0D90938E0DAB
:1023A0000E945F546C157D058E059F0510F00C94FE
:1023B000893F0E94F25A0E943DA90E94CECBF0CFE5
:1023C0000E94D77C80917A0290917B02A0917C023E
:1023D000B0917D028093420590934305A0934405FC
:1023E000B093450580911A0290911B02909341058C
:1023F0008093400584E690E090931B0280931A023C
:102400000E945F5460938B0D70938C0D80938D0DA3
:1024100090938E0D11E010930D02809131139091E5
:102420003213A0913313B09134138093DD13909342
:10243000DE13A093DF13B093E013809135139091D6
:102440003613A0913713B09138138093E113909312
:10245000E213A093E313B093E413809139139091A6
:102460003A13A0913B13B0913C138093E5139093E2
:10247000E613A093E713B093E81380913D13909176
:102480003E13A0913F13B09140138093E9139093B2
:10249000EA13A093EB13B093EC1310927A0210920C
:1024A0007B0210927C0210927D0288E50E94A64673
:1024B000882311F080E009C089E50E94A6468111B9
:1024C000F9CF8AE50E94A6468127809303028111F5
:1024D0000C948C3F8AE50E94A64681110C948C3F97
:1024E0008091030281110C94923F88E50E94A646D8
:1024F00081110C94923F8091030281110C94983FBA
:1025000089E50E94A64681110C94983F88E50E94B7
:10251000A6468823D1F00E94C146672B682B692B01
:10252000A1F00E94CC462091D1133091D21340915A
:10253000D3135091D4130E9450E3609331137093DE
:102540003213809333139093341389E50E94A64687
:102550008823D1F00E94C146672B682B692BA1F01C
:102560000E94CC462091D5133091D6134091D713B9
:102570005091D8130E9450E3609335137093361333
:1025800080933713909338138AE50E94A6468823D8
:10259000D1F00E94C146672B682B692BA1F00E94E5
:1025A000CC462091D9133091DA134091DB1350912E
:1025B000DC130E9450E36093391370933A138093B5
:1025C0003B1390933C138091030281110C949E3F26
:1025D0008AE50E94A64681110C949E3FE090391333
:1025E000F0903A1300913B1310913C132091351356
:1025F0003091361340913713509138136091311355
:102600007091321380913313909134130E94EE7BBA
:1026100010920D028091420590914305A0914405CE
:10262000B091450580937A0290937B02A0937C023F
:10263000B0937D02809140059091410590931B02DB
:1026400080931A020E945F5460938B0D70938C0DDF
:1026500080938D0D90938E0D1092C7051092C60534
:102660001092C5050C94893F8091C905882321F0FB
:102670008091CA05811127C085EB98E00E949DCB0F
:10268000E2E4FBE08491882341F09091C00095FF43
:10269000FCCF8093C6003196F5CFE3EAF8E0849151
:1026A000882341F09091C00095FFFCCF8093C60035
:1026B0003196F5CF8091C00085FFFCCF8AE08093F2
:1026C000C6000C94893F0E94D35D0E94D77CCE0146
:1026D0008C5E9E4F0E942F65CC5EDE4F68817981B3
:1026E0008A819B81C451D14060933113709332131E
:1026F0008093331390933413C85EDE4F2881398161
:102700004A815B81C851D1402093351330933613F1
:102710004093371350933813C45EDE4FE880F9803E
:102720000A811B81CC51D140E0923913F0923A13C7
:1027300000933B1310933C130E94EE7B0E948F4446
:1027400080E090E0A6E1B5E480937A0290937B026A
:10275000A0937C02B0937D02E12CF12C00E711E400
:1027600020E030E0A90160E070E080E291E40E94A6
:102770000A464B015C0120E030E040EA50E4609101
:10278000391370913A1380913B1390913C130E943E
:1027900050E37B018C0120E030E042E053E460E054
:1027A00070E08AEA92E40E940A462B013C0120E094
:1027B00030E040EA50E46091391370913A1380910F
:1027C0003B1390913C130E9450E37B018C0120E06D
:1027D00030E0A90160E070E086E193E40E940A46DF
:1027E000CE5DDE4F688379838A839B83C252D1405A
:1027F0000E946A440E94D77C80E090E0A6E9B2EC97
:10280000C85FDE4F88839983AA83BB83C850D140B9
:10281000C12CD12C52E0E52E53ECF52EC45FDE4FD7
:10282000C882D982EA82FB82CC50D140A3019201B6
:10283000C501B4010E944FE3C05FDE4F6883798316
:102840008A839B83C051D140CE01885F9E4F0E94F6
:10285000515780E090E0A2E8B2E4C450DF4F888393
:102860009983AA83BB83CC5FD040C050DF4FC8821E
:10287000D982EA82FB82C050D140A3019201CE5D91
:10288000DE4F688179818A819B81C252D1400E944A
:102890004FE3CC5FDE4F688379838A839B83C45088
:1028A000D140CE0184509F4F0E945157C85FDE4FE8
:1028B00088809980AA80BB80C850D140C65DDE4F19
:1028C00088829982AA82BB82CA52D140C45FDE4FFD
:1028D000488059806A807B80CC50D140C05FDE4FF9
:1028E00088809980AA80BB80C051D140C450DF4FFE
:1028F000088119812A813B81CC5FD040CA5DDE4FBF
:10290000088319832A833B83C652D140C050DF4FCE
:10291000288139814A815B81C050D140CE5DDE4F34
:10292000288339834A835B83C252D140CC5FDE4F18
:10293000C880D980EA80FB80C450D140A7019601AD
:10294000C301B2010E9401DCC25DDE4F688379835E
:102950008A839B83CE52D140CE5DDE4F2881398160
:102960004A815B81C252D140C501B4010E9401DCA1
:102970009B01AC01C25DDE4F688179818A819B81B8
:10298000CE52D1400E944FE3C051DF4F688379831C
:102990008A839B83C05FD040CA5DDE4F2881398126
:1029A0004A815B81C652D140C501B4010E9401DC5D
:1029B0004B015C01A7019601C65DDE4F68817981FC
:1029C0008A819B81CA52D1400E9401DC9B01AC01EB
:1029D000C501B4010E944FE3CC50DF4F6883798377
:1029E0008A839B83C45FD040CE5DDE4F28813981CE
:1029F0004A815B81C252D140C65DDE4F68817981D8
:102A00008A819B81CA52D1400E9401DC6B017C010A
:102A1000CA5DDE4F288139814A815B81C652D1402F
:102A2000C301B2010E9401DC9B01AC01C701B601E8
:102A30000E944FE3C850DF4F688379838A839B836A
:102A4000C85FD040CE0180519F4F0E945157C05166
:102A5000DF4FC880D980EA80FB80C05FD040CC5077
:102A6000DF4F88809980AA80BB80C45FD040C85067
:102A7000DF4F488059806A807B80C85FD04020E06B
:102A800030E0A901C301B2010E9481E5A3019201D6
:102A900018160CF05058C850DF4F288339834A83EA
:102AA0005B83C85FD0401E0164EE260E311CD1014D
:102AB000CD92DD92ED92FC921397F1018482958282
:102AC000A682B78218962D933D934D935C931B97E6
:102AD000C101CE59DE4F2883C256D140CD59DE4FB9
:102AE0003883C356D140CC59DE4F4883C456D140B9
:102AF000CB59DE4F5883C556D1400E945157FE0135
:102B0000E753FF4FC05EDE4FF983E883C052D140E8
:102B100080E090E0A0E8BFE3C753DF4F888399834C
:102B2000AA83BB83C95CD040C353DF4F188219828C
:102B30001A821B82CD5CD040C701B6019058CE5995
:102B4000DE4F2881C256D140CD59DE4F3881C35661
:102B5000D140CC59DE4F4881C456D140CB59DE4FCD
:102B60005881C556D1400E942DE4CF52DF4F688373
:102B700079838A839B83C15DD040CE0187539F4F69
:102B80000E945157D1018D909D90AD90BC901397AC
:102B9000CE5DDE4F88829982AA82BB82C252D1402A
:102BA00014964D905D906D907C90179718968D902F
:102BB0009D90AD90BC901B97C753DF4F0881198142
:102BC0002A813B81C95CD040CA5DDE4F08831983EE
:102BD0002A833B83C652D140C353DF4F28813981BA
:102BE0004A815B81CD5CD040C65DDE4F288339834E
:102BF0004A835B83CA52D140CF52DF4FC880D9800D
:102C0000EA80FB80C15DD040A7019601C301B201FB
:102C10000E9401DCC25DDE4F688379838A839B83D7
:102C2000CE52D140C65DDE4F288139814A815B8119
:102C3000CA52D140C501B4010E9401DC9B01AC0124
:102C4000C25DDE4F688179818A819B81CE52D140FD
:102C50000E944FE369837A838B839C83CA5DDE4F36
:102C6000288139814A815B81C652D140C501B401B6
:102C70000E9401DC4B015C01A7019601CE5DDE4F95
:102C8000688179818A819B81C252D1400E9401DC96
:102C90009B01AC01C501B4010E944FE36D837E83AB
:102CA0008F839887C65DDE4F288139814A815B8199
:102CB000CA52D140CE5DDE4F688179818A819B8185
:102CC000C252D1400E9401DC6B017C01CA5DDE4F23
:102CD000288139814A815B81C652D140C301B2014A
:102CE0000E9401DC9B01AC01C701B6010E944FE3C9
:102CF00069877A878B879C87CE0101960E945157FE
:102D0000C753DF4F488059806A807B80C95CD040C0
:102D1000C353DF4F88809980AA80BB80CD5CD040B0
:102D2000CF52DF4FC880D980EA80FB80C15DD040A0
:102D300009811A812B813C818D819E81AF81B8856B
:102D4000CE5DDE4F88839983AA83BB83C252D14074
:102D500089859A85AB85BC85CA5DDE4F888399835A
:102D6000AA83BB83C652D140D1018D919D910D9014
:102D7000BC91A02DC65DDE4F88839983AA83BB8357
:102D8000CA52D140F10144815581668177818085A5
:102D90009185A285B38540922102509222026092D1
:102DA0002302709224028092250290922602A09221
:102DB0002702B0922802C0922902D0922A02E09201
:102DC0002B02F0922C0200932D0210932E022093DE
:102DD0002F0230933002CE5DDE4F88809980AA802A
:102DE000BB80C252D1408092310290923202A092B6
:102DF0003302B0923402CA5DDE4F088119812A8104
:102E00003B81C652D1400093350210933602209385
:102E1000370230933802C65DDE4F88809980AA80E1
:102E2000BB80CA52D1408092390290923A02A0925D
:102E30003B02B0923C0240933D0250933E026093AD
:102E40003F02709340028093410290934202A0930C
:102E50004302B0934402CE0101960E942F6569811E
:102E60007A818B819C8160933113709332138093AC
:102E70003313909334132D813E814F8158852093D5
:102E80003513309336134093371350933813E09033
:102E90003914F0903A1400913B1410913C14E092D4
:102EA0003913F0923A1300933B1310933C130E9492
:102EB000EE7B0E94D35D2FB7F89460912913709137
:102EC0002A1380912B1390912C132FBF0E94D1DFD6
:102ED00020916D1330916E1340916F1350917013C8
:102EE0000E942DE46B017C0120E030E0A90160919B
:102EF00031137091321380913313909134130E94E7
:102F000050E3D1016D937D938D939C93139720E0B3
:102F100030E0A90160913513709136138091371319
:102F2000909138130E9450E3C753DF4F6883798331
:102F30008A839B83C95CD0408091391390913A1366
:102F4000A0913B13B0913C1389839A83AB83BC83DC
:102F5000E1E0F0E0EC0FFD1FFF93EF93CF5DDE4F5C
:102F6000F881C152D140FF93C05EDE4F8880C052CD
:102F7000D1408F923F922F920DB71EB70452110984
:102F80000FB6F8941EBF0FBE0DBFADB7BEB71196FA
:102F900084E2E1E2F2E001900D928A95E1F70E946D
:102FA0006C56A701960169817A818B819C810E9470
:102FB0004FE32091391330913A1340913B135091D4
:102FC0003C130E9450E37B018C0160933913709392
:102FD0003A1380933B1390933C130FB6F894DEBFE3
:102FE0000FBECDBF2091351330913613409137136A
:102FF00050913813609131137091321380913313D3
:10300000909134130E94EE7B0C94893F9091C00004
:1030100095FFFCCF8093C600319684918111F6CF45
:10302000EAE9F8E08491882341F09091C00095FF8F
:10303000FCCF8093C6003196F5CF6091311370912B
:103040003213809133139091341342E00E948474C0
:10305000E5E9F8E08491882341F09091C00095FF64
:10306000FCCF8093C6003196F5CF609135137091F7
:103070003613809137139091381342E00E94847484
:10308000E0E9F8E08491882341F09091C00095FF39
:10309000FCCF8093C6003196F5CF609139137091C3
:1030A0003A1380913B1390913C1342E00E94847448
:1030B000EEE8F8E08491882341F09091C00095FFFC
:1030C000FCCF8093C6003196F5CF0E946A440E94DF
:1030D0005E440C94893F109261140C94893F81E006
:1030E000809361140C94893F85E40E94A646811167
:1030F00002C00E94D35D96E8692E93E0792E21E309
:10310000A22E23E1B22E31ED832E33E1932ED12C6A
:10311000D3018D913D010E94A6468823A9F1B3E019
:10312000DB120AC00E94CC46F50160837183828362
:1031300093830E94027D28C00E94CC46D4012D9129
:103140003D914D915C910E9450E3F5016083718344
:1031500082839383E0903913F0903A1300913B13EC
:1031600010913C1320913513309136134091371351
:103170005091381360913113709132138091331351
:10318000909134130E94EE7BD394F4E0AF0EB11C07
:1031900004E0800E911C14E0D112BACF0C94893F48
:1031A0008DE40E94A646882311F40C94B93E0E9437
:1031B000CC460E9496E46837710511F40C94342BC8
:1031C0000CF0BBC06A32710509F4CEC50CF058C0D2
:1031D0006731710509F44EC294F56231710511F43D
:1031E0000C943829F4F477FF02C00C94893F6230C4
:1031F00071050CF487C16131710511F00C94893FA0
:1032000085E698E00E949DCB5F988A989FB7F894D6
:10321000809108018E7F809308019FBF12980C94C3
:10322000893F6531710509F41BC20CF01DC2643180
:10323000710511F00C94893FE5E5F8E0C8C16B31E8
:10324000710509F456C23CF46931710509F439C2BB
:103250000CF426C240C26E31710509F4D0C234F4B8
:103260006C31710509F499C20C94893F6F31710575
:1032700009F4FAC46032710509F461C40C94893F01
:103280006936710511F40C9458262CF564357105D6
:1032900011F40C94382974F46235710511F40C940E
:1032A0002F2914F00C9433296033710509F4A7C554
:1032B0000C94893F6C35710511F40C949C29683687
:1032C000710511F40C9425266535710511F00C94E7
:1032D000893F0C9481296037710511F40C944526BF
:1032E0007CF46B36710511F40C94272914F40C94BA
:1032F00017296D36710511F40C9445270C94893FFC
:103300006337710511F40C94362A4CF46237710559
:1033100011F00C94893FE4EAF5E00C94602A6537DB
:10332000710511F40C94452A6737710511F00C945E
:10333000893FE9E9F3E00C943E2B623E710511F4FC
:103340000C94BA2E0CF05AC06E3B710511F40C941B
:103350000C284CF56839710511F40C94252CA4F453
:103360006C38710511F40C9447266639710511F417
:103370000C94E02B6937710511F00C94893F81E0C2
:1033800080930D020C94893F6A39710511F40C94F5
:10339000592C14F40C94352C6B39710511F40C94E0
:1033A000C52C0C94893F6C3C710511F40C94DF2DF5
:1033B0008CF4693C710511F40C949F2D6B3C7105E4
:1033C00011F40C94C12D683C710511F00C94893FE7
:1033D0000C94F62C6E3C710511F40C94612E14F4CF
:1033E0000C94012E6C3D710511F40C947F2E6D3DF3
:1033F000710511F40C94902E0C94893F623921E0F0
:10340000720711F40C943E38A4F56E3241E0740753
:1034100011F40C947E3384F46C3281E0780711F45B
:103420000C94063014F00C94B7326831714011F4EA
:103430000C94192F0C94893F6237B1E07B0711F48B
:103440000C94CF373CF46F32714011F40C949333E9
:103450000C94893F603901E0700711F40C943B38FB
:103460006139714011F00C94893F0E9464440C94BE
:10347000893F673F21E0720711F40C94473894F4B8
:10348000653F41E0740711F40C94413814F00C943A
:103490004438643F714011F00C94893F0E94534EB0
:1034A0000C94893F633593E0790711F40C941E3B2B
:1034B0003CF46835724011F40C94EE3B0C94893F57
:1034C000603AE3E07E0709F49AC3673E734011F067
:1034D0000C94893F1092771310924F148091BC1373
:1034E0009091BD13A091BE13B091BF138093C013F0
:1034F0009093C113A093C213B093C3130E94EBD255
:103500000C94893F8DE798E00E949DCB80E50E9456
:10351000A646882339F00E94CC460E949BE46B01AA
:103520007C0103C0C12CD12C760183E50E94A64604
:10353000882361F00E94CC4620E030E04AE754E462
:103540000E9401DC0E949BE46B017C010E94D35D20
:103550000E945F5460938B0D70938C0D80938D0D42
:1035600090938E0DC114D104E104F104F1F00E9496
:103570005F54C60ED71EE81EF91E0E945F546C15DC
:103580007D058E059F0530F08EE698E00E949DCB6C
:103590000C94893F8091C80582FDF6CF0E94F25AB3
:1035A0000E943DA90E94CECBE8CF8091C80582FD44
:1035B000EBCF0E94F25A0E943DA90E94CECBF5CFDC
:1035C0009091C00095FFFCCF8093C6003196849106
:1035D0008111F6CF8091C00085FFFCCF8AE08093F7
:1035E000C600109207131092061340E050E0BA0193
:1035F00081EB90E10E9422B08BE1E1EBF0E1DE0192
:10360000159601900D928A95E1F78091AF109091F7
:10361000B0109C838B838AE293E09A838983BE01F6
:103620006F5F7F4F82ED93E00E942C7DCE0101966B
:103630000E94AFA7E7E4F8E08491882341F09091DD
:10364000C00095FFFCCF8093C6003196F5CF8091E6
:10365000C00085FFFCCF8AE08093C6000C94893FB0
:103660000E941C750C94893F10928010109281105A
:103670000C94893F00913E0510913F050C5F1F4F50
:103680006AE270E0C8010E942DE7009711F0DC01AA
:103690001C9241E061E0C8010E94D4780C94893FFB
:1036A00080918110882319F081E0809380108091AF
:1036B0001002882311F40C94893F0E941EA80C94D8
:1036C000893F80918010882311F40C94893F1092D7
:1036D00080100C94893F80918110882311F40C9400
:1036E000893F83E50E94A64681110C94BA3F0C9451
:1036F000893F80918110882309F439C0EBECF1E017
:103700008491882341F09091C00095FFFCCF809375
:10371000C6003196F5CF609101137091021380912C
:103720000313909104134AE00E94FD73E9ECF1E069
:103730008491882341F09091C00095FFFCCF809345
:10374000C6003196F5CF6091F9127091FA1280910E
:10375000FB129091FC124AE00E94FD738091C00020
:1037600085FFFCCF8AE08093C6000C94893FEDED85
:10377000F1E08491882341F09091C00095FFFCCF47
:103780008093C6003196F5CF8091C00085FFFCCFB5
:103790008AE08093C6000C94893F80913E05909109
:1037A0003F056AE270E004960E942DE78C01892BA8
:1037B000D9F0209154073091550740E6429FC0014F
:1037C000439F900D11246EE470E08C529A4F0E943A
:1037D0002DE760E270E00E942DE7019690933F058F
:1037E00080933E05F801108280913E0590913F053F
:1037F00041E060E004960E94D4780C94893F809167
:103800008110882311F40C94893F8CE492E10E948A
:10381000DFAF8CE492E10E946EB610927E1010929F
:103820007F1080913E0590913F056AE270E004961A
:103830000E942DE78C01892BD9F0209154073091FB
:10384000550740E6429FC001439F900D11246EE44E
:1038500070E08C529A4F0E942DE760E270E00E9467
:103860002DE7019690933F0580933E05D8011C9269
:1038700000913E0510913F0580918110882311F43D
:103880000C94893F5801B4E0AB0EB11C8CE492E17A
:103890000E946EB6109280101D8218861C821B82B8
:1038A0008AE293E09A8389838DEA90E19093CD1028
:1038B0008093CC10F80184818F3209F091C06FE2BF
:1038C00070E0C5010E942DE78C010F5F1F4F8AE059
:1038D000E82E9E012F5F3F4F49010115110509F4A4
:1038E00085C06FE270E0C8010E942DE76C0100976F
:1038F00009F47DC00817190708F079C03C01601A67
:10390000710AA301B801CE0187539F4F0E9456E769
:10391000E9ECF0E0EC0FFD1FE60DF71D10828E01C3
:1039200007531F4FF8018191882339F09091C0000F
:1039300095FFFCCF8093C600F6CF8091C00085FF35
:10394000FCCFE092C6006091CC107091CD10611553
:10395000710511F06C5F7F4F21E0AE0147535F4F5F
:10396000CE0105960E9476B6811132C0E7E1F2E001
:103970008491882371F09091C00095FFFCCF8093D3
:10398000C6003196F5CF9091C00095FFFCCF809393
:10399000C600D8018D918D018111F5CFE5E1F2E0EE
:1039A0008491882341F09091C00095FFFCCF8093D3
:1039B000C6003196F5CF8091C00085FFFCCF8AE02C
:1039C0008093C600CE0101960E94AFA70C94893F58
:1039D0009092CD108092CC1086010F5F1F4F7DCF4B
:1039E0008EEC90E19093CD108093CC108501609186
:1039F000CC107091CD106115710511F06C5F7F4F87
:103A0000C753DF4F1882C95CD040C453DF4F1882C0
:103A1000CC5CD04022E0A801CE0187539F4F0E948A
:103A200076B6882359F1CE0187539F4F0E94427882
:103A3000882321F1CB52DF4F688179818A819B8174
:103A4000C55DD04041E00E940A988823B9F0C75272
:103A5000DF4FE881C95DD040B0E2EB9FF001112457
:103A6000E057F24F309751F085EE8083C453DF4F1B
:103A70001882CC5CD0400E94CA97F82ECE018753A2
:103A80009F4F0E945B4BFF2041F1E7E0F2E0849101
:103A9000882341F09091C00095FFFCCF8093C60031
:103AA0003196F5CFF8018191882339F09091C000CB
:103AB00095FFFCCF8093C600F6CF8091C00085FFB4
:103AC000FCCF8AE08093C60010920113109202137B
:103AD00010920313109204132CC0EFEEF1E08491C6
:103AE000882341F09091C00095FFFCCF8093C600E1
:103AF0003196F5CFF8018191882339F09091C0007B
:103B000095FFFCCF8093C600F6CFEDEEF1E08491F7
:103B1000882341F09091C00095FFFCCF8093C600B0
:103B20003196F5CF8091C00085FFFCCF8AE080936D
:103B3000C600CE0101960E94AFA70C94893F8091E8
:103B4000801081110E94D35D00913E0510913F05C8
:103B50000C5F1F4F6AE270E0C8010E942DE77C01F4
:103B600061E270E0C8010E942DE7009719F08C0116
:103B70000F5F1F4FE114F10411F0F701108280E58F
:103B80000E94A646F82E80913E0590913F050817A9
:103B9000190708F4F12C80918110882311F40C94FA
:103BA000893F41E04F2561E0C8010E94D47883E558
:103BB0000E94A6468823B9F080913E0590913F056A
:103BC0008017910780F40E94C146AB01BC0140936D
:103BD00001135093021360930313709304138CE446
:103BE00092E10E9422B080918110882319F081E037
:103BF00080938010FF2009F45ACD0C94893F809166
:103C00003E0590913F056AE270E005960E942DE71F
:103C10008C01892BD9F0209154073091550740E64B
:103C2000429FC001439F900D11246EE470E08C52BE
:103C30009A4F0E942DE760E270E00E942DE7019606
:103C400090933F0580933E05D8011C9280913E05DC
:103C500090913F0521E020937F1041E060E00596C0
:103C60000E94D4780C94893F0E945F540091D00543
:103C70001091D1052091D2053091D305601B710BB5
:103C8000820B930B28EE33E040E050E00E94F2E21A
:103C9000CA01B9012CE330E040E050E00E94F2E2BA
:103CA0007F936F933F932F9388E398E09F938F9335
:103CB0008E010F5F1F4F1F930F930E949CDFE2E462
:103CC000FBE094910FB6F894DEBF0FBECDBFE2E4E7
:103CD000FBE0992349F08091C00085FFFCCF9093D1
:103CE000C60031969491F5CFF8018191882339F07F
:103CF0009091C00095FFFCCF8093C600F6CF8091D5
:103D0000C00085FFFCCF8AE08093C600C8010E94F6
:103D1000BFCB8091A313882311F40C94893F109298
:103D2000A3130091A21310E0000F111F08551C4EA1
:103D3000D8016D917C91072E000C880B990B0E9485
:103D4000D1DF209166023091670240916802509164
:103D500069020E9481E5181614F00C94893FF8015D
:103D6000118210820C94893F83E50E94A646882325
:103D700011F40C94893F0E94CC460E9496E4F62EE2
:103D8000E72E862F9E2D8C0180E50E94A646882373
:103D900031F00F3F110509F010F40C94CA3F0DE00B
:103DA00010E0E4E9F2E0819191918017910771F0C0
:103DB00022E0EC3CF207B9F70930110549F48F2DE8
:103DC0009E2D9093A5138093A41302C00FEF1FEFB5
:103DD0008091A4130E94E34F17FF02C00C94893F07
:103DE00061E0802F0E9424536F2D802F0E9440524B
:103DF0006F2D7E2D802F0E9460530C94893F86E5A5
:103E00000E94A64681110C94D03F86E70E94A646E8
:103E100081110C94D03F22242394312C03C021140F
:103E20003104D1F0E9EEF7E08491882341F09091DC
:103E3000C00095FFFCCF8093C6003196F5CFE5EB2F
:103E4000F7E08491882341F09091C00095FFFCCF6A
:103E50008093C6003196F5CF8EE60E94A646882351
:103E6000F1F00E94CC460E9496E4CE5ADE4F798350
:103E70006883C255D140645071096F327105B8F042
:103E8000EEE8F7E08491882311F40C94893F909137
:103E9000C00095FFFCCF8093C6003196F3CF4AE077
:103EA00050E0CE5ADE4F59834883C255D14080E05E
:103EB0000E94B65DC65CDE4F6883CA53D140C25CC7
:103EC000DE4F7883CE53D140CE5BDE4F8883C25421
:103ED000D140C85BDE4F9883C854D14081E00E9436
:103EE000B65DC45BDE4F6883CC54D140C25BDE4F0D
:103EF0007883CE54D140CC5ADE4F8883C455D1400C
:103F0000CA5ADE4F9883C655D14082E00E94B65D02
:103F100082E00E94B65D6B017C0183E00E94B65D89
:103F2000CE5CDE4F688379838A839B83C253D14002
:103F300085E40E94A64681110C94E73F85E60E9425
:103F4000A64681110C94E73FC05BDE4F19821882B0
:103F5000C055D14088E50E94A64681112EC088E751
:103F60000E94A646811129C0C65CDE4F5881CA5303
:103F7000D140CE5DDE4F5883C252D140C25CDE4F8D
:103F80006881CE53D140CA5DDE4F6883C652D140AE
:103F9000CE5BDE4F8881C254D140C65DDE4F888340
:103FA000CA52D140C85BDE4F9881C854D140C25D2F
:103FB000DE4F9883CE52D1403DC00E94CC46CE5DAC
:103FC000DE4F6883C252D140CA5DDE4F7883C6524D
:103FD000D140C65DDE4F8883CA52D140C25DDE4FFC
:103FE0009883CE52D14020E030E0A9010E94CBDF7F
:103FF00087FF02C00C94F13F20E030E04AE253E436
:10400000CE5DDE4F6881C252D140CA5DDE4F7881FD
:10401000C652D140C65DDE4F8881CA52D140C25DD2
:10402000DE4F9881CE52D1400E9481E5181614F4DB
:104030000C94F13F89E50E94A64681112EC089E7C4
:104040000E94A646811129C0C45BDE4FA881CC54D2
:10405000D140CA5CDE4FA883C653D140C25BDE4F5D
:10406000B881CE54D140C95CDE4FB883C753D1402C
:10407000CC5ADE4FE881C455D140C85CDE4FE8839E
:10408000C853D140CA5ADE4FF881C655D140C75CEB
:10409000DE4FF883C953D1403DC00E94CC46CA5C74
:1040A000DE4F6883C653D140C95CDE4F7883C75367
:1040B000D140C85CDE4F8883C853D140C75CDE4F17
:1040C0009883C953D14020E030E0A9010E94CBDFA2
:1040D00087FF02C00C94FF3F20E030E044E353E44C
:1040E000CA5CDE4F6881C653D140C95CDE4F78811F
:1040F000C753D140C85CDE4F8881C853D140C75CEC
:10410000DE4F9881C953D1400E9481E5181614F4FE
:104110000C94FF3F8CE40E94A64681110C940D4044
:104120008CE60E94A64681110C940D40CA5BDE4FBE
:1041300019821882C654D14020E030E040E751E4B3
:10414000C701B6010E9450E32B013C010E94D35DE0
:104150000E94D77CCE5CDE4F288139814A815B8109
:10416000C253D14029833A834B835C8382EA93E133
:104170009F938F93812C912CF0E2AF2EF2E4BF2E0F
:10418000AE014F5F5F4F6A0183017201C45BDE4F76
:104190002881CC54D140C25BDE4F3881CE54D1400F
:1041A000CC5ADE4F4881C455D140CA5ADE4F58819F
:1041B000C655D140C65CDE4F6881CA53D140C25C4F
:1041C000DE4F7881CE53D140CE5BDE4F8881C25422
:1041D000D140C85BDE4F9881C854D1400E940D8AFF
:1041E0000E94D35D0F900F9053E0251631040CF020
:1041F000FAC0CE5CDE4F88819981AA81BB81C2530F
:10420000D14089839A83AB83BC83A2EAB3E1BF9395
:10421000AF93812C912CE8ECAE2EE2E4BE2E8E0101
:104220000F5F1F4F680183017201CA5CDE4F288156
:10423000C653D140C95CDE4F3881C753D140C85CFA
:10424000DE4F4881C853D140C75CDE4F5881C95307
:10425000D140CE5DDE4F6881C252D140CA5DDE4F93
:104260007881C652D140C65DDE4F8881CA52D140A6
:10427000C25DDE4F9881CE52D1400E940D8A0E94CD
:10428000D35D80E00E94B65D60933113709332136A
:10429000809333139093341381E00E94B65D609352
:1042A000351370933613809337139093381382E04D
:1042B0000E94B65D6093391370933A1380933B1359
:1042C00090933C1383E00E94B65D6B017C01609388
:1042D0003D1370933E1380933F13909340130E94BD
:1042E00064440E948F440E941F4582E00E94B65D94
:1042F0006093391370933A1380933B1390933C135C
:1043000082E00E94B65D20E030E040E751E40E9488
:1043100050E3CE5BDE4F688379838A839B83C254EC
:10432000D140C982DA82EB82FC82A2EAB3E1BF9378
:10433000AF938E010F5F1F4F6801CE5BDE4FE880A9
:10434000F9800A811B81C254D140CA5CDE4F2881AA
:10435000C653D140C95CDE4F3881C753D140C85CD9
:10436000DE4F4881C853D140C75CDE4F5881C953E6
:10437000D140CE5DDE4F6881C252D140CA5DDE4F72
:104380007881C652D140C65DDE4F8881CA52D14085
:10439000C25DDE4F9881CE52D1400E940D8A0E94AC
:1043A000D35D82E00E94B65DC85BDE4F688379838F
:1043B0008A839B83C854D1406093391370933A1316
:1043C00080933B1390933C130F900F900F900F909E
:1043D000C05BDE4F28813981C055D140232B81F04D
:1043E0000E945E440DC0E2EBF3E08191882309F462
:1043F00000CF9091C00095FFFCCF8093C600F5CF11
:10440000AE014F5F5F4FC25BDE4F59834883CE548E
:10441000D14081E090E0A0E0B0E0C25CDE4F888354
:104420009983AA83BB83CE53D140CA5BDE4FA88158
:10443000B981C654D1401197CA5ADE4FB983A883B7
:10444000C655D140CE5ADE4F88809980C255D140A2
:10445000092C000CAA08BB08C65ADE4F8882998234
:10446000AA82BB82CA55D140C25CDE4F0881198145
:10447000CE53D14001501109C45BDE4F198308832C
:10448000CC54D140CE5BDE4FE880F9800A811B819D
:10449000C254D140CA5CDE4F2881C653D140C95CAA
:1044A000DE4F3881C753D140C85CDE4F4881C853C6
:1044B000D140C75CDE4F5881C953D140CE5DDE4F3D
:1044C0006881C252D140CA5DDE4F7881C652D14068
:1044D000C65DDE4F8881CA52D140C25DDE4F9881F1
:1044E000CE52D1400E94BB44CA5BDE4F2881398145
:1044F000C654D140232B09F4C0C10E945F54AB01C4
:1045000041705527CC5ADE4F59834883C455D1405A
:104510000E945F542AE230E040E050E00E94F2E264
:104520000E94CFDF4B015C010E945F5428E631E01E
:1045300040E050E00E94F2E20E94CFDF22EE3EE235
:1045400045E652E40E942DE4C65CDE4F6883798321
:104550008A839B83CA53D140C12CD12CCA5ADE4FC7
:1045600028813981C655D140C216D3060CF053C1FB
:10457000CC5ADE4F88819981C455D1400197E9F426
:104580000E945F5424E130E040E050E00E94F2E2FB
:104590000E94CFDF22EE3EE245E652E40E942DE487
:1045A0009B01AC01C65CDE4F688179818A819B8169
:1045B000CA53D1400E9450E31CC00E945F5424E1C2
:1045C00030E040E050E00E94F2E20E94CFDF22EEB5
:1045D0003EE245E652E40E942DE49B01AC01C65C3C
:1045E000DE4F688179818A819B81CA53D1400E94C4
:1045F0004FE3C65CDE4F688379838A839B83CA530B
:10460000D1400E945F542AE030E040E050E00E9438
:10461000F2E265507109810991090E94D1DF9B0185
:10462000AC01C501B4010E9450E34B015C0120E0E4
:1046300030E0A9010E94CBDF87FF04C0B7FAB09435
:10464000B7F8B094C65CDE4F688179818A819B811E
:10465000CA53D1400E942AE4A50194010E9401DCC2
:104660009B01AC01CE5DDE4F6881C252D140CA5D74
:10467000DE4F7881C652D140C65DDE4F8881CA5276
:10468000D140C25DDE4F9881CE52D1400E9450E3AE
:104690002B013C01C65CDE4F688179818A819B8158
:1046A000CA53D1400E9461E6A50194010E9401DC39
:1046B0009B01AC01CA5CDE4F6881C653D140C95C26
:1046C000DE4F7881C753D140C85CDE4F8881C85324
:1046D000D140C75CDE4F9881C953D1400E9450E35E
:1046E000CE5CDE4F688379838A839B83C253D1403B
:1046F00020E030E0A901C301B2010E94CBDF87FDB9
:1047000011C020E030E04AE253E4C301B2010E944C
:1047100081E5181654F4412C512C7AE2672E73E48B
:10472000772E03C0412C512C320120E030E0A9014A
:10473000CE5CDE4F688179818A819B81C253D140F2
:104740000E94CBDF87FD1DC020E030E044E353E44E
:10475000CE5CDE4F688179818A819B81C253D140D2
:104760000E9481E51816ACF400E010E024E333E485
:10477000CE5CDE4F088319832A833B83C253D1402A
:1047800008C0CE5CDE4F188219821A821B82C25387
:10479000D14014E02116310431F5B301A2018AE0C1
:1047A00097E00E94394BCE5CDE4F488159816A8187
:1047B0007B81C253D14086E097E00E94394BE5E00F
:1047C000F7E08491882341F09091C00095FFFCCFE1
:1047D0008093C6003196F5CF8091C00085FFFCCF55
:1047E000FAE0F093C600C85BDE4FE880F9800A81EA
:1047F0001B81C854D140CE5CDE4F288139814A816B
:104800005B81C253D140C301B2010E94BB440FEF90
:10481000C01AD00AA3CECE5BDE4FE880F9800A81B1
:104820001B81C254D140CA5CDE4F2881C653D1409F
:10483000C95CDE4F3881C753D140C85CDE4F488128
:10484000C853D140C75CDE4F5881C953D140CE5DBB
:10485000DE4F6881C252D140CA5DDE4F7881C652B8
:10486000D140C65DDE4F8881CA52D140C25DDE4F65
:104870009881CE52D1400E94BB44C05BDE4F48813C
:104880005981C055D140452B41F00E94644468EEE7
:1048900073E080E090E00E9427540E948F440E94C1
:1048A0001F458091391390913A13A0913B13B09119
:1048B0003C13C25BDE4FE881F981CE54D140819335
:1048C0009193A193B193C25BDE4FF983E883CE54F9
:1048D000D1408E010F5F1F4F580100E010E0C12C46
:1048E000D12C7601D5012D913D914D915D915D01C8
:1048F000C701B6010E9450E36B017C010F5F1F4F9F
:10490000C45BDE4F88809980CC54D14080169106DC
:104910004CF7C25CDE4FA880B980CE53D140B501C0
:10492000BB0C880B990B0E94D1DF4B015C019B01F2
:10493000AC01C701B6010E942DE4CE5CDE4F688356
:1049400079838A839B83C253D1408E010F5F1F4FAF
:10495000380100E010E0C12CD12C7601D3016D911B
:104960007D918D919D913D01CE5CDE4F28813981F5
:104970004A815B81C253D1400E944FE39B01AC014D
:104980000E9401DC9B01AC01C701B6010E9450E30B
:104990006B017C010F5F1F4FC45BDE4FE881F98123
:1049A000CC54D140E017F107CCF6A50194010E9448
:1049B0002DE40E946CE62B013C01F2E02F1631043D
:1049C0000CF466C0C25CDE4F688179818A819B816C
:1049D000CE53D1400E947274E3EDF3E081918823BD
:1049E00039F09091C00095FFFCCF8093C600F6CFC0
:1049F000C65ADE4F688179818A819B81CA55D14030
:104A00000E947274EEEFF6E08491882341F0909159
:104A1000C00095FFFCCF8093C6003196F5CF609122
:104A2000391370913A1380913B1390913C1346E0F7
:104A30000E94847402E02016310409F482C0E8ED7B
:104A4000F3E08191882339F09091C00095FFFCCF6D
:104A50008093C600F6CF46E0CE5CDE4F6881798158
:104A60008A819B81C253D1400E948474E0EEF3E0BE
:104A70008191882339F09091C00095FFFCCF8093FD
:104A8000C600F6CF46E0C301B2010E94847459C04B
:104A90002114310409F055C082EA93E19F938F936A
:104AA000812C912C50E2A52E52E4B52E6DE3C62E3A
:104AB00063E1D62ECE5BDE4FE880F9800A811B8150
:104AC000C254D140CA5CDE4F2881C653D140C95C74
:104AD000DE4F3881C753D140C85CDE4F4881C85390
:104AE000D140C75CDE4F5881C953D140CE5DDE4F07
:104AF0006881C252D140CA5DDE4F7881C652D14032
:104B0000C65DDE4F8881CA52D140C25DDE4F9881BA
:104B1000CE52D1400E940D8A0E94D35D0F900F901B
:104B2000C05BDE4F28813981C055D140232BB9F0BD
:104B30000E945E4468EE73E080E090E00E9427549B
:104B40000EC0ECEFF6E08491882309F4A5CF909194
:104B5000C00095FFFCCF8093C6003196F4CFC25CB5
:104B6000DE4F88819981AA81BB81CE53D1400196C5
:104B7000A11DB11DC25CDE4F88839983AA83BB83CC
:104B8000CE53D140C25CDE4F88819981CE53D14053
:104B90000197CE5ADE4FA881B981C255D1408A17FC
:104BA0009B070CF461CC0E945E4468EE73E080E0E9
:104BB00090E00E9427540E946A44232819F4EEEDE5
:104BC000F6E02CC0E5EFF6E08491882341F0909167
:104BD000C00095FFFCCF8093C6003196F5CF46E02C
:104BE000CE5CDE4F688179818A819B81C253D1403E
:104BF0000E948474E3EFF6E08491882301F390919E
:104C0000C00095FFFCCF8093C6003196F5CF909100
:104C1000C00095FFFCCF8093C6003196849181112E
:104C2000F6CF46E0C301B2010E948474EBEDF6E0DA
:104C30008491882311F40C94893F9091C00095FFD2
:104C4000FCCF8093C6003196F3CF88E690E00E94B7
:104C500037A881110C94893F83E50E94A6468823DA
:104C600011F40C94893F1091C4130E94CC46212F5B
:104C700030E0220F331F890108551C4E0E9496E434
:104C8000F801718360830C94893F0E94FFA883E53B
:104C90000E94A646882311F40C94893F0E94CC46BA
:104CA0000E9496E47093A7136093A6130C94893F17
:104CB00089E690E00E9437A881110C94893FE5EDC8
:104CC000F6E08491882341F09091C00095FFFCCFDD
:104CD0008093C6003196F5CFE091C41304E0E09FC5
:104CE000F0011124E558FC4E60817181828193812D
:104CF00041E00E948474E2EDF6E08491882341F063
:104D00009091C00095FFFCCF8093C6003196F5CFFF
:104D1000E091C413F0E0EE0FFF1FE855FC4E6081F8
:104D20007181072E000C880B990B0E94D1DF41E0A6
:104D30000E948474EEECF6E08491882341F0909117
:104D4000C00095FFFCCF8093C6003196F5CF6091EF
:104D5000CC057091CD058091CE059091CF0541E0B5
:104D60000E948474EBECF6E08491882341F09091EA
:104D7000C00095FFFCCF8093C6003196F5CF6091BF
:104D8000A6137091A713072E000C880B990B0E9495
:104D9000D1DF41E00E948474E8ECF6E0849188233E
:104DA00041F09091C00095FFFCCF8093C6003196F2
:104DB000F5CF60E070E0CB010E947274E6ECF6E0A3
:104DC0008491882341F09091C00095FFFCCF80939F
:104DD000C6003196F5CF60917B1370917C13809162
:104DE0007D1390917E1341E00E948474E3ECF6E021
:104DF0008491882341F09091C00095FFFCCF80936F
:104E0000C6003196F5CF6091A8137091A913072EB3
:104E1000000C880B990B0E94D1DF41E00E94847442
:104E2000EFEBF6E08491882341F09091C00095FF6C
:104E3000FCCF8093C6003196F5CFE091C413F0E02B
:104E4000E658FC4E608170E080E090E00E94727451
:104E5000EAEBF6E08491882341F09091C00095FF41
:104E6000FCCF8093C6003196F5CF6091791370E046
:104E700080E090E00E9472748091C00085FFFCCFBA
:104E80008AE08093C6000C94084402E028E040E0E9
:104E900064E18FEF0E9450508DE690E00E9437A8A9
:104EA00081110C94893F8FEA96E00E949DCB10926D
:104EB000A31383E50E94A6468823A1F01091C41392
:104EC0000E94CC46212F30E0220F331F8901085564
:104ED0001C4E0E9496E4D8016D937C9381E08093F0
:104EE000020217C082E50E94A646882391F0109125
:104EF000C4130E94CC46212F30E0220F331F8901BA
:104F000008551C4E0E9496E4F8017183608310924C
:104F1000020283E50E94A646882351F00E94CC46F7
:104F200060936602709367028093680290936902AF
:104F300082E40E94A646882351F00E94CC466093EA
:104F4000620270936302809364029093650286E428
:104F50000E94A646882369F00E94CC4660935E02B8
:104F600070935F02809360029093610281E080936E
:104F7000A3130E945F544B015C010091C41310E025
:104F8000F801EE0FFF1FE855FC4E60817181072E7E
:104F9000000C880B990B0E94D1DF000F111F000F2E
:104FA000111FF801E558FC4E11E02081318142814A
:104FB00053810E9481E518160CF010E010936905EA
:104FC0001092820DCC24CA94DC2C7601E4EA2E2EB9
:104FD000E6E03E2EF8EE4F2EF3E05F2E612C712CB2
:104FE0008091820D81110C945E41BFEFCB16DB06E0
:104FF000EB06FB0611F40C943B40F7FE02C00C9448
:105000005E410E945F546C197D096031774210F453
:105010000C943B400C945E4102E028E040E064E1E7
:105020008FEF0E94505089E896E00E949DCB83E567
:105030000E94A646882361F00E94CC460E9496E416
:105040007093A7136093A61381E0809302020FC0B0
:1050500082E50E94A646882351F00E94CC460E9419
:1050600096E47093A7136093A613109202020E9415
:105070005F544B015C011092820D6091A6137091F8
:10508000A713072E000C880B990B0E94D1DF11E0AB
:105090002091CC053091CD054091CE055091CF05A2
:1050A0000E9481E518160CF010E01093690506E8DF
:1050B00016E0E2E8EE2EE6E0FE2EFEE7CF2EF6E06A
:1050C000DF2EAAE07A2E809169056091A613709177
:1050D000A713882309F484C08091820D811180C0B8
:1050E000072E000C880B990B0E94D1DF2091CC0574
:1050F0003091CD054091CE055091CF050E9481E5BC
:1051000018160CF084C00E945F54DC01CB01881992
:105110009909AA09BB09893E9340A105B10508F484
:1051200058C0E091A21324E0E29FF0011124E55859
:10513000FC4E6081718182819381F8012491E6E8BF
:10514000F6E0222349F03091C00035FFFCCF2093D8
:10515000C60031962491F5CF42E00E948474F70195
:105160008491E2E8F6E0882349F09091C00095FF31
:10517000FCCF8093C60031968491F5CF6091A21345
:1051800070E080E090E00E947274F6018491EEE796
:10519000F6E0882349F09091C00095FFFCCF809302
:1051A000C60031968491F5CF6091CC057091CD0504
:1051B0008091CE059091CF0541E00E94847480914A
:1051C000C00085FFFCCF7092C6000E945F544B0167
:1051D0005C010E94F25A0E943DA90E94CECB73CF7F
:1051E000072E000C880B990B0E94D1DF2091CC0573
:1051F0003091CD054091CE055091CF050E94CBDF77
:1052000087FF05C080910202882309F47CCF84E7E0
:1052100096E00E949DCB0E945F5460938B0D70932B
:105220008C0D80938D0D90938E0D0C94893F83E5AA
:105230000E94A646882331F00E94CC460E949BE43F
:10524000862F01C08FEF0E94E34F0C94893F83E5C6
:105250000E94A64680E00E94E34F0C94893F109282
:1052600065140C94893F81E0809365140C94893F08
:1052700083E50E94A6468823A1F00E94CC4620E048
:1052800030E04AE754E40E9401DC0E949BE4609312
:105290006A0270936B0280936C0290936D020C947F
:1052A000893F88E50E94A64681110C94724189E5E8
:1052B0000E94A64681110C9472418AE50E94A6467E
:1052C00081110C94724185E40E94A64681110C94D0
:1052D00072410E94D35D129A0E94D35D5F9A109230
:1052E000C9058A9A1092CA059FB7F894809108015F
:1052F0008160809308019FBF1092CB05129A0C9495
:10530000893F83E50E94A646882311F40C94893FC7
:105310000E94CC4620E030E04AE754E40E9401DCE1
:105320000E949BE46093B8137093B9138093BA13EF
:105330009093BB130C94893F66E8862E63E0962E0B
:1053400005E613E179E1A72E74E1B72E2EEB37E0E5
:10535000CE5DDE4F39832883C252D140312CD40137
:105360008D914D010E94A646882309F466C0B3E0E2
:105370003B125CC00E94CC462B013C0120E030E097
:1053800040EA51E40E94CBDF87FF49C0A3019201AC
:10539000F80160817181828193810E942DE46B010B
:1053A0007C019B01AC016091291470912A148091B9
:1053B0002B1490912C140E9401DC6093291470939B
:1053C0002A1480932B1490932C14A7019601D501D5
:1053D0006D917D918D919C910E9401DCF50160831E
:1053E000718382839383CE5DDE4FA881B981C252DF
:1053F000D1406D917D918D919C910E94CFDFA7014D
:1054000096010E9401DC0E949BE4CE5DDE4FE881A4
:10541000F981C252D1406083718382839383D80122
:105420004D925D926D927C92139707C00E94CC467C
:10543000F801608371838283938333940C5F1F4FE1
:10544000F4E0AF0EB11CCE5DDE4F28813981C2522F
:10545000D1402C5F3F4FCE5DDE4F39832883C2524F
:10546000D14034E033127BCF0C94893FE7EAF5E07A
:105470008491882311F40C94893F9091C00095FF8A
:10548000FCCF8093C6003196F3CF00913E0510917A
:105490003F050B5F1F4F6AE270E0C8010E942DE7D5
:1054A000009711F0DC011C92C8010E94BFCB0C9444
:1054B000893F9091C00095FFFCCF8093C600319644
:1054C00084918111F6CF60913113709132138091E4
:1054D00033139091341342E00E948474E0EAF5E0C3
:1054E0008491882341F09091C00095FFFCCF809378
:1054F000C6003196F5CF60913513709136138091C7
:1055000037139091381342E00E948474ECE9F5E07F
:105510008491882341F09091C00095FFFCCF809347
:10552000C6003196F5CF6091391370913A1380918E
:105530003B1390913C1342E00E948474E8E9F5E04B
:105540008491882341F09091C00095FFFCCF809317
:10555000C6003196F5CF60913D1370913E13809156
:105560003F139091401342E00E948474EDE8F5E00F
:105570008491882341F09091C00095FFFCCF8093E7
:10558000C6003196F5CF2FB7F89460912113709132
:10559000221380912313909124132FBF0E94D1DFF7
:1055A00020916513309166134091671350916813F1
:1055B0000E942DE442E00E948474E9E8F5E08491C1
:1055C000882341F09091C00095FFFCCF8093C600E6
:1055D0003196F5CF2FB7F89460912513709126136B
:1055E00080912713909128132FBF0E94D1DF209123
:1055F000691330916A1340916B1350916C130E94A0
:105600002DE442E00E948474E5E8F5E0849188236B
:1056100041F09091C00095FFFCCF8093C600319679
:10562000F5CF2FB7F8946091291370912A138091C8
:105630002B1390912C132FBF0E94D1DF20916D135B
:1056400030916E1340916F13509170130E942DE4AE
:1056500042E00E9484748091C00085FFFCCF8AE004
:105660008093C6000C94893F10920D020C94893FE0
:105670009091C00095FFFCCF8093C600819181116D
:10568000F7CF8091C00085FFFCCF8AE08093C600F1
:10569000EDE7F5E08491882341F09091C00095FFFB
:1056A000FCCF8093C6003196F5CF659B03C0EAE836
:1056B000F3E009C0EFE8F3E006C09091C00095FF69
:1056C000FCCF8093C60081918111F7CF8091C000FB
:1056D00085FFFCCF8AE08093C600E5E7F5E0849182
:1056E000882341F09091C00095FFFCCF8093C600C5
:1056F0003196F5CF8091030181FF03C0EAE8F3E022
:1057000009C0EFE8F3E006C09091C00095FFFCCF20
:105710008093C60081918111F7CF8091C00085FFF1
:10572000FCCF8AE08093C600EDE6F5E08491882303
:1057300041F09091C00095FFFCCF8093C600319658
:10574000F5CF4B9B03C0EAE8F3E009C0EFE8F3E0D4
:1057500006C09091C00095FFFCCF8093C600819158
:105760008111F7CF8091C00085FFFCCF8AE0809344
:10577000C600E5E6F5E08491882341F09091C000F1
:1057800095FFFCCF8093C6003196F5CF4A9B03C0AE
:10579000EAE8F3E009C0EFE8F3E006C09091C0004A
:1057A00095FFFCCF8093C60081918111F7CF809146
:1057B000C00085FFFCCF8AE08093C6000C94893F2F
:1057C00082E50E94A646882331F00E94CC460E94C2
:1057D0009BE4162F01C010E085E50E94A6468823B1
:1057E00031F00E94CC460E949BE4F62E01C0F12CC1
:1057F00082E40E94A646882331F00E94CC460E9493
:105800009BE4E62E01C0E12C80E50E94A646882399
:1058100031F00E94CC460E949BE4D62E02C053E099
:10582000D52E83E40E94A646882329F00E94CC4608
:105830000E949BE401C060E0062F2D2D4E2D6F2DA0
:10584000812F0E9450500C94893F83E50E94A64608
:10585000882331F00E94CC460E949BE4862F01C031
:1058600080E00E94C84F0C94893F83E50E94A646C1
:10587000882329F00E94CC460E949BE401C061E08D
:1058800084E0CE59DE4F6883C256D1400E94F37344
:1058900084E090E00E949173CE59DE4F6881C25639
:1058A000D14086EE9FE00E94B8510E9496730C94FE
:1058B000893F86E40E94A646882331F00E94CC46A8
:1058C0000E949BE4D62E01C0D12C84E50E94A646FE
:1058D000882331F00E94CC460E949BE4E62E01C052
:1058E000E12C82E50E94A646882331F00E94CC4636
:1058F0000E949BE4F62E01C0F12C85E50E94A6468D
:10590000882331F00E94CC460E949BE4062F01C000
:1059100000E082E40E94A646882331F00E94CC4633
:105920000E949BE4162F01C010E084E00E94F373F4
:1059300083E090E00E94917383E090E00E94917375
:105940006D2D86EE9FE00E94B8516E2D86EE9FE091
:105950000E94B8516F2D86EE9FE00E94B851602FD3
:1059600086EE9FE00E94B851612F86EE9FE00E9474
:10597000B8510E94967340915402609153028091F5
:1059800052020E9423500C94893F86E40E94A6464E
:10599000882331F00E94CC460E949BE4062F01C070
:1059A00000E084E50E94A646882331F00E94CC46A0
:1059B0000E949BE4162F01C010E084E00E94F37364
:1059C00083E090E00E94917384E090E00E949173E4
:1059D000602F86EE9FE00E94B851612F86EE9FE017
:1059E0000E94B8510E9496730C94893F84E40E94EF
:1059F000A646882311F40C94893F0E94CC4620E0EF
:105A000030E040E05FE30E9401DC6B017C0120E0BC
:105A100030E0A9010E94CBDF882379F0A70196012D
:105A2000C701B6010E9401DC2BED3FE049E450E4E0
:105A30000E9401DC9B01AC0104C020E030E040E8A2
:105A40005FE38091A2138093C41384E5CE59DE4FA7
:105A50002883C256D140CD59DE4F3883C356D1403A
:105A6000CC59DE4F4883C456D140CB59DE4F5883C2
:105A7000C556D1400E94A646CE59DE4F2881C25657
:105A8000D140CD59DE4F3881C356D140CC59DE4F7D
:105A90004881C456D140CB59DE4F5881C556D140BC
:105AA0008823B9F10E94CC460E949BE46093C41302
:105AB000CE59DE4F2881C256D140CD59DE4F3881B4
:105AC000C356D140CC59DE4F4881C456D140CB5942
:105AD000DE4F5881C556D1406623D9F0E2E4FBE0A1
