:100000000C94F50F0C9426100C9426100C942610CA
:100010000C9426100C9426100C9426100C94261088
:100020000C9426100C9426100C9426100C94261078
:100030000C9426100C945A520C9426100C942610F2
:100040000C9426100C9401A20C9426100C942610EB
:100050000C9426100C9426100C94A4830C94135426
:100060000C9426100C94094B0C9426100C9426101A
:100070000C9426100C9426100C9426100C94261028
:100080000C94C5690C9426100C9426100C94261020
:100090000C9426100C9426100C9426100C945D548D
:1000A0000C9426100C9426100C9497690C9426102E
:1000B0000C9426100C9426100C9426100C9469694C
:1000C0000C9426100C9426100C9426100C942610D8
:1000D0000C9426100C9426100C9426100C942610C8
:1000E0000C94261079507C506B506F507550B35063
:1000F000805084508A508E50925098509C50A050FE
:10010000B350A650AA50AE502F53345339534353D3
:100110004D53C65357535F53675371537B538553A6
:1001200094539E53C653A853B253BC5304841384B0
:100130002F843E84588467848184858487848B845B
:100140009384084AD73B3BCE016E84BCBFFDC12FD0
:100150003D6C74319ABD56833DDA3D00C77F11BEB8
:10016000D9E4BB4C3E916BAAAABE000000803F05BB
:10017000A84CCDB2D44EB93836A9020C50B99186EC
:1001800088083CA6AAAA2ABE000000803F002F00D3
:100190005344207072696E74696E67206279746569
:1001A00020004E6F74205344207072696E74696E23
:1001B00067002E0044656C6574696F6E2066616926
:1001C0006C65642C2046696C653A200046696C6554
:1001D0002064656C657465643A002E006F70656E0E
:1001E000206661696C65642C2046696C653A200064
:1001F000504944204175746F74756E652066696E50
:100200006973686564212050757420746865206C7A
:10021000617374204B702C204B6920616E64204BFD
:100220006420636F6E7374616E74732066726F6D99
:100230002061626F766520696E746F20436F6E6611
:10024000696775726174696F6E2E68005049442049
:100250004175746F74756E65206661696C656421A3
:100260002074696D656F75740020403A006F6B20D3
:10027000543A006F6B20423A005049442041757453
:100280006F74756E65206661696C656421205465C4
:100290006D706572617475726520746F6F20686926
:1002A000676800204B643A2000204B693A20002008
:1002B0004B703A200020436C61737369632050498E
:1002C0004420002054753A2000204B753A2000202D
:1002D0006D61783A2000206D696E3A200020643A02
:1002E000200020626961733A200020440020490008
:1002F0002020204D33303120500050494420736578
:100300007474696E67733A00205A002059002020E7
:100310004D323036205800486F6D65206F66667329
:10032000657420286D6D293A00204500205A002070
:10033000580020420020540020204D3230352053F8
:1003400000416476616E6365642076617269616202
:100350006C65733A20533D4D696E20666565647225
:1003600061746520286D6D2F73292C20543D4D69D3
:100370006E2074726176656C206665656472617466
:100380006520286D6D2F73292C20423D6D696E69A3
:100390006D756D207365676D656E742074696D652C
:1003A00020286D73292C20583D6D6178696D756D1D
:1003B000205859206A65726B20286D6D2F73292C87
:1003C00020205A3D6D6178696D756D205A206A65EF
:1003D000726B20286D6D2F73292C2020453D6D6197
:1003E00078696D756D2045206A65726B20286D6D8A
:1003F0002F73290020540020204D32303420530028
:10040000416363656C65726174696F6E3A20533D38
:10041000616363656C65726174696F6E2C20543D15
:100420007265747261637420616363656C65726187
:1004300074696F6E00204500205A0020590020206A
:100440004D3230312058004D6178696D756D204115
:100450006363656C65726174696F6E20286D6D2FC2
:100460007332293A00204500205A002059002020EC
:100470004D3230332058004D6178696D756D2066BE
:10048000656564726174657320286D6D2F73293AF8
:1004900000204500205A0020590020204D393220EC
:1004A000580053746570732070657220756E69749E
:1004B0003A006563686F3A002200556E6B6E6F7785
:1004C0006E20636F6D6D616E643A20220043686137
:1004D0006E67652066696C616D656E74005A204FA9
:1004E0006666736574203A20007A5F6D61783A2001
:1004F000007A5F6D696E3A20005A204F6666736518
:1005000074005A204F6666736574206F6B007A5FC3
:100510006D61783A20007A5F6D696E3A2000795FEC
:100520006D696E3A2000785F6D696E3A2000205A3E
:100530003A0020593A0020436F756E7420583A20D3
:100540000020453A00205A3A0020593A00583A0013
:100550004649524D574152455F4E414D453A4D61D6
:10056000726C696E2056313B20537072696E7465EF
:10057000722F6772626C206D617368757020666F90
:10058000722067656E36204649524D574152455F8D
:1005900055524C3A68747470733A2F2F67697468B7
:1005A00075622E636F6D2F4572696B5A616C6D2F8A
:1005B0004D61726C696E2F2050524F544F434F4C17
:1005C0005F56455253494F4E3A312E30204D4143EC
:1005D00048494E455F545950453A334461746F72EF
:1005E0002045585452554445525F434F554E543A56
:1005F0003120555549443A30303030303030302D8C
:10060000303030302D303030302D303030302D30F3
:1006100030303030303030303030300A00426564B5
:1006200020646F6E652E0020423A0020453A005447
:100630003A004265642048656174696E672E00481F
:10064000656174696E6720646F6E652E0020573A8D
:100650000020453A00543A0048656174696E672E7F
:100660002E2E002042403A0020403A00202F003A2F
:1006700000205400202F0020423A00202F006F6BF2
:1006800020543A000A0A005374616E646172642057
:10069000446576696174696F6E3A20000A004D65A1
:1006A000616E3A20000A002020207A3A200000796A
:1006B0003A2000783A20003F5370656369666965A7
:1006C00064206E756D626572206F66206C6567735D
:1006D00020696E206D6F76656D656E74206E6F7427
:1006E00020706C61757361626C652E0A003F5370F7
:1006F00065636966696564205920706F7369746900
:100700006F6E206F7574206F662072616E67652E44
:100710000A003F53706563696669656420582070FC
:100720006F736974696F6E206F7574206F662072C5
:10073000616E67652E0A003F53706563696669657F
:10074000642073616D706C652073697A65206E6FCB
:100750007420706C61757361626C652E0A00467559
:100760006C6C20737570706F72742061743A2068BD
:100770007474703A2F2F33647072696E74626F6193
:1007800072642E636F6D2F666F72756D2E70687058
:100790000A004D3438205A2D50726F626520526520
:1007A000706561746162696C6974792074657374D1
:1007B0002E20202056657273696F6E20322E3030E5
:1007C0000A003F566572626F7365204C6576656CF2
:1007D000206E6F7420706C61757361626C652E0A97
:1007E000002569206D696E2C2025692073656300E2
:1007F000456E642066696C65206C6973740042659F
:1008000067696E2066696C65206C697374004E6F51
:10081000206D6F76652E00526573756D696E672069
:100820007072696E74005761697420666F7220750A
:100830007365722E2E2E000A00205A3A200020598D
:100840003A200020583A200042656400486F6D65E8
:1008500020582F59206265666F7265205A00486FD4
:100860006D6520582F59206265666F7265205A00A9
:10087000536C6565702E2E2E0053657474696E6717
:10088000732053746F7265640053746F72656420D3
:1008900073657474696E67732072657472696576C6
:1008A00065640048617264636F64656420446566D2
:1008B00061756C742053657474696E6773204C6F36
:1008C00061646564002200656E717565696E6720FC
:1008D00022004D38340053544F505045442E2000D0
:1008E0005072696E7465722073746F7070656420E5
:1008F00064756520746F206572726F72732E204666
:10090000697820746865206572726F7220616E6408
:1009100020757365204D39393920746F20726573E5
:10092000746172742E202854656D706572617475DF
:1009300072652069732072657365742E2053657427
:1009400020697420616674657220726573746172C7
:1009500074696E6729006F6B004E6F204C696E657D
:10096000204E756D626572207769746820636865D2
:10097000636B73756D2C204C617374204C696E65CC
:100980003A20004E6F20436865636B73756D207766
:10099000697468206C696E65206E756D6265722C75
:1009A000204C617374204C696E653A200063686561
:1009B000636B73756D206D69736D617463682C2052
:1009C0004C617374204C696E653A20004C696E6509
:1009D000204E756D626572206973206E6F74204CB5
:1009E000617374204C696E65204E756D6265722B63
:1009F000312C204C617374204C696E653A20004D97
:100A0000313130000A00207A3A200020793A200063
:100A100020783A2000426564002020506C616E6EA0
:100A2000657242756666657242797465733A200034
:100A30002046726565204D656D6F72793A200046DB
:100A40006562203139203230313700436F6D706973
:100A50006C65643A200028334461746F7220476DDE
:100A600062482900207C20417574686F723A20002A
:100A700046656220313920323031372031323A3008
:100A8000313A343000204C617374205570646174C5
:100A900065643A2000312E312E38004D61726C6948
:100AA0006E0020536F6674776172652052657365BE
:100AB0007400205761746368646F672052657365C2
:100AC00074002042726F776E206F757420526573C8
:100AD0006574002045787465726E616C2052657390
:100AE000657400506F7765725570006563686F3A82
:100AF000007374617274006572726F72207772692C
:100B000074696E6720746F2066696C6500656E6439
:100B100073746F7073206869743A205A00205A3ACF
:100B200000656E6473746F7073206869743A20593D
:100B30000020593A00656E6473746F7073206869A1
:100B4000743A20580020583A00656E6473746F70D0
:100B500073206869743A20006563686F3A004865DD
:100B60006174626564206D697373696E6700446FB8
:100B70006E6520736176696E672066696C652E000C
:100B80006F6B004D32390000002100240027002A3D
:100B9000002D003000330001010000040107010AAC
:100BA0000100002200250028002B002E0031003417
:100BB0000002010000050108010B010000200023D4
:100BC00000260029002C002F003200000100000345
:100BD00001060109010505050507050808080802C1
:100BE0000202020A0A0808040404040101010101C6
:100BF0000101010303030303030303040707070CB5
:100C00000C0C0C0C0C0C0C0202020206060606066A
:100C10000606060B0B0B0B0B0B0B0B010210202017
:100C20000808102040102040800201020108040240
:100C300001010204081020408080402010080402B6
:100C4000018004020180402010080402010804020F
:100C50000101020408102040800102040810204015
:100C60008000000A0B02090C0D0E080703040100A6
:100C70000000000000000000000000000000000074
:100C80000000000000000000000000000012111031
:100C90000000000000000000000000000000000054
:100CA000000000000000000220746F6F206C6F6E67
:100CB0006720657874727573696F6E2070726576DF
:100CC000656E7465640020636F6C6420657874726F
:100CD0007573696F6E2070726576656E74656400F9
:100CE0006563686F3A0053442063617264206F6BE0
:100CF000006F70656E526F6F74206661696C656419
:100D000000766F6C756D652E696E69742066616919
:100D10006C6564004572726F723A00534420696ECC
:100D20006974206661696C006563686F3A00577288
:100D30006974696E6720746F2066696C653A20007B
:100D40002E006F70656E206661696C65642C2046AC
:100D5000696C653A20002E006F70656E20666169CF
:100D60006C65642C2046696C653A200046696C65A8
:100D70002073656C6563746564002053697A653A15
:100D8000200046696C65206F70656E65643A2000CE
:100D90002E006F70656E206661696C65642C20465C
:100DA000696C653A20004E6F772066726573682023
:100DB00066696C653A20004E6F7720646F696E67D4
:100DC0002066696C653A20002220706F7300222033
:100DD000706172656E743A2200535542524F5554F9
:100DE000494E452043414C4C207461726765743A0A
:100DF0002200747279696E6720746F2063616C6C75
:100E0000207375622D67636F64652066696C657316
:100E1000207769746820746F6F206D616E79206C23
:100E20006576656C732E204D4158206C6576656C37
:100E30002069733A004D3234004D3233202573005F
:100E40006175746F25692E6700473238205A004D4E
:100E5000353030005A204F6666736574004739326A
:100E6000205A0047333000473238005072657061B5
:100E700072696E67205A204F6666736574004D3143
:100E8000313720526561647920746F204368616E48
:100E90006765204E6F7A7A6C650047312058383587
:100EA00020463530303000473238004D313039205F
:100EB00053323030004C4544732066756C6C206FA3
:100EC0006E004C4544732066756C6C206F6666003E
:100ED00076616C756520626C75650076616C756510
:100EE00020677265656E0076616C75652072656459
:100EF000004C4544206272696768746E65737300C4
:100F000053657474696E6773004C4544206272695E
:100F10006768746E657373004C454420627269673C
:100F200068746E6573730076616C756520726564B4
:100F30000076616C7565207265640076616C75651C
:100F400020677265656E0076616C756520677265F5
:100F5000656E0076616C756520626C756500766102
:100F60006C756520626C7565005049442D430050D6
:100F700049442D43005049442D44005049442D44D8
:100F8000005049442D49005049442D4900504944DE
:100F90002D50005049442D500020022046616374BA
:100FA0000020022046616374002002204D61780019
:100FB0002002204D6178002002204D696E00200241
:100FC000204D696E004F6666004F6E20004F6666CA
:100FD000004F6E200046616E2073706565640046A8
:100FE000616E2073706565640042656400426564EB
:100FF000004E6F7A7A6C65004E6F7A7A6C6500539A
:10100000657474696E67730070012C01900127018B
:10101000B0012201C0011D01F001180110021301ED
:1010200030020E016002090190020401C002FF00BB
:101030000003FA004003F5008003F000D003EB004A
:101040002004E6007004E100E004DC004005D70065
:10105000C005D2004006CD00D006C8008007C300FE
:101060003008BE00F008B900C009B400B00AAF00F3
:10107000B00BAA00D00CA500000EA000500F9B00E2
:10108000C01096005012910000148C00C01587000B
:10109000B0178200B0197D00D01B7800001E7300CD
:1010A00040206E0090226900F024640040275F0019
:1010B00090295A00E02B5500102E500020304B0094
:1010C00010324600E033410090353C0010373700C5
:1010D00070383200A0392D00B03A2800A03B230020
:1010E000603C1E00103D1900903D1400103E0F00A2
:1010F000703E0A00C03E0500003F0000202D204940
:101100006E76616C696420657874727564657220AE
:101110006E756D6265722021001000C90210012CED
:10112000014001220170011801B0010E01F001041B
:10113000015002FA00B002F0003003E600D003DCF8
:10114000009004D2007005C800A006BE000008B4DC
:1011500000B009AA00D00BA000600E960060118CB0
:10116000000015820020197800C01D6E00A02264C6
:1011700000B0275A00902C500000314600E0343C6B
:101180000010383200903A2800603C1E00A03D1448
:1011900000803E0A00203F0000544845524D414C1B
:1011A0002052554E4157415900546865726D616C2B
:1011B0002052756E617761792C2073797374656D37
:1011C0002073746F70706564212048656174657266
:1011D0005F49443A20004572723A204D41585445C7
:1011E0004D50003A204578747275646572207377AB
:1011F000697463686564206F66662E204D4158549B
:10120000454D5020747269676765726564202100DE
:101210004572723A204D494E54454D50003A204592
:101220007874727564657220737769746368656435
:10123000206F66662E204D494E54454D50207472E5
:10124000696767657265642021004572723A204DB6
:10125000415854454D50204245440054656D7065D9
:101260007261747572652068656174656420626579
:1012700064207377697463686564206F66662E20E6
:101280004D415854454D50207472696767657265C9
:1012900064202121004572726F723A005344006C41
:1012A0006566743A20000120000120004D383400AA
:1012B0004732380053657474696E67730050726505
:1012C00070617265004E6F20534420636172640048
:1012D0005072696E742066726F6D205344005374AF
:1012E0006F70207072696E7400526573756D652041
:1012F0007072696E74005061757365207072696EEA
:10130000740054756E6500496E666F207363726574
:10131000656E004573746570732F6D6D0045737451
:101320006570732F6D6D005A73746570732F6D6DDA
:10133000005A73746570732F6D6D00597374657006
:10134000732F6D6D005973746570732F6D6D005838
:1013500073746570732F6D6D005873746570732F9F
:101360006D6D00412D7265747261637400412D7260
:1013700065747261637400416D6178206500416D30
:101380006178206500416D6178207A00416D617857
:10139000207A00416D6178207900416D6178207973
:1013A00000416D6178207800416D617820780056A9
:1013B00054726176206D696E005654726176206DAC
:1013C000696E00566D696E00566D696E00566D61EE
:1013D00078206500566D6178206500566D61782033
:1013E0007A00566D6178207A00566D617820790018
:1013F000566D6178207900566D6178207800566DC1
:10140000617820780056652D6A65726B0056652DEF
:101410006A65726B00567A2D6A65726B00567A2D7A
:101420006A65726B005678792D6A65726B00567822
:10143000792D6A65726B00416363656C004163637B
:10144000656C005A204F6666736574005A204F66BB
:10145000667365740053657474696E6773007C3CD1
:101460003E5E2B3D3F2F5B5D3B2C2A225C0024F42B
:10147000D43050C38E20C2A24017828B7011127AD2
:10148000910D816CD90AA861E108C75866076151BE
:1014900043061E4B5D05C145A7041A411104093DD1
:1014A0009803713931034036DB0265339102D43041
:1014B0005402802E1D02632CEE01752AC501B0284E
:1014C000A001102781018F2564012B244B01E0220C
:1014D0003401AC211F018D200D01801FFC00841EF2
:1014E000ED00971DDF00B81CD200E61BC600201BD4
:1014F000BC00641AB200B219A8000A19A0006A1848
:101500009900D117910040178B00B5168400311651
:101510007E00B31579003A157300C7146F00581494
:101520006A00EE1366008813630025135E00C7127D
:101530005B006C12570015125400C111510070115C
:101540004F0021114B00D61049008D104700461066
:10155000440002104200C00F4000800F3E00420FC6
:101560003C00060F3B00CB0E3800930E37005C0E9C
:101570003500270E3400F30D3200C10D3100900DFF
:101580003000600D2E00320D2D00050D2C00D90C01
:101590002B00AE0C2900850C29005C0C2700350CB3
:1015A00027000E0C2600E80B2400C40B2400A00B1F
:1015B00023007D0B23005A0B2100390B2100180B4F
:1015C0002000F80A1F00D90A1E00BB0A1E009D0A4F
:1015D0001D00800A1D00630A1C00470A1B002C0A1C
:1015E0001B00110A1A00F7091A00DD091900C409C5
:1015F0001900AB091900920917007B09180063094B
:1016000017004C09160036091600200916000A09B1
:101610001500F5081500E0081400CC081400B808FF
:101620001400A4081400900813007D0812006B0831
:10163000130058081200460812003408110023084D
:1016400011001208110001081100F0071000E00756
:101650001000D0071000C0071000B0070F00A1074E
:10166000100091070E0083070F0074070F00650735
:101670000E0057070E0049070E003B070D002E070E
:101680000E0020070D0013070D0006070D00F906D8
:101690000C00ED060D00E0060C00D4060C00C80698
:1016A0000C00BC060C00B0060C00A4060B0099064A
:1016B0000C008D060B0082060B0077060B006C06F3
:1016C0000B0061060A0057060B004C060A00420692
:1016D0000A0038060A002E060A0024060A001A0626
:1016E0000A001006090007060A00FD050900F405B6
:1016F0000900EB050900E2050900D9050900D0053C
:101700000900C7050900BE050900B5050800AD05BB
:101710000800A50509009C050800940508008C0533
:101720000800840508007C050800740508006C05A5
:101730000700650508005D050700560508004E0511
:101740000700470507004005080038050700310578
:1017500007002A050700230507001C0506001605DB
:1017600007000F0507000805060002050700FB0437
:101770000600F5040700EE040600E8040600E20493
:101780000700DB040600D5040600CF040600C904E8
:101790000600C3040600BD040600B7040600B10439
:1017A0000500AC040600A6040600A00405009B0486
:1017B000060095040500900406008A0405008504CF
:1017C0000500800406007A04050075040500700415
:1017D00005006B04050066040500610405005C0457
:1017E000050057040500520405004D040500480497
:1017F0000500430405003E0404003A0405003504D6
:101800000500300404002C04050027040400230410
:1018100005001E0404001A04040016040500110447
:1018200004000D040400090405000404040000047D
:101830000400FC030400F8030400F4030400F003B4
:101840000400EC030400E8030400E4030400E003E4
:101850000400DC030400D8030400D4030400D00314
:101860000400CC030400C8030300C503030024F4F0
:1018700004D9201BC40C5C0E9804C4095F026507E0
:101880007101F405F900FB04B30048048700C103AB
:1018900069005803550003034500BE023A00840264
:1018A000310053022A002902250004022000E4012D
:1018B0001C00C8011900AF01170098011400840131
:1018C0001300710110006101100051010E0043016D
:1018D0000D0036010B002B010B0020010B00150140
:1018E00009000C01090003010800FB000800F300D7
:1018F0000800EB000700E4000600DE000600D80048
:101900000600D2000600CC000500C7000500C2009A
:101910000500BD000400B9000400B5000400B100DA
:101920000400AD000400A9000400A5000300A2000B
:1019300003009F0004009B00030098000300950033
:10194000020093000300900003008D0002008B0052
:10195000030088000200860002008400030081006A
:1019600002007F0002007D0002007B00020079007F
:10197000020077000100760002007400020072008D
:101980000100710002006F0002006D0001006C0098
:1019900002006A00010069000200670001006600A1
:1019A00001006500010064000200620001006100A6
:1019B0000100600001005F0002005D0001005C00AA
:1019C00001005B0001005A000100590001005800AD
:1019D00001005700010056000100550001005400AD
:1019E00001005300000053000100520001005100AB
:1019F0000100500001004F0001004E0000004E00A9
:101A000001004D0001004C0001004B0000004B00A4
:101A100001004A00010049000100480000004800A0
:101A2000010047000100460000004600010045009B
:101A30000000450001004400010043000000430095
:101A4000010042000000420001004100000041008E
:101A50000100400001003F0000003F0001003E0087
:101A600000003E0001003D0000003D0001003C0080
:101A700000003C0000003C0001003B0000003B0077
:101A800001003A0000003A0001003900000039006E
:101A90000100380000003800000038000100370065
:101AA000000037000100360000003600000036005C
:101AB0000100350000003500000035000100340051
:101AC0000000340000003400010033000000330047
:101AD000000033000100320000003200000032003C
:101AE0000100310000003100000031000100300031
:101AF000000030000000300001002F0000002F0027
:101B000000002F0000002F0001002E0000002E001A
:101B100000002E0001002D0000002D0000002D000F
:101B200000002D0001002C0000002C0000002C0003
:101B300000002C0001002B0000002B0000002B00F7
:101B400000002B0001002A0000002A0000002A00EB
:101B500000002A00010029000000290000002900DF
:101B600000002900000029000100280000002800D2
:101B700000002800000028000000280001002700C5
:101B800000002700000027000000270000002700B9
:101B900001002600000026000000260000002600AC
:101BA000000026000100250000002500000025009F
:101BB0000000250000002500000025000100240091
:101BC0000000240000002400000024000000240085
:101BD0000100230000002300000023000000230078
:101BE0000000230000002300000023000100220069
:101BF000000022000000220000002200000022005D
:101C0000000022000100210000002100000021004E
:101C10000000210000002100000021000000210040
:101C20000100200000002000000020000000200033
:101C30000000200000002000000020000000200024
:101C400001001F0000001F0000001F0000001F0017
:101C500000001F0000001F0000001F0001001E0008
:101C600000001E0000001E0000001E000000616455
:101C70006A757374206865696768740061646A7561
:101C800073742068656967687400537065656400E3
:101C90005370656564004D363030004368616E678F
:101CA000652066696C616D656E7400466C6F7720A7
:101CB0003000466C6F77203000466C6F7700466CC2
:101CC0006F770046616E2073706565640046616ED3
:101CD0002073706565640061646A75737420626561
:101CE00064206865696768740042656400426564E1
:101CF000004E6F7A7A6C65004E6F7A7A6C65004D93
:101D000061696E00580059005A0045787472756414
:101D10006572004578747275646572004D6F766502
:101D2000205A004D6F76652059004D6F766520581A
:101D3000005072657061726500526573656E643A39
:101D400020006F6B004B494C4C45442E20005072D4
:101D5000696E7465722068616C7465642E206B69AD
:101D60006C6C28292063616C6C6564210053544FAE
:101D7000505045442E20005072696E746572207375
:101D8000746F707065642064756520746F2065726F
:101D9000726F72732E2046697820746865206572B0
:101DA000726F7220616E6420757365204D39393908
:101DB00020746F20726573746172742E20285465CC
:101DC0006D706572617475726520697320726573D8
:101DD00065742E2053657420697420616674657281
:101DE0002072657374617274696E6729004572723E
:101DF0006F723A004D6F7665206178697300436FAA
:101E00006F6C646F776E0050726568656174005422
:101E1000656D706572617475726500473238004196
:101E200075746F20686F6D65004D383400446973B8
:101E300061626C65207374657070657273005365C0
:101E400074205A206F6666736574004368616E671C
:101E500065204E6F7A7A6C65004D61696E00416253
:101E60006F75740053746174697374696373004DA2
:101E70006F74696F6E004C4544204D656E7500525D
:101E80006573746F7265206661696C736166650065
:101E90004C6F6164206D656D6F72790053746F7261
:101EA00065206D656D6F7279004D61696E004D3111
:101EB0003530205031300056657273696F6E3A20AC
:101EC000312E312E3800334461746F72204D6172AF
:101ED0006C696E004D313530205037005072696E9C
:101EE00074732066696E6973686564005072696E08
:101EF00074732073746F70706564007072696E74AF
:101F000074696D65005374617469737469637300F7
:101F10004D3234004D32332025730043616E6E6FB5
:101F20007420656E746572207375626469723A20FC
:101F300000052E2E004D61696E00436172642072AF
:101F4000656D6F766564004361726420696E7365C8
:101F5000727465640000002A43000034430000826C
:101F6000430000000000000000000000000000002E
:101F70000000000000000082430000A0400000A01C
:101F8000400000004000002A43000034430000826B
:101F900043FFFF012200656E717565696E6720223F
:101FA000004175746F74656D70004E414E494E4925
:101FB0005459494E46CDCCCC3D0AD7233C17B7D116
:101FC0003877CC2B329595E6241FB14F0A000020BC
:101FD000410000C84200401C4620BCBE4CCA1B0E3B
:101FE0005AAEC59D740002DBFEDB11241FBECFEF8D
:101FF000D1E2DEBFCDBF00E00CBF15E0A0E0B2E053
:10200000E6EFFEEC01E00BBF02C007900D92A83492
:10201000B107D9F724E1A8E4B5E001C01D92A737C4
:10202000B207E1F71FE0C4EFDFE000E006C0219750
:102030000109802FFE010E9452DCC33FD10780E0DE
:102040000807A9F70E9437D40C9469E70C940000A4
:102050002F923F924F925F926F927F928F929F92B8
:10206000AF92BF92CF92DF92EF92FF920F931F93A6
:10207000CF93DF93CDB7DEB7C556D1400FB6F894F6
:10208000DEBF0FBECDBF87E40E944E46F82E8823E8
:1020900011F40C94C9180E9474460E949FDD6C31A3
:1020A000710509F486C19CF46230710509F426C1FA
:1020B00024F477FF3BC00C942A3F6330710509F488
:1020C00026C16430710509F42EC10C942A3F6A358B
:1020D000710509F4F9C704F56D31710509F4BDC244
:1020E0006E31710511F00C942A3F0E940C440E943D
:1020F0000C8B0E94374480E090E0A6E1B5E4809329
:10210000900290939102A0939202B09393020E9446
:10211000C744E8E4F8E07AC76B35710509F4D8C71D
:102120006C35710509F4D9C70C942A3F8091C50D0F
:1021300081110C942A3F0E94D2B989E594E10E9452
:102140008BB50E9407546093F1137093F213809340
:10215000F3139093F4138090591490905A14A09014
:102160005B14B0905C14CE5DDE4F88829982AA82A7
:10217000BB82C252D140A50194016091730D709150
:10218000740D8091750D9091760D0E94E5E340905D
:102190005D1450905E1460905F1470906014009114
:1021A0006114109162142091631430916414CA5D1B
:1021B000DE4F088319832A833B83C652D1408111A5
:1021C0007EC0A30192016091770D7091780D80918E
:1021D000790D90917A0D0E94E5E3811170C020E0A5
:1021E00030E040E752E4609190027091910280915A
:1021F0009202909193020E9437DD4B015C0189EBC2
:102200009DE09F938F9365E6C62E64E1D62ECA5D4E
:10221000DE4FE880F9800A811B81C652D140A301BC
:102220009201CE5DDE4F688179818A819B81C252A5
:10223000D1400E94375C0F900F908091591490917B
:102240005A14A0915B14B0915C148093730D909319
:10225000740DA093750DB093760D80915D149091DF
:102260005E14A0915F14B09160148093770D9093E9
:10227000780DA093790DB0937A0D809161149091AF
:102280006214A0916314B091641480937B0D9093B9
:102290007C0DA0937D0DB0937E0D8091651490917F
:1022A0006614A0916714B091681480937F0D909389
:1022B000800DA093810DB093820D0C94B04360917A
:1022C000640270916502072E000C880B990B0E9426
:1022D000EBE3209190023091910240919202509153
:1022E00093020E941BE020E030E040E752E40E94AD
:1022F00037DD20E030E048EC52E47DCF8091C50D21
:1023000081110C942A3F0E9457BA81E008C0809145
:10231000C50D81110C942A3F0E9457BA80E00E949B
:102320001DB60C94B04380E798E00E94DCC780E5BE
:102330000E944E46882339F00E9474460E94A4DD14
:102340006B017C0103C0C12CD12C760183E50E9476
:102350004E46882361F00E94744620E030E04AE750
:1023600054E40E941BE00E94A4DD6B017C010E94EA
:102370000C8B0E940754C60ED71EE81EF91E0E9441
:1023800007546093F1137093F2138093F3139093B7
:10239000F4130E9407546C157D058E059F0510F0FF
:1023A0000C942A3F0E9466870E94A4B30E940DC825
:1023B000F0CF0E94F0768091900290919102A091CE
:1023C0009202B091930280934C0590934D05A09397
:1023D0004E05B0934F0580916402909165029093F1
:1023E0004B0580934A0584E690E0909365028093C4
:1023F00064020E9407546093F1137093F213809368
:10240000F3139093F41311E010930B028091730D6A
:102410009091740DA091750DB091760D8093591423
:1024200090935A14A0935B14B0935C148091770D31
:102430009091780DA091790DB0917A0D80935D14F3
:1024400090935E14A0935F14B093601480917B0D01
:1024500090917C0DA0917D0DB0917E0D80936114C3
:1024600090936214A0936314B093641480917F0DD1
:102470009091800DA091810DB091820D8093651493
:1024800090936614A0936714B0936814109290020E
:1024900010929102109292021092930288E50E948B
:1024A0004E46882311F080E009C089E50E944E461F
:1024B0008111F9CF8AE50E944E468127809301025F
:1024C00081110C942D3F8AE50E944E4681110C9497
:1024D0002D3F8091010281110C94333F88E50E94C9
:1024E0004E4681110C94333F8091010281110C946E
:1024F000393F89E50E944E4681110C94393F88E5A9
:102500000E944E468823D1F00E946946672B682BB3
:10251000692BA1F00E94744620914D1430914E1405
:1025200040914F14509150140E945BDC6093730DE6
:102530007093740D8093750D9093760D89E50E94CC
:102540004E468823D1F00E946946672B682B692B81
:10255000A1F00E9474462091511430915214409180
:102560005314509154140E945BDC6093770D709368
:10257000780D8093790D90937A0D8AE50E944E46EE
:102580008823D1F00E946946672B682B692BA1F044
:102590000E9474462091551430915614409157145E
:1025A000509158140E945BDC60937B0D70937C0DFE
:1025B00080937D0D90937E0D8091010281110C948A
:1025C0003F3F8AE50E944E4681110C943F3FE090C8
:1025D0007B0DF0907C0D00917D0D10917E0D209172
:1025E000770D3091780D4091790D50917A0D609171
:1025F000730D7091740D8091750D9091760D0E9400
:10260000077610920B0280914C0590914D05A09198
:102610004E05B0914F058093900290939102A09344
:102620009202B093930280914A0590914B0590934A
:102630006502809364020E9407546093F1137093C3
:10264000F2138093F3139093F4131092D105109228
:10265000D0051092CF050C942A3F8091D305882392
:1026600021F08091D405811127C08EE598E00E9469
:10267000DCC7EBEEFAE08491882341F09091C00032
:1026800095FFFCCF8093C6003196F5CFECE4F8E0DF
:102690008491882341F09091C00095FFFCCF8093F6
:1026A000C6003196F5CF8091C00085FFFCCF8AE04F
:1026B0008093C6000C942A3F0E940C8B0E94F076F7
:1026C000CE018C5E9E4F0E9450A9CC5EDE4F688189
:1026D00079818A819B81C451D1406093730D70933D
:1026E000740D8093750D9093760DC85EDE4F288132
:1026F00039814A815B81C851D1402093770D309355
:10270000780D4093790D50937A0DC45EDE4FE880CA
:10271000F9800A811B81CC51D140E0927B0DF0926F
:102720007C0D00937D0D10937E0D0E9407760E9414
:10273000374480E090E0A6E1B5E480939002909366
:102740009102A0939202B0939302E12CF12C00E746
:1027500011E420E030E0A90160E070E080E291E463
:102760000E94B2454B015C0120E030E040EA50E4B9
:1027700060917B0D70917C0D80917D0D90917E0D0F
:102780000E945BDC7B018C0120E030E042E053E4FE
:1027900060E070E08AEA92E40E94B2452B013C01BD
:1027A00020E030E040EA50E460917B0D70917C0DB8
:1027B00080917D0D90917E0D0E945BDC7B018C01F0
:1027C00020E030E0A90160E070E086E193E40E943F
:1027D000B245CE5DDE4F688379838A839B83C25284
:1027E000D1400E9412440E94F07680E090E0A6E979
:1027F000B2ECC85FDE4F88839983AA83BB83C8503D
:10280000D140C12CD12C52E0E52E53ECF52EC45F03
:10281000DE4FC882D982EA82FB82CC50D140A3012C
:102820009201C501B4010E945ADCC05FDE4F68838B
:1028300079838A839B83C051D140CE01885F9E4FAC
:102840000E94F95680E090E0A2E8B2E4C450DF4F65
:1028500088839983AA83BB83CC5FD040C050DF4F6D
:10286000C882D982EA82FB82C050D140A301920182
:10287000CE5DDE4F688179818A819B81C252D140D1
:102880000E945ADCCC5FDE4F688379838A839B8306
:10289000C450D140CE0184509F4F0E94F956C85F6A
:1028A000DE4F88809980AA80BB80C850D140C65D29
:1028B000DE4F88829982AA82BB82CA52D140C45F0D
:1028C000DE4F488059806A807B80CC50D140C05F09
:1028D000DE4F88809980AA80BB80C051D140C4500F
:1028E000DF4F088119812A813B81CC5FD040CA5DCE
:1028F000DE4F088319832A833B83C652D140C050E0
:10290000DF4F288139814A815B81C050D140CE5D43
:10291000DE4F288339834A835B83C252D140CC5F28
:10292000DE4FC880D980EA80FB80C450D140A70127
:102930009601C301B2010E941BE0C25DDE4F6883B5
:1029400079838A839B83CE52D140CE5DDE4F28812E
:1029500039814A815B81C252D140C501B4010E94D4
:102960001BE09B01AC01C25DDE4F688179818A81E9
:102970009B81CE52D1400E945ADCC051DF4F688308
:1029800079838A839B83C05FD040CA5DDE4F2881F4
:1029900039814A815B81C652D140C501B4010E9490
:1029A0001BE04B015C01A7019601C65DDE4F68810B
:1029B00079818A819B81CA52D1400E941BE09B0190
:1029C000AC01C501B4010E945ADCCC50DF4F6883D2
:1029D00079838A839B83C45FD040CE5DDE4F28819C
:1029E00039814A815B81C252D140C65DDE4F688128
:1029F00079818A819B81CA52D1400E941BE06B0180
:102A00007C01CA5DDE4F288139814A815B81C652D3
:102A1000D140C301B2010E941BE09B01AC01C70180
:102A2000B6010E945ADCC850DF4F688379838A83DD
:102A30009B83C85FD040CE0180519F4F0E94F956C2
:102A4000C051DF4FC880D980EA80FB80C05FD04092
:102A5000CC50DF4F88809980AA80BB80C45FD04073
:102A6000C850DF4F488059806A807B80C85FD04063
:102A700020E030E0A901C301B2010E9481DEA30180
:102A8000920118160CF05058C850DF4F2883398334
:102A90004A835B83C85FD0401E0164EE260E311C62
:102AA000D101CD92DD92ED92FC921397F1018482D7
:102AB0009582A682B78218962D933D934D935C9391
:102AC0001B97C101CE59DE4F2883C256D140CD5944
:102AD000DE4F3883C356D140CC59DE4F4883C456AD
:102AE000D140CB59DE4F5883C556D1400E94F9568C
:102AF000FE01E753FF4FC05EDE4FF983E883C0520B
:102B0000D14080E090E0A0E8BFE3C753DF4F888367
:102B10009983AA83BB83C95CD040C353DF4F18821B
:102B200019821A821B82CD5CD040C701B601905831
:102B3000CE59DE4F2881C256D140CD59DE4F388163
:102B4000C356D140CC59DE4F4881C456D140CB59F1
:102B5000DE4F5881C556D1400E9437DDCF52DF4F3E
:102B6000688379838A839B83C15DD040CE0187537C
:102B70009F4F0E94F956D1018D909D90AD90BC90D1
:102B80001397CE5DDE4F88829982AA82BB82C252A1
:102B9000D14014964D905D906D907C90179718964B
:102BA0008D909D90AD90BC901B97C753DF4F0881CF
:102BB00019812A813B81C95CD040CA5DDE4F088300
:102BC00019832A833B83C652D140C353DF4F2881E8
:102BD00039814A815B81CD5CD040C65DDE4F288360
:102BE00039834A835B83CA52D140CF52DF4FC880BA
:102BF000D980EA80FB80C15DD040A7019601C30166
:102C0000B2010E941BE0C25DDE4F688379838A8334
:102C10009B83CE52D140C65DDE4F288139814A81E7
:102C20005B81CA52D140C501B4010E941BE09B01E7
:102C3000AC01C25DDE4F688179818A819B81CE5271
:102C4000D1400E945ADC69837A838B839C83CA5D5E
:102C5000DE4F288139814A815B81C652D140C5014E
:102C6000B4010E941BE04B015C01A7019601CE5DFF
:102C7000DE4F688179818A819B81C252D1400E9456
:102C80001BE09B01AC01C501B4010E945ADC6D83BD
:102C90007E838F839887C65DDE4F288139814A8184
:102CA0005B81CA52D140CE5DDE4F688179818A81D5
:102CB0009B81C252D1400E941BE06B017C01CA5D26
:102CC000DE4F288139814A815B81C652D140C301E0
:102CD000B2010E941BE09B01AC01C701B6010E943A
:102CE0005ADC69877A878B879C87CE0101960E9480
:102CF000F956C753DF4F488059806A807B80C95C92
:102D0000D040C353DF4F88809980AA80BB80CD5CC0
:102D1000D040CF52DF4FC880D980EA80FB80C15DB0
:102D2000D04009811A812B813C818D819E81AF81A8
:102D3000B885CE5DDE4F88839983AA83BB83C25258
:102D4000D14089859A85AB85BC85CA5DDE4F888375
:102D50009983AA83BB83C652D140D1018D919D91A5
:102D60000D90BC91A02DC65DDE4F88839983AA8308
:102D7000BB83CA52D140F10144815581668177817C
:102D800080859185A285B38540921F0250922002D2
:102D90006092210270922202809223029092240279
:102DA000A0922502B0922602C0922702D092280259
:102DB000E0922902F0922A0200932B0210932C0237
:102DC00020932D0230932E02CE5DDE4F88809980B5
:102DD000AA80BB80C252D14080922F0290923002D2
:102DE000A0923102B0923202CA5DDE4F0881198191
:102DF0002A813B81C652D1400093330210933402A2
:102E00002093350230933602C65DDE4F888099806C
:102E1000AA80BB80CA52D140809237029092380279
:102E2000A0923902B0923A0240933B0250933C0286
:102E300060933D0270933E0280933F029093400264
:102E4000A0934102B0934202CE0101960E9450A984
:102E500069817A818B819C816093730D7093740D6D
:102E60008093750D9093760D2D813E814F8158850D
:102E70002093770D3093780D4093790D50937A0D10
:102E8000E090590EF0905A0E00915B0E10915C0E7E
:102E9000E0927B0DF0927C0D00937D0D10937E0DE2
:102EA0000E9407760E940C8B2FB7F89460916B0DEF
:102EB00070916C0D80916D0D90916E0D2FBF0E94E1
:102EC000EBE32091AF0D3091B00D4091B10D5091D9
:102ED000B20D0E9437DD6B017C0120E030E0A901DA
:102EE0006091730D7091740D8091750D9091760DB8
:102EF0000E945BDCD1016D937D938D939C9313971E
:102F000020E030E0A9016091770D7091780D8091FB
:102F1000790D90917A0D0E945BDCC753DF4F688377
:102F200079838A839B83C95CD04080917B0D90918B
:102F30007C0DA0917D0DB0917E0D89839A83AB832A
:102F4000BC83E1E0F0E0EC0FFD1FFF93EF93CF5D5A
:102F5000DE4FF881C152D140FF93C05EDE4F8880C2
:102F6000C052D1408F923F922F920DB71EB704529C
:102F700011090FB6F8941EBF0FBE0DBFADB7BEB797
:102F8000119684E2EFE1F2E001900D928A95E1F76B
:102F90000E941456A701960169817A818B819C81D8
:102FA0000E945ADC20917B0D30917C0D40917D0D6B
:102FB00050917E0D0E945BDC7B018C0160937B0D48
:102FC00070937C0D80937D0D90937E0D0FB6F894D9
:102FD000DEBF0FBECDBF2091770D3091780D4091AF
:102FE000790D50917A0D6091730D7091740D8091EF
:102FF000750D9091760D0E9407760C942A3F909162
:10300000C00095FFFCCF8093C6003196849181115A
:10301000F6CFE3E4F8E08491882341F09091C0007A
:1030200095FFFCCF8093C6003196F5CF6091730D6C
:103030007091740D8091750D9091760D42E00E9413
:103040009F6EEEE3F8E08491882341F09091C000F8
:1030500095FFFCCF8093C6003196F5CF6091770D38
:103060007091780D8091790D90917A0D42E00E94D7
:103070009F6EE9E3F8E08491882341F09091C000CD
:1030800095FFFCCF8093C6003196F5CF60917B0D04
:1030900070917C0D80917D0D90917E0D42E00E949B
:1030A0009F6EE7E3F8E08491882341F09091C0009F
:1030B00095FFFCCF8093C6003196F5CF0E94124455
:1030C0000E9406440C942A3F1092F9130C942A3F54
:1030D00081E08093F9130C942A3F85E40E944E46C8
:1030E000811102C00E940C8B90E8692E93E0792E2A
:1030F00023E7A22E2DE0B22E3DE4832E34E1932E61
:10310000D12CD3018D913D010E944E468823A9F117
:10311000B3E0DB120AC00E947446F501608371833C
:10312000828393830E941B7728C00E947446D40137
:103130002D913D914D915C910E945BDCF501608386
:10314000718382839383E0907B0DF0907C0D0091DE
:103150007D0D10917E0D2091770D3091780D40916D
:10316000790D50917A0D6091730D7091740D80916D
:10317000750D9091760D0E940776D394F4E0AF0E12
:10318000B11C04E0800E911C14E0D112BACF0C9453
:103190002A3F8DE40E944E46882311F40C945A3E37
:1031A0000E9474460E949FDD6837710511F40C94EB
:1031B000272B0CF0BBC06A32710509F4C1C50CF0B5
:1031C00058C06731710509F441C294F56231710547
:1031D00011F40C942B29F4F477FF02C00C942A3FCD
:1031E000623071050CF47AC16131710511F00C94F3
:1031F0002A3F8EE098E00E94DCC75F988A989FB7CC
:10320000F894809108018E7F809308019FBF1298E7
:103210000C942A3F6531710509F40EC20CF010C2FE
:103220006431710511F00C942A3FEEEFF7E0BBC159
:103230006B31710509F449C23CF46931710509F437
:103240002CC20CF419C233C26E31710509F4C3C229
:1032500034F46C31710509F48CC20C942A3F6F313F
:10326000710509F4EDC46032710509F454C40C947D
:103270002A3F6936710511F40C9444262CF5643507
:10328000710511F40C942B2974F46235710511F455
:103290000C94222914F00C9426296033710509F44A
:1032A0009AC50C942A3F6C35710511F40C948F2942
:1032B0006836710511F40C9411266535710511F00D
:1032C0000C942A3F0C9474296037710511F40C9406
:1032D00031267CF46B36710511F40C941A2914F420
:1032E0000C940A296D36710511F40C9431270C9455
:1032F0002A3F6337710511F40C94292A4CF4623784
:10330000710511F00C942A3FEDE4F5E00C94532A7A
:103310006537710511F40C94382A6737710511F07F
:103320000C942A3FE3EAF3E00C94312B623E7105E2
:1033300011F40C94AD2E0CF05AC06E3B710511F4D3
:103340000C94F8274CF56839710511F40C94182C7D
:10335000A4F46C38710511F40C94332666397105A8
:1033600011F40C94D32B6937710511F00C942A3F9A
:1033700081E080930B020C942A3F6A39710511F4A5
:103380000C944C2C14F40C94282C6B39710511F40A
:103390000C94B82C0C942A3F6C3C710511F40C94DD
:1033A000D22D8CF4693C710511F40C94922D6B3C78
:1033B000710511F40C94B42D683C710511F00C9456
:1033C0002A3F0C94E92C6E3C710511F40C94542E98
:1033D00014F40C94F42D6C3D710511F40C94722EC0
:1033E0006D3D710511F40C94832E0C942A3F6239C3
:1033F00021E0720711F40C94C8373CF56E3241E0BD
:10340000740711F40C94713384F46C3281E0780702
:1034100011F40C94F92F14F00C94AA326831714015
:1034200011F40C940C2F0C942A3F6039B1E07B0707
:1034300011F40C94C23714F00C94C5376F327140FC
:1034400011F40C9486330C942A3F673F01E0700717
:1034500011F40C94D13794F4653F21E0720711F414
:103460000C94CB3714F00C94CE37643F714011F0BC
:103470000C942A3F0E94FB4D0C942A3F633553E085
:10348000750711F40C94A83A3CF46835724011F4B5
:103490000C94783B0C942A3F603AA3E07A0709F435
:1034A0009AC3673E734011F00C942A3F1092C50DE9
:1034B000109233148091021490910314A09104147B
:1034C000B09105148093061490930714A0930814E8
:1034D000B09309140E94B1BA0C942A3F86E298E096
:1034E0000E94DCC780E50E944E46882339F00E9486
:1034F00074460E94A4DD6B017C0103C0C12CD12C59
:10350000760183E50E944E46882361F00E9474464E
:1035100020E030E04AE754E40E941BE00E94A4DD72
:103520006B017C010E940C8B0E9407546093F11385
:103530007093F2138093F3139093F413C114D10496
:10354000E104F104F1F00E940754C60ED71EE81EF4
:10355000F91E0E9407546C157D058E059F0530F0FD
:1035600087E198E00E94DCC70C942A3F8091D20545
:1035700082FDF6CF0E9466870E94A4B30E940DC808
:10358000E8CF8091D20582FDEBCF0E9466870E9432
:10359000A4B30E940DC8F5CF9091C00095FFFCCF59
:1035A0008093C600319684918111F6CF8091C0003E
:1035B00085FFFCCF8AE08093C6001092490D1092DF
:1035C000480D40E050E0BA0183EF9AE00E94DD9A96
:1035D0008BE1E3EFFAE0DE01159601900D928A95FA
:1035E000E1F78091F10A9091F20A9C838B8384E346
:1035F00093E09A838983BE016F5F7F4F8CED93E0E8
:103600000E944577CE0101960E94B1D2E0EFF7E02B
:103610008491882341F09091C00095FFFCCF809366
:10362000C6003196F5CF8091C00085FFFCCF8AE0BF
:103630008093C6000C942A3F0E94376F0C942A3F57
:103640001092C20A1092C30A0C942A3F00914805B6
:10365000109149050C5F1F4F6AE270E0C8010E949B
:10366000E0DF009711F0FC01108241E061E0C80149
:103670000E94ED720C942A3F8091C30A882319F0AE
:1036800081E08093C20A80910E02882311F40C9489
:103690002A3F0E9420D30C942A3F8091C20A88239B
:1036A00011F40C942A3F1092C20A0C942A3F809184
:1036B000C30A882311F40C942A3F83E50E944E46E6
:1036C00081110C945B3F0C942A3F8091C30A88239C
:1036D00009F439C0E0E9F1E08491882341F0909148
:1036E000C00095FFFCCF8093C6003196F5CF609166
:1036F000430D7091440D8091450D9091460D4AE027
:103700000E94186EEEE8F1E08491882341F09091D8
:10371000C00095FFFCCF8093C6003196F5CF609135
:103720003B0D70913C0D80913D0D90913E0D4AE016
:103730000E94186E8091C00085FFFCCF8AE08093C4
:10374000C6000C942A3FE2EAF1E08491882341F01C
:103750009091C00095FFFCCF8093C6003196F5CFC5
:103760008091C00085FFFCCF8AE08093C6000C9456
:103770002A3F80914805909149056AE270E00496DD
:103780000E94E0DF8C01892BD9F020915E073091F7
:103790005F0740E6429FC001439F900D11246EE4F5
:1037A00070E082529A4F0E94E0DF60E270E00E9477
:1037B000E0DF01969093490580934805D8011C925B
:1037C000809148059091490541E060E004960E948F
:1037D000ED720C942A3F8091C30A882311F40C9453
:1037E0002A3F8EE89CE00E949A9A8EE89CE00E9414
:1037F000C1A01092C00A1092C10A80914805909110
:1038000049056AE270E004960E94E0DF8C01892B92
:10381000D9F020915E0730915F0740E6429FC001DA
:10382000439F900D11246EE470E082529A4F0E94E3
:10383000E0DF60E270E00E94E0DF019690934905CE
:1038400080934805F80110820091480510914905C0
:103850008091C30A882311F40C942A3F5801F4E0A4
:10386000AF0EB11C8EE89CE00E94C1A01092C20A6B
:103870001D8218861C821B8284E393E09A838983CD
:103880008FEE9AE090930F0B80930E0BD801149655
:103890008C918F3209F090C06FE270E0C5010E94F8
:1038A000E0DF8C010F5F1F4F8AE0E82EFE013196AA
:1038B0004F010115110509F485C06FE270E0C801E0
:1038C0000E94E0DF6C01009709F47DC0081719071A
:1038D00008F079C03C01601A710AA301B801CE0159
:1038E00087539F4F0E9409E0E9ECF0E0EC0FFD1FC9
:1038F000E60DF71D10828E0107531F4FF8018191CD
:10390000882339F09091C00095FFFCCF8093C600CA
:10391000F6CF8091C00085FFFCCFE092C600609199
:103920000E0B70910F0B6115710511F06C5F7F4FDD
:1039300021E0AE0147535F4FCE0105960E94C9A01A
:10394000811132C0ECEDF1E08491882371F0909107
:10395000C00095FFFCCF8093C6003196F5CF9091C3
:10396000C00095FFFCCF8093C600D8018D918D01DA
:103970008111F5CFEAEDF1E08491882341F0909137
:10398000C00095FFFCCF8093C6003196F5CF8091A3
:10399000C00085FFFCCF8AE08093C600CE0101966F
:1039A0000E94B1D20C942A3F90920F0B80920E0B82
:1039B00086010F5F1F4F7DCF80E19BE090930F0B3F
:1039C00080930E0B850160910E0B70910F0B6115AA
:1039D000710511F06C5F7F4FC753DF4F1882C95CD0
:1039E000D040C453DF4F1882CC5CD04022E0A80105
:1039F000CE0187539F4F0E94C9A0882359F1CE0161
:103A000087539F4F0E945C72882321F1CB52DF4F76
:103A1000688179818A819B81C55DD04041E00E94A7
:103A2000336A8823B9F0C752DF4FE881C95DD040BF
:103A3000B0E2EB9FF0011124EE52F84F309751F0B5
:103A400085EE8083C453DF4F1882CC5CD0400E9447
:103A5000F369F82ECE0187539F4F0E94034BFF203E
:103A600041F1ECECF1E08491882341F09091C000A9
:103A700095FFFCCF8093C6003196F5CFF801819178
:103A8000882339F09091C00095FFFCCF8093C60049
:103A9000F6CF8091C00085FFFCCF8AE08093C600FE
:103AA0001092430D1092440D1092450D1092460D48
:103AB0002CC0E4EBF1E08491882341F09091C000A8
:103AC00095FFFCCF8093C6003196F5CFF801819128
:103AD000882339F09091C00095FFFCCF8093C600F9
:103AE000F6CFE2EBF1E08491882341F09091C000A1
:103AF00095FFFCCF8093C6003196F5CF8091C00032
:103B000085FFFCCF8AE08093C600CE0101960E941B
:103B1000B1D20C942A3F8091C20A81110E940C8B71
:103B200000914805109149050C5F1F4F6AE270E053
:103B3000C8010E94E0DF7C0161E270E0C8010E94E0
:103B4000E0DF009719F08C010F5F1F4FE114F104C3
:103B500011F0F701108280E50E944E46F82E809108
:103B60004805909149050817190708F4F12C809130
:103B7000C30A882311F40C942A3F41E04F2561E0E9
:103B8000C8010E94ED7283E50E944E468823B9F079
:103B900080914805909149058017910780F40E9413
:103BA0006946AB01BC014093430D5093440D6093B3
:103BB000450D7093460D8EE89CE00E94DD9A809141
:103BC000C30A882319F081E08093C20AFF2009F418
:103BD0005ACD0C942A3F80914805909149056AE29C
:103BE00070E005960E94E0DF8C01892BD9F02091CE
:103BF0005E0730915F0740E6429FC001439F900DF2
:103C000011246EE470E082529A4F0E94E0DF60E27D
:103C100070E00E94E0DF019690934905809348058B
:103C2000D8011C92809148059091490521E020938C
:103C3000C10A41E060E005960E94ED720C942A3FB3
:103C40000E9407540091DA051091DB052091DC05F4
:103C50003091DD05601B710B820B930B28EE33E076
:103C600040E050E00E940CE7CA01B9012CE330E0CB
:103C700040E050E00E940CE77F936F933F932F93B7
:103C800081EE97E09F938F938E010F5F1F4F1F93DD
:103C90000F930E94B6E3EBEEFAE094910FB6F8941E
:103CA000DEBF0FBECDBFEBEEFAE0992349F0809165
:103CB000C00085FFFCCF9093C60031969491F5CF5C
:103CC000F8018191882339F09091C00095FFFCCFD5
:103CD0008093C600F6CF8091C00085FFFCCF8AE0BC
:103CE0008093C600C8010E94FEC78091BA0D882348
:103CF00011F40C942A3F1092BA0D0091B90D10E006
:103D0000000F111F0154124FD8016D917C91072EA5
:103D1000000C880B990B0E94EBE320915A02309122
:103D20005B0240915C0250915D020E9481DE181698
:103D300014F00C942A3FF801118210820C942A3F4F
:103D400083E50E944E46882311F40C942A3F0E947A
:103D500074460E949FDDF62EE72E862F9E2D8C0145
:103D600080E50E944E46882331F00F3F110509F08F
:103D700010F40C946B3F0DE010E0EEE9F2E081915D
:103D800091918017910771F022E0E63DF207B9F7B3
:103D90000930110549F48F2D9E2D9093BC0D809311
:103DA000BB0D02C00FEF1FEF8091BB0D0E948B4F28
:103DB00017FF02C00C942A3F61E0802F0E94CC5272
:103DC0006F2D802F0E94E8516F2D7E2D802F0E9435
:103DD00008530C942A3F86E50E944E4681110C94AC
:103DE000713F86E70E944E4681110C94713F222458
:103DF0002394312C03C021143104D1F0E2E9F7E01F
:103E00008491882341F09091C00095FFFCCF80936E
:103E1000C6003196F5CFEEE5F7E08491882341F0B6
:103E20009091C00095FFFCCF8093C6003196F5CFEE
:103E30008EE60E944E468823F1F00E9474460E944E
:103E40009FDDCE5ADE4F79836883C255D1406450DE
:103E500071096F327105B8F0E7E3F7E084918823C8
:103E600011F40C942A3F9091C00095FFFCCF8093F1
:103E7000C6003196F3CF4AE050E0CE5ADE4F598368
:103E80004883C255D14080E00E94EF8AC65CDE4F75
:103E90006883CA53D140C25CDE4F7883CE53D14091
:103EA000CE5BDE4F8883C254D140C85BDE4F98831F
:103EB000C854D14081E00E94EF8AC45BDE4F688322
:103EC000CC54D140C25BDE4F7883CE54D140CC5A23
:103ED000DE4F8883C455D140CA5ADE4F9883C655F9
:103EE000D14082E00E94EF8A82E00E94EF8A6B015B
:103EF0007C0183E00E94EF8ACE5CDE4F6883798389
:103F00008A839B83C253D14085E40E944E4681112F
:103F10000C94883F85E60E944E4681110C94883FA0
:103F2000C05BDE4F19821882C055D14088E50E94DF
:103F30004E4681112EC088E70E944E46811129C04D
:103F4000C65CDE4F5881CA53D140CE5DDE4F5883E8
:103F5000C252D140C25CDE4F6881CE53D140CA5DAF
:103F6000DE4F6883C652D140CE5BDE4F8881C2549B
:103F7000D140C65DDE4F8883CA52D140C85BDE4F58
:103F80009881C854D140C25DDE4F9883CE52D14053
:103F90003DC00E947446CE5DDE4F6883C252D14060
:103FA000CA5DDE4F7883C652D140C65DDE4F88833E
:103FB000CA52D140C25DDE4F9883CE52D14020E03C
:103FC00030E0A9010E94E5E387FF02C00C94923F14
:103FD00020E030E04AE253E4CE5DDE4F6881C25219
:103FE000D140CA5DDE4F7881C652D140C65DDE4FFA
:103FF0008881CA52D140C25DDE4F9881CE52D140F5
:104000000E9481DE181614F40C94923F89E50E94F8
:104010004E4681112EC089E70E944E46811129C06B
:10402000C45BDE4FA881CC54D140CA5CDE4FA8836C
:10403000C653D140C25BDE4FB881CE54D140C95C7B
:10404000DE4FB883C753D140CC5ADE4FE881C45508
:10405000D140C85CDE4FE883C853D140CA5ADE4F16
:10406000F881C655D140C75CDE4FF883C953D140B3
:104070003DC00E947446CA5CDE4F6883C653D1407F
:10408000C95CDE4F7883C753D140C85CDE4F88835C
:10409000C853D140C75CDE4F9883C953D14020E05C
:1040A00030E0A9010E94E5E387FF02C00C94A03F25
:1040B00020E030E044E353E4CA5CDE4F6881C6533D
:1040C000D140C95CDE4F7881C753D140C85CDE4F18
:1040D0008881C853D140C75CDE4F9881C953D14015
:1040E0000E9481DE181614F40C94A03F8CE40E9408
:1040F0004E4681110C94AE3F8CE60E944E468111D3
:104100000C94AE3FCA5BDE4F19821882C654D14070
:1041100020E030E040E751E4C701B6010E945BDCDB
:104120002B013C010E940C8B0E94F076CE5CDE4F8E
:10413000288139814A815B81C253D14029833A83E6
:104140004B835C8389EB9DE09F938F93812C912C13
:10415000F0E2AF2EF2E4BF2EAE014F5F5F4F6A0177
:1041600083017201C45BDE4F2881CC54D140C25B15
:10417000DE4F3881CE54D140CC5ADE4F4881C455F1
:10418000D140CA5ADE4F5881C655D140C65CDE4F79
:104190006881CA53D140C25CDE4F7881CE53D14092
:1041A000CE5BDE4F8881C254D140C85BDE4F988120
:1041B000C854D1400E94375C0E940C8B0F900F9026
:1041C00053E0251631040CF0FAC0CE5CDE4F888136
:1041D0009981AA81BB81C253D14089839A83AB83E1
:1041E000BC83A9EBBDE0BF93AF93812C912CE8EC8D
:1041F000AE2EE2E4BE2E8E010F5F1F4F68018301D9
:104200007201CA5CDE4F2881C653D140C95CDE4FC3
:104210003881C753D140C85CDE4F4881C853D14074
:10422000C75CDE4F5881C953D140CE5DDE4F6881F7
:10423000C252D140CA5DDE4F7881C652D140C65DC0
:10424000DE4F8881CA52D140C25DDE4F9881CE5286
:10425000D1400E94375C0E940C8B80E00E94EF8A64
:104260006093730D7093740D8093750D9093760D1C
:1042700081E00E94EF8A6093770D7093780D8093B0
:10428000790D90937A0D82E00E94EF8A60937B0D06
:1042900070937C0D80937D0D90937E0D83E00E9442
:1042A000EF8A6B017C0160937F0D7093800D80938A
:1042B000810D9093820D0E940C440E9437440E940D
:1042C000C74482E00E94EF8A60937B0D70937C0D5F
:1042D00080937D0D90937E0D82E00E94EF8A20E016
:1042E00030E040E751E40E945BDCCE5BDE4F688348
:1042F00079838A839B83C254D140C982DA82EB825C
:10430000FC82A9EBBDE0BF93AF938E010F5F1F4FFF
:104310006801CE5BDE4FE880F9800A811B81C254C0
:10432000D140CA5CDE4F2881C653D140C95CDE4F04
:104330003881C753D140C85CDE4F4881C853D14053
:10434000C75CDE4F5881C953D140CE5DDE4F6881D6
:10435000C252D140CA5DDE4F7881C652D140C65D9F
:10436000DE4F8881CA52D140C25DDE4F9881CE5265
:10437000D1400E94375C0E940C8B82E00E94EF8A41
:10438000C85BDE4F688379838A839B83C854D1409E
:1043900060937B0D70937C0D80937D0D90937E0DCB
:1043A0000F900F900F900F90C05BDE4F28813981E6
:1043B000C055D140232B81F00E9406440DC0ECEB88
:1043C000F3E08191882309F400CF9091C00095FF1C
:1043D000FCCF8093C600F5CFAE014F5F5F4FC25B4D
:1043E000DE4F59834883CE54D14081E090E0A0E075
:1043F000B0E0C25CDE4F88839983AA83BB83CE532F
:10440000D140CA5BDE4FA881B981C654D140119713
:10441000CA5ADE4FB983A883C655D140CE5ADE4F63
:1044200088809980C255D140092C000CAA08BB088D
:10443000C65ADE4F88829982AA82BB82CA55D14071
:10444000C25CDE4F08811981CE53D1400150110961
:10445000C45BDE4F19830883CC54D140CE5BDE4F62
:10446000E880F9800A811B81C254D140CA5CDE4FCA
:104470002881C653D140C95CDE4F3881C753D14033
:10448000C85CDE4F4881C853D140C75CDE4F5881BD
:10449000C953D140CE5DDE4F6881C252D140CA5D62
:1044A000DE4F7881C652D140C65DDE4F8881CA5248
:1044B000D140C25DDE4F9881CE52D1400E9463440C
:1044C000CA5BDE4F28813981C654D140232B09F4C1
:1044D000C0C10E940754AB0141705527CC5ADE4F32
:1044E00059834883C455D1400E9407542AE230E0E2
:1044F00040E050E00E940CE70E94E9E34B015C01C0
:104500000E94075428E631E040E050E00E940CE7AA
:104510000E94E9E322EE3EE245E652E40E9437DDE6
:10452000C65CDE4F688379838A839B83CA53D140FC
:10453000C12CD12CCA5ADE4F28813981C655D140B1
:10454000C216D3060CF053C1CC5ADE4F8881998134
:10455000C455D1400197E9F40E94075424E130E0AA
:1045600040E050E00E940CE70E94E9E322EE3EE2C8
:1045700045E652E40E9437DD9B01AC01C65CDE4F8C
:10458000688179818A819B81CA53D1400E945BDC1A
:104590001CC00E94075424E130E040E050E00E943B
:1045A0000CE70E94E9E322EE3EE245E652E40E9477
:1045B00037DD9B01AC01C65CDE4F688179818A8161
:1045C0009B81CA53D1400E945ADCC65CDE4F68838F
:1045D00079838A839B83CA53D1400E9407542AE07F
:1045E00030E040E050E00E940CE76550710981091D
:1045F00091090E94EBE39B01AC01C501B4010E944B
:104600005BDC4B015C0120E030E0A9010E94E5E3A6
:1046100087FF04C0B7FAB094B7F8B094C65CDE4F19
:10462000688179818A819B81CA53D1400E9434DD9F
:10463000A50194010E941BE09B01AC01CE5DDE4F01
:104640006881C252D140CA5DDE4F7881C652D140E6
:10465000C65DDE4F8881CA52D140C25DDE4F98816F
:10466000CE52D1400E945BDC2B013C01C65CDE4F88
:10467000688179818A819B81CA53D1400E9453DF2E
:10468000A50194010E941BE09B01AC01CA5CDE4FB6
:104690006881C653D140C95CDE4F7881C753D14091
:1046A000C85CDE4F8881C853D140C75CDE4F98811B
:1046B000C953D1400E945BDCCE5CDE4F68837983B6
:1046C0008A839B83C253D14020E030E0A901C3011B
:1046D000B2010E94E5E387FD11C020E030E04AE22C
:1046E00053E4C301B2010E9481DE181654F4412C38
:1046F000512C7AE2672E73E4772E03C0412C512CA3
:10470000320120E030E0A901CE5CDE4F6881798182
:104710008A819B81C253D1400E94E5E387FD1DC081
:1047200020E030E044E353E4CE5CDE4F68817981E1
:104730008A819B81C253D1400E9481DE1816ACF45D
:1047400000E010E024E333E4CE5CDE4F08831983FD
:104750002A833B83C253D14008C0CE5CDE4F18820F
:1047600019821A821B82C253D14014E021163104EF
:1047700031F5B301A20183EB96E00E94E14ACE5CE1
:10478000DE4F488159816A817B81C253D1408FEAD3
:1047900096E00E94E14AEEEAF6E08491882341F037
:1047A0009091C00095FFFCCF8093C6003196F5CF65
:1047B0008091C00085FFFCCFFAE0F093C600C85B93
:1047C000DE4FE880F9800A811B81C854D140CE5C5D
:1047D000DE4F288139814A815B81C253D140C301B8
:1047E000B2010E9463440FEFC01AD00AA3CECE5B81
:1047F000DE4FE880F9800A811B81C254D140CA5C37
:10480000DE4F2881C653D140C95CDE4F3881C75383
:10481000D140C85CDE4F4881C853D140C75CDE4FF1
:104820005881C953D140CE5DDE4F6881C252D1401C
:10483000CA5DDE4F7881C652D140C65DDE4F8881A9
:10484000CA52D140C25DDE4F9881CE52D1400E9403
:104850006344C05BDE4F48815981C055D140452B30
:1048600041F00E940C4468EE73E080E090E00E940A
:10487000CF530E9437440E94C74480917B0D909192
:104880007C0DA0917D0DB0917E0DC25BDE4FE88165
:10489000F981CE54D14081939193A193B193C25B9E
:1048A000DE4FF983E883CE54D1408E010F5F1F4F56
:1048B000580100E010E0C12CD12C7601D5012D91DA
:1048C0003D914D915D915D01C701B6010E945BDC98
:1048D0006B017C010F5F1F4FC45BDE4F88809980A6
:1048E000CC54D140801691064CF7C25CDE4FA880B4
:1048F000B980CE53D140B501BB0C880B990B0E94F7
:10490000EBE34B015C019B01AC01C701B6010E94C6
:1049100037DDCE5CDE4F688379838A839B83C25305
:10492000D1408E010F5F1F4F380100E010E0C12C15
:10493000D12C7601D3016D917D918D919D913D0199
:10494000CE5CDE4F288139814A815B81C253D140E0
:104950000E945ADC9B01AC010E941BE09B01AC0150
:10496000C701B6010E945BDC6B017C010F5F1F4F2A
:10497000C45BDE4FE881F981CC54D140E017F107E8
:10498000CCF6A50194010E9437DD0E945DDF2B016A
:104990003C01F2E02F1631040CF466C0C25CDE4F1D
:1049A000688179818A819B81CE53D1400E948D6E2E
:1049B000EDEDF3E08191882339F09091C00095FFEF
:1049C000FCCF8093C600F6CFC65ADE4F688179814E
:1049D0008A819B81CA55D1400E948D6EE7EAF6E03C
:1049E0008491882341F09091C00095FFFCCF809383
:1049F000C6003196F5CF60917B0D70917C0D809152
:104A00007D0D90917E0D46E00E949F6E02E0201683
:104A1000310409F482C0E2EEF3E08191882339F099
:104A20009091C00095FFFCCF8093C600F6CF46E082
:104A3000CE5CDE4F688179818A819B81C253D140EF
:104A40000E949F6EEAEEF3E08191882339F0909105
:104A5000C00095FFFCCF8093C600F6CF46E0C301AF
:104A6000B2010E949F6E59C02114310409F055C053
:104A700089EB9DE09F938F93812C912C50E2A52E82
:104A800052E4B52E6FE7C62E6DE0D62ECE5BDE4F1C
:104A9000E880F9800A811B81C254D140CA5CDE4F94
:104AA0002881C653D140C95CDE4F3881C753D140FD
:104AB000C85CDE4F4881C853D140C75CDE4F588187
:104AC000C953D140CE5DDE4F6881C252D140CA5D2C
:104AD000DE4F7881C652D140C65DDE4F8881CA5212
:104AE000D140C25DDE4F9881CE52D1400E94375CEA
:104AF0000E940C8B0F900F90C05BDE4F2881398194
:104B0000C055D140232BB9F00E94064468EE73E0F3
:104B100080E090E00E94CF530EC0E5EAF6E0849179
:104B2000882309F4A5CF9091C00095FFFCCF809316
:104B3000C6003196F4CFC25CDE4F88819981AA818C
:104B4000BB81CE53D1400196A11DB11DC25CDE4F89
:104B500088839983AA83BB83CE53D140C25CDE4F46
:104B600088819981CE53D1400197CE5ADE4FA881DA
:104B7000B981C255D1408A179B070CF461CC0E94C1
:104B8000064468EE73E080E090E00E94CF530E94FC
:104B90001244232819F4E7E8F6E02CC0EEE9F6E029
:104BA0008491882341F09091C00095FFFCCF8093C1
:104BB000C6003196F5CF46E0CE5CDE4F6881798144
:104BC0008A819B81C253D1400E949F6EECE9F6E03E
:104BD0008491882301F39091C00095FFFCCF8093CE
:104BE000C6003196F5CF9091C00095FFFCCF809321
:104BF000C600319684918111F6CF46E0C301B2011F
:104C00000E949F6EE4E8F6E08491882311F40C94EE
:104C10002A3F9091C00095FFFCCF8093C60031964B
:104C2000F3CF88E690E00E949EB281110C942A3F57
:104C300083E50E944E46882311F40C942A3F10917C
:104C40000A140E947446212F30E0220F331F89017D
:104C50000154124F0E949FDDF801718360830C9410
:104C60002A3F0E9466B383E50E944E46882311F4D2
:104C70000C942A3F0E9474460E949FDD7093BE0DE3
:104C80006093BD0D0C942A3F89E690E00E949EB28D
:104C900081110C942A3FEEE7F6E08491882341F0DD
:104CA0009091C00095FFFCCF8093C6003196F5CF60
:104CB000E0910A1404E0E09FF0011124E95EF14F55
:104CC000608171818281938141E00E949F6EEBE758
:104CD000F6E08491882341F09091C00095FFFCCFCD
:104CE0008093C6003196F5CFE0910A14F0E0EE0F04
:104CF000FF1FE154F24F60817181072E000C880B79
:104D0000990B0E94EBE341E00E949F6EE7E7F6E01B
:104D10008491882341F09091C00095FFFCCF80934F
:104D2000C6003196F5CF6091D6057091D705809178
:104D3000D8059091D90541E00E949F6EE4E7F6E026
:104D40008491882341F09091C00095FFFCCF80931F
:104D5000C6003196F5CF6091BD0D7091BE0D072E46
:104D6000000C880B990B0E94EBE341E00E949F6EC0
:104D7000E1E7F6E08491882341F09091C00095FF2F
:104D8000FCCF8093C6003196F5CF60E070E0CB0198
:104D90000E948D6EEFE6F6E08491882341F09091B9
:104DA000C00095FFFCCF8093C6003196F5CF60918F
:104DB000170E7091180E8091190E90911A0E41E005
:104DC0000E949F6EECE6F6E08491882341F090917A
:104DD000C00095FFFCCF8093C6003196F5CF60915F
:104DE000BF0D7091C00D072E000C880B990B0E940F
:104DF000EBE341E00E949F6EE8E6F6E084918823B1
:104E000041F09091C00095FFFCCF8093C600319691
:104E1000F5CFE0910A14F0E0E853F24F608170E0C2
:104E200080E090E00E948D6EE3E6F6E084918823B6
:104E300041F09091C00095FFFCCF8093C600319661
:104E4000F5CF6091C70D70E080E090E00E948D6E1C
:104E50008091C00085FFFCCF8AE08093C6000C944F
:104E6000B04300E023E040E064E18FEF0E94F84FA0
:104E70008DE690E00E949EB281110C942A3F88E555
:104E800096E00E94DCC71092BA0D83E50E944E4660
:104E90008823A1F010910A140E947446212F30E05B
:104EA000220F331F89010154124F0E949FDDD80148
:104EB0006D937C9381E08093000217C082E50E948D
:104EC0004E46882391F010910A140E947446212FB7
:104ED00030E0220F331F89010154124F0E949FDDE1
:104EE000F801718360831092000283E50E944E46B0
:104EF000882351F00E94744660935A0270935B02BB
:104F000080935C0290935D0282E40E944E46882367
:104F100051F00E947446609356027093570280933A
:104F200058029093590286E40E944E46882369F005
:104F30000E9474466093520270935302809354020D
:104F40009093550281E08093BA0D0E9407544B0163
:104F50005C0100910A1410E0F801EE0FFF1FE1540C
:104F6000F24F60817181072E000C880B990B0E9413
:104F7000EBE3000F111F000F111FF801E95EF14F65
:104F800011E020813181428153810E9481DE181617
:104F90000CF010E01093730510921B0ECC24CA94F1
:104FA000DC2C7601EDE42E2EE6E03E2EF8EE4F2EC0
:104FB000F3E05F2E612C712C80911B0E81110C94FB
:104FC000FF40BFEFCB16DB06EB06FB0611F40C949B
:104FD000DC3FF7FE02C00C94FF400E9407546C199E
:104FE0007D096031774210F40C94DC3F0C94FF4053
:104FF00000E023E040E064E18FEF0E94F84F82E39D
:1050000096E00E94DCC783E50E944E46882361F04B
:105010000E9474460E949FDD7093BE0D6093BD0D8B
:1050200081E0809300020FC082E50E944E468823F3
:1050300051F00E9474460E949FDD7093BE0D6093F4
:10504000BD0D109200020E9407544B015C011092AA
:105050001B0E6091BD0D7091BE0D072E000C880BCC
:10506000990B0E94EBE311E02091D6053091D70512
:105070004091D8055091D9050E9481DE18160CF098
:1050800010E0109373050FE216E0EBE2EE2EE6E07F
:10509000FE2EF7E2CF2EF6E0DF2EAAE07A2E8091E8
:1050A00073056091BD0D7091BE0D882309F484C015
:1050B00080911B0E811180C0072E000C880B990B6C
:1050C0000E94EBE32091D6053091D7054091D80599
:1050D0005091D9050E9481DE18160CF084C00E9400
:1050E0000754DC01CB0188199909AA09BB09893E3B
:1050F0009340A105B10508F458C0E091B90D24E032
:10510000E29FF0011124E95EF14F6081718182819B
:105110009381F8012491EFE2F6E0222349F03091E7
:10512000C00035FFFCCF2093C60031962491F5CF07
:1051300042E00E949F6EF7018491EBE2F6E0882343
:1051400049F09091C00095FFFCCF8093C600319646
:105150008491F5CF6091B90D70E080E090E00E94FD
:105160008D6EF6018491E7E2F6E0882349F0909194
:10517000C00095FFFCCF8093C60031968491F5CF97
:105180006091D6057091D7058091D8059091D90589
:1051900041E00E949F6E8091C00085FFFCCF70921D
:1051A000C6000E9407544B015C010E9466870E9462
:1051B000A4B30E940DC873CF072E000C880B990B67
:1051C0000E94EBE32091D6053091D7054091D80598
:1051D0005091D9050E94E5E387FF05C08091000248
:1051E000882309F47CCF00E023E04FEF6FEF8FEFCF
:1051F0000E94F84F8DE196E00E94DCC70E940754A0
:105200006093F1137093F2138093F3139093F4135C
:105210000C942A3F83E50E944E46882331F00E9479
:1052200074460E94A4DD862F01C08FEF0E948B4F31
:105230000C942A3F83E50E944E4680E00E948B4FEB
:105240000C942A3F1092FD130C942A3F81E0809326
:10525000FD130C942A3F83E50E944E468823A1F05B
:105260000E94744620E030E04AE754E40E941BE0CC
:105270000E94A4DD60936A0270936B0280936C02BB
:1052800090936D020C942A3F88E50E944E4681114E
:105290000C941A4189E50E944E4681110C941A41E2
:1052A0008AE50E944E4681110C941A4185E40E94C1
:1052B0004E4681110C941A410E940C8B129A0E9446
:1052C0000C8B5F9A1092D3058A9A1092D4059FB7DF
:1052D000F894809108018160809308019FBF10922B
:1052E000D505129A0C942A3F83E50E944E468823E6
:1052F00011F40C942A3F0E94744620E030E04AE703
:1053000054E40E941BE00E94A4DD6093FE1370939E
:10531000FF1380930014909301140C942A3F60E8CB
:10532000862E63E0962E07EA1DE079E3A72E7EE045
:10533000B72E2DE53EE0CE5DDE4F39832883C25285
:10534000D140312CD4018D914D010E944E468823CD
:1053500009F466C0B3E03B125CC00E9474462B01A6
:105360003C0120E030E040EA51E40E94E5E387FFA1
:1053700049C0A3019201F80160817181828193810A
:105380000E9437DD6B017C019B01AC016091490EED
:1053900070914A0E80914B0E90914C0E0E941BE032
:1053A0006093490E70934A0E80934B0E90934C0E6F
:1053B000A7019601D5016D917D918D919C910E94DF
:1053C0001BE0F5016083718382839383CE5DDE4FA2
:1053D000A881B981C252D1406D917D918D919C91EE
:1053E0000E94E9E3A70196010E941BE00E94A4DD50
:1053F000CE5DDE4FE881F981C252D1406083718376
:1054000082839383D8014D925D926D927C92139723
:1054100007C00E947446F80160837183828393837E
:1054200033940C5F1F4FF4E0AF0EB11CCE5DDE4F26
:1054300028813981C252D1402C5F3F4FCE5DDE4F73
:1054400039832883C252D14034E033127BCF0C948D
:105450002A3FE0E5F5E08491882311F40C942A3F7B
:105460009091C00095FFFCCF8093C6003196F3CF9A
:1054700000914805109149050B5F1F4F6AE270E0EB
:10548000C8010E94E0DF009711F0DC011C92C80106
:105490000E94FEC70C942A3F9091C00095FFFCCF5C
:1054A0008093C600319684918111F6CF6091730D7F
:1054B0007091740D8091750D9091760D42E00E946F
:1054C0009F6EE9E4F5E08491882341F09091C0005B
:1054D00095FFFCCF8093C6003196F5CF6091770D94
:1054E0007091780D8091790D90917A0D42E00E9433
:1054F0009F6EE5E4F5E08491882341F09091C0002F
:1055000095FFFCCF8093C6003196F5CF60917B0D5F
:1055100070917C0D80917D0D90917E0D42E00E94F6
:105520009F6EE1E4F5E08491882341F09091C00002
:1055300095FFFCCF8093C6003196F5CF60917F0D2B
:105540007091800D8091810D9091820D42E00E94BA
:105550009F6EE6E3F5E08491882341F09091C000CE
:1055600095FFFCCF8093C6003196F5CF2FB7F89406
:105570006091630D7091640D8091650D9091660D41
:105580002FBF0E94EBE32091A70D3091A80D409111
:10559000A90D5091AA0D0E9437DD42E00E949F6E36
:1055A000E2E3F5E08491882341F09091C00095FFFB
:1055B000FCCF8093C6003196F5CF2FB7F894609159
:1055C000670D7091680D8091690D90916A0D2FBFE4
:1055D0000E94EBE32091AB0D3091AC0D4091AD0DED
:1055E0005091AE0D0E9437DD42E00E949F6EEEE2C8
:1055F000F5E08491882341F09091C00095FFFCCFA5
:105600008093C6003196F5CF2FB7F89460916B0D5B
:1056100070916C0D80916D0D90916E0D2FBF0E9459
:10562000EBE32091AF0D3091B00D4091B10D509151
:10563000B20D0E9437DD42E00E949F6E8091C00053
:1056400085FFFCCF8AE08093C6000C942A3F10921D
:105650000B020C942A3F9091C00095FFFCCF8093E1
:10566000C60081918111F7CF8091C00085FFFCCFEA
:105670008AE08093C600E6E2F5E08491882341F059
:105680009091C00095FFFCCF8093C6003196F5CF76
:10569000659B03C0E4E9F3E009C0E9E9F3E006C073
:1056A0009091C00095FFFCCF8093C600819181113D
:1056B000F7CF8091C00085FFFCCF8AE08093C600C1
:1056C000EEE1F5E08491882341F09091C00095FFD0
:1056D000FCCF8093C6003196F5CF8091030181FF06
:1056E00003C0E4E9F3E009C0E9E9F3E006C0909102
:1056F000C00095FFFCCF8093C60081918111F7CF48
:105700008091C00085FFFCCF8AE08093C600E6E16F
:10571000F5E08491882341F09091C00095FFFCCF83
:105720008093C6003196F5CF4B9B03C0E4E9F3E0CC
:1057300009C0E9E9F3E006C09091C00095FFFCCFF5
:105740008093C60081918111F7CF8091C00085FFC1
:10575000FCCF8AE08093C600EEE0F5E084918823D8
:1057600041F09091C00095FFFCCF8093C600319628
:10577000F5CF4A9B03C0E4E9F3E009C0E9E9F3E0AF
:1057800006C09091C00095FFFCCF8093C600819128
:105790008111F7CF8091C00085FFFCCF8AE0809314
:1057A000C6000C942A3F82E50E944E46882331F0C1
:1057B0000E9474460E94A4DD162F01C010E085E50A
:1057C0000E944E46882331F00E9474460E94A4DD58
:1057D000F62E01C0F12C82E40E944E46882331F05F
:1057E0000E9474460E94A4DDE62E01C0E12C80E5F3
:1057F0000E944E46882331F00E9474460E94A4DD28
:10580000D62E02C053E0D52E83E40E944E46882354
:1058100029F00E9474460E94A4DD01C060E0062FBA
:105820002D2D4E2D6F2D812F0E94F84F0C942A3F65
:1058300083E50E944E46882331F00E9474460E9400
:10584000A4DD862F01C080E00E94704F0C942A3F97
:1058500083E50E944E46882329F00E9474460E94E8
:10586000A4DD01C061E084E0CE59DE4F6883C256FA
:10587000D1400E940E6E84E090E00E94AC6DCE5943
:10588000DE4F6881C256D14088E29AE00E946051A2
:105890000E94B16D0C942A3F86E40E944E468823F4
:1058A00031F00E9474460E94A4DDD62E01C0D12C96
:1058B00084E50E944E46882331F00E9474460E947F
:1058C000A4DDE62E01C0E12C82E50E944E4688232D
:1058D00031F00E9474460E94A4DDF62E01C0F12C26
:1058E00085E50E944E46882331F00E9474460E944E
:1058F000A4DD062F01C000E082E40E944E4688230A
:1059000031F00E9474460E94A4DD162F01C010E001
:1059100084E00E940E6E83E090E00E94AC6D83E014
:1059200090E00E94AC6D6D2D88E29AE00E9460517B
:105930006E2D88E29AE00E9460516F2D88E29AE015
:105940000E946051602F88E29AE00E946051612FAE
:1059500088E29AE00E9460510E94B16D4091480235
:1059600060914702809146020E94CB4F0C942A3FDF
:1059700086E40E944E46882331F00E9474460E94BD
:10598000A4DD062F01C000E084E50E944E46882376
:1059900031F00E9474460E94A4DD162F01C010E071
:1059A00084E00E940E6E83E090E00E94AC6D84E083
:1059B00090E00E94AC6D602F88E29AE00E946051F6
:1059C000612F88E29AE00E9460510E94B16D0C94B0
:1059D0002A3F84E40E944E46882311F40C942A3F07
:1059E0000E94744620E030E040E05FE30E941BE04C
:1059F0006B017C0120E030E0A9010E94E5E38823EF
:105A000079F0A7019601C701B6010E941BE02BEDBA
:105A10003FE049E450E40E941BE09B01AC0104C05C
:105A200020E030E040E85FE38091B90D80930A14F4
:105A300084E5CE59DE4F2883C256D140CD59DE4F82
:105A40003883C356D140CC59DE4F4883C456D14029
:105A5000CB59DE4F5883C556D1400E944E46CE5991
:105A6000DE4F2881C256D140CD59DE4F3881C35612
:105A7000D140CC59DE4F4881C456D140CB59DE4F7E
:105A80005881C556D1408823B9F10E9474460E94BE
:105A9000A4DD60930A14CE59DE4F2881C256D1404E
:105AA000CD59DE4F3881C356D140CC59DE4F4881A5
:105AB000C456D140CB59DE4F5881C556D1406623DC
:105AC000D9F0EBEEFAE08491882341F09091C00088
:105AD00095FFFCCF8093C6003196F5CFE7EFF3E05A
