:100000000C9456100C9487100C9487100C94871045
:100010000C9487100C9487100C9487100C94871004
:100020000C9487100C9487100C9487100C948710F4
:100030000C9487100C9425BF0C9487100C94871097
:100040000C9487100C948EC20C9487100C9487101B
:100050000C9487100C9487100C94A8850C94CBC03A
:100060000C9487100C9470480C9487100C94871093
:100070000C9487100C9487100C9487100C948710A4
:100080000C948F680C9487100C9487100C94871034
:100090000C9487100C9487100C9487100C9415C145
:1000A0000C9487100C9487100C9461680C94871042
:1000B0000C9487100C9487100C9487100C94336860
:1000C0000C9487100C9487100C9487100C94871054
:1000D0000C9487100C9487100C9487100C94871044
:1000E0000C94871008861786338642865C866B865A
:1000F000858689868B868F86978674BD77BD66BD1B
:100100006ABD70BDAEBD7BBD7FBD85BD89BD8DBDEA
:1001100093BD97BD9BBDAEBDA1BDA5BDA9BDE7BFAC
:10012000ECBFF1BFFBBF05C07EC00FC017C01FC032
:1001300029C033C03DC04CC056C07EC060C06AC03C
:1001400074C0084AD73B3BCE016E84BCBFFDC12FB3
:100150003D6C74319ABD56833DDA3D00C77F11BEB8
:10016000D9E4BB4C3E916BAAAABE000000803F05BB
:10017000A84CCDB2D44EB93836A9020C50B99186EC
:1001800088083CA6AAAA2ABE000000803F004E4173
:100190004E494E495459494E46CDCCCC3D0AD72301
:1001A0003C17B7D13877CC2B329595E6241FB14F49
:1001B0000A000020410000C84200401C4620BCBE8E
:1001C0004CCA1B0E5AAEC59D742F0053442070724A
:1001D000696E74696E67206279746520004E6F7471
:1001E000205344207072696E74696E67002E00445B
:1001F000656C6574696F6E206661696C65642C203E
:1002000046696C653A200046696C652064656C65DA
:100210007465643A002E006F70656E206661696CCB
:1002200065642C2046696C653A20005049442041A1
:1002300075746F74756E652066696E697368656440
:10024000212050757420746865206C617374204B94
:10025000702C204B6920616E64204B6420636F6EAC
:100260007374616E74732066726F6D2061626F7655
:100270006520696E746F20436F6E66696775726181
:1002800074696F6E2E6800504944204175746F7414
:10029000756E65206661696C6564212074696D65A1
:1002A0006F75740020403A006F6B20543A006F6BFA
:1002B00020423A00504944204175746F74756E6550
:1002C000206661696C6564212054656D706572619A
:1002D0007475726520746F6F206869676800204BC1
:1002E000643A2000204B693A2000204B703A2000ED
:1002F00020436C617373696320504944200020548B
:10030000753A2000204B753A2000206D61783A2024
:1003100000206D696E3A200020643A200020626956
:1003200061733A20002044002049002020204D33F2
:1003300030312050005049442073657474696E67F1
:10034000733A00205A0020590020204D32303620C8
:100350005800486F6D65206F666673657420286D60
:100360006D293A00204500205A0020580020420004
:1003700020540020204D32303520530041647661F6
:100380006E636564207661726961626C65733A20A0
:10039000533D4D696E206665656472617465202801
:1003A0006D6D2F73292C20543D4D696E2074726140
:1003B00076656C20666565647261746520286D6D74
:1003C0002F73292C20423D6D696E696D756D207308
:1003D00065676D656E742074696D6520286D73297D
:1003E0002C20583D6D6178696D756D205859206AD3
:1003F00065726B20286D6D2F73292C20205A3D6D5E
:100400006178696D756D205A206A65726B20286D60
:100410006D2F73292C2020453D6D6178696D756DB8
:100420002045206A65726B20286D6D2F732900208E
:10043000540020204D323034205300416363656CFA
:1004400065726174696F6E3A20533D616363656CD8
:1004500065726174696F6E2C20543D7265747261AF
:10046000637420616363656C65726174696F6E00AB
:10047000204500205A0020590020204D32303120E4
:1004800058004D6178696D756D20416363656C65D9
:10049000726174696F6E20286D6D2F7332293A0076
:1004A000204500205A0020590020204D32303320B2
:1004B00058004D6178696D756D206665656472617F
:1004C00074657320286D6D2F73293A002045002034
:1004D0005A0020590020204D3932205800537465AD
:1004E00070732070657220756E69743A0065636878
:1004F0006F3A002200556E6B6E6F776E20636F6DE2
:100500006D616E643A2022004368616E6765206603
:10051000696C616D656E74005A204F666673657410
:10052000203A20007A5F6D61783A20007A5F6D6929
:100530006E3A20005A204F6666736574005A204F49
:100540006666736574206F6B0046696C616D656EDD
:100550007420646574656374696F6E206E6F7420B7
:10056000547269676765726564202866696C616D9D
:10057000656E742070726573656E74290046696CCF
:10058000616D656E7420646574656374696F6E2057
:1005900054726967676572656420286E6F206669AA
:1005A0006C616D656E742900526573756D696E6757
:1005B000207072696E7400656D707479696E672061
:1005C000626564007A5F6D61783A20007A5F6D69D8
:1005D0006E3A2000795F6D696E3A2000785F6D6930
:1005E0006E3A2000205A3A0020593A0020436F7595
:1005F0006E7420583A200020453A00205A3A0020D4
:10060000593A00583A004649524D574152455F4EBB
:10061000414D453A4D61726C696E2056313B205315
:100620007072696E7465722F6772626C206D61738F
:1006300068757020666F722067656E362046495275
:100640004D574152455F55524C3A68747470733A35
:100650002F2F6769746875622E636F6D2F457269FD
:100660006B5A616C6D2F4D61726C696E2F20505208
:100670004F544F434F4C5F56455253494F4E3A31BA
:100680002E30204D414348494E455F545950453A1C
:10069000334461746F722045585452554445525F3B
:1006A000434F554E543A3120555549443A30303035
:1006B00030303030302D303030302D303030302D43
:1006C000303030302D30303030303030303030302D
:1006D000300A0042656420646F6E652E0020423A45
:1006E0000020453A00543A00426564204865617430
:1006F000696E672E0048656174696E6720646F6E6D
:10070000652E0020573A0020453A00543A004865CB
:100710006174696E672E2E2E002042403A00204000
:100720003A00202F003A00205400202F0020423AA7
:1007300000202F006F6B20543A000A0A00537461A6
:100740006E6461726420446576696174696F6E3AA3
:1007500020000A004D65616E3A20000A002020202A
:100760007A3A200000793A2000783A20003F53700E
:1007700065636966696564206E756D626572206F78
:1007800066206C65677320696E206D6F76656D6598
:100790006E74206E6F7420706C61757361626C652D
:1007A0002E0A003F537065636966696564205920AD
:1007B000706F736974696F6E206F7574206F662037
:1007C00072616E67652E0A003F53706563696669E2
:1007D0006564205820706F736974696F6E206F753F
:1007E00074206F662072616E67652E0A003F537039
:1007F000656369666965642073616D706C652073FB
:10080000697A65206E6F7420706C61757361626CBB
:10081000652E0A0046756C6C20737570706F72746B
:100820002061743A20687474703A2F2F33647072A8
:10083000696E74626F6172642E636F6D2F666F7282
:10084000756D2E7068700A004D3438205A2D507224
:100850006F6265205265706561746162696C69746C
:100860007920746573742E20202056657273696F29
:100870006E20322E30300A003F566572626F73650B
:10088000204C6576656C206E6F7420706C6175739A
:1008900061626C652E0A002569206D696E2C202529
:1008A000692073656300456E642066696C65206C21
:1008B00069737400426567696E2066696C65206CB7
:1008C000697374004E6F206D6F76652E00526573EC
:1008D000756D696E67207072696E74005761697416
:1008E00020666F7220757365722E2E2E000A00200E
:1008F0005A3A200020593A200020583A20004265F8
:100900006400486F6D6520582F59206265666F72CC
:1009100065205A00486F6D6520582F592062656622
:100920006F7265205A00536C6565702E2E2E005331
:10093000657474696E67732053746F7265640053D5
:10094000746F7265642073657474696E6773207266
:1009500065747269657665640048617264636F648A
:1009600065642044656661756C74205365747469B0
:100970006E6773204C6F61646564002200656E7160
:100980007565696E6720220063616E6E6F74206505
:100990006E71756575652C20627566666572206678
:1009A000756C6C2022002200656E717565696E673A
:1009B00020220063616E6E6F7420656E71756575BF
:1009C000652C206275666665722066756C6C2022E7
:1009D000004D38340053544F505045442E200050A1
:1009E00072696E7465722073746F707065642064D0
:1009F000756520746F206572726F72732E20466960
:100A00007820746865206572726F7220616E642050
:100A1000757365204D39393920746F207265737490
:100A20006172742E202854656D70657261747572E0
:100A3000652069732072657365742E205365742078
:100A40006974206166746572207265737461727472
:100A5000696E6729006F6B004E6F204C696E6520D0
:100A60004E756D626572207769746820636865638E
:100A70006B73756D2C204C617374204C696E653AF4
:100A800020004E6F20436865636B73756D20776936
:100A90007468206C696E65206E756D6265722C20BD
:100AA0004C617374204C696E653A2000636865631D
:100AB0006B73756D206D69736D617463682C204C68
:100AC000617374204C696E653A20004C696E652034
:100AD0004E756D626572206973206E6F74204C6173
:100AE0007374204C696E65204E756D6265722B3192
:100AF0002C204C617374204C696E653A20004D3196
:100B00003130000A00207A3A200020793A20002073
:100B1000783A2000426564002020506C616E6E655A
:100B20007242756666657242797465733A20002078
:100B300046726565204D656D6F72793A20004E6F83
:100B400076203234203230313700436F6D70696C5B
:100B500065643A200028334461746F7220476D62E7
:100B6000482900207C20417574686F723A20004E3D
:100B70006F7620323420323031372030393A3038F5
:100B80003A353400204C617374205570646174658B
:100B9000643A2000312E322E32004D61726C696E43
:100BA0000020536F667477617265205265736574B7
:100BB00000205761746368646F67205265736574C1
:100BC000002042726F776E206F75742052657365D6
:100BD00074002045787465726E616C20526573658F
:100BE0007400506F7765725570006563686F3A00E6
:100BF0007374617274006572726F722077726974B7
:100C0000696E6720746F2066696C6500656E647339
:100C1000746F7073206869743A205A00205A3A0041
:100C2000656E6473746F7073206869743A2059003C
:100C300020593A00656E6473746F7073206869742C
:100C40003A20580020583A00656E6473746F7073D0
:100C5000206869743A20006563686F3A00486561EE
:100C600074626564206D697373696E67004D363018
:100C70003000446F6E6520736176696E6720666927
:100C80006C652E006F6B004D3239005344006C656B
:100C900066743A20000120000120004D38340047DE
:100CA00032380053657474696E67730050726570F2
:100CB000617265004E6F205344206361726400507E
:100CC00072696E742066726F6D2053440053746FA6
:100CD00070207072696E7400526573756D65207056
:100CE00072696E74005061757365207072696E74FC
:100CF0000054756E6500496E666F2073637265659A
:100D00006E0061646A757374206865696768740051
:100D100061646A75737420686569676874005370EC
:100D2000656564005370656564004D36303000437E
:100D300068616E67652066696C616D656E740046FA
:100D40006C6F7700466C6F770046616E207370653C
:100D500065640046616E2073706565640061646A55
:100D60007573742062656420686569676874004201
:100D7000656400426564004E6F7A7A6C65004E6F60
:100D80007A7A6C65004D61696E0020746F6F206C1B
:100D90006F6E6720657874727573696F6E207072FC
:100DA0006576656E7465640020636F6C6420657899
:100DB00074727573696F6E2070726576656E746596
:100DC00064006563686F3A004D3135302050313032
:100DD0000056657273696F6E3A20312E322E3200E2
:100DE000334461746F72204D61726C696E004D31D5
:100DF0003530205037005072696E74732066696E0A
:100E00006973686564005072696E74732073746FDF
:100E100070706564007072696E7474696D650053FA
:100E200074617469737469637300473238205A00BF
:100E30004D353030005A204F66667365740047396F
:100E400032205A0047333000473238005072657004
:100E50006172696E67205A204F6666736574004D33
:100E600031313720526561647920746F20436861A5
:100E70006E6765204E6F7A7A6C650047312058386E
:100E80003520463530303000473238004D3130396A
:100E90002053323030004C4544732066756C6C2012
:100EA0006F6E004C4544732066756C6C206F6666EF
:100EB0000076616C756520626C75650076616C7595
:100EC0006520677265656E0076616C756520726578
:100ED00064004C4544206272696768746E65737380
:100EE0000053657474696E6773004C4544206272E8
:100EF000696768746E657373004C4544206272695B
:100F00006768746E6573730076616C7565207265D1
:100F1000640076616C7565207265640076616C753D
:100F20006520677265656E0076616C756520677215
:100F300065656E0076616C756520626C756500761E
:100F4000616C756520626C7565005049442D4300E5
:100F50005049442D43005049442D44005049442DEC
:100F600044005049442D49005049442D49005049FE
:100F7000442D50005049442D50002002204661630A
:100F8000740020022046616374002002204D6178C5
:100F9000002002204D6178002002204D696E002063
:100FA00002204D696E004F6666004F6E20004F664E
:100FB00066004F6E200046616E20737065656400A8
:100FC00046616E2073706565640042656400426529
:100FD00064004E6F7A7A6C65004E6F7A7A6C6500A9
:100FE00053657474696E6773007C3C3E5E2B3D3FB5
:100FF0002F5B5D3B2C2A225C0053442063617264AA
:10100000206F6B006F70656E526F6F742066616940
:101010006C656400766F6C756D652E696E69742001
:101020006661696C6564004572726F723A00534480
:1010300020696E6974206661696C006563686F3A47
:101040000070012C0190012701B0012201C0011D97
:1010500001F00118011002130130020E01600209B3
:101060000190020401C002FF000003FA004003F5F2
:10107000008003F000D003EB002004E6007004E1E0
:1010800000E004DC004005D700C005D2004006CDDA
:1010900000D006C8008007C3003008BE00F008B9C1
:1010A00000C009B400B00AAF00B00BAA00D00CA574
:1010B00000000EA000500F9B00C01096005012912F
:1010C0000000148C00C0158700B0178200B0197D95
:1010D00000D01B7800001E730040206E0090226933
:1010E00000F024640040275F0090295A00E02B554F
:1010F00000102E500020304B0010324600E03341EB
:101100000090353C001037370070383200A0392D80
:1011100000B03A2800A03B2300603C1E00103D199F
:1011200000903D1400103E0F00703E0A00C03E05C6
:1011300000003F00006563686F3A004865617469AC
:101140006E67206661696C656400202D20496E76AB
:10115000616C6964206578747275646572206E755F
:101160006D6265722021001000C90210012C01403F
:1011700001220170011801B0010E01F001040150BB
:1011800002FA00B002F0003003E600D003DC009069
:1011900004D2007005C800A006BE000008B400B06C
:1011A00009AA00D00BA000600E960060118C000010
:1011B00015820020197800C01D6E00A0226400B0C6
:1011C000275A00902C500000314600E0343C0010BB
:1011D000383200903A2800603C1E00A03D14008088
:1011E0003E0A00203F0000544845524D414C2052D9
:1011F000554E4157415900546865726D616C2052DB
:10120000756E617761792C2073797374656D2073C5
:10121000746F7070656421204865617465725F4900
:10122000443A20004572723A204D415854454D5081
:10123000003A20457874727564657220737769741A
:1012400063686564206F66662E204D415854454D95
:101250005020747269676765726564202100457269
:10126000723A204D494E54454D50003A204578740D
:101270007275646572207377697463686564206F42
:1012800066662E204D494E54454D50207472696754
:1012900067657265642021004572723A204D41589D
:1012A00054454D50204245440054656D706572614F
:1012B0007475726520686561746564206265642078
:1012C0007377697463686564206F66662E204D418C
:1012D0005854454D50207472696767657265642083
:1012E0002121004572726F723A000102102020081D
:1012F0000810204010204080020102010804020171
:1013000001020408102040808040201008040201DF
:101310008004020180402010080402010804020138
:1013200001020408102040800102040810204080BF
:1013300000002200250028002B002E003100340080
:1013400002010000050108010B010505050507055F
:1013500008080808020202020A0A08080404040431
:10136000010101010101010103030303030303035D
:10137000040707070C0C0C0C0C0C0C0C02020202EC
:1013800006060606060606060B0B0B0B0B0B0B0BD5
:101390000257726974696E6720746F2066696C65A4
:1013A0003A20002E006F70656E206661696C65647E
:1013B0002C2046696C653A20002E006F70656E2007
:1013C0006661696C65642C2046696C653A2000464C
:1013D000696C652073656C6563746564002053698E
:1013E0007A653A200046696C65206F70656E6564A9
:1013F0003A20002E006F70656E206661696C65642E
:101400002C2046696C653A20004E6F772066726525
:1014100073682066696C653A20004E6F7720646FB0
:10142000696E672066696C653A20002220706F73D0
:10143000002220706172656E743A22005355425248
:101440004F5554494E452043414C4C2074617267BE
:1014500065743A2200747279696E6720746F206334
:10146000616C6C207375622D67636F6465206669BB
:101470006C6573207769746820746F6F206D616E7E
:1014800079206C6576656C732E204D4158206C6513
:1014900076656C2069733A004D3234004D3233204A
:1014A0002573006175746F25692E67004D32340015
:1014B0004D32332025730043616E6E6F7420656E6C
:1014C000746572207375626469723A2000052E2E6D
:1014D000004D61696E00580059005A0045787472D9
:1014E00075646572004578747275646572004D6F3D
:1014F0007665205A004D6F76652059004D6F7665F0
:1015000020580050726570617265004D6F766520DD
:101510006178697300436F6F6C646F776E0050720F
:1015200065686561740054656D706572617475728B
:101530006500473238004175746F20686F6D650033
:101540004D38340044697361626C65207374657052
:101550007065727300536574205A206F66667365F8
:1015600074004368616E6765204E6F7A7A6C65001F
:101570004D61696E0041626F7574005374617469E6
:101580007374696373004D6F74696F6E004C4544EA
:10159000204D656E7500526573746F7265206661CB
:1015A000696C73616665004C6F6164206D656D6F79
:1015B00072790053746F7265206D656D6F7279007A
:1015C0004D61696E006F6B004B494C4C45442E20B9
:1015D000005072696E7465722068616C7465642E67
:1015E000206B696C6C28292063616C6C6564210038
:1015F00053544F505045442E20005072696E74650C
:10160000722073746F707065642064756520746FE8
:10161000206572726F72732E204669782074686537
:10162000206572726F7220616E6420757365204D43
:1016300039393920746F20726573746172742E2089
:101640002854656D706572617475726520697320C8
:1016500072657365742E2053657420697420616609
:101660007465722072657374617274696E672900A3
:101670004572726F723A0000002A43000034430042
:101680000082430000000000000000000000000095
:1016900000000000000000000082430000A04000A5
:1016A00000A0400000004000002A43000034430036
:1016B000008243FFFF014573746570732F6D6D00E9
:1016C0004573746570732F6D6D005A737465707314
:1016D0002F6D6D005A73746570732F6D6D005973A3
:1016E000746570732F6D6D005973746570732F6D11
:1016F0006D005873746570732F6D6D005873746549
:1017000070732F6D6D00412D72657472616374008A
:10171000412D7265747261637400416D617820655A
:1017200000416D6178206500416D6178207A00414B
:101730006D6178207A00416D6178207900416D619A
:1017400078207900416D6178207800416D617820C2
:1017500078005654726176206D696E00565472613D
:1017600076206D696E00566D696E00566D696E006B
:10177000566D6178206500566D6178206500566D64
:101780006178207A00566D6178207A00566D617814
:10179000207900566D6178207900566D6178207847
:1017A00000566D617820780056652D6A65726B0071
:1017B00056652D6A65726B00567A2D6A65726B00EC
:1017C000567A2D6A65726B005678792D6A65726B50
:1017D000005678792D6A65726B00416363656C0011
:1017E000416363656C005A204F6666736574005AE6
:1017F000204F66667365740053657474696E677311
:101800000000002100240027002A002D00300033B2
:101810000001010000040107010A0100002000236B
:1018200000260029002C002F0032000001000003D8
:10183000010601090100000A0B02090C0D0E080740
:101840000304010000000000000000000000000090
:101850000000000000000000000000000000000088
:101860000012111000000000000000000000000045
:10187000000000000000000000000024F4D43050FC
:10188000C38E20C2A24017828B7011127A910D81F3
:101890006CD90AA861E108C7586607615143061E62
:1018A0004B5D05C145A7041A411104093D98037118
:1018B0003931034036DB0265339102D43054028063
:1018C0002E1D02632CEE01752AC501B028A001105F
:1018D0002781018F2564012B244B01E0223401ACC8
:1018E000211F018D200D01801FFC00841EED00973B
:1018F0001DDF00B81CD200E61BC600201BBC006424
:101900001AB200B219A8000A19A0006A189900D1E9
:1019100017910040178B00B516840031167E00B376
:101920001579003A157300C7146F0058146A00EE59
:101930001366008813630025135E00C7125B006CFA
:1019400012570015125400C111510070114F00219F
:10195000114B00D61049008D10470046104400027C
:10196000104200C00F4000800F3E00420F3C0006B6
:101970000F3B00CB0E3800930E37005C0E3500276E
:101980000E3400F30D3200C10D3100900D300060B7
:101990000D2E00320D2D00050D2C00D90C2B00AEA4
:1019A0000C2900850C29005C0C2700350C27000E43
:1019B0000C2600E80B2400C40B2400A00B23007DA0
:1019C0000B23005A0B2100390B2100180B2000F8C3
:1019D0000A1F00D90A1E00BB0A1E009D0A1D0080B6
:1019E0000A1D00630A1C00470A1B002C0A1B001179
:1019F0000A1A00F7091A00DD091900C4091900AB19
:101A0000091900920917007B091800630917004C97
:101A100009160036091600200916000A091500F5F6
:101A2000081500E0081400CC081400B8081400A43D
:101A3000081400900813007D0812006B081300586A
:101A40000812004608120034081100230811001281
:101A500008110001081100F0071000E0071000D085
:101A6000071000C0071000B0070F00A10710009179
:101A7000070E0083070F0074070F0065070E00575D
:101A8000070E0049070E003B070D002E070E002031
:101A9000070D0013070D0006070D00F9060C00EDF9
:101AA000060D00E0060C00D4060C00C8060C00BCB5
:101AB000060C00B0060C00A4060B0099060C008D65
:101AC000060B0082060B0077060B006C060B00610C
:101AD000060A0057060B004C060A0042060A0038A8
:101AE000060A002E060A0024060A001A060A00103A
:101AF00006090007060A00FD050900F4050900EBC8
:101B0000050900E2050900D9050900D0050900C74B
:101B1000050900BE050900B5050800AD050800A5CA
:101B20000509009C050800940508008C0508008440
:101B30000508007C050800740508006C05070065B1
:101B40000508005D050700560508004E050700471B
:101B50000507004005080038050700310507002A81
:101B6000050700230507001C050600160507000FE2
:101B70000507000805060002050700FB040600F53E
:101B8000040700EE040600E8040600E2040700DB98
:101B9000040600D5040600CF040600C9040600C3ED
:101BA000040600BD040600B7040600B1040500AC3D
:101BB000040600A6040600A00405009B0406009588
:101BC000040500900406008A0405008504050080D1
:101BD0000406007A04050075040500700405006B16
:101BE00004050066040500610405005C0405005757
:101BF000040500520405004D040500480405004397
:101C00000405003E0404003A0405003504050030D4
:101C10000404002C04050027040400230405001E0E
:101C20000404001A04040016040500110404000D45
:101C3000040400090405000404040000040400FC7A
:101C4000030400F8030400F4030400F0030400ECB0
:101C5000030400E8030400E4030400E0030400DCE0
:101C6000030400D8030400D4030400D0030400CC10
:101C7000030400C8030300C503030024F404D920AF
:101C80001BC40C5C0E9804C4095F0265077101F463
:101C900005F900FB04B30048048700C1036900583C
:101CA00003550003034500BE023A0084023100538D
:101CB000022A002902250004022000E4011C00C8B9
:101CC000011900AF0117009801140084011300717D
:101CD0000110006101100051010E0043010D00369A
:101CE000010B002B010B0020010B00150109000C5A
:101CF00001090003010800FB000800F3000800EBE5
:101D0000000700E4000600DE000600D8000600D24E
:101D1000000600CC000500C7000500C2000500BD9C
:101D2000000400B9000400B5000400B1000400ADD7
:101D3000000400A9000400A5000300A20003009F06
:101D40000004009B0003009800030095000200932C
:101D5000000300900003008D0002008B0003008848
:101D60000002008600020084000300810002007F60
:101D70000002007D0002007B000200790002007773
:101D80000001007600020074000200720001007180
:101D90000002006F0002006D0001006C0002006A8A
:101DA0000001006900020067000100660001006593
:101DB0000001006400020062000100610001006097
:101DC0000001005F0002005D0001005C0001005B9B
:101DD0000001005A0001005900010058000100579D
:101DE000000100560001005500010054000100539D
:101DF000000000530001005200010051000100509A
:101E00000001004F0001004E0000004E0001004D97
:101E10000001004C0001004B0000004B0001004A93
:101E2000000100490001004800000048000100478F
:101E3000000100460000004600010045000000458A
:101E40000001004400010043000000430001004283
:101E5000000000420001004100000041000100407C
:101E60000001003F0000003F0001003E0000003E76
:101E70000001003D0000003D0001003C0000003C6E
:101E80000000003C0001003B0000003B0001003A64
:101E90000000003A0001003900000039000100385C
:101EA0000000003800000038000100370000003753
:101EB0000001003600000036000000360001003549
:101EC000000000350000003500010034000000343F
:101ED0000000003400010033000000330000003334
:101EE0000001003200000032000000320001003129
:101EF000000000310000003100010030000000301F
:101F0000000000300001002F0000002F0000002F13
:101F10000000002F0001002E0000002E0000002E07
:101F20000001002D0000002D0000002D0000002DFC
:101F30000001002C0000002C0000002C0000002CF0
:101F40000001002B0000002B0000002B0000002BE4
:101F50000001002A0000002A0000002A0000002AD8
:101F600000010029000000290000002900000029CC
:101F700000000029000100280000002800000028BF
:101F800000000028000000280001002700000027B2
:101F900000000027000000270000002700010026A5
:101FA0000000002600000026000000260000002699
:101FB000000100250000002500000025000000258C
:101FC000000000250000002500010024000000247E
:101FD0000000002400000024000000240001002371
:101FE0000000002300000023000000230000002365
:101FF0000000002300000023000100220000002256
:102000000000002200000022000000220000002248
:10201000000100210000002100000021000000213B
:10202000000000210000002100000021000100202C
:102030000000002000000020000000200000002020
:102040000000002000000020000000200001001F10
:102050000000001F0000001F0000001F0000001F04
:102060000000001F0000001F0001001E0000001EF5
:102070000000001E0000001E00000043617264208A
:1020800072656D6F766564004361726420696E737A
:102090006572746564004175746F74656D7000528B
:1020A0006573656E643A200060DC5BDD11241FBE41
:1020B000CFEFD1E2DEBFCDBF00E00CBF15E0A0E066
:1020C000B2E0E8EEF1ED01E00BBF02C007900D9227
:1020D000A03BB107D9F727E1A0EBB5E001C01D9205
:1020E000AB33B207E1F710E1C5E5D0E100E006C08F
:1020F00021970109802FFE010E9476E8C435D1079F
:1021000080E00807A9F70E942FD50C94E3E80C940F
:1021100000002F923F924F925F926F927F928F9228
:102120009F92AF92BF92CF92DF92EF92FF920F9366
:102130001F93CF93DF93CDB7DEB7C756D1400FB60D
:10214000F894DEBF0FBECDBF87E40E942743F82E70
:10215000882311F40C942A190E944D430E9414E61E
:102160006C31710509F486C19CF46230710509F483
:1021700026C124F477FF3BC00C94643C63307105A6
:1021800009F426C16430710509F42EC10C94643C35
:102190006A35710509F4F9C704F56D31710509F463
:1021A000BDC26E31710511F00C94643C0E94E54093
:1021B0000E94AF8D0E94104180E090E0A1EEB4E457
:1021C0008093700290937102A0937202B093730295
:1021D0000E94A041EEEFF8E07AC76B35710509F473
:1021E000D8C76C35710509F4D9C70C94643C80914B
:1021F0009E0F81110C94643C0E9416B58EEA90E10A
:102200000E94CFB00E94BFC0609380107093811075
:1022100080938210909383108090AE109090AF10B6
:10222000A090B010B090B110CE5DDE4F8882998240
:10223000AA82BB82C252D140A501940160910D10C7
:1022400070910E1080910F10909110100E9449E132
:102250004090B2105090B3106090B4107090B510D0
:102260000091B6101091B7102091B8103091B910AC
:10227000CA5DDE4F088319832A833B83C652D1404F
:1022800081117EC0A3019201609111107091121012
:1022900080911310909114100E9449E1811170C037
:1022A00020E030E040E752E46091700270917102EA
:1022B00080917202909173020E94ABE54B015C0128
:1022C00085E19AE09F938F93EAEBCE2EE0E1DE2E3C
:1022D000CA5DDE4FE880F9800A811B81C652D14079
:1022E000A3019201CE5DDE4F688179818A819B8155
:1022F000C252D1400E94005B0F900F908091AE10AF
:102300009091AF10A091B010B091B11080930D10CA
:1023100090930E10A0930F10B09310108091B210F4
:102320009091B310A091B410B091B510809311109A
:1023300090931210A0931310B09314108091B610C4
:102340009091B710A091B810B091B910809315106A
:1023500090931610A0931710B09318108091BA1094
:102360009091BB10A091BC10B091BD10809319103A
:1023700090931A10A0931B10B0931C100C948540DE
:102380006091110270911202072E000C880B990BBC
:102390000E944FE1209170023091710240917202CF
:1023A000509173020E947FDD20E030E040E752E46C
:1023B0000E94ABE520E030E048EC52E47DCF809114
:1023C0009E0F81110C94643C0E949BB581E008C073
:1023D00080919E0F81110C94643C0E949BB580E01B
:1023E0000E9461B10C94854086E299E00E94AAD0D7
:1023F00080E50E942743882339F00E944D430E94C4
:1024000019E66B017C0103C0C12CD12C760183E558
:102410000E942743882361F00E944D4320E030E072
:102420004AE754E40E947FDD0E9419E66B017C01BB
:102430000E94AF8D0E94BFC0C60ED71EE81EF91EB7
:102440000E94BFC0609380107093811080938210AF
:10245000909383100E94BFC06C157D058E059F056B
:1024600010F00C94643C0E94A2890E94E8AE0E9485
:10247000DBD0F0CF0E942E93809170029091710278
:10248000A0917202B09173028093B4059093B50548
:10249000A093B605B093B7058091110290911202F6
:1024A0009093B3058093B20584E690E09093120276
:1024B000809311020E94BFC06093801070938110BE
:1024C000809382109093831011E010930D028091FD
:1024D0000D1090910E10A0910F10B09110108093DC
:1024E000AE109093AF10A093B010B093B110809144
:1024F000111090911210A0911310B09114108093AC
:10250000B2109093B310A093B410B093B510809113
:10251000151090911610A0911710B091181080937B
:10252000B6109093B710A093B810B093B9108091E3
:10253000191090911A10A0911B10B0911C1080934B
:10254000BA109093BB10A093BC10B093BD10109222
:10255000700210927102109272021092730288E55A
:102560000E942743882311F080E009C089E50E947A
:1025700027438111F9CF8AE50E9427438127809361
:10258000030281110C94673C8AE50E942743811164
:102590000C94673C8091030281110C946D3C88E59A
:1025A0000E94274381110C946D3C8091030281119C
:1025B0000C94733C89E50E94274381110C94733C71
:1025C00088E50E9427438823D1F00E944243672B6D
:1025D000682B692BA1F00E944D432091A2103091ED
:1025E000A3104091A4105091A5100E94CEE46093D6
:1025F0000D1070930E1080930F109093101089E5BA
:102600000E9427438823D1F00E944243672B682B06
:10261000692BA1F00E944D432091A6103091A71084
:102620004091A8105091A9100E94CEE4609311101F
:102630007093121080931310909314108AE50E94E7
:1026400027438823D1F00E944243672B682B692BD4
:10265000A1F00E944D432091AA103091AB104091FF
:10266000AC105091AD100E94CEE4609315107093A1
:102670001610809317109093181080910302811107
:102680000C94793C8AE50E94274381110C94793C93
:10269000E0901510F090161000911710109118107E
:1026A000209111103091121040911310509114107C
:1026B00060910D1070910E1080910F10909110107C
:1026C0000E94459210920D028091B4059091B5053B
:1026D000A091B605B091B7058093700290937102F6
:1026E000A0937202B09373028091B2059091B305EA
:1026F00090931202809311020E94BFC060938010D9
:1027000070938110809382109093831010921E0614
:1027100010921D0610921C060C94643C80912006B9
:10272000882321F080912106811127C084E199E05E
:102730000E94AAD0EAEEFBE08491882341F09091B8
:10274000C00095FFFCCF8093C6003196F5CFE2E044
:10275000F9E08491882341F09091C00095FFFCCF6F
:102760008093C6003196F5CF8091C00085FFFCCFE5
:102770008AE08093C6000C94643C0E94AF8D0E9456
:102780002E93CE018C5E9E4F0E94DDC9CC5EDE4F43
:10279000688179818A819B81C451D14060930D10F9
:1027A00070930E1080930F1090931010C85EDE4F40
:1027B000288139814A815B81C851D1402093111011
:1027C000309312104093131050931410C45EDE4FD8
:1027D000E880F9800A811B81CC51D140E09215102C
:1027E000F092161000931710109318100E94459243
:1027F0000E94104180E090E0A1EEB4E4809370026A
:1028000090937102A0937202B0937302E12CF12CA9
:1028100000E711E420E030E0A90160E070E080E230
:1028200091E40E948B424B015C0120E030E040EAE1
:1028300050E46091151070911610809117109091CE
:1028400018100E94CEE47B018C0120E030E042E0D1
:1028500053E460E070E08AEA92E40E948B422B012C
:102860003C0120E030E040EA50E4609115107091A6
:10287000161080911710909118100E94CEE47B01E1
:102880008C0120E030E0A90160E070E086E193E493
:102890000E948B42CE5DDE4F688379838A839B835F
:1028A000C252D1400E94EB400E942E9380E090E003
:1028B000A6E9B2ECC85FDE4F88839983AA83BB8305
:1028C000C850D140C12CD12C72E0E72E73ECF72E0A
:1028D000C45FDE4FC882D982EA82FB82CC50D140ED
:1028E000A3019201C501B4010E94CDE4C05FDE4F97
:1028F000688379838A839B83C051D140CE01885FEE
:102900009E4F0E9482CC80E090E0A2E8B2E4C450E6
:10291000DF4F88839983AA83BB83CC5FD040C050AC
:10292000DF4FC882D982EA82FB82C050D140A30126
:102930009201CE5DDE4F688179818A819B81C2528E
:10294000D1400E94CDE4CC5FDE4F688379838A83D7
:102950009B83C450D140CE0184509F4F0E9482CCB3
:10296000C85FDE4F88809980AA80BB80C850D14064
:10297000C65DDE4F88829982AA82BB82CA52D1404C
:10298000C45FDE4F488059806A807B80CC50D14044
:10299000C05FDE4F88809980AA80BB80C051D14043
:1029A000C450DF4F088119812A813B81CC5FD04020
:1029B000CA5DDE4F088319832A833B83C652D14008
:1029C000C050DF4F288139814A815B81C050D1409E
:1029D000CE5DDE4F288339834A835B83C252D14068
:1029E000CC5FDE4FC880D980EA80FB80C450D140E4
:1029F000A7019601C301B2010E947FDDC25DDE4FD7
:102A0000688379838A839B83CE52D140CE5DDE4F2B
:102A1000288139814A815B81C252D140C501B4010C
:102A20000E947FDD9B01AC01C25DDE4F6881798130
:102A30008A819B81CE52D1400E94CDE4C051DF4FAC
:102A4000688379838A839B83C05FD040CA5DDE4FF1
:102A5000288139814A815B81C652D140C501B401C8
:102A60000E947FDD4B015C01A7019601C65DDE4F30
:102A7000688179818A819B81CA52D1400E947FDD21
:102A80009B01AC01C501B4010E94CDE4CC50DF4FE5
:102A9000688379838A839B83C45FD040CE5DDE4F99
:102AA000288139814A815B81C252D140C65DDE4FA7
:102AB000688179818A819B81CA52D1400E947FDDE1
:102AC0006B017C01CA5DDE4F288139814A815B81BF
:102AD000C652D140C301B2010E947FDD9B01AC010F
:102AE000C701B6010E94CDE4C850DF4F68837983E7
:102AF0008A839B83C85FD040CE0180519F4F0E9444
:102B000082CCC051DF4FC880D980EA80FB80C05F93
:102B1000D040CC50DF4F88809980AA80BB80C45FB2
:102B2000D040C850DF4F488059806A807B80C85FA2
:102B3000D04020E030E0A901C301B2010E94FFE6CD
:102B4000A301920118160CF05058C850DF4F28838B
:102B500039834A835B83C85FD0401E0164EE260E32
:102B6000311CD101CD92DD92ED92FC921397F101CF
:102B700084829582A682B78218962D933D934D93B9
:102B80005C931B97C101CC59DE4F2883C456D140BA
:102B9000CB59DE4F3883C556D140CA59DE4F4883E2
:102BA000C656D140C959DE4F5883C756D1400E94FE
:102BB00082CCFE01E753FF4FC05EDE4FF983E8830E
:102BC000C052D14080E090E0A0E8BFE3C753DF4FA0
:102BD00088839983AA83BB83C95CD040C353DF4FEA
:102BE000188219821A821B82CD5CD040C701B601BF
:102BF0009058CC59DE4F2881C456D140CB59DE4F76
:102C00003881C556D140CA59DE4F4881C656D14099
:102C1000C959DE4F5881C756D1400E94ABE5CF520B
:102C2000DF4F688379838A839B83C15DD040CE0167
:102C300087539F4F0E9482CCD1018D909D90AD9083
:102C4000BC901397CE5DDE4F88829982AA82BB82A8
:102C5000C252D14014964D905D906D907C90179724
:102C600018968D909D90AD90BC901B97C753DF4FE9
:102C7000088119812A813B81C95CD040CA5DDE4F41
:102C8000088319832A833B83C652D140C353DF4F45
:102C9000288139814A815B81CD5CD040C65DDE4FA1
:102CA000288339834A835B83CA52D140CF52DF4F96
:102CB000C880D980EA80FB80C15DD040A701960121
:102CC000C301B2010E947FDDC25DDE4F688379835C
:102CD0008A839B83CE52D140C65DDE4F28813981E5
:102CE0004A815B81CA52D140C501B4010E947FDD97
:102CF0009B01AC01C25DDE4F688179818A819B8135
:102D0000CE52D1400E94CDE469837A838B839C8329
:102D1000CA5DDE4F288139814A815B81C652D1402C
:102D2000C501B4010E947FDD4B015C01A701960142
:102D3000CE5DDE4F688179818A819B81C252D1400C
:102D40000E947FDD9B01AC01C501B4010E94CDE46E
:102D50006D837E838F839887C65DDE4F288139819E
:102D60004A815B81CA52D140CE5DDE4F6881798154
:102D70008A819B81C252D1400E947FDD6B017C0120
:102D8000CA5DDE4F288139814A815B81C652D140BC
:102D9000C301B2010E947FDD9B01AC01C701B601F6
:102DA0000E94CDE469877A878B879C87CE01019644
:102DB0000E9482CCC753DF4F488059806A807B8055
:102DC000C95CD040C353DF4F88809980AA80BB8004
:102DD000CD5CD040CF52DF4FC880D980EA80FB80E5
:102DE000C15DD04009811A812B813C818D819E81FA
:102DF000AF81B885CE5DDE4F88839983AA83BB837C
:102E0000C252D14089859A85AB85BC85CA5DDE4FAB
:102E100088839983AA83BB83C652D140D1018D9107
:102E20009D910D90BC91A02DC65DDE4F8883998346
:102E3000AA83BB83CA52D140F10144815581668186
:102E4000778180859185A285B38540923C0250921E
:102E50003D0260923E0270923F0280924002909248
:102E60004102A0924202B0924302C0924402D09228
:102E70004502E0924602F092470200934802109306
:102E8000490220934A0230934B02CE5DDE4F888088
:102E90009980AA80BB80C252D14080924C0290920D
:102EA0004D02A0924E02B0924F02CA5DDE4F0881E1
:102EB00019812A813B81C652D14000935002109360
:102EC00051022093520230935302C65DDE4F888038
:102ED0009980AA80BB80CA52D140809254029092BD
:102EE0005502A0925602B092570240935802509356
:102EF000590260935A0270935B0280935C02909334
:102F00005D02A0935E02B0935F02CE0101960E9423
:102F1000DDC969817A818B819C8160930D107093EA
:102F20000E1080930F10909310102D813E814F81D1
:102F30005885209311103093121040931310509322
:102F40001410E0902011F0902111009122111091A5
:102F50002311E0921510F0921610009317101093A1
:102F600018100E9445920E94AF8D2FB7F89460917F
:102F700005107091061080910710909108102FBFD6
:102F80000E944FE12091491030914A1040914B101E
:102F900050914C100E94ABE56B017C0120E030E0C9
:102FA000A90160910D1070910E1080910F109091F9
:102FB00010100E94CEE4D1016D937D938D939C936C
:102FC000139720E030E0A901609111107091121068
:102FD00080911310909114100E94CEE4C753DF4FDC
:102FE000688379838A839B83C95CD0408091151064
:102FF00090911610A0911710B091181089839A83A0
:10300000AB83BC83E1E0F0E0EC0FFD1FFF93EF9397
:10301000CF5DDE4FF881C152D140FF93C05EDE4FDD
:103020008880C052D1408F923F922F920DB71EB729
:10303000045211090FB6F8941EBF0FBE0DBFADB7F5
:10304000BEB7119684E2ECE3F2E001900D928A950E
:10305000E1F70E949DCBA701960169817A818B815E
:103060009C810E94CDE42091151030911610409162
:103070001710509118100E94CEE47B018C016093D0
:1030800015107093161080931710909318100FB6A8
:10309000F894DEBF0FBECDBF2091111030911210F9
:1030A000409113105091141060910D1070910E10FA
:1030B00080910F10909110100E9445920C94643CE6
:1030C0009091C00095FFFCCF8093C600319684910B
:1030D0008111F6CFE9EFF8E08491882341F09091D7
:1030E000C00095FFFCCF8093C6003196F5CF60916C
:1030F0000D1070910E1080910F109091101042E001
:103100000E949C81E4EFF8E08491882341F0909143
:10311000C00095FFFCCF8093C6003196F5CF60913B
:10312000111070911210809113109091141042E0C0
:103130000E949C81EFEEF8E08491882341F0909109
:10314000C00095FFFCCF8093C6003196F5CF60910B
:10315000151070911610809117109091181042E080
:103160000E949C81EDEEF8E08491882341F09091DB
:10317000C00095FFFCCF8093C6003196F5CF0E942A
:10318000EB400E94DF400C94643C109290100C9431
:10319000643C81E0809390100C94643C85E40E9430
:1031A0002743811102C00E94AF8D34E8632E33E0C3
:1031B000732E4DE0A42E40E1B42E52EA852E50E14C
:1031C000952ED12CD3018D913D010E942743882358
:1031D000A9F1B3E0DB120AC00E944D43F501608300
:1031E0007183828393830E94EFD128C00E944D4354
:1031F000D4012D913D914D915C910E94CEE4F50159
:103200006083718382839383E0901510F090161091
:103210000091171010911810209111103091121078
:10322000409113105091141060910D1070910E1078
:1032300080910F10909110100E944592D394F4E069
:10324000AF0EB11C04E0800E911C14E0D112BACF75
:103250000C94643C8DE40E942743882311F40C9461
:10326000953B0E944D430E9414E66937710511F4A5
:103270000C94AA2B0CF0CAC06A32710509F4F0C58F
:103280000CF058C06731710509F470C294F56231D1
:10329000710511F40C94AE29F4F477FF02C00C947C
:1032A000643C623071050CF4A9C16131710511F003
:1032B0000C94643C84EC98E00E94AAD05F988A98B1
:1032C0009FB7F894809108018E7F809308019FBF7B
:1032D00012980C94643C6531710509F43DC20CF000
:1032E0003FC26431710511F00C94643CE4EBF8E0EA
:1032F000EAC16B31710509F478C23CF4693171059A
:1033000009F45BC20CF448C262C26E31710509F463
:10331000F2C234F46C31710509F4BBC20C94643C04
:103320006F31710509F41CC56032710509F483C45D
:103330000C94643C6A36710511F40C9495296CF573
:103340006435710511F40C94AE2974F4623571057D
:1033500011F40C94A52914F00C94A929603371057B
:1033600009F4C9C50C94643C6C35710511F40C94D6
:10337000122A3CF46535710511F40C94F7290C946C
:10338000643C6836710511F40C94A1266936710508
:1033900011F40C94D4260C94643C6237710511F43A
:1033A0000C94CC2ABCF46D36710511F40C94C12731
:1033B0006037710511F40C94C1266B36710511F05C
:1033C0000C94643C83E50E94274380E00E94F34C08
:1033D0000C94643C6537710511F40C94B82A4CF4D4
:1033E0006337710511F00C94643CE6E0F6E00C9450
:1033F000B32A6737710509F4FDC06837710511F00C
:103400000C94643C10920D020C94643C6C3221E0EC
:10341000720711F40C9475300CF068C0693C7105AA
:1034200011F40C94162E5CF56939710511F40C94A5
:10343000AC2C8CF46639710511F40C94572C683956
:10344000710511F40C949C2C6C38710511F00C94DE
:10345000643C0C94C3266B39710511F40C943C2D1B
:1034600014F40C94D02C6E3B710511F40C948A2842
:10347000683C710511F40C946D2D0C94643C6E3C09
:10348000710511F40C94D02EC4F46C3C710511F448
:103490000C944E2E14F00C94702E6B3C710511F0B0
:1034A0000C94643C60E0E62E61E1F62E04E813E043
:1034B00074E0D72ED00E0C943F2E6D3D710511F4A3
:1034C0000C94FF2E3CF46C3D710511F40C94EE2E1F
:1034D0000C94643C623E710511F40C94292F683100
:1034E000714011F40C94882F0C94643C693951E0BC
:1034F000750711F40C945A36A4F5623791E07907F8
:1035000011F40C94BE3584F46E32B1E07B0711F4F3
:103510000C946E3114F40C94A7306F32714011F496
:103520000C9483310C94643C613901E0700711F410
:103530000C942A364CF46039714011F00C94643CC0
:103540000E94AF8D0C94643C623931E0730711F432
:103550000C942D366839714011F40C9430360C946B
:10356000643C673F51E0750711F40C94633694F4A2
:10357000653F91E0790711F40C945D3614F00C94DA
:103580006036643F714011F00C94643C0E94624BC1
:103590000C94643C6335E3E07E0711F40C943A39F3
:1035A0003CF46835724011F40C940A3A0C94643C73
:1035B000603A13E0710709F49EC3673E734011F04F
:1035C0000C94643C10929E0F1092011780919910F8
:1035D00090919A10A0919B10B0919C1080939D1097
:1035E00090939E10A0939F10B093A0100E9401D5BD
:1035F0000C94643CE7EAF3E00C94B52B8CED98E076
:103600000E94AAD080E50E942743882339F00E94B7
:103610004D430E9419E66B017C0103C0C12CD12CE3
:10362000760183E50E942743882361F00E944D4381
:1036300020E030E04AE754E40E947FDD0E9419E672
:103640006B017C010E94AF8D0E94BFC0609380100F
:10365000709381108093821090938310C114D104D1
:10366000E104F104F1F00E94BFC0C60ED71EE81EAF
:10367000F91E0E94BFC06C157D058E059F0530F0B8
:103680008DEC98E00E94AAD00C94643C80911F06B7
:1036900082FDF6CF0E94A2890E94E8AE0E94DBD094
:1036A000E8CF80911F0682FDEBCF0E94A2890E9485
:1036B000E8AE0E94DBD0F5CF9091C00095FFFCCF23
:1036C0008093C600319684918111F6CF8091C0001D
:1036D00085FFFCCF8AE08093C6001092960F10926F
:1036E000950F40E050E0BA0180E49DE00E943D77F4
:1036F0008BE1E0E4FDE0DE01159601900D928A95E4
:10370000E1F780913E0D90913F0D9C838B8380E388
:1037100093E09A838983BE016F5F7F4F89EE94E0C7
:103720000E9419D2CE0101960E9440ADE6EAF8E06F
:103730008491882341F09091C00095FFFCCF809345
:10374000C6003196F5CF8091C00085FFFCCF8AE09E
:103750008093C6000C94643C0E9434820C94643CB8
:1037600010920F0D1092100D0C94643C0091B00556
:103770001091B1050C5F1F4F6AE270E0C8010E9412
:10378000ABE8009711F0DC011C9241E061E0C80158
:103790000E94288F0C94643C8091100D882319F0AE
:1037A00081E080930F0D80911002882311F40C9416
:1037B000643C0E94BBAD0C94643C80910F0D882347
:1037C00011F40C94643C10920F0D0C94643C8091A5
:1037D000100D882311F40C94643C83E50E94274368
:1037E00081110C94953C0C94643C8091100D8823BD
:1037F00009F439C0EBECF1E08491882341F0909119
:10380000C00095FFFCCF8093C6003196F5CF609144
:10381000900F7091910F8091920F9091930F4AE0C9
:103820000E941581E9ECF1E08491882341F09091A8
:10383000C00095FFFCCF8093C6003196F5CF609114
:10384000880F7091890F80918A0F90918B0F4AE0B9
:103850000E9415818091C00085FFFCCF8AE0809393
:10386000C6000C94643CEDEDF1E08491882341F0B6
:103870009091C00095FFFCCF8093C6003196F5CFA4
:103880008091C00085FFFCCF8AE08093C6000C9435
:10389000643C8091B0059091B1056AE270E00496B5
:1038A0000E94ABE88C01892BD9F02091ED09309171
:1038B000EE0940E6429FC001439F900D11246EE443
:1038C00070E0835D994F0E94ABE860E270E00E9477
:1038D000ABE801969093B1058093B005F801108292
:1038E0008091B0059091B10541E060E004960E949E
:1038F000288F0C94643C8091100D882311F40C9453
:10390000643C8BED9EE00E94FA768BED9EE00E9477
:10391000767810920D0D10920E0D8091B005909159
:10392000B1056AE270E004960E94ABE88C01892B35
:10393000D9F02091ED093091EE0940E6429FC00197
:10394000439F900D11246EE470E0835D994F0E94B7
:10395000ABE860E270E00E94ABE801969093B1059D
:103960008093B005D8011C920091B0051091B1056B
:103970008091100D882311F40C94643C5801B4E03C
:10398000AB0EB11C8BED9EE00E94767810920F0D6D
:103990001D8218861C821B8280E393E09A838983B0
:1039A0008CE39DE090935C0D80935B0DF801848126
:1039B0008F3209F091C06FE270E0C5010E94ABE860
:1039C0008C010F5F1F4F2AE0E22E9E012F5F3F4FB9
:1039D00049010115110509F485C06FE270E0C801C5
:1039E0000E94ABE86C01009709F47DC00817190725
:1039F00008F079C03C01601A710AA301B801CE0138
:103A000087539F4F0E94D4E8E9ECF0E0EC0FFD1FD4
:103A1000E60DF71D10828E0107531F4FF8018191AB
:103A2000882339F09091C00095FFFCCF8093C600A9
:103A3000F6CF8091C00085FFFCCFE092C600609178
:103A40005B0D70915C0D6115710511F06C5F7F4F1E
:103A500021E0AE0147535F4FCE0105960E94597E8B
:103A6000811132C0E7E1F2E08491882371F09091F6
:103A7000C00095FFFCCF8093C6003196F5CF9091A2
:103A8000C00095FFFCCF8093C600D8018D918D01B9
:103A90008111F5CFE5E1F2E08491882341F0909126
:103AA000C00095FFFCCF8093C6003196F5CF809182
:103AB000C00085FFFCCF8AE08093C600CE0101964E
:103AC0000E9440AD0C94643C90925C0D80925B0D22
:103AD00086010F5F1F4F7DCF8DE59DE090935C0DBC
:103AE00080935B0D850160915B0D70915C0D61159C
:103AF000710511F06C5F7F4FC753DF4F1882C95CAF
:103B0000D040C453DF4F1882CC5CD04022E0A801E3
:103B1000CE0187539F4F0E94597E882359F1CE01D1
:103B200087539F4F0E94968E882321F1CB52DF4FFF
:103B3000688179818A819B81C55DD04041E00E9486
:103B4000FD688823B9F0C752DF4FE881C95DD040D6
:103B5000B0E2EB9FF0011124E15EF54F309751F098
:103B600085EE8083C453DF4F1882CC5CD0400E9426
:103B7000BD68F82ECE0187539F4F0E946A48FF20F0
:103B800041F1E7E0F2E08491882341F09091C00098
:103B900095FFFCCF8093C6003196F5CFF801819157
:103BA000882339F09091C00095FFFCCF8093C60028
:103BB000F6CF8091C00085FFFCCF8AE08093C600DD
:103BC0001092900F1092910F1092920F1092930FEB
:103BD0002CC0EFEEF1E08491882341F09091C00079
:103BE00095FFFCCF8093C6003196F5CFF801819107
:103BF000882339F09091C00095FFFCCF8093C600D8
:103C0000F6CFEDEEF1E08491882341F09091C00071
:103C100095FFFCCF8093C6003196F5CF8091C00010
:103C200085FFFCCF8AE08093C600CE0101960E94FA
:103C300040AD0C94643C80910F0D81110E94AF8DBA
:103C40000091B0051091B1050C5F1F4F6AE270E062
:103C5000C8010E94ABE87C0161E270E0C8010E94EB
:103C6000ABE8009719F08C010F5F1F4FE114F104CE
:103C700011F0F701108280E50E942743F82E809111
:103C8000B0059091B1050817190708F4F12C80913F
:103C9000100D882311F40C94643C41E04F2561E041
:103CA000C8010E94288F83E50E9427438823B9F02A
:103CB0008091B0059091B1058017910780F40E9422
:103CC0004243AB01BC014093900F5093910F60931E
:103CD000920F7093930F8BED9EE00E943D77809141
:103CE000100D882319F081E080930F0DFF2009F457
:103CF0005ACD0C94643C8091B0059091B1056AE274
:103D000070E005960E94ABE88C01892BD9F02091D8
:103D1000ED093091EE0940E6429FC001439F900DAE
:103D200011246EE470E0835D994F0E94ABE860E27D
:103D300070E00E94ABE801969093B1058093B005C6
:103D4000D8011C928091B0059091B10521E020939B
:103D50000E0D41E060E005960E94288F0C94643CB3
:103D60000E94BFC00091290610912A0620912B06BF
:103D700030912C06601B710B820B930B28EE33E005
:103D800040E050E00E9470E4CA01B9012CE330E049
:103D900040E050E00E9470E47F936F933F932F9335
:103DA00087E998E09F938F938E010F5F1F4F1F93BA
:103DB0000F930E941AE1EAEEFBE094910FB6F8949B
:103DC000DEBF0FBECDBFEAEEFBE0992349F0809144
:103DD000C00085FFFCCF9093C60031969491F5CF3B
:103DE000F8018191882339F09091C00095FFFCCFB4
:103DF0008093C600F6CF8091C00085FFFCCF8AE09B
:103E00008093C600C8010E94CCD08091160A8823F6
:103E100011F40C94643C1092160A0091150A10E0FB
:103E2000000F111F055E154FD8016D917C91072E73
:103E3000000C880B990B0E944FE1209135023091C4
:103E4000360240913702509138020E94FFE6181660
:103E500014F00C94643CF801118210820C94643CC0
:103E600083E50E942743882311F40C94643C0E944C
:103E70004D430E9414E6F62EE72E862F9E2D8C01D0
:103E800080E50E942743882331F00F3F110509F098
:103E900010F40C94A53C0DE010E0E4E9F2E081910F
:103EA00091918017910771F022E0EC3CF207B9F78D
:103EB0000930110549F48F2D9E2D9093180A809397
:103EC000170A02C00FEF1FEF8091170A0E94F34CF0
:103ED00017FF02C00C94643C61E0802F0E9484BFF5
:103EE0006F2D802F0E94B3BE6F2D7E2D802F0E94DC
:103EF000C0BF0C94643C86E50E94274381110C945A
:103F0000AB3C86E70E94274381110C94AB3C2224F2
:103F10002394312C03C021143104D1F0E8E4F8E0FB
:103F20008491882341F09091C00095FFFCCF80934D
:103F3000C6003196F5CFE4E1F8E08491882341F0A2
:103F40009091C00095FFFCCF8093C6003196F5CFCD
:103F50008EE60E9427438823F1F00E944D430E9481
:103F600014E6C85BDE4F79836883C854D14064503F
:103F700071096F327105B8F0EDEEF7E08491882396
:103F800011F40C94643C9091C00095FFFCCF809399
:103F9000C6003196F3CF4AE050E0C85BDE4F59834C
:103FA0004883C854D14080E00E94928DC65CDE4FA9
:103FB0006883CA53D140C25CDE4F7883CE53D14070
:103FC000CE5BDE4F8883C254D140C45BDE4F988302
:103FD000CC54D14081E00E94928DC05BDE4F68835B
:103FE000C055D140CE5ADE4F7883C255D140CA5A0F
:103FF000DE4F8883C655D140C85ADE4F9883C855D6
:10400000D14082E00E94928D82E00E94928D6B01ED
:104010007C0183E00E94928DCE5CDE4F68837983C1
:104020008A839B83C253D14085E40E942743811138
:104030000C94C23C85E60E94274381110C94C23C3B
:10404000CC5ADE4F19821882C455D14088E50E94AF
:10405000274381112EC088E70E942743811129C080
:10406000C65CDE4F5881CA53D140CE5DDE4F5883C7
:10407000C252D140C25CDE4F6881CE53D140CA5D8E
:10408000DE4F6883C652D140CE5BDE4F8881C2547A
:10409000D140C65DDE4F8883CA52D140C45BDE4F3B
:1040A0009881CC54D140C25DDE4F9883CE52D1402E
:1040B0003DC00E944D43CE5DDE4F6883C252D14069
:1040C000CA5DDE4F7883C652D140C65DDE4F88831D
:1040D000CA52D140C25DDE4F9883CE52D14020E01B
:1040E00030E0A9010E9449E187FF02C00C94CC3C5A
:1040F00020E030E04AE253E4CE5DDE4F6881C252F8
:10410000D140CA5DDE4F7881C652D140C65DDE4FD8
:104110008881CA52D140C25DDE4F9881CE52D140D3
:104120000E94FFE6181614F40C94CC3C89E50E941A
:10413000274381112EC089E70E942743811129C09E
:10414000C05BDE4FA881C055D140CA5CDE4FA8835A
:10415000C653D140CE5ADE4FB881C255D140C95C5A
:10416000DE4FB883C753D140CA5ADE4FE881C655E7
:10417000D140C85CDE4FE883C853D140C85ADE4FF7
:10418000F881C855D140C75CDE4FF883C953D14090
:104190003DC00E944D43CA5CDE4F6883C653D14088
:1041A000C95CDE4F7883C753D140C85CDE4F88833B
:1041B000C853D140C75CDE4F9883C953D14020E03B
:1041C00030E0A9010E9449E187FF02C00C94DA3C6B
:1041D00020E030E044E353E4CA5CDE4F6881C6531C
:1041E000D140C95CDE4F7881C753D140C85CDE4FF7
:1041F0008881C853D140C75CDE4F9881C953D140F4
:104200000E94FFE6181614F40C94DA3C8CE40E9429
:10421000274381110C94E83C8CE60E9427438111CE
:104220000C94E83CCA5BDE4F19821882C654D14018
:1042300020E030E040E751E4C701B6010E94CEE43F
:104240002B013C010E94AF8D0E942E93CE5CDE4F6D
:10425000288139814A815B81C253D14029833A83C5
:104260004B835C8385E19AE09F938F93812C912C03
:1042700000EFA02E01E4B02EAE014F5F5F4F6A0148
:1042800083017201C05BDE4F2881C055D140CE5AF8
:10429000DE4F3881C255D140CA5ADE4F4881C655DB
:1042A000D140C85ADE4F5881C855D140C65CDE4F58
:1042B0006881CA53D140C25CDE4F7881CE53D14071
:1042C000CE5BDE4F8881C254D140C45BDE4F988103
:1042D000CC54D1400E94005B0E94AF8D0F900F9094
:1042E00053E0251631040CF0FAC0CE5CDE4F888115
:1042F0009981AA81BB81C253D14089839A83AB83C0
:10430000BC83A5E1BAE0BF93AF93812C912C18EC4C
:10431000A12E12E4B12E8E010F5F1F4F68018301A1
:104320007201CA5CDE4F2881C653D140C95CDE4FA2
:104330003881C753D140C85CDE4F4881C853D14053
:10434000C75CDE4F5881C953D140CE5DDE4F6881D6
:10435000C252D140CA5DDE4F7881C652D140C65D9F
:10436000DE4F8881CA52D140C25DDE4F9881CE5265
:10437000D1400E94005B0E94AF8D80E00E94928D30
:1043800060930D1070930E1080930F109093101087
:1043900081E00E94928D60931110709312108093AF
:1043A00013109093141082E00E94928D6093151068
:1043B00070931610809317109093181083E00E944A
:1043C000928D6B017C016093191070931A10809389
:1043D0001B1090931C100E94E5400E9410410E9407
:1043E000A04182E00E94928D609315107093161088
:1043F000809317109093181082E00E94928D20E015
:1044000030E040E751E40E94CEE4CE5BDE4F6883AB
:1044100079838A839B83C254D140C982DA82EB823A
:10442000FC82A5E1BAE0BF93AF938E010F5F1F4FEF
:104430006801CE5BDE4FE880F9800A811B81C2549F
:10444000D140CA5CDE4F2881C653D140C95CDE4FE3
:104450003881C753D140C85CDE4F4881C853D14032
:10446000C75CDE4F5881C953D140CE5DDE4F6881B5
:10447000C252D140CA5DDE4F7881C652D140C65D7E
:10448000DE4F8881CA52D140C25DDE4F9881CE5244
:10449000D1400E94005B0E94AF8D82E00E94928D0D
:1044A000C45BDE4F688379838A839B83CC54D1407D
:1044B0006093151070931610809317109093181036
:1044C0000F900F900F900F90CC5ADE4F28813981BA
:1044D000C455D140232B81F00E94DF400DC0E0EC99
:1044E000F3E08191882309F400CF9091C00095FFFB
:1044F000FCCF8093C600F5CFAE014F5F5F4FCE5A21
:10450000DE4F59834883C255D14081E090E0A0E05E
:10451000B0E0C25CDE4F88839983AA83BB83CE530D
:10452000D140CA5BDE4FA881B981C654D1401197F2
:10453000C85ADE4FB983A883C855D140C85BDE4F47
:1045400088809980C854D140092C000CAA08BB0867
:10455000C45ADE4F88829982AA82BB82CC55D14050
:10456000C25CDE4F08811981CE53D1400150110940
:10457000C05BDE4F19830883C055D140CE5BDE4F50
:10458000E880F9800A811B81C254D140CA5CDE4FA9
:104590002881C653D140C95CDE4F3881C753D14012
:1045A000C85CDE4F4881C853D140C75CDE4F58819C
:1045B000C953D140CE5DDE4F6881C252D140CA5D41
:1045C000DE4F7881C652D140C65DDE4F8881CA5227
:1045D000D140C25DDE4F9881CE52D1400E943C4115
:1045E000CA5BDE4F28813981C654D140232B09F4A0
:1045F000C0C10E94BFC0AB0141705527CA5ADE4FEF
:1046000059834883C655D1400E94BFC02AE230E09A
:1046100040E050E00E9470E40E944DE14B015C01DB
:104620000E94BFC028E631E040E050E00E9470E404
:104630000E944DE122EE3EE245E652E40E94ABE5E7
:10464000C65CDE4F688379838A839B83CA53D140DB
:10465000C12CD12CC85ADE4F28813981C855D14090
:10466000C216D3060CF053C1CA5ADE4F8881998115
:10467000C655D1400197E9F40E94BFC024E130E063
:1046800040E050E00E9470E40E944DE122EE3EE2E4
:1046900045E652E40E94ABE59B01AC01C65CDE4FEF
:1046A000688179818A819B81CA53D1400E94CEE47E
:1046B0001CC00E94BFC024E130E040E050E00E94F6
:1046C00070E40E944DE122EE3EE245E652E40E9493
:1046D000ABE59B01AC01C65CDE4F688179818A81C4
:1046E0009B81CA53D1400E94CDE4C65CDE4F6883F3
:1046F00079838A839B83CA53D1400E94BFC02AE03A
:1047000030E040E050E00E9470E46550710981099A
:1047100091090E944FE19B01AC01C501B4010E94C7
:10472000CEE44B015C0120E030E0A9010E9449E1A8
:1047300087FF04C0B7FAB094B7F8B094C65CDE4FF8
:10474000688179818A819B81CA53D1400E94A8E502
:10475000A50194010E947FDD9B01AC01CE5DDE4F7F
:104760006881C252D140CA5DDE4F7881C652D140C5
:10477000C65DDE4F8881CA52D140C25DDE4F98814E
:10478000CE52D1400E94CEE42B013C01C65CDE4FEC
:10479000688179818A819B81CA53D1400E94DFE779
:1047A000A50194010E947FDD9B01AC01CA5CDE4F34
:1047B0006881C653D140C95CDE4F7881C753D14070
:1047C000C85CDE4F8881C853D140C75CDE4F9881FA
:1047D000C953D1400E94CEE4CE5CDE4F688379831A
:1047E0008A839B83C253D14020E030E0A901C301FA
:1047F000B2010E9449E187FD11C020E030E04AE2A9
:1048000053E4C301B2010E94FFE6181654F4412C90
:10481000512CBAE26B2EB3E47B2E03C0412C512CF9
:10482000320120E030E0A901CE5CDE4F6881798161
:104830008A819B81C253D1400E9449E187FD1DC0FE
:1048400020E030E044E353E4CE5CDE4F68817981C0
:104850008A819B81C253D1400E94FFE61816ACF4B6
:1048600000E010E024E333E4CE5CDE4F08831983DC
:104870002A833B83C253D14008C0CE5CDE4F1882EE
:1048800019821A821B82C253D14014E021163104CE
:1048900031F5B301A20189E697E00E944848CE5C59
:1048A000DE4F488159816A817B81C253D14085E6C0
:1048B00097E00E944848E4E6F7E08491882341F0BD
:1048C0009091C00095FFFCCF8093C6003196F5CF44
:1048D0008091C00085FFFCCFFAE0F093C600C45B76
:1048E000DE4FE880F9800A811B81CC54D140CE5C38
:1048F000DE4F288139814A815B81C253D140C30197
:10490000B2010E943C410FEFC01AD00AA3CECE5B89
:10491000DE4FE880F9800A811B81C254D140CA5C15
:10492000DE4F2881C653D140C95CDE4F3881C75362
:10493000D140C85CDE4F4881C853D140C75CDE4FD0
:104940005881C953D140CE5DDE4F6881C252D140FB
:10495000CA5DDE4F7881C652D140C65DDE4F888188
:10496000CA52D140C25DDE4F9881CE52D1400E94E2
:104970003C41CC5ADE4F48815981C455D140452B2A
:1049800041F00E94E54068EE73E080E090E00E9414
:1049900087C00E9410410E94A04180911510909103
:1049A0001610A0911710B0911810CE5ADE4FE88162
:1049B000F981C255D14081939193A193B193CE5A7D
:1049C000DE4FF983E883C255D1408E010F5F1F4F40
:1049D000580100E010E0C12CD12C7601D5012D91B9
:1049E0003D914D915D915D01C701B6010E94CEE4FC
:1049F0006B017C010F5F1F4FC05BDE4F8880998089
:104A0000C055D140801691064CF7C25CDE4FA8809D
:104A1000B980CE53D140B501BB0C880B990B0E94D5
:104A20004FE14B015C019B01AC01C701B6010E9443
:104A3000ABE5CE5CDE4F688379838A839B83C25368
:104A4000D1408E010F5F1F4F380100E010E0C12CF4
:104A5000D12C7601D3016D917D918D919D913D0178
:104A6000CE5CDE4F288139814A815B81C253D140BF
:104A70000E94CDE49B01AC010E947FDD9B01AC0153
:104A8000C701B6010E94CEE46B017C010F5F1F4F8E
:104A9000C05BDE4FE881F981C055D140E017F107D6
:104AA000CCF6A50194010E94ABE50E94EAE72B0138
:104AB0003C01F2E02F1631040CF466C0C25CDE4FFC
:104AC000688179818A819B81CE53D1400E948A81FD
:104AD000E1EEF3E08191882339F09091C00095FFD9
:104AE000FCCF8093C600F6CFC45ADE4F688179812F
:104AF0008A819B81CC55D1400E948A81EDE5F7E007
:104B00008491882341F09091C00095FFFCCF809361
:104B1000C6003196F5CF60911510709116108091F6
:104B200017109091181046E00E949C8102E0201618
:104B3000310409F482C0E6EEF3E08191882339F074
:104B40009091C00095FFFCCF8093C600F6CF46E061
:104B5000CE5CDE4F688179818A819B81C253D140CE
:104B60000E949C81EEEEF3E08191882339F09091D0
:104B7000C00095FFFCCF8093C600F6CF46E0C3018E
:104B8000B2010E949C8159C02114310409F055C022
:104B900085E19AE09F938F93812C912CF0EFAF2EBB
:104BA000F1E4BF2EA9E1CA2EA0E1DA2ECE5BDE4FE2
:104BB000E880F9800A811B81C254D140CA5CDE4F73
:104BC0002881C653D140C95CDE4F3881C753D140DC
:104BD000C85CDE4F4881C853D140C75CDE4F588166
:104BE000C953D140CE5DDE4F6881C252D140CA5D0B
:104BF000DE4F7881C652D140C65DDE4F8881CA52F1
:104C0000D140C25DDE4F9881CE52D1400E94005B00
:104C10000E94AF8D0F900F90CC5ADE4F28813981C2
:104C2000C455D140232BB9F00E94DF4068EE73E0F9
:104C300080E090E00E9487C00EC0EBE5F7E0849131
:104C4000882309F4A5CF9091C00095FFFCCF8093F5
:104C5000C6003196F4CFC25CDE4F88819981AA816B
:104C6000BB81CE53D1400196A11DB11DC25CDE4F68
:104C700088839983AA83BB83CE53D140C25CDE4F25
:104C800088819981CE53D1400197C85BDE4FA881BE
:104C9000B981C854D1408A179B070CF461CC0E949B
:104CA000DF4068EE73E080E090E00E9487C00E94E1
:104CB000EB40232819F4EDE3F7E02CC0E4E5F7E03E
:104CC0008491882341F09091C00095FFFCCF8093A0
:104CD000C6003196F5CF46E0CE5CDE4F6881798123
:104CE0008A819B81C253D1400E949C81E2E5F7E01A
:104CF0008491882301F39091C00095FFFCCF8093AD
:104D0000C6003196F5CF9091C00095FFFCCF8093FF
:104D1000C600319684918111F6CF46E0C301B201FD
:104D20000E949C81EAE3F7E08491882311F40C94BB
:104D3000643C9091C00095FFFCCF8093C6003196F3
:104D4000F3CF88E690E00E94E2AD81110C94643CC0
:104D500083E50E942743882381F01091A1100E94CF
:104D60004D43212F30E0220F331F8901055E154F7F
:104D70000E9414E6F801718360830E94DF870C941F
:104D8000643C0E94AAAE83E50E942743882311F465
:104D90000C94643C0E944D430E9414E670931A0ADE
:104DA0006093190A0C94643C89E690E00E94E2AD9D
:104DB00081110C94643CE4E3F7E08491882341F092
:104DC0009091C00095FFFCCF8093C6003196F5CF3F
:104DD000E091A11004E0E09FF0011124EC50F64FA7
:104DE000608171818281938141E00E949C81E1E335
:104DF000F7E08491882341F09091C00095FFFCCFAB
:104E00008093C6003196F5CFE091A110F0E0EE0F4F
:104E1000FF1FE55EF54F60817181072E000C880B46
:104E2000990B0E944FE141E00E949C81EDE2F7E086
:104E30008491882341F09091C00095FFFCCF80932E
:104E4000C6003196F5CF60912306709124068091BB
:104E500025069091260641E00E949C81EAE2F7E057
:104E60008491882341F09091C00095FFFCCF8093FE
:104E7000C6003196F5CF6091190A70911A0A072E73
:104E8000000C880B990B0E944FE141E00E949C812D
:104E9000E7E2F7E08491882341F09091C00095FF0C
:104EA000FCCF8093C6003196F5CF60E070E0CB0177
:104EB0000E948A81E5E2F7E08491882341F0909195
:104EC000C00095FFFCCF8093C6003196F5CF60916E
:104ED000F4097091F5098091F6099091F70941E084
:104EE0000E949C81E2E2F7E08491882341F0909156
:104EF000C00095FFFCCF8093C6003196F5CF60913E
:104F00001B0A70911C0A072E000C880B990B0E943B
:104F10004FE141E00E949C81EEE1F7E0849188231B
:104F200041F09091C00095FFFCCF8093C600319670
:104F3000F5CFE091A110F0E0EF55F04F608170E007
:104F400080E090E00E948A81E9E1F7E08491882383
:104F500041F09091C00095FFFCCF8093C600319640
:104F6000F5CF6091A00F70E080E090E00E948A8110
:104F70008091C00085FFFCCF8AE08093C6000C942E
:104F8000854002E028E040E064E18FEF0E94654D3B
:104F90008DE690E00E94E2AD81110C94643C8EE0BD
:104FA00097E00E94AAD01092160A83E50E94274338
:104FB0008823A1F01091A1100E944D43212F30E0D1
:104FC000220F331F8901055E154F0E9414E6D80198
:104FD0006D937C9381E08093020217C082E50E946A
:104FE0002743882391F01091A1100E944D43212F57
:104FF00030E0220F331F8901055E154F0E9414E631
:10500000F801718360831092020283E50E942743B6
:10501000882351F00E944D4360933502709336020D
:10502000809337029093380282E40E9427438823BA
:1050300051F00E944D43609331027093320280938D
:1050400033029093340286E40E942743882369F058
:105050000E944D4360932D0270932E0280932F0285
:105060009093300281E08093160A0E94DF870E94AD
:10507000BFC04B015C010091A11010E0F801EE0FE0
:10508000FF1FE55EF54F60817181072E000C880BD4
:10509000990B0E944FE1000F111F000F111FF80123
:1050A000EC50F64F11E020813181428153810E9402
:1050B000FFE618160CF010E01093B8051092F809EE
:1050C000CC24CA94DC2C7601B3E02B2EB7E03B2E27
:1050D00018EE412E13E0512E612C712C8091F809AD
:1050E00081110C94393EBFEFCB16DB06EB06FB06B5
:1050F00011F40C94163DF7FE02C00C94393E0E9448
:10510000BFC06C197D096031774210F40C94163DD4
:105110000C94393E02E028E040E064E18FEF0E9409
:10512000654D88EE96E00E94AAD083E50E94274351
:10513000882361F00E944D430E9414E670931A0A7E
:105140006093190A81E0809302020FC082E50E94F9
:105150002743882351F00E944D430E9414E6709328
:105160001A0A6093190A109202020E94BFC04B01F2
:105170005C011092F8096091190A70911A0A072EC1
:10518000000C880B990B0E944FE111E0209123063F
:105190003091240640912506509126060E94FFE694
:1051A00018160CF010E01093B80505EE16E091EE1D
:1051B000E92E96E0F92E2DEDC22E26E0D22E3AE011
:1051C000732E8091B8056091190A70911A0A88238C
:1051D00009F484C08091F809811180C0072E000C69
:1051E000880B990B0E944FE12091230630912406F1
:1051F00040912506509126060E94FFE618160CF0F5
:1052000084C00E94BFC0DC01CB0188199909AA099A
:10521000BB09893E9340A105B10508F458C0E0914F
:10522000150A24E0E29FF0011124EC50F64F608152
:10523000718182819381F8012491E5EEF6E02223C9
:1052400049F03091C00035FFFCCF2093C600319665
:105250002491F5CF42E00E949C81F7018491E1EE18
:10526000F6E0882349F09091C00095FFFCCF809331
:10527000C60031968491F5CF6091150A70E080E008
:1052800090E00E948A81F6018491EDEDF6E088239A
:1052900049F09091C00095FFFCCF8093C6003196F5
:1052A0008491F5CF609123067091240680912506A4
:1052B0009091260641E00E949C818091C00085FF6C
:1052C000FCCF7092C6000E94BFC04B015C010E94DF
:1052D000A2890E94E8AE0E94DBD073CF072E000C9B
:1052E000880B990B0E944FE12091230630912406F0
:1052F00040912506509126060E9449E187FF05C08E
:1053000080910202882309F47CCF83ED96E00E940D
:10531000AAD00E94BFC060938010709381108093C8
:105320008210909383100C94643C83E50E94274381
:10533000882331F00E944D430E9419E6862F01C058
:105340008FEF0E94F34C0C94643C109294100C94D8
:10535000643C81E0809394100C94643C83E50E944B
:1053600027438823A1F00E944D4320E030E04AE724
:1053700054E40E947FDD0E9419E6609360027093FE
:10538000610280936202909363020C94643C88E50E
:105390000E94274381110C944D3E89E50E942743CA
:1053A00081110C944D3E8AE50E94274381110C9493
:1053B0004D3E85E40E94274381110C944D3E0E948E
:1053C000AF8D129A0E94AF8D5F9A109220068A9A32
:1053D000109221069FB7F894809108018160809314
:1053E00008019FBF10922206129A0C94643C83E538
:1053F0000E942743882311F40C94643C0E944D437F
:1054000020E030E04AE754E40E947FDD0E9419E684
:1054100060939510709396108093971090939810C6
:105420000C94643CB4E88B2EB3E09B2E01E410E1B5
:1054300080E0A82E81E1B82E24E731E1CE5DDE4F79
:1054400039832883C252D140312CD4018D914D0132
:105450000E942743882309F466C0B3E03B125CC076
:105460000E944D432B013C0120E030E040EA51E432
:105470000E9449E187FF49C0A3019201F8016081C0
:105480007181828193810E94ABE56B017C019B015C
:10549000AC016091101170911111809112119091D5
:1054A00013110E947FDD609310117093111180938E
:1054B000121190931311A7019601D5016D917D9161
:1054C0008D919C910E947FDDF501608371838283C1
:1054D0009383CE5DDE4FA881B981C252D1406D91D8
:1054E0007D918D919C910E944DE1A70196010E94B2
:1054F0007FDD0E9419E6CE5DDE4FE881F981C25260
:10550000D1406083718382839383D8014D925D92F1
:105510006D927C92139707C00E944D43F8016083FF
:1055200071838283938333940C5F1F4FF4E0AF0E3B
:10553000B11CCE5DDE4F28813981C252D1402C5F33
:105540003F4FCE5DDE4F39832883C252D14034E0D5
:1055500033127BCF0C94643C9091C00095FFFCCF3C
:105560008093C600319684918111F6CF0C94643CEF
:105570000091B0051091B1050B5F1F4F6AE270E01A
:10558000C8010E94ABE8009711F0DC011C92C80131
:105590000E94CCD00C94643CE3E0F6E08491882334
:1055A00041F09091C00095FFFCCF8093C6003196EA
:1055B000F5CF60910D1070910E1080910F109091A9
:1055C000101042E00E949C81EFEFF5E08491882367
:1055D00041F09091C00095FFFCCF8093C6003196BA
:1055E000F5CF60911110709112108091131090916D
:1055F000141042E00E949C81EBEFF5E08491882337
:1056000041F09091C00095FFFCCF8093C600319689
:10561000F5CF609115107091161080911710909130
:10562000181042E00E949C81E7EFF5E08491882306
:1056300041F09091C00095FFFCCF8093C600319659
:10564000F5CF6091191070911A1080911B109091F4
:105650001C1042E00E949C81ECEEF5E084918823CE
:1056600041F09091C00095FFFCCF8093C600319629
:10567000F5CF2FB7F8946091FD0F7091FE0F8091D8
:10568000FF0F909100102FBF0E944FE12091411019
:105690003091421040914310509144100E94ABE56C
:1056A00042E00E949C81E8EEF5E08491882341F07D
:1056B0009091C00095FFFCCF8093C6003196F5CF46
:1056C0002FB7F8946091011070910210809103102F
:1056D000909104102FBF0E944FE12091451030910E
:1056E000461040914710509148100E94ABE542E0AF
:1056F0000E949C81E4EEF5E08491882341F0909132
:10570000C00095FFFCCF8093C6003196F5CF2FB730
:10571000F894609105107091061080910710909197
:1057200008102FBF0E944FE12091491030914A107C
:1057300040914B1050914C100E94ABE542E00E940A
:105740009C818091C00085FFFCCF8AE08093C600D9
:105750000C94643C81E080930D020C94643C909125
:10576000C00095FFFCCF8093C60081918111F7CFD7
:105770008091C00085FFFCCF8AE08093C600ECEDED
:10578000F5E08491882341F09091C00095FFFCCF13
:105790008093C6003196F5CF659B03C0E8E9F3E03E
:1057A00009C0EDE9F3E006C09091C00095FFFCCF81
:1057B0008093C60081918111F7CF8091C00085FF51
:1057C000FCCF8AE08093C600E4EDF5E08491882365
:1057D00041F09091C00095FFFCCF8093C6003196B8
:1057E000F5CF8091030181FF03C0E8E9F3E009C030
:1057F000EDE9F3E006C09091C00095FFFCCF8093E7
:10580000C60081918111F7CF8091C00085FFFCCF48
:105810008AE08093C600ECECF5E08491882341F0A7
:105820009091C00095FFFCCF8093C6003196F5CFD4
:105830004B9B03C0E8E9F3E009C0EDE9F3E006C0E3
:105840009091C00095FFFCCF8093C600819181119B
:10585000F7CF8091C00085FFFCCF8AE08093C6001F
:10586000E4ECF5E08491882341F09091C00095FF2D
:10587000FCCF8093C6003196F5CF4A9B03C0E8E980
:10588000F3E009C0EDE9F3E006C09091C00095FF98
:10589000FCCF8093C60081918111F7CF8091C00029
:1058A00085FFFCCF8AE08093C6000C94643C82E5BF
:1058B0000E942743882331F00E944D430E9419E63D
:1058C000162F01C010E085E50E942743882331F0A0
:1058D0000E944D430E9419E6F62E01C0F12C82E48D
:1058E0000E942743882331F00E944D430E9419E60D
:1058F000E62E01C0E12C80E50E942743882331F089
:105900000E944D430E9419E6D62E02C0A3E0DA2E73
:1059100083E40E942743882329F00E944D430E947C
:1059200019E601C060E0062F2D2D4E2D6F2D812F21
:105930000E94654D0C94643C83E50E9427438823B4
:1059400031F00E944D430E9419E6862F01C080E08D
:105950000E94D74C0C94643C83E50E942743882323
:1059600029F00E944D430E9419E601C061E084E0E5
:10597000CC59DE4F6883C456D1400E940B8184E02D
:1059800090E00E94A980CC59DE4F6881C456D14076
:1059900085E79CE00E945BBE0E94AE800C94643C54
:1059A00086E40E942743882331F00E944D430E94E1
:1059B00019E6D62E01C0D12C84E50E942743882306
:1059C00031F00E944D430E9419E6E62E01C0E12C01
:1059D00082E50E942743882331F00E944D430E94B4
:1059E00019E6F62E01C0F12C85E50E942743882395
:1059F00031F00E944D430E9419E6062F01C000E0DD
:105A000082E40E942743882331F00E944D430E9484
:105A100019E6162F01C010E084E00E940B8183E09C
:105A200090E00E94A98083E090E00E94A9806D2D03
:105A300085E79CE00E945BBE6E2D85E79CE00E949E
:105A40005BBE6F2D85E79CE00E945BBE602F85E703
:105A50009CE00E945BBE612F85E79CE00E945BBEDC
:105A60000E94AE8040912302609122028091210227
:105A70000E94354D0C94643C86E40E9427438823A1
:105A800031F00E944D430E9419E6062F01C000E04C
:105A900084E50E942743882331F00E944D430E94F1
:105AA00019E6162F01C010E084E00E940B8183E00C
:105AB00090E00E94A98084E090E00E94A980602F7D
:105AC00085E79CE00E945BBE612F85E79CE00E9419
:105AD0005BBE0E94AE800C94643C84E40E94274329
