:100000000C9456100C9487100C9487100C94871045
:100010000C9487100C9487100C9487100C94871004
:100020000C9487100C9487100C9487100C948710F4
:100030000C9487100C9432590C9487100C948710F0
:100040000C9487100C944BBC0C9487100C94871064
:100050000C9487100C9487100C94D6610C94EB5A76
:100060000C9487100C946E480C9487100C94871095
:100070000C9487100C9487100C9487100C948710A4
:100080000C94659E0C9487100C9487100C94871028
:100090000C9487100C9487100C9487100C94355B8B
:1000A0000C9487100C9487100C94379E0C94871036
:1000B0000C9487100C9487100C9487100C94099E54
:1000C0000C9487100C9487100C9487100C94871054
:1000D0000C9487100C9487100C9487100C94871044
:1000E0000C94871051575457435747574D578B57C8
:1000F00058575C57625766576A5770577457785706
:100100008B577E5782578657075A0C5A115A1B5ADB
:10011000255A9E5A2F5A375A3F5A495A535A5D5AAE
:100120006C5A765A9E5A805A8A5A945A3662456256
:10013000616270628A629962B362B762B962BD62DB
:10014000C562084AD73B3BCE016E84BCBFFDC12FC0
:100150003D6C74319ABD56833DDA3D00C77F11BEB8
:10016000D9E4BB4C3E916BAAAABE000000803F05BB
:10017000A84CCDB2D44EB93836A9020C50B99186EC
:1001800088083CA6AAAA2ABE000000803F004E4173
:100190004E494E495459494E46CDCCCC3D0AD72301
:1001A0003C17B7D13877CC2B329595E6241FB14F49
:1001B0000A000020410000C84200401C4620BCBE8E
:1001C0004CCA1B0E5AAEC59D742F0053442070724A
:1001D000696E74696E67206279746520004E6F7471
:1001E000205344207072696E74696E67002E00445B
:1001F000656C6574696F6E206661696C65642C203E
:1002000046696C653A200046696C652064656C65DA
:100210007465643A002E006F70656E206661696CCB
:1002200065642C2046696C653A20005049442041A1
:1002300075746F74756E652066696E697368656440
:10024000212050757420746865206C617374204B94
:10025000702C204B6920616E64204B6420636F6EAC
:100260007374616E74732066726F6D2061626F7655
:100270006520696E746F20436F6E66696775726181
:1002800074696F6E2E6800504944204175746F7414
:10029000756E65206661696C6564212074696D65A1
:1002A0006F75740020403A006F6B20543A006F6BFA
:1002B00020423A00504944204175746F74756E6550
:1002C000206661696C6564212054656D706572619A
:1002D0007475726520746F6F206869676800204BC1
:1002E000643A2000204B693A2000204B703A2000ED
:1002F00020436C617373696320504944200020548B
:10030000753A2000204B753A2000206D61783A2024
:1003100000206D696E3A200020643A200020626956
:1003200061733A20002044002049002020204D33F2
:1003300030312050005049442073657474696E67F1
:10034000733A00205A0020590020204D32303620C8
:100350005800486F6D65206F666673657420286D60
:100360006D293A00204500205A0020580020420004
:1003700020540020204D32303520530041647661F6
:100380006E636564207661726961626C65733A20A0
:10039000533D4D696E206665656472617465202801
:1003A0006D6D2F73292C20543D4D696E2074726140
:1003B00076656C20666565647261746520286D6D74
:1003C0002F73292C20423D6D696E696D756D207308
:1003D00065676D656E742074696D6520286D73297D
:1003E0002C20583D6D6178696D756D205859206AD3
:1003F00065726B20286D6D2F73292C20205A3D6D5E
:100400006178696D756D205A206A65726B20286D60
:100410006D2F73292C2020453D6D6178696D756DB8
:100420002045206A65726B20286D6D2F732900208E
:10043000540020204D323034205300416363656CFA
:1004400065726174696F6E3A20533D616363656CD8
:1004500065726174696F6E2C20543D7265747261AF
:10046000637420616363656C65726174696F6E00AB
:10047000204500205A0020590020204D32303120E4
:1004800058004D6178696D756D20416363656C65D9
:10049000726174696F6E20286D6D2F7332293A0076
:1004A000204500205A0020590020204D32303320B2
:1004B00058004D6178696D756D206665656472617F
:1004C00074657320286D6D2F73293A002045002034
:1004D0005A0020590020204D3932205800537465AD
:1004E00070732070657220756E69743A0065636878
:1004F0006F3A002200556E6B6E6F776E20636F6DE2
:100500006D616E643A2022004368616E6765206603
:10051000696C616D656E74005A204F666673657410
:10052000203A20007A5F6D61783A20007A5F6D6929
:100530006E3A20005A204F6666736574005A204F49
:100540006666736574206F6B0046696C616D656EDD
:100550007420646574656374696F6E206E6F7420B7
:10056000547269676765726564202866696C616D9D
:10057000656E742070726573656E74290046696CCF
:10058000616D656E7420646574656374696F6E2057
:1005900054726967676572656420286E6F206669AA
:1005A0006C616D656E742900526573756D696E6757
:1005B000207072696E7400656D707479696E672061
:1005C000626564007A5F6D61783A20007A5F6D69D8
:1005D0006E3A2000795F6D696E3A2000785F6D6930
:1005E0006E3A2000205A3A0020593A0020436F7595
:1005F0006E7420583A200020453A00205A3A0020D4
:10060000593A00583A004649524D574152455F4EBB
:10061000414D453A4D61726C696E2056313B205315
:100620007072696E7465722F6772626C206D61738F
:1006300068757020666F722067656E362046495275
:100640004D574152455F55524C3A68747470733A35
:100650002F2F6769746875622E636F6D2F457269FD
:100660006B5A616C6D2F4D61726C696E2F20505208
:100670004F544F434F4C5F56455253494F4E3A31BA
:100680002E30204D414348494E455F545950453A1C
:10069000334461746F722045585452554445525F3B
:1006A000434F554E543A3120555549443A30303035
:1006B00030303030302D303030302D303030302D43
:1006C000303030302D30303030303030303030302D
:1006D000300A0042656420646F6E652E0020423A45
:1006E0000020453A00543A00426564204865617430
:1006F000696E672E0048656174696E6720646F6E6D
:10070000652E0020573A0020453A00543A004865CB
:100710006174696E672E2E2E002042403A00204000
:100720003A00202F003A00205400202F0020423AA7
:1007300000202F006F6B20543A000A0A00537461A6
:100740006E6461726420446576696174696F6E3AA3
:1007500020000A004D65616E3A20000A002020202A
:100760007A3A200000793A2000783A20003F53700E
:1007700065636966696564206E756D626572206F78
:1007800066206C65677320696E206D6F76656D6598
:100790006E74206E6F7420706C61757361626C652D
:1007A0002E0A003F537065636966696564205920AD
:1007B000706F736974696F6E206F7574206F662037
:1007C00072616E67652E0A003F53706563696669E2
:1007D0006564205820706F736974696F6E206F753F
:1007E00074206F662072616E67652E0A003F537039
:1007F000656369666965642073616D706C652073FB
:10080000697A65206E6F7420706C61757361626CBB
:10081000652E0A0046756C6C20737570706F72746B
:100820002061743A20687474703A2F2F33647072A8
:10083000696E74626F6172642E636F6D2F666F7282
:10084000756D2E7068700A004D3438205A2D507224
:100850006F6265205265706561746162696C69746C
:100860007920746573742E20202056657273696F29
:100870006E20322E30300A003F566572626F73650B
:10088000204C6576656C206E6F7420706C6175739A
:1008900061626C652E0A002569206D696E2C202529
:1008A000692073656300456E642066696C65206C21
:1008B00069737400426567696E2066696C65206CB7
:1008C000697374004E6F206D6F76652E00526573EC
:1008D000756D696E67207072696E74005761697416
:1008E00020666F7220757365722E2E2E000A00200E
:1008F0005A3A200020593A200020583A20004265F8
:100900006400486F6D6520582F59206265666F72CC
:1009100065205A00486F6D6520582F592062656622
:100920006F7265205A00536C6565702E2E2E005331
:10093000657474696E67732053746F7265640053D5
:10094000746F7265642073657474696E6773207266
:1009500065747269657665640048617264636F648A
:1009600065642044656661756C74205365747469B0
:100970006E6773204C6F61646564002200656E7160
:100980007565696E6720220063616E6E6F74206505
:100990006E71756575652C20627566666572206678
:1009A000756C6C2022002200656E717565696E673A
:1009B00020220063616E6E6F7420656E71756575BF
:1009C000652C206275666665722066756C6C2022E7
:1009D000004D38340053544F505045442E200050A1
:1009E00072696E7465722073746F707065642064D0
:1009F000756520746F206572726F72732E20466960
:100A00007820746865206572726F7220616E642050
:100A1000757365204D39393920746F207265737490
:100A20006172742E202854656D70657261747572E0
:100A3000652069732072657365742E205365742078
:100A40006974206166746572207265737461727472
:100A5000696E6729006F6B004E6F204C696E6520D0
:100A60004E756D626572207769746820636865638E
:100A70006B73756D2C204C617374204C696E653AF4
:100A800020004E6F20436865636B73756D20776936
:100A90007468206C696E65206E756D6265722C20BD
:100AA0004C617374204C696E653A2000636865631D
:100AB0006B73756D206D69736D617463682C204C68
:100AC000617374204C696E653A20004C696E652034
:100AD0004E756D626572206973206E6F74204C6173
:100AE0007374204C696E65204E756D6265722B3192
:100AF0002C204C617374204C696E653A20004D3196
:100B00003130000A00207A3A200020793A20002073
:100B1000783A2000426564002020506C616E6E655A
:100B20007242756666657242797465733A20002078
:100B300046726565204D656D6F72793A200041758A
:100B400067202033203230313700436F6D70696C7D
:100B500065643A200028334461746F7220476D62E7
:100B6000482900207C20417574686F723A2000414A
:100B7000756720203320323031372030383A323117
:100B80003A343200204C617374205570646174658E
:100B9000643A2000312E322E32004D61726C696E43
:100BA0000020536F667477617265205265736574B7
:100BB00000205761746368646F67205265736574C1
:100BC000002042726F776E206F75742052657365D6
:100BD00074002045787465726E616C20526573658F
:100BE0007400506F7765725570006563686F3A00E6
:100BF0007374617274006572726F722077726974B7
:100C0000696E6720746F2066696C6500656E647339
:100C1000746F7073206869743A205A00205A3A0041
:100C2000656E6473746F7073206869743A2059003C
:100C300020593A00656E6473746F7073206869742C
:100C40003A20580020583A00656E6473746F7073D0
:100C5000206869743A20006563686F3A00486561EE
:100C600074626564206D697373696E67004D363018
:100C70003000446F6E6520736176696E6720666927
:100C80006C652E006F6B004D3239007C3C3E5E2B54
:100C90003D3F2F5B5D3B2C2A225C0000002100249D
:100CA0000027002A002D003000330001010000045D
:100CB0000107010A01000020002300260029002C62
:100CC000002F0032000001000003010601090100AD
:100CD000000A0B02090C0D0E0807030401000000B6
:100CE0000000000000000000000000000000000004
:100CF00000000000000000000000001211100000C1
:100D000000000000000000000000000000000000E3
:100D1000000000000070012C0190012701B00122A9
:100D200001C0011D01F00118011002130130020E73
:100D3000016002090190020401C002FF000003FAF1
:100D4000004003F5008003F000D003EB002004E630
:100D5000007004E100E004DC004005D700C005D2CB
:100D6000004006CD00D006C8008007C3003008BE92
:100D700000F008B900C009B400B00AAF00B00BAA77
:100D800000D00CA500000EA000500F9B00C01096D4
:100D9000005012910000148C00C0158700B017821B
:100DA00000B0197D00D01B7800001E730040206E3B
:100DB0000090226900F024640040275F0090295AC7
:100DC00000E02B5500102E500020304B0010324612
:100DD00000E033410090353C001037370070383266
:100DE00000A0392D00B03A2800A03B2300603C1E33
:100DF00000103D1900903D1400103E0F00703E0A97
:100E000000C03E0500003F00006563686F3A00487F
:100E1000656174696E67206661696C656400202D88
:100E200020496E76616C69642065787472756465BA
:100E300072206E756D6265722021001000C902106B
:100E4000012C014001220170011801B0010E01F0D6
:100E50000104015002FA00B002F0003003E600D0B5
:100E600003DC009004D2007005C800A006BE00009C
:100E700008B400B009AA00D00BA000600E96006074
:100E8000118C000015820020197800C01D6E00A092
:100E9000226400B0275A00902C500000314600E038
:100EA000343C0010383200903A2800603C1E00A00C
:100EB0003D1400803E0A00203F0000544845524D3A
:100EC000414C2052554E4157415900546865726D4E
:100ED000616C2052756E617761792C20737973741F
:100EE000656D2073746F707065642120486561744E
:100EF00065725F49443A20004572723A204D41586C
:100F000054454D50003A20457874727564657220DE
:100F10007377697463686564206F66662E204D413F
:100F20005854454D50207472696767657265642036
:100F300021004572723A204D494E54454D50003AB9
:100F4000204578747275646572207377697463687C
:100F50006564206F66662E204D494E54454D5020E5
:100F60007472696767657265642021004572723A20
:100F7000204D415854454D50204245440054656D24
:100F8000706572617475726520686561746564204E
:100F9000626564207377697463686564206F666650
:100FA0002E204D415854454D502074726967676535
:100FB000726564202121004572726F723A005800F8
:100FC00059005A00457874727564657200457874EA
:100FD0007275646572004D6F7665205A004D6F76AC
:100FE000652059004D6F766520580050726570611C
:100FF0007265004D6F7665206178697300436F6F8D
:101000006C646F776E00507265686561740054653A
:101010006D70657261747572650047323800417594
:10102000746F20686F6D65004D38340044697361DA
:10103000626C6520737465707065727300536574BB
:10104000205A206F6666736574004368616E676539
:10105000204E6F7A7A6C65004D61696E0041626F57
:1010600075740053746174697374696373004D6FB0
:1010700074696F6E004C4544204D656E7500526575
:1010800073746F7265206661696C73616665004C8C
:101090006F6164206D656D6F72790053746F726556
:1010A000206D656D6F7279004D61696E004D31354F
:1010B00030205031300056657273696F6E3A2031BE
:1010C0002E322E3200334461746F72204D61726C87
:1010D000696E004D313530205037005072696E74A2
:1010E000732066696E6973686564005072696E7416
:1010F000732073746F70706564007072696E7474BD
:10110000696D650053746174697374696373004732
:101110003238205A004D353030005A204F66667301
:10112000657400473932205A00473330004732385F
:1011300000507265706172696E67205A204F666652
:101140007365740053442063617264206F6B006F99
:1011500070656E526F6F74206661696C65640076AD
:101160006F6C756D652E696E6974206661696C655A
:1011700064004572726F723A00534420696E69745C
:10118000206661696C006563686F3A005344006CC7
:101190006566743A20000120000120004D383400BB
:1011A0004732380053657474696E67730050726516
:1011B00070617265004E6F20534420636172640059
:1011C0005072696E742066726F6D205344005374C0
:1011D0006F70207072696E7400526573756D652052
:1011E0007072696E74005061757365207072696EFB
:1011F000740054756E6500496E666F207363726586
:10120000656E0061646A75737420686569676874E7
:101210000061646A75737420686569676874005357
:1012200070656564005370656564004D363030004C
:101230004368616E67652066696C616D656E7400F8
:10124000466C6F7700466C6F770046616E20737056
:101250006565640046616E20737065656400616455
:101260006A757374206265642068656967687400D4
:1012700042656400426564004E6F7A7A6C65004E88
:101280006F7A7A6C65004D61696E00010210202052
:1012900008081020401020408002010201080402CA
:1012A0000101020408102040808040201008040240
:1012B0000180040201804020100804020108040299
:1012C000010102040810204080010204081020409F
:1012D0008000002200250028002B002E0031003461
:1012E0000002010000050108010B010505050507C5
:1012F0000508080808020202020A0A080804040491
:1013000004010101010101010103030303030303BC
:1013100003040707070C0C0C0C0C0C0C0C0202024B
:101320000206060606060606060B0B0B0B0B0B0B3E
:101330000B0257726974696E6720746F2066696C5E
:10134000653A20002E006F70656E206661696C65DD
:10135000642C2046696C653A20002E006F70656E23
:10136000206661696C65642C2046696C653A2000D2
:1013700046696C652073656C656374656400205311
:10138000697A653A200046696C65206F70656E6504
:10139000643A20002E006F70656E206661696C658E
:1013A000642C2046696C653A20004E6F7720667287
:1013B0006573682066696C653A20004E6F7720641B
:1013C0006F696E672066696C653A20002220706F35
:1013D00073002220706172656E743A220053554288
:1013E000524F5554494E452043414C4C2074617234
:1013F0006765743A2200747279696E6720746F2091
:1014000063616C6C207375622D67636F6465206621
:10141000696C6573207769746820746F6F206D61E3
:101420006E79206C6576656C732E204D4158206C6A
:101430006576656C2069733A004D3234004D323365
:10144000202573006175746F25692E670020746F05
:101450006F206C6F6E6720657874727573696F6E3C
:101460002070726576656E7465640020636F6C64CD
:1014700020657874727573696F6E20707265766519
:101480006E746564006563686F3A004D31313720D2
:10149000526561647920746F204368616E676520CE
:1014A0004E6F7A7A6C6500473120583835204635C2
:1014B00030303000473238004D313039205332302F
:1014C00030004C4544732066756C6C206F6E004C88
:1014D0004544732066756C6C206F66660076616C9F
:1014E000756520626C75650076616C756520677244
:1014F00065656E0076616C756520726564004C45AB
:1015000044206272696768746E6573730053657412
:1015100074696E6773004C45442062726967687431
:101520006E657373004C4544206272696768746E1F
:101530006573730076616C75652072656400766111
:101540006C7565207265640076616C7565206772E4
:1015500065656E0076616C756520677265656E0005
:1015600076616C756520626C75650076616C756579
:1015700020626C7565005049442D43005049442D4C
:1015800043005049442D44005049442D44005049E3
:10159000442D49005049442D49005049442D5000E4
:1015A0005049442D500020022046616374002002FF
:1015B0002046616374002002204D617800200220E3
:1015C0004D6178002002204D696E002002204D6997
:1015D0006E004F6666004F6E20004F6666004F6ECD
:1015E000200046616E2073706565640046616E2060
:1015F00073706565640042656400426564004E6F07
:101600007A7A6C65004E6F7A7A6C650053657474F3
:10161000696E6773004B494C4C45442E2000507254
:10162000696E7465722068616C7465642E206B69E4
:101630006C6C28292063616C6C6564210053544FE5
:10164000505045442E20005072696E7465722073AC
:10165000746F707065642064756520746F206572A6
:10166000726F72732E2046697820746865206572E7
:10167000726F7220616E6420757365204D3939393F
:1016800020746F20726573746172742E2028546503
:101690006D7065726174757265206973207265730F
:1016A00065742E20536574206974206166746572B8
:1016B0002072657374617274696E67290045727275
:1016C0006F723A0000002A43000034430000824356
:1016D000000000000000000000000000000000000A
:1016E00000000000000082430000A0400000A04075
:1016F0000000004000002A43000034430000824301
:10170000FFFF014573746570732F6D6D0045737431
:101710006570732F6D6D005A73746570732F6D6DE6
:10172000005A73746570732F6D6D00597374657012
:10173000732F6D6D005973746570732F6D6D005844
:1017400073746570732F6D6D005873746570732FAB
:101750006D6D00412D7265747261637400412D726C
:1017600065747261637400416D6178206500416D3C
:101770006178206500416D6178207A00416D617863
:10178000207A00416D6178207900416D617820797F
:1017900000416D6178207800416D617820780056B5
:1017A00054726176206D696E005654726176206DB8
:1017B000696E00566D696E00566D696E00566D61FA
:1017C00078206500566D6178206500566D6178203F
:1017D0007A00566D6178207A00566D617820790024
:1017E000566D6178207900566D6178207800566DCD
:1017F000617820780056652D6A65726B0056652DFC
:101800006A65726B00567A2D6A65726B00567A2D86
:101810006A65726B005678792D6A65726B0056782E
:10182000792D6A65726B00416363656C0041636387
:10183000656C005A204F6666736574005A204F66C7
:10184000667365740053657474696E67730024F47D
:10185000D43050C38E20C2A24017828B7011127AEE
:10186000910D816CD90AA861E108C75866076151DA
:1018700043061E4B5D05C145A7041A411104093DED
:101880009803713931034036DB0265339102D4305D
:101890005402802E1D02632CEE01752AC501B0286A
:1018A000A001102781018F2564012B244B01E02228
:1018B0003401AC211F018D200D01801FFC00841E0E
:1018C000ED00971DDF00B81CD200E61BC600201BF0
:1018D000BC00641AB200B219A8000A19A0006A1864
:1018E0009900D117910040178B00B516840031166E
:1018F0007E00B31579003A157300C7146F005814B1
:101900006A00EE1366008813630025135E00C71299
:101910005B006C12570015125400C1115100701178
:101920004F0021114B00D61049008D104700461082
:10193000440002104200C00F4000800F3E00420FE2
:101940003C00060F3B00CB0E3800930E37005C0EB8
:101950003500270E3400F30D3200C10D3100900D1B
:101960003000600D2E00320D2D00050D2C00D90C1D
:101970002B00AE0C2900850C29005C0C2700350CCF
:1019800027000E0C2600E80B2400C40B2400A00B3B
:1019900023007D0B23005A0B2100390B2100180B6B
:1019A0002000F80A1F00D90A1E00BB0A1E009D0A6B
:1019B0001D00800A1D00630A1C00470A1B002C0A38
:1019C0001B00110A1A00F7091A00DD091900C409E1
:1019D0001900AB091900920917007B091800630967
:1019E00017004C09160036091600200916000A09CE
:1019F0001500F5081500E0081400CC081400B8081C
:101A00001400A4081400900813007D0812006B084D
:101A10001300580812004608120034081100230869
:101A200011001208110001081100F0071000E00772
:101A30001000D0071000C0071000B0070F00A1076A
:101A4000100091070E0083070F0074070F00650751
:101A50000E0057070E0049070E003B070D002E072A
:101A60000E0020070D0013070D0006070D00F906F4
:101A70000C00ED060D00E0060C00D4060C00C806B4
:101A80000C00BC060C00B0060C00A4060B00990666
:101A90000C008D060B0082060B0077060B006C060F
:101AA0000B0061060A0057060B004C060A004206AE
:101AB0000A0038060A002E060A0024060A001A0642
:101AC0000A001006090007060A00FD050900F405D2
:101AD0000900EB050900E2050900D9050900D00558
:101AE0000900C7050900BE050900B5050800AD05D8
:101AF0000800A50509009C050800940508008C0550
:101B00000800840508007C050800740508006C05C1
:101B10000700650508005D050700560508004E052D
:101B20000700470507004005080038050700310594
:101B300007002A050700230507001C0506001605F7
:101B400007000F0507000805060002050700FB0453
:101B50000600F5040700EE040600E8040600E204AF
:101B60000700DB040600D5040600CF040600C90404
:101B70000600C3040600BD040600B7040600B10455
:101B80000500AC040600A6040600A00405009B04A2
:101B9000060095040500900406008A0405008504EB
:101BA0000500800406007A04050075040500700431
:101BB00005006B04050066040500610405005C0473
:101BC000050057040500520405004D0405004804B3
:101BD0000500430405003E0404003A0405003504F2
:101BE0000500300404002C0405002704040023042D
:101BF00005001E0404001A04040016040500110464
:101C000004000D0404000904050004040400000499
:101C10000400FC030400F8030400F4030400F003D0
:101C20000400EC030400E8030400E4030400E00300
:101C30000400DC030400D8030400D4030400D00330
:101C40000400CC030400C8030300C503030024F40C
:101C500004D9201BC40C5C0E9804C4095F026507FC
:101C60007101F405F900FB04B30048048700C103C7
:101C700069005803550003034500BE023A00840280
:101C8000310053022A002902250004022000E40149
:101C90001C00C8011900AF0117009801140084014D
:101CA0001300710110006101100051010E00430189
:101CB0000D0036010B002B010B0020010B0015015C
:101CC00009000C01090003010800FB000800F300F3
:101CD0000800EB000700E4000600DE000600D80064
:101CE0000600D2000600CC000500C7000500C200B7
:101CF0000500BD000400B9000400B5000400B100F7
:101D00000400AD000400A9000400A5000300A20027
:101D100003009F0004009B0003009800030095004F
:101D2000020093000300900003008D0002008B006E
:101D30000300880002008600020084000300810086
:101D400002007F0002007D0002007B00020079009B
:101D500002007700010076000200740002007200A9
:101D60000100710002006F0002006D0001006C00B4
:101D700002006A00010069000200670001006600BD
:101D800001006500010064000200620001006100C2
:101D90000100600001005F0002005D0001005C00C6
:101DA00001005B0001005A000100590001005800C9
:101DB00001005700010056000100550001005400C9
:101DC00001005300000053000100520001005100C7
:101DD0000100500001004F0001004E0000004E00C5
:101DE00001004D0001004C0001004B0000004B00C1
:101DF00001004A00010049000100480000004800BD
:101E000001004700010046000000460001004500B7
:101E100000004500010044000100430000004300B1
:101E200001004200000042000100410000004100AA
:101E30000100400001003F0000003F0001003E00A3
:101E400000003E0001003D0000003D0001003C009C
:101E500000003C0000003C0001003B0000003B0093
:101E600001003A0000003A0001003900000039008A
:101E70000100380000003800000038000100370081
:101E80000000370001003600000036000000360078
:101E9000010035000000350000003500010034006D
:101EA0000000340000003400010033000000330063
:101EB0000000330001003200000032000000320058
:101EC000010031000000310000003100010030004D
:101ED000000030000000300001002F0000002F0043
:101EE00000002F0000002F0001002E0000002E0037
:101EF00000002E0001002D0000002D0000002D002C
:101F000000002D0001002C0000002C0000002C001F
:101F100000002C0001002B0000002B0000002B0013
:101F200000002B0001002A0000002A0000002A0007
:101F300000002A00010029000000290000002900FB
:101F400000002900000029000100280000002800EE
:101F500000002800000028000000280001002700E1
:101F600000002700000027000000270000002700D5
:101F700001002600000026000000260000002600C8
:101F800000002600010025000000250000002500BB
:101F900000002500000025000000250001002400AD
:101FA00000002400000024000000240000002400A1
:101FB0000100230000002300000023000000230094
:101FC0000000230000002300000023000100220085
:101FD0000000220000002200000022000000220079
:101FE000000022000100210000002100000021006B
:101FF000000021000000210000002100000021005D
:10200000010020000000200000002000000020004F
:102010000000200000002000000020000000200040
:1020200001001F0000001F0000001F0000001F0033
:1020300000001F0000001F0000001F0001001E0024
:1020400000001E0000001E0000001E000000436192
:1020500072642072656D6F766564004361726420FE
:10206000696E736572746564004D3234004D3233AD
:102070002025730043616E6E6F7420656E74657207
:10208000207375626469723A2000052E2E004D613E
:10209000696E004175746F74656D7000526573658B
:1020A0006E643A20006F6B004ADC45DD11241FBED0
:1020B000CFEFD1E2DEBFCDBF00E00CBF15E0A0E066
:1020C000B2E0ECEBF1ED01E00BBF02C007900D9226
:1020D000A03BB107D9F727E1A0EBB5E001C01D9205
:1020E000AB33B207E1F710E1C5E5D0E100E006C08F
:1020F00021970109802FFE010E9460E8C435D107B5
:1021000080E00807A9F70E9419D50C94CDE80C943B
:1021100000002F923F924F925F926F927F928F9228
:102120009F92AF92BF92CF92DF92EF92FF920F9366
:102130001F93CF93DF93CDB7DEB7C756D1400FB60D
:10214000F894DEBF0FBECDBF87E40E942743F82E70
:10215000882311F40C942A190E944D430E94FEE535
:102160006C31710509F486C19CF46230710509F483
:1021700026C124F477FF3BC00C94643C63307105A6
:1021800009F426C16430710509F42EC10C94643C35
:102190006A35710509F4F9C704F56D31710509F463
:1021A000BDC26E31710511F00C94643C0E94E54093
:1021B0000E94E0690E94104180E090E0A1EEB4E44A
:1021C0008093740290937502A0937602B093770285
:1021D0000E94A041EEEFF8E07AC76B35710509F473
:1021E000D8C76C35710509F4D9C70C94643C80914B
:1021F000560A81110C94643C0E9413B482E091E170
:102200000E94CCAF0E94DF5A6093AE0A7093AF0A6F
:102210008093B00A9093B10A8090021190900311BC
:10222000A0900411B0900511CE5DDE4F8882998296
:10223000AA82BB82C252D140A5019401609167106D
:10224000709168108091691090916A100E9433E13A
:10225000409006115090071160900811709009117C
:1022600000910A1110910B1120910C1130910D1158
:10227000CA5DDE4F088319832A833B83C652D1404F
:1022800081117EC0A301920160916B1070916C105E
:1022900080916D1090916E100E9433E1811170C099
:1022A00020E030E040E752E46091740270917502E2
:1022B00080917602909177020E9495E54B015C0136
:1022C0008EEB9AE09F938F93EEE0CE2EE1E1DE2E2F
:1022D000CA5DDE4FE880F9800A811B81C652D14079
:1022E000A3019201CE5DDE4F688179818A819B8155
:1022F000C252D1400E94D6900F900F90809102114F
:1023000090910311A0910411B09105118093671071
:1023100090936810A0936910B0936A108091061191
:1023200090910711A0910811B091091180936B1041
:1023300090936C10A0936D10B0936E1080910A1161
:1023400090910B11A0910C11B0910D1180936F1011
:1023500090937010A0937110B093721080910E1131
:1023600090910F11A0911011B091111180937310E1
:1023700090937410A0937510B09376100C948540D0
:102380006091180270911902072E000C880B990BAE
:102390000E9439E1209174023091750240917602D9
:1023A000509177020E9469DD20E030E040E752E47E
:1023B0000E9495E520E030E048EC52E47DCF80912A
:1023C000560A81110C94643C0E9498B481E008C0C4
:1023D0008091560A81110C94643C0E9498B480E06C
:1023E0000E945EB00C94854086E299E00E9422C66D
:1023F00080E50E942743882339F00E944D430E94C4
:1024000003E66B017C0103C0C12CD12C760183E56E
:102410000E942743882361F00E944D4320E030E072
:102420004AE754E40E9469DD0E9403E66B017C01E7
:102430000E94E0690E94DF5AC60ED71EE81EF91EF0
:102440000E94DF5A6093AE0A7093AF0A8093B00A7D
:102450009093B10A0E94DF5A6C157D058E059F0589
:1024600010F00C94643C0E94D3650E94E5AD0E947C
:1024700053C6F0CF0E94198B80917402909175021F
:10248000A0917602B09177028093B4059093B50540
:10249000A093B605B093B7058091180290911902E8
:1024A0009093B3058093B20584E690E0909319026F
:1024B000809318020E94DF5A6093AE0A7093AF0AAD
:1024C0008093B00A9093B10A11E010930D028091AD
:1024D000671090916810A0916910B0916A10809374
:1024E000021190930311A0930411B09305118091F0
:1024F0006B1090916C10A0916D10B0916E10809344
:10250000061190930711A0930811B09309118091BF
:102510006F1090917010A0917110B0917210809313
:102520000A1190930B11A0930C11B0930D1180918F
:10253000731090917410A0917510B09176108093E3
:102540000E1190930F11A0931011B09311111092CE
:10255000740210927502109276021092770288E54A
:102560000E942743882311F080E009C089E50E947A
:1025700027438111F9CF8AE50E9427438127809361
:10258000030281110C94673C8AE50E942743811164
:102590000C94673C8091030281110C946D3C88E59A
:1025A0000E94274381110C946D3C8091030281119C
:1025B0000C94733C89E50E94274381110C94733C71
:1025C00088E50E9427438823D1F00E944243672B6D
:1025D000682B692BA1F00E944D432091F610309199
:1025E000F7104091F8105091F9100E94B8E46093F0
:1025F0006710709368108093691090936A1089E552
:102600000E9427438823D1F00E944243672B682B06
:10261000692BA1F00E944D432091FA103091FB10DC
:102620004091FC105091FD100E94B8E460936B1033
:1026300070936C1080936D1090936E108AE50E94D9
:1026400027438823D1F00E944243672B682B692BD4
:10265000A1F00E944D432091FE103091FF10409157
:102660000011509101110E94B8E460936F107093B3
:1026700070108093711090937210809103028111F9
:102680000C94793C8AE50E94274381110C94793C93
:10269000E0906F10F0907010009171101091721016
:1026A00020916B1030916C1040916D1050916E1014
:1026B00060916710709168108091691090916A1014
:1026C0000E94308A10920D028091B4059091B50558
:1026D000A091B605B091B7058093740290937502EE
:1026E000A0937602B09377028091B2059091B305E2
:1026F00090931902809318020E94DF5A6093AE0AE9
:102700007093AF0A8093B00A9093B10A10921E069C
:1027100010921D0610921C060C94643C80912006B9
:10272000882321F080912106811127C084E199E05E
:102730000E9422C6EAEEFBE08491882341F090914A
:10274000C00095FFFCCF8093C6003196F5CFE2E044
:10275000F9E08491882341F09091C00095FFFCCF6F
:102760008093C6003196F5CF8091C00085FFFCCFE5
:102770008AE08093C6000C94643C0E94E0690E9449
:10278000198BCE018C5E9E4F0E949AC3CC5EDE4FA9
:10279000688179818A819B81C451D140609367109F
:1027A000709368108093691090936A10C85EDE4F32
:1027B000288139814A815B81C851D14020936B10B7
:1027C00030936C1040936D1050936E10C45EDE4FCA
:1027D000E880F9800A811B81CC51D140E0926F10D2
:1027E000F092701000937110109372100E94308A52
:1027F0000E94104180E090E0A1EEB4E48093740266
:1028000090937502A0937602B0937702E12CF12C9D
:1028100000E711E420E030E0A90160E070E080E230
:1028200091E40E948B424B015C0120E030E040EAE1
:1028300050E460916F1070917010809171109091C0
:1028400072100E94B8E47B018C0120E030E042E08D
:1028500053E460E070E08AEA92E40E948B422B012C
:102860003C0120E030E040EA50E460916F1070914C
:10287000701080917110909172100E94B8E47B01E9
:102880008C0120E030E0A90160E070E086E193E493
:102890000E948B42CE5DDE4F688379838A839B835F
:1028A000C252D1400E94EB400E94198B80E090E020
:1028B000A6E9B2ECC85FDE4F88839983AA83BB8305
:1028C000C850D140C12CD12C72E0E72E73ECF72E0A
:1028D000C45FDE4FC882D982EA82FB82CC50D140ED
:1028E000A3019201C501B4010E94B7E4C05FDE4FAD
:1028F000688379838A839B83C051D140CE01885FEE
:102900009E4F0E94D15D80E090E0A2E8B2E4C45006
:10291000DF4F88839983AA83BB83CC5FD040C050AC
:10292000DF4FC882D982EA82FB82C050D140A30126
:102930009201CE5DDE4F688179818A819B81C2528E
:10294000D1400E94B7E4CC5FDE4F688379838A83ED
:102950009B83C450D140CE0184509F4F0E94D15DD3
:10296000C85FDE4F88809980AA80BB80C850D14064
:10297000C65DDE4F88829982AA82BB82CA52D1404C
:10298000C45FDE4F488059806A807B80CC50D14044
:10299000C05FDE4F88809980AA80BB80C051D14043
:1029A000C450DF4F088119812A813B81CC5FD04020
:1029B000CA5DDE4F088319832A833B83C652D14008
:1029C000C050DF4F288139814A815B81C050D1409E
:1029D000CE5DDE4F288339834A835B83C252D14068
:1029E000CC5FDE4FC880D980EA80FB80C450D140E4
:1029F000A7019601C301B2010E9469DDC25DDE4FED
:102A0000688379838A839B83CE52D140CE5DDE4F2B
:102A1000288139814A815B81C252D140C501B4010C
:102A20000E9469DD9B01AC01C25DDE4F6881798146
:102A30008A819B81CE52D1400E94B7E4C051DF4FC2
:102A4000688379838A839B83C05FD040CA5DDE4FF1
:102A5000288139814A815B81C652D140C501B401C8
:102A60000E9469DD4B015C01A7019601C65DDE4F46
:102A7000688179818A819B81CA52D1400E9469DD37
:102A80009B01AC01C501B4010E94B7E4CC50DF4FFB
:102A9000688379838A839B83C45FD040CE5DDE4F99
:102AA000288139814A815B81C252D140C65DDE4FA7
:102AB000688179818A819B81CA52D1400E9469DDF7
:102AC0006B017C01CA5DDE4F288139814A815B81BF
:102AD000C652D140C301B2010E9469DD9B01AC0125
:102AE000C701B6010E94B7E4C850DF4F68837983FD
:102AF0008A839B83C85FD040CE0180519F4F0E9444
:102B0000D15DC051DF4FC880D980EA80FB80C05FB3
:102B1000D040CC50DF4F88809980AA80BB80C45FB2
:102B2000D040C850DF4F488059806A807B80C85FA2
:102B3000D04020E030E0A901C301B2010E94E9E6E3
:102B4000A301920118160CF05058C850DF4F28838B
:102B500039834A835B83C85FD0401E0164EE260E32
:102B6000311CD101CD92DD92ED92FC921397F101CF
:102B700084829582A682B78218962D933D934D93B9
:102B80005C931B97C101CC59DE4F2883C456D140BA
:102B9000CB59DE4F3883C556D140CA59DE4F4883E2
:102BA000C656D140C959DE4F5883C756D1400E94FE
:102BB000D15DFE01E753FF4FC05EDE4FF983E8832E
:102BC000C052D14080E090E0A0E8BFE3C753DF4FA0
:102BD00088839983AA83BB83C95CD040C353DF4FEA
:102BE000188219821A821B82CD5CD040C701B601BF
:102BF0009058CC59DE4F2881C456D140CB59DE4F76
:102C00003881C556D140CA59DE4F4881C656D14099
:102C1000C959DE4F5881C756D1400E9495E5CF5221
:102C2000DF4F688379838A839B83C15DD040CE0167
:102C300087539F4F0E94D15DD1018D909D90AD90A3
:102C4000BC901397CE5DDE4F88829982AA82BB82A8
:102C5000C252D14014964D905D906D907C90179724
:102C600018968D909D90AD90BC901B97C753DF4FE9
:102C7000088119812A813B81C95CD040CA5DDE4F41
:102C8000088319832A833B83C652D140C353DF4F45
:102C9000288139814A815B81CD5CD040C65DDE4FA1
:102CA000288339834A835B83CA52D140CF52DF4F96
:102CB000C880D980EA80FB80C15DD040A701960121
:102CC000C301B2010E9469DDC25DDE4F6883798372
:102CD0008A839B83CE52D140C65DDE4F28813981E5
:102CE0004A815B81CA52D140C501B4010E9469DDAD
:102CF0009B01AC01C25DDE4F688179818A819B8135
:102D0000CE52D1400E94B7E469837A838B839C833F
:102D1000CA5DDE4F288139814A815B81C652D1402C
:102D2000C501B4010E9469DD4B015C01A701960158
:102D3000CE5DDE4F688179818A819B81C252D1400C
:102D40000E9469DD9B01AC01C501B4010E94B7E49A
:102D50006D837E838F839887C65DDE4F288139819E
:102D60004A815B81CA52D140CE5DDE4F6881798154
:102D70008A819B81C252D1400E9469DD6B017C0136
:102D8000CA5DDE4F288139814A815B81C652D140BC
:102D9000C301B2010E9469DD9B01AC01C701B6010C
:102DA0000E94B7E469877A878B879C87CE0101965A
:102DB0000E94D15DC753DF4F488059806A807B8075
:102DC000C95CD040C353DF4F88809980AA80BB8004
:102DD000CD5CD040CF52DF4FC880D980EA80FB80E5
:102DE000C15DD04009811A812B813C818D819E81FA
:102DF000AF81B885CE5DDE4F88839983AA83BB837C
:102E0000C252D14089859A85AB85BC85CA5DDE4FAB
:102E100088839983AA83BB83C652D140D1018D9107
:102E20009D910D90BC91A02DC65DDE4F8883998346
:102E3000AA83BB83CA52D140F10144815581668186
:102E4000778180859185A285B38540921D0250923D
:102E50001E0260921F0270922002809221029092C4
:102E60002202A0922302B0922402C0922502D092A4
:102E70002602E0922702F092280200932902109382
:102E80002A0220932B0230932C02CE5DDE4F8880E5
:102E90009980AA80BB80C252D14080922D0290922C
:102EA0002E02A0922F02B0923002CA5DDE4F08813E
:102EB00019812A813B81C652D1400093310210937F
:102EC00032022093330230933402C65DDE4F888095
:102ED0009980AA80BB80CA52D140809235029092DC
:102EE0003602A0923702B0923802409339025093D2
:102EF0003A0260933B0270933C0280933D029093B0
:102F00003E02A0933F02B0934002CE0101960E9480
:102F10009AC369817A818B819C81609367107093D9
:102F200068108093691090936A102D813E814F81C3
:102F3000588520936B1030936C1040936D10509314
:102F40006E10E0907411F09075110091761110914F
:102F50007711E0926F10F09270100093711010933F
:102F600072100E94308A0E94E0692FB7F894609135
:102F70005F107091601080916110909162102FBF6E
:102F80000E9439E12091A3103091A4104091A51026
:102F90005091A6100E9495E56B017C0120E030E085
:102FA000A9016091671070916810809169109091EB
:102FB0006A100E94B8E4D1016D937D938D939C9328
:102FC000139720E030E0A90160916B1070916C10B4
:102FD00080916D1090916E100E94B8E4C753DF4F3E
:102FE000688379838A839B83C95CD04080916F100A
:102FF00090917010A0917110B091721089839A8392
:10300000AB83BC83E1E0F0E0EC0FFD1FFF93EF9397
:10301000CF5DDE4FF881C152D140FF93C05EDE4FDD
:103020008880C052D1408F923F922F920DB71EB729
:10303000045211090FB6F8941EBF0FBE0DBFADB7F5
:10304000BEB7119684E2EDE1F2E001900D928A950F
:10305000E1F70E94EC5CA701960169817A818B817E
:103060009C810E94B7E420916F10309170104091C4
:103070007110509172100E94B8E47B018C01609332
:103080006F107093701080937110909372100FB640
:10309000F894DEBF0FBECDBF20916B1030916C1045
:1030A00040916D1050916E10609167107091681092
:1030B0008091691090916A100E94308A0C94643C4F
:1030C0009091C00095FFFCCF8093C600319684910B
:1030D0008111F6CFE9EFF8E08491882341F09091D7
:1030E000C00095FFFCCF8093C6003196F5CF60916C
:1030F0006710709168108091691090916A1042E099
:103100000E945578E4EFF8E08491882341F0909193
:10311000C00095FFFCCF8093C6003196F5CF60913B
:103120006B1070916C1080916D1090916E1042E058
:103130000E945578EFEEF8E08491882341F0909159
:10314000C00095FFFCCF8093C6003196F5CF60910B
:103150006F1070917010809171109091721042E018
:103160000E945578EDEEF8E08491882341F090912B
:10317000C00095FFFCCF8093C6003196F5CF0E942A
:10318000EB400E94DF400C94643C1092E4100C94DD
:10319000643C81E08093E4100C94643C85E40E94DC
:1031A0002743811102C00E94E06934E8632E33E0B6
:1031B000732E47E6A42E40E1B42E56EF852E50E143
:1031C000952ED12CD3018D913D010E942743882358
:1031D000A9F1B3E0DB120AC00E944D43F501608300
:1031E0007183828393830E9452D028C00E944D43F2
:1031F000D4012D913D914D915C910E94B8E4F5016F
:103200006083718382839383E0906F10F0907010DD
:10321000009171101091721020916B1030916C1010
:1032200040916D1050916E10609167107091681010
:103230008091691090916A100E94308AD394F4E0D2
:10324000AF0EB11C04E0800E911C14E0D112BACF75
:103250000C94643C8DE40E942743882311F40C9461
:10326000953B0E944D430E94FEE56937710511F4BC
:103270000C94AA2B0CF0CAC06A32710509F4F0C58F
:103280000CF058C06731710509F470C294F56231D1
:10329000710511F40C94AE29F4F477FF02C00C947C
:1032A000643C623071050CF4A9C16131710511F003
:1032B0000C94643C84EC98E00E9422C65F988A9843
:1032C0009FB7F894809108018E7F809308019FBF7B
:1032D00012980C94643C6531710509F43DC20CF000
:1032E0003FC26431710511F00C94643CE4EBF8E0EA
:1032F000EAC16B31710509F478C23CF4693171059A
:1033000009F45BC20CF448C262C26E31710509F463
:10331000F2C234F46C31710509F4BBC20C94643C04
:103320006F31710509F41CC56032710509F483C45D
:103330000C94643C6A36710511F40C9495296CF573
:103340006435710511F40C94AE2974F4623571057D
:1033500011F40C94A52914F00C94A929603371057B
:1033600009F4C9C50C94643C6C35710511F40C94D6
:10337000122A3CF46535710511F40C94F7290C946C
:10338000643C6836710511F40C94A1266936710508
:1033900011F40C94D4260C94643C6237710511F43A
:1033A0000C94CC2ABCF46D36710511F40C94C12731
:1033B0006037710511F40C94C1266B36710511F05C
:1033C0000C94643C83E50E94274380E00E94F14C0A
:1033D0000C94643C6537710511F40C94B82A4CF4D4
:1033E0006337710511F00C94643CE6E0F6E00C9450
:1033F000B32A6737710509F4FDC06837710511F00C
:103400000C94643C10920D020C94643C6C3221E0EC
:10341000720711F40C9475300CF068C0693C7105AA
:1034200011F40C94162E5CF56939710511F40C94A5
:10343000AC2C8CF46639710511F40C94572C683956
:10344000710511F40C949C2C6C38710511F00C94DE
:10345000643C0C94C3266B39710511F40C943C2D1B
:1034600014F40C94D02C6E3B710511F40C948A2842
:10347000683C710511F40C946D2D0C94643C6E3C09
:10348000710511F40C94D02EC4F46C3C710511F448
:103490000C944E2E14F00C94702E6B3C710511F0B0
:1034A0000C94643C64E5E62E61E1F62E04E813E03A
:1034B00074E0D72ED00E0C943F2E6D3D710511F4A3
:1034C0000C94FF2E3CF46C3D710511F40C94EE2E1F
:1034D0000C94643C623E710511F40C94292F683100
:1034E000714011F40C94882F0C94643C693951E0BC
:1034F000750711F40C945A36A4F5623791E07907F8
:1035000011F40C94BE3584F46E32B1E07B0711F4F3
:103510000C946E3114F40C94A7306F32714011F496
:103520000C9483310C94643C613901E0700711F410
:103530000C942A364CF46039714011F00C94643CC0
:103540000E94E0690C94643C623931E0730711F425
:103550000C942D366839714011F40C9430360C946B
:10356000643C673F51E0750711F40C94633694F4A2
:10357000653F91E0790711F40C945D3614F00C94DA
:103580006036643F714011F00C94643C0E94604BC3
:103590000C94643C6335E3E07E0711F40C943A39F3
:1035A0003CF46835724011F40C940A3A0C94643C73
:1035B000603A13E0710709F49EC3673E734011F04F
:1035C0000C94643C1092560A109205178091ED10ED
:1035D0009091EE10A091EF10B091F0108093F11047
:1035E0009093F210A093F310B093F4100E94ECD4D7
:1035F0000C94643CE7EAF3E00C94B52B8CED98E076
:103600000E9422C680E50E942743882339F00E9449
:103610004D430E9403E66B017C0103C0C12CD12CF9
:10362000760183E50E942743882361F00E944D4381
:1036300020E030E04AE754E40E9469DD0E9403E69E
:103640006B017C010E94E0690E94DF5A6093AE0A20
:103650007093AF0A8093B00A9093B10AC114D10459
:10366000E104F104F1F00E94DF5AC60ED71EE81EF5
:10367000F91E0E94DF5A6C157D058E059F0530F0FE
:103680008DEC98E00E9422C60C94643C80911F0649
:1036900082FDF6CF0E94D3650E94E5AD0E9453C61D
:1036A000E8CF80911F0682FDEBCF0E94D3650E9478
:1036B000E5AD0E9453C6F5CF9091C00095FFFCCFB9
:1036C0008093C600319684918111F6CF8091C0001D
:1036D00085FFFCCF8AE08093C60010923B101092C9
:1036E0003A1040E050E0BA0185EE9DE00E94EB4EBA
:1036F0008BE1E5EEFDE0DE01159601900D928A95D5
:10370000E1F78091E30D9091E40D9C838B8380E73A
:1037100093E09A838983BE016F5F7F4F89EE94E0C7
:103720000E947CD0CE0101960E943DACE6EAF8E012
:103730008491882341F09091C00095FFFCCF809345
:10374000C6003196F5CF8091C00085FFFCCF8AE09E
:103750008093C6000C94643C0E94ED780C94643C09
:103760001092B40D1092B50D0C94643C0091B0050C
:103770001091B1050C5F1F4F6AE270E0C8010E9412
:1037800095E8009711F0DC011C9241E061E0C8016E
:103790000E9413870C94643C8091B50D882319F026
:1037A00081E08093B40D80911002882311F40C9471
:1037B000643C0E94B8AC0C94643C8091B40D8823A6
:1037C00011F40C94643C1092B40D0C94643C809100
:1037D000B50D882311F40C94643C83E50E942743C3
:1037E00081110C94953C0C94643C8091B50D882318
:1037F00009F439C0EBECF1E08491882341F0909119
:10380000C00095FFFCCF8093C6003196F5CF609144
:1038100035107091361080913710909138104AE031
:103820000E94CE77E9ECF1E08491882341F09091F9
:10383000C00095FFFCCF8093C6003196F5CF609114
:103840002D1070912E1080912F10909130104AE021
:103850000E94CE778091C00085FFFCCF8AE08093E4
:10386000C6000C94643CEDEDF1E08491882341F0B6
:103870009091C00095FFFCCF8093C6003196F5CFA4
:103880008091C00085FFFCCF8AE08093C6000C9435
:10389000643C8091B0059091B1056AE270E00496B5
:1038A0000E9495E88C01892BD9F02091ED09309187
:1038B000EE0940E6429FC001439F900D11246EE443
:1038C00070E0835D994F0E9495E860E270E00E948D
:1038D00095E801969093B1058093B005F8011082A8
:1038E0008091B0059091B10541E060E004960E949E
:1038F00013870C94643C8091B50D882311F40C94CB
:10390000643C80E89FE00E94A84E80E89FE00E940F
:1039100024501092B20D1092B30D8091B005909189
:10392000B1056AE270E004960E9495E88C01892B4B
:10393000D9F02091ED093091EE0940E6429FC00197
:10394000439F900D11246EE470E0835D994F0E94B7
:1039500095E860E270E00E9495E801969093B105C9
:103960008093B005D8011C920091B0051091B1056B
:103970008091B50D882311F40C94643C5801B4E097
:10398000AB0EB11C80E89FE00E9424501092B40D51
:103990001D8218861C821B8280E793E09A838983AC
:1039A00081EE9DE09093010E8093000EF8018481DA
:1039B0008F3209F091C06FE270E0C5010E9495E876
:1039C0008C010F5F1F4F2AE0E22E9E012F5F3F4FB9
:1039D00049010115110509F485C06FE270E0C801C5
:1039E0000E9495E86C01009709F47DC0081719073B
:1039F00008F079C03C01601A710AA301B801CE0138
:103A000087539F4F0E94BEE8E9ECF0E0EC0FFD1FEA
:103A1000E60DF71D10828E0107531F4FF8018191AB
:103A2000882339F09091C00095FFFCCF8093C600A9
:103A3000F6CF8091C00085FFFCCFE092C600609178
:103A4000000E7091010E6115710511F06C5F7F4FD2
:103A500021E0AE0147535F4FCE0105960E941B56F1
:103A6000811132C0E7E1F2E08491882371F09091F6
:103A7000C00095FFFCCF8093C6003196F5CF9091A2
:103A8000C00095FFFCCF8093C600D8018D918D01B9
:103A90008111F5CFE5E1F2E08491882341F0909126
:103AA000C00095FFFCCF8093C6003196F5CF809182
:103AB000C00085FFFCCF8AE08093C600CE0101964E
:103AC0000E943DAC0C94643C9092010E8092000EDA
:103AD00086010F5F1F4F7DCF82E09EE09093010E25
:103AE0008093000E85016091000E7091010E6115AA
:103AF000710511F06C5F7F4FC753DF4F1882C95CAF
:103B0000D040C453DF4F1882CC5CD04022E0A801E3
:103B1000CE0187539F4F0E941B56882359F1CE0137
:103B200087539F4F0E948186882321F1CB52DF4F1C
:103B3000688179818A819B81C55DD04041E00E9486
:103B4000D39E8823B9F0C752DF4FE881C95DD040CA
:103B5000B0E2EB9FF0011124EC53F54F309751F098
:103B600085EE8083C453DF4F1882CC5CD0400E9426
:103B7000939EF82ECE0187539F4F0E946948FF20E5
:103B800041F1E7E0F2E08491882341F09091C00098
:103B900095FFFCCF8093C6003196F5CFF801819157
:103BA000882339F09091C00095FFFCCF8093C60028
:103BB000F6CF8091C00085FFFCCF8AE08093C600DD
:103BC0001092351010923610109237101092381053
:103BD0002CC0EFEEF1E08491882341F09091C00079
:103BE00095FFFCCF8093C6003196F5CFF801819107
:103BF000882339F09091C00095FFFCCF8093C600D8
:103C0000F6CFEDEEF1E08491882341F09091C00071
:103C100095FFFCCF8093C6003196F5CF8091C00010
:103C200085FFFCCF8AE08093C600CE0101960E94FA
:103C30003DAC0C94643C8091B40D81110E94E0690C
:103C40000091B0051091B1050C5F1F4F6AE270E062
:103C5000C8010E9495E87C0161E270E0C8010E9401
:103C600095E8009719F08C010F5F1F4FE114F104E4
:103C700011F0F701108280E50E942743F82E809111
:103C8000B0059091B1050817190708F4F12C80913F
:103C9000B50D882311F40C94643C41E04F2561E09C
:103CA000C8010E94138783E50E9427438823B9F047
:103CB0008091B0059091B1058017910780F40E9422
:103CC0004243AB01BC0140933510509336106093D2
:103CD00037107093381080E89FE00E94EB4E80917F
:103CE000B50D882319F081E08093B40DFF2009F40D
:103CF0005ACD0C94643C8091B0059091B1056AE274
:103D000070E005960E9495E88C01892BD9F02091EE
:103D1000ED093091EE0940E6429FC001439F900DAE
:103D200011246EE470E0835D994F0E9495E860E293
:103D300070E00E9495E801969093B1058093B005DC
:103D4000D8011C928091B0059091B10521E020939B
:103D5000B30D41E060E005960E9413870C94643C2B
:103D60000E94DF5A0091290610912A0620912B0605
:103D700030912C06601B710B820B930B28EE33E005
:103D800040E050E00E945AE4CA01B9012CE330E05F
:103D900040E050E00E945AE47F936F933F932F934B
:103DA00087E998E09F938F938E010F5F1F4F1F93BA
:103DB0000F930E9404E1EAEEFBE094910FB6F894B1
:103DC000DEBF0FBECDBFEAEEFBE0992349F0809144
:103DD000C00085FFFCCF9093C60031969491F5CF3B
:103DE000F8018191882339F09091C00095FFFCCFB4
:103DF0008093C600F6CF8091C00085FFFCCF8AE09B
:103E00008093C600C8010E9444C68091D8108823C0
:103E100011F40C94643C1092D8100091BE0A10E08A
:103E2000000F111F03521F4ED8016D917C91072E78
:103E3000000C880B990B0E9439E1209160023091AF
:103E4000610240916202509163020E94E9E61816F5
:103E500014F00C94643CF801118210820C94643CC0
:103E600083E50E942743882311F40C94643C0E944C
:103E70004D430E94FEE5F62EE72E862F9E2D8C01E7
:103E800080E50E942743882331F00F3F110509F098
:103E900010F40C94A53C0DE010E0E4E9F2E081910F
:103EA00091918017910771F022E0EC3CF207B9F78D
:103EB0000930110549F48F2D9E2D9093DA108093CF
:103EC000D91002C00FEF1FEF8091D9100E94F14C62
:103ED00017FF02C00C94643C61E0802F0E94A4593B
:103EE0006F2D802F0E94C0586F2D7E2D802F0E9435
:103EF000E0590C94643C86E50E94274381110C94A0
:103F0000AB3C86E70E94274381110C94AB3C2224F2
:103F10002394312C03C021143104D1F0E8E4F8E0FB
:103F20008491882341F09091C00095FFFCCF80934D
:103F3000C6003196F5CFE4E1F8E08491882341F0A2
:103F40009091C00095FFFCCF8093C6003196F5CFCD
:103F50008EE60E9427438823F1F00E944D430E9481
:103F6000FEE5C85BDE4F79836883C854D140645056
:103F700071096F327105B8F0EDEEF7E08491882396
:103F800011F40C94643C9091C00095FFFCCF809399
:103F9000C6003196F3CF4AE050E0C85BDE4F59834C
:103FA0004883C854D14080E00E94C369C65CDE4F9C
:103FB0006883CA53D140C25CDE4F7883CE53D14070
:103FC000CE5BDE4F8883C254D140C45BDE4F988302
:103FD000CC54D14081E00E94C369C05BDE4F68834E
:103FE000C055D140CE5ADE4F7883C255D140CA5A0F
:103FF000DE4F8883C655D140C85ADE4F9883C855D6
:10400000D14082E00E94C36982E00E94C3696B01D3
:104010007C0183E00E94C369CE5CDE4F68837983B4
:104020008A839B83C253D14085E40E942743811138
:104030000C94C23C85E60E94274381110C94C23C3B
:10404000CC5ADE4F19821882C455D14088E50E94AF
:10405000274381112EC088E70E942743811129C080
:10406000C65CDE4F5881CA53D140CE5DDE4F5883C7
:10407000C252D140C25CDE4F6881CE53D140CA5D8E
:10408000DE4F6883C652D140CE5BDE4F8881C2547A
:10409000D140C65DDE4F8883CA52D140C45BDE4F3B
:1040A0009881CC54D140C25DDE4F9883CE52D1402E
:1040B0003DC00E944D43CE5DDE4F6883C252D14069
:1040C000CA5DDE4F7883C652D140C65DDE4F88831D
:1040D000CA52D140C25DDE4F9883CE52D14020E01B
:1040E00030E0A9010E9433E187FF02C00C94CC3C70
:1040F00020E030E04AE253E4CE5DDE4F6881C252F8
:10410000D140CA5DDE4F7881C652D140C65DDE4FD8
:104110008881CA52D140C25DDE4F9881CE52D140D3
:104120000E94E9E6181614F40C94CC3C89E50E9430
:10413000274381112EC089E70E942743811129C09E
:10414000C05BDE4FA881C055D140CA5CDE4FA8835A
:10415000C653D140CE5ADE4FB881C255D140C95C5A
:10416000DE4FB883C753D140CA5ADE4FE881C655E7
:10417000D140C85CDE4FE883C853D140C85ADE4FF7
:10418000F881C855D140C75CDE4FF883C953D14090
:104190003DC00E944D43CA5CDE4F6883C653D14088
:1041A000C95CDE4F7883C753D140C85CDE4F88833B
:1041B000C853D140C75CDE4F9883C953D14020E03B
:1041C00030E0A9010E9433E187FF02C00C94DA3C81
:1041D00020E030E044E353E4CA5CDE4F6881C6531C
:1041E000D140C95CDE4F7881C753D140C85CDE4FF7
:1041F0008881C853D140C75CDE4F9881C953D140F4
:104200000E94E9E6181614F40C94DA3C8CE40E943F
:10421000274381110C94E83C8CE60E9427438111CE
:104220000C94E83CCA5BDE4F19821882C654D14018
:1042300020E030E040E751E4C701B6010E94B8E455
:104240002B013C010E94E0690E94198BCE5CDE4F7D
:10425000288139814A815B81C253D14029833A83C5
:104260004B835C838EEB9AE09F938F93812C912CF0
:1042700000EFA02E01E4B02EAE014F5F5F4F6A0148
:1042800083017201C05BDE4F2881C055D140CE5AF8
:10429000DE4F3881C255D140CA5ADE4F4881C655DB
:1042A000D140C85ADE4F5881C855D140C65CDE4F58
:1042B0006881CA53D140C25CDE4F7881CE53D14071
:1042C000CE5BDE4F8881C254D140C45BDE4F988103
:1042D000CC54D1400E94D6900E94E0690F900F907C
:1042E00053E0251631040CF0FAC0CE5CDE4F888115
:1042F0009981AA81BB81C253D14089839A83AB83C0
:10430000BC83AEEBBAE0BF93AF93812C912C18EC39
:10431000A12E12E4B12E8E010F5F1F4F68018301A1
:104320007201CA5CDE4F2881C653D140C95CDE4FA2
:104330003881C753D140C85CDE4F4881C853D14053
:10434000C75CDE4F5881C953D140CE5DDE4F6881D6
:10435000C252D140CA5DDE4F7881C652D140C65D9F
:10436000DE4F8881CA52D140C25DDE4F9881CE5265
:10437000D1400E94D6900E94E06980E00E94C3690B
:1043800060936710709368108093691090936A101F
:1043900081E00E94C36960936B1070936C108093EE
:1043A0006D1090936E1082E00E94C36960936F104D
:1043B00070937010809371109093721083E00E943C
:1043C000C3696B017C0160937310709374108093C8
:1043D0007510909376100E94E5400E9410410E9453
:1043E000A04182E00E94C36960936F1070937010C7
:1043F000809371109093721082E00E94C36920E054
:1044000030E040E751E40E94B8E4CE5BDE4F6883C1
:1044100079838A839B83C254D140C982DA82EB823A
:10442000FC82AEEBBAE0BF93AF938E010F5F1F4FDC
:104430006801CE5BDE4FE880F9800A811B81C2549F
:10444000D140CA5CDE4F2881C653D140C95CDE4FE3
:104450003881C753D140C85CDE4F4881C853D14032
:10446000C75CDE4F5881C953D140CE5DDE4F6881B5
:10447000C252D140CA5DDE4F7881C652D140C65D7E
:10448000DE4F8881CA52D140C25DDE4F9881CE5244
:10449000D1400E94D6900E94E06982E00E94C369E8
:1044A000C45BDE4F688379838A839B83CC54D1407D
:1044B00060936F10709370108093711090937210CE
:1044C0000F900F900F900F90CC5ADE4F28813981BA
:1044D000C455D140232B81F00E94DF400DC0E0EC99
:1044E000F3E08191882309F400CF9091C00095FFFB
:1044F000FCCF8093C600F5CFAE014F5F5F4FCE5A21
:10450000DE4F59834883C255D14081E090E0A0E05E
:10451000B0E0C25CDE4F88839983AA83BB83CE530D
:10452000D140CA5BDE4FA881B981C654D1401197F2
:10453000C85ADE4FB983A883C855D140C85BDE4F47
:1045400088809980C854D140092C000CAA08BB0867
:10455000C45ADE4F88829982AA82BB82CC55D14050
:10456000C25CDE4F08811981CE53D1400150110940
:10457000C05BDE4F19830883C055D140CE5BDE4F50
:10458000E880F9800A811B81C254D140CA5CDE4FA9
:104590002881C653D140C95CDE4F3881C753D14012
:1045A000C85CDE4F4881C853D140C75CDE4F58819C
:1045B000C953D140CE5DDE4F6881C252D140CA5D41
:1045C000DE4F7881C652D140C65DDE4F8881CA5227
:1045D000D140C25DDE4F9881CE52D1400E943C4115
:1045E000CA5BDE4F28813981C654D140232B09F4A0
:1045F000C0C10E94DF5AAB0141705527CA5ADE4F35
:1046000059834883C655D1400E94DF5A2AE230E0E0
:1046100040E050E00E945AE40E9437E14B015C0107
:104620000E94DF5A28E631E040E050E00E945AE460
:104630000E9437E122EE3EE245E652E40E9495E513
:10464000C65CDE4F688379838A839B83CA53D140DB
:10465000C12CD12CC85ADE4F28813981C855D14090
:10466000C216D3060CF053C1CA5ADE4F8881998115
:10467000C655D1400197E9F40E94DF5A24E130E0A9
:1046800040E050E00E945AE40E9437E122EE3EE210
:1046900045E652E40E9495E59B01AC01C65CDE4F05
:1046A000688179818A819B81CA53D1400E94B8E494
:1046B0001CC00E94DF5A24E130E040E050E00E943C
:1046C0005AE40E9437E122EE3EE245E652E40E94BF
:1046D00095E59B01AC01C65CDE4F688179818A81DA
:1046E0009B81CA53D1400E94B7E4C65CDE4F688309
:1046F00079838A839B83CA53D1400E94DF5A2AE080
:1047000030E040E050E00E945AE4655071098109B0
:1047100091090E9439E19B01AC01C501B4010E94DD
:10472000B8E44B015C0120E030E0A9010E9433E1D4
:1047300087FF04C0B7FAB094B7F8B094C65CDE4FF8
:10474000688179818A819B81CA53D1400E9492E518
:10475000A50194010E9469DD9B01AC01CE5DDE4F95
:104760006881C252D140CA5DDE4F7881C652D140C5
:10477000C65DDE4F8881CA52D140C25DDE4F98814E
:10478000CE52D1400E94B8E42B013C01C65CDE4F02
:10479000688179818A819B81CA53D1400E94C9E78F
:1047A000A50194010E9469DD9B01AC01CA5CDE4F4A
:1047B0006881C653D140C95CDE4F7881C753D14070
:1047C000C85CDE4F8881C853D140C75CDE4F9881FA
:1047D000C953D1400E94B8E4CE5CDE4F6883798330
:1047E0008A839B83C253D14020E030E0A901C301FA
:1047F000B2010E9433E187FD11C020E030E04AE2BF
:1048000053E4C301B2010E94E9E6181654F4412CA6
:10481000512CBAE26B2EB3E47B2E03C0412C512CF9
:10482000320120E030E0A901CE5CDE4F6881798161
:104830008A819B81C253D1400E9433E187FD1DC014
:1048400020E030E044E353E4CE5CDE4F68817981C0
:104850008A819B81C253D1400E94E9E61816ACF4CC
:1048600000E010E024E333E4CE5CDE4F08831983DC
:104870002A833B83C253D14008C0CE5CDE4F1882EE
:1048800019821A821B82C253D14014E021163104CE
:1048900031F5B301A20189E697E00E944748CE5C5A
:1048A000DE4F488159816A817B81C253D14085E6C0
:1048B00097E00E944748E4E6F7E08491882341F0BE
:1048C0009091C00095FFFCCF8093C6003196F5CF44
:1048D0008091C00085FFFCCFFAE0F093C600C45B76
:1048E000DE4FE880F9800A811B81CC54D140CE5C38
:1048F000DE4F288139814A815B81C253D140C30197
:10490000B2010E943C410FEFC01AD00AA3CECE5B89
:10491000DE4FE880F9800A811B81C254D140CA5C15
:10492000DE4F2881C653D140C95CDE4F3881C75362
:10493000D140C85CDE4F4881C853D140C75CDE4FD0
:104940005881C953D140CE5DDE4F6881C252D140FB
:10495000CA5DDE4F7881C652D140C65DDE4F888188
:10496000CA52D140C25DDE4F9881CE52D1400E94E2
:104970003C41CC5ADE4F48815981C455D140452B2A
:1049800041F00E94E54068EE73E080E090E00E9414
:10499000A75A0E9410410E94A04180916F109091EF
:1049A0007010A0917110B0917210CE5ADE4FE88154
:1049B000F981C255D14081939193A193B193CE5A7D
:1049C000DE4FF983E883C255D1408E010F5F1F4F40
:1049D000580100E010E0C12CD12C7601D5012D91B9
:1049E0003D914D915D915D01C701B6010E94B8E412
:1049F0006B017C010F5F1F4FC05BDE4F8880998089
:104A0000C055D140801691064CF7C25CDE4FA8809D
:104A1000B980CE53D140B501BB0C880B990B0E94D5
:104A200039E14B015C019B01AC01C701B6010E9459
:104A300095E5CE5CDE4F688379838A839B83C2537E
:104A4000D1408E010F5F1F4F380100E010E0C12CF4
:104A5000D12C7601D3016D917D918D919D913D0178
:104A6000CE5CDE4F288139814A815B81C253D140BF
:104A70000E94B7E49B01AC010E9469DD9B01AC017F
:104A8000C701B6010E94B8E46B017C010F5F1F4FA4
:104A9000C05BDE4FE881F981C055D140E017F107D6
:104AA000CCF6A50194010E9495E50E94D4E72B0164
:104AB0003C01F2E02F1631040CF466C0C25CDE4FFC
:104AC000688179818A819B81CE53D1400E9443784D
:104AD000E1EEF3E08191882339F09091C00095FFD9
:104AE000FCCF8093C600F6CFC45ADE4F688179812F
:104AF0008A819B81CC55D1400E944378EDE5F7E057
:104B00008491882341F09091C00095FFFCCF809361
:104B1000C6003196F5CF60916F1070917010809142
:104B200071109091721046E00E94557802E02016B4
:104B3000310409F482C0E6EEF3E08191882339F074
:104B40009091C00095FFFCCF8093C600F6CF46E061
:104B5000CE5CDE4F688179818A819B81C253D140CE
:104B60000E945578EEEEF3E08191882339F0909120
:104B7000C00095FFFCCF8093C600F6CF46E0C3018E
:104B8000B2010E94557859C02114310409F055C072
:104B90008EEB9AE09F938F93812C912CF0EFAF2EA8
:104BA000F1E4BF2EA3E7CA2EA0E1DA2ECE5BDE4FE2
:104BB000E880F9800A811B81C254D140CA5CDE4F73
:104BC0002881C653D140C95CDE4F3881C753D140DC
:104BD000C85CDE4F4881C853D140C75CDE4F588166
:104BE000C953D140CE5DDE4F6881C252D140CA5D0B
:104BF000DE4F7881C652D140C65DDE4F8881CA52F1
:104C0000D140C25DDE4F9881CE52D1400E94D690F5
:104C10000E94E0690F900F90CC5ADE4F28813981B5
:104C2000C455D140232BB9F00E94DF4068EE73E0F9
:104C300080E090E00E94A75A0EC0EBE5F7E0849177
:104C4000882309F4A5CF9091C00095FFFCCF8093F5
:104C5000C6003196F4CFC25CDE4F88819981AA816B
:104C6000BB81CE53D1400196A11DB11DC25CDE4F68
:104C700088839983AA83BB83CE53D140C25CDE4F25
:104C800088819981CE53D1400197C85BDE4FA881BE
:104C9000B981C854D1408A179B070CF461CC0E949B
:104CA000DF4068EE73E080E090E00E94A75A0E9427
:104CB000EB40232819F4EDE3F7E02CC0E4E5F7E03E
:104CC0008491882341F09091C00095FFFCCF8093A0
:104CD000C6003196F5CF46E0CE5CDE4F6881798123
:104CE0008A819B81C253D1400E945578E2E5F7E06A
:104CF0008491882301F39091C00095FFFCCF8093AD
:104D0000C6003196F5CF9091C00095FFFCCF8093FF
:104D1000C600319684918111F6CF46E0C301B201FD
:104D20000E945578EAE3F7E08491882311F40C940B
:104D3000643C9091C00095FFFCCF8093C6003196F3
:104D4000F3CF88E690E00E94DFAC81110C94643CC4
:104D500083E50E942743882381F01091F5100E947B
:104D60004D43212F30E0220F331F890103521F4E84
:104D70000E94FEE5F801718360830E940F640C9429
:104D8000643C0E94A7AD83E50E942743882311F469
:104D90000C94643C0E944D430E94FEE57093DC102D
:104DA0006093DB100C94643C89E690E00E94DFACD9
:104DB00081110C94643CE4E3F7E08491882341F092
:104DC0009091C00095FFFCCF8093C6003196F5CF3F
:104DD000E091F51004E0E09FF0011124EF5BFF4E3D
:104DE000608171818281938141E00E945578E1E385
:104DF000F7E08491882341F09091C00095FFFCCFAB
:104E00008093C6003196F5CFE091F510F0E0EE0FFB
:104E1000FF1FE352FF4E60817181072E000C880B4B
:104E2000990B0E9439E141E00E945578EDE2F7E0EC
:104E30008491882341F09091C00095FFFCCF80932E
:104E4000C6003196F5CF60912306709124068091BB
:104E500025069091260641E00E945578EAE2F7E0A7
:104E60008491882341F09091C00095FFFCCF8093FE
:104E7000C6003196F5CF6091DB107091DC10072EE3
:104E8000000C880B990B0E9439E141E00E94557893
:104E9000E7E2F7E08491882341F09091C00095FF0C
:104EA000FCCF8093C6003196F5CF60E070E0CB0177
:104EB0000E944378E5E2F7E08491882341F09091E5
:104EC000C00095FFFCCF8093C6003196F5CF60916E
:104ED000411070914210809143109091441041E034
:104EE0000E945578E2E2F7E08491882341F09091A6
:104EF000C00095FFFCCF8093C6003196F5CF60913E
:104F0000DD107091DE10072E000C880B990B0E94AB
:104F100039E141E00E945578EEE1F7E08491882381
:104F200041F09091C00095FFFCCF8093C600319670
:104F3000F5CFE091F510F0E0E75AF54F608170E0B1
:104F400080E090E00E944378E9E1F7E084918823D3
:104F500041F09091C00095FFFCCF8093C600319640
:104F6000F5CF6091580A70E080E090E00E944378AD
:104F70008091C00085FFFCCF8AE08093C6000C942E
:104F8000854002E028E040E064E18FEF0E94634D3D
:104F90008DE690E00E94DFAC81110C94643C8EE0C1
:104FA00097E00E9422C61092D81083E50E94274302
:104FB0008823A1F01091F5100E944D43212F30E07D
:104FC000220F331F890103521F4E0E94FEE5D801B4
:104FD0006D937C9381E08093020217C082E50E946A
:104FE0002743882391F01091F5100E944D43212F03
:104FF00030E0220F331F890103521F4E0E94FEE54D
:10500000F801718360831092020283E50E942743B6
:10501000882351F00E944D436093600270936102B7
:10502000809362029093630282E40E942743882364
:1050300051F00E944D4360935C0270935D02809337
:105040005E0290935F0286E40E942743882369F002
:105050000E944D43609358027093590280935A0204
:1050600090935B0281E08093D8100E940F640E94AD
:10507000DF5A4B015C010091F51010E0F801EE0FD2
:10508000FF1FE352FF4E60817181072E000C880BD9
:10509000990B0E9439E1000F111F000F111FF80139
:1050A000EF5BFF4E11E020813181428153810E94EC
:1050B000E9E618160CF010E01093B80510924510B0
:1050C000CC24CA94DC2C7601B3E02B2EB7E03B2E27
:1050D00018EE412E13E0512E612C712C8091451059
:1050E00081110C94393EBFEFCB16DB06EB06FB06B5
:1050F00011F40C94163DF7FE02C00C94393E0E9448
:10510000DF5A6C197D096031774210F40C94163D1A
:105110000C94393E02E028E040E064E18FEF0E9409
:10512000634D88EE96E00E9422C683E50E942743E5
:10513000882361F00E944D430E94FEE57093DC10CD
:105140006093DB1081E0809302020FC082E50E9431
:105150002743882351F00E944D430E94FEE570933F
:10516000DC106093DB10109202020E94DF5A4B01A8
:105170005C01109245106091DB107091DC10072EDD
:10518000000C880B990B0E9439E111E02091230655
:105190003091240640912506509126060E94E9E6AA
:1051A00018160CF010E01093B80505EE16E091EE1D
:1051B000E92E96E0F92E2DEDC22E26E0D22E3AE011
:1051C000732E8091B8056091DB107091DC108823FC
:1051D00009F484C080914510811180C0072E000C15
:1051E000880B990B0E9439E1209123063091240607
:1051F00040912506509126060E94E9E618160CF00B
:1052000084C00E94DF5ADC01CB0188199909AA09E0
:10521000BB09893E9340A105B10508F458C0E0914F
:10522000BE0A24E0E29FF0011124EF5BFF4E608193
:10523000718182819381F8012491E5EEF6E02223C9
:1052400049F03091C00035FFFCCF2093C600319665
:105250002491F5CF42E00E945578F7018491E1EE68
:10526000F6E0882349F09091C00095FFFCCF809331
:10527000C60031968491F5CF6091BE0A70E080E05F
:1052800090E00E944378F6018491EDEDF6E08823EA
:1052900049F09091C00095FFFCCF8093C6003196F5
:1052A0008491F5CF609123067091240680912506A4
:1052B0009091260641E00E9455788091C00085FFBC
:1052C000FCCF7092C6000E94DF5A4B015C010E9425
:1052D000D3650E94E5AD0E9453C673CF072E000C24
:1052E000880B990B0E9439E1209123063091240606
:1052F00040912506509126060E9433E187FF05C0A4
:1053000080910202882309F47CCF83ED96E00E940D
:1053100022C60E94DF5A6093AE0A7093AF0A809350
:10532000B00A9093B10A0C94643C83E50E94274331
:10533000882331F00E944D430E9403E6862F01C06E
:105340008FEF0E94F14C0C94643C1092E8100C9486
:10535000643C81E08093E8100C94643C83E50E94F7
:1053600027438823A1F00E944D4320E030E04AE724
:1053700054E40E9469DD0E9403E660936402709326
:10538000650280936602909367020C94643C88E502
:105390000E94274381110C944D3E89E50E942743CA
:1053A00081110C944D3E8AE50E94274381110C9493
:1053B0004D3E85E40E94274381110C944D3E0E948E
:1053C000E069129A0E94E0695F9A109220068A9A18
:1053D000109221069FB7F894809108018160809314
:1053E00008019FBF10922206129A0C94643C83E538
:1053F0000E942743882311F40C94643C0E944D437F
:1054000020E030E04AE754E40E9469DD0E9403E6B0
:105410006093E9107093EA108093EB109093EC1076
:105420000C94643CB4E88B2EB3E09B2E0BE910E1A6
:1054300084E5A82E81E1B82E28E731E1CE5DDE4F6C
:1054400039832883C252D140312CD4018D914D0132
:105450000E942743882309F466C0B3E03B125CC076
:105460000E944D432B013C0120E030E040EA51E432
:105470000E9433E187FF49C0A3019201F8016081D6
:105480007181828193810E9495E56B017C019B0172
:10549000AC016091641170916511809166119091D9
:1054A00067110E9469DD60936411709365118093A8
:1054B000661190936711A7019601D5016D917D91B9
:1054C0008D919C910E9469DDF501608371838283D7
:1054D0009383CE5DDE4FA881B981C252D1406D91D8
:1054E0007D918D919C910E9437E1A70196010E94C8
:1054F00069DD0E9403E6CE5DDE4FE881F981C2528C
:10550000D1406083718382839383D8014D925D92F1
:105510006D927C92139707C00E944D43F8016083FF
:1055200071838283938333940C5F1F4FF4E0AF0E3B
:10553000B11CCE5DDE4F28813981C252D1402C5F33
:105540003F4FCE5DDE4F39832883C252D14034E0D5
:1055500033127BCF0C94643C9091C00095FFFCCF3C
:105560008093C600319684918111F6CF0C94643CEF
:105570000091B0051091B1050B5F1F4F6AE270E01A
:10558000C8010E9495E8009711F0DC011C92C80147
:105590000E9444C60C94643CE3E0F6E084918823C6
:1055A00041F09091C00095FFFCCF8093C6003196EA
:1055B000F5CF60916710709168108091691090919B
:1055C0006A1042E00E945578EFEFF5E0849188235D
:1055D00041F09091C00095FFFCCF8093C6003196BA
:1055E000F5CF60916B1070916C1080916D1090915F
:1055F0006E1042E00E945578EBEFF5E0849188232D
:1056000041F09091C00095FFFCCF8093C600319689
:10561000F5CF60916F107091701080917110909122
:10562000721042E00E945578E7EFF5E084918823FC
:1056300041F09091C00095FFFCCF8093C600319659
:10564000F5CF6091731070917410809175109091E6
:10565000761042E00E945578ECEEF5E084918823C4
:1056600041F09091C00095FFFCCF8093C600319629
:10567000F5CF2FB7F8946091571070915810809122
:10568000591090915A102FBF0E9439E120919B1020
:1056900030919C1040919D1050919E100E9495E574
:1056A00042E00E945578E8EEF5E08491882341F0CD
:1056B0009091C00095FFFCCF8093C6003196F5CF46
:1056C0002FB7F89460915B1070915C1080915D1021
:1056D00090915E102FBF0E9439E120919F10309170
:1056E000A0104091A1105091A2100E9495E542E0B7
:1056F0000E945578E4EEF5E08491882341F0909182
:10570000C00095FFFCCF8093C6003196F5CF2FB730
:10571000F89460915F107091601080916110909189
:1057200062102FBF0E9439E12091A3103091A41084
:105730004091A5105091A6100E9495E542E00E946C
:1057400055788091C00085FFFCCF8AE08093C60029
:105750000C94643C81E080930D020C94643C909125
:10576000C00095FFFCCF8093C60081918111F7CFD7
:105770008091C00085FFFCCF8AE08093C600ECEDED
:10578000F5E08491882341F09091C00095FFFCCF13
:105790008093C6003196F5CF659B03C0E8E9F3E03E
:1057A00009C0EDE9F3E006C09091C00095FFFCCF81
:1057B0008093C60081918111F7CF8091C00085FF51
:1057C000FCCF8AE08093C600E4EDF5E08491882365
:1057D00041F09091C00095FFFCCF8093C6003196B8
:1057E000F5CF8091030181FF03C0E8E9F3E009C030
:1057F000EDE9F3E006C09091C00095FFFCCF8093E7
:10580000C60081918111F7CF8091C00085FFFCCF48
:105810008AE08093C600ECECF5E08491882341F0A7
:105820009091C00095FFFCCF8093C6003196F5CFD4
:105830004B9B03C0E8E9F3E009C0EDE9F3E006C0E3
:105840009091C00095FFFCCF8093C600819181119B
:10585000F7CF8091C00085FFFCCF8AE08093C6001F
:10586000E4ECF5E08491882341F09091C00095FF2D
:10587000FCCF8093C6003196F5CF4A9B03C0E8E980
:10588000F3E009C0EDE9F3E006C09091C00095FF98
:10589000FCCF8093C60081918111F7CF8091C00029
:1058A00085FFFCCF8AE08093C6000C94643C82E5BF
:1058B0000E942743882331F00E944D430E9403E653
:1058C000162F01C010E085E50E942743882331F0A0
:1058D0000E944D430E9403E6F62E01C0F12C82E4A3
:1058E0000E942743882331F00E944D430E9403E623
:1058F000E62E01C0E12C80E50E942743882331F089
:105900000E944D430E9403E6D62E02C0A3E0DA2E89
:1059100083E40E942743882329F00E944D430E947C
:1059200003E601C060E0062F2D2D4E2D6F2D812F37
:105930000E94634D0C94643C83E50E9427438823B6
:1059400031F00E944D430E9403E6862F01C080E0A3
:105950000E94D54C0C94643C83E50E942743882325
:1059600029F00E944D430E9403E601C061E084E0FB
:10597000CC59DE4F6883C456D1400E94C47784E07E
:1059800090E00E946277CC59DE4F6881C456D140C6
:105990008AE19DE00E9438580E9467770C94643C2D
:1059A00086E40E942743882331F00E944D430E94E1
:1059B00003E6D62E01C0D12C84E50E94274388231C
:1059C00031F00E944D430E9403E6E62E01C0E12C17
:1059D00082E50E942743882331F00E944D430E94B4
:1059E00003E6F62E01C0F12C85E50E9427438823AB
:1059F00031F00E944D430E9403E6062F01C000E0F3
:105A000082E40E942743882331F00E944D430E9484
:105A100003E6162F01C010E084E00E94C47783E003
:105A200090E00E94627783E090E00E9462776D2DA3
:105A30008AE19DE00E9438586E2D8AE19DE00E9427
:105A400038586F2D8AE19DE00E943858602F8AE116
:105A50009DE00E943858612F8AE19DE00E943858ED
:105A60000E94677740914E0260914D0280914C02F6
:105A70000E94334D0C94643C86E40E9427438823A3
:105A800031F00E944D430E9403E6062F01C000E062
:105A900084E50E942743882331F00E944D430E94F1
:105AA00003E6162F01C010E084E00E94C47783E073
:105AB00090E00E94627784E090E00E946277602F1D
:105AC0008AE19DE00E943858612F8AE19DE00E94A2
:105AD00038580E9467770C94643C84E40E94274302
